{
	"data": {
		"bytecode": {
			"linkReferences": {},
			"object": "60806040525f601055348015610013575f5ffd5b506040518060400160405280600e81526020017f50657069746f2047656e657369730000000000000000000000000000000000008152506040518060400160405280600381526020017f50455000000000000000000000000000000000000000000000000000000000008152503360025f84848484815f73ffffffffffffffffffffffffffffffffffffffff168173ffffffffffffffffffffffffffffffffffffffff16036100ee576040517f1ad8836c00000000000000000000000000000000000000000000000000000000815260040160405180910390fd5b6100fd8161046660201b60201c565b506101657feafec4d89fa9619884b60000a4d96624a38f7ac2d8d9a604ecf07c12c77e480c5f1b6040518060400160405280600481526020017fa4d966240000000000000000000000000000000000000000000000000000000081525061056360201b60201c565b6101977fdeba1e292f8ba88238e10ab3c7f88bd4be4fac56cad5194b6ecceaf653468af15f1b8561056360201b60201c565b6101c97f2f0a68ab07768e01943a599e73362a0e17a63a72e94dd2e384d2c1d4db9327565f1b8461056360201b60201c565b61021a7fe0261fa95db2eb3b5439bd033cda66d56b96f92f243a8228fd87550ed7bdfdb35f1b826040516020016102009190610814565b60405160208183030381529060405261056360201b60201c565b5050505061026f7ff675e9361af1c1664c1868cfa3eb97672d6b1a513aa5b81dec34c9ee330e818d5f1b826040516020016102559190610814565b6040516020818303038152906040526105be60201b60201c565b505050505060405180610580016040528061054581526020016165956105459139600f908161029e9190610a61565b50671a5e27eef13e000060086040516102b690610b84565b908152602001604051809103902081905550671d4839d21c13000060086040516102df90610be2565b9081526020016040518091039020819055506028600e5f6101000a81548160ff021916908360ff160217905550604051806060016040528073d64deb40240209473f676945c2ed2bfa2cef2b7d73ffffffffffffffffffffffffffffffffffffffff1673ffffffffffffffffffffffffffffffffffffffff1681526020017341be92e41b9d8e320330bad6607168adb833fcd573ffffffffffffffffffffffffffffffffffffffff1673ffffffffffffffffffffffffffffffffffffffff168152602001730d5c8b7cc12ed8486e1e0147cc0c3395739f138d73ffffffffffffffffffffffffffffffffffffffff1673ffffffffffffffffffffffffffffffffffffffff16815250600a9060036103f7929190610765565b5073c99be60cc96631e9bef68b7c68fb7124e62f3edf60095f6101000a81548173ffffffffffffffffffffffffffffffffffffffff021916908373ffffffffffffffffffffffffffffffffffffffff160217905550620151804261045b9190610c23565b600d81905550610db5565b6104746105d260201b60201c565b73ffffffffffffffffffffffffffffffffffffffff168173ffffffffffffffffffffffffffffffffffffffff1614610560578073ffffffffffffffffffffffffffffffffffffffff165f5f9054906101000a900473ffffffffffffffffffffffffffffffffffffffff1673ffffffffffffffffffffffffffffffffffffffff167f8be0079c531659141344cd1fd0a4f28419497f9722a3daafe3b4186f6b6457e060405160405180910390a3805f5f6101000a81548173ffffffffffffffffffffffffffffffffffffffff021916908373ffffffffffffffffffffffffffffffffffffffff1602179055505b50565b8060015f8481526020019081526020015f2090816105819190610c60565b50817fece574603820d07bc9b91f2a932baadf4628aabcb8afba49776529c14a6104b2826040516105b29190610d95565b60405180910390a25050565b6105ce82826105f960201b60201c565b5050565b5f5f5f9054906101000a900473ffffffffffffffffffffffffffffffffffffffff16905090565b7fdeba1e292f8ba88238e10ab3c7f88bd4be4fac56cad5194b6ecceaf653468af15f1b8203610654576040517f85c169bd00000000000000000000000000000000000000000000000000000000815260040160405180910390fd5b7f2f0a68ab07768e01943a599e73362a0e17a63a72e94dd2e384d2c1d4db9327565f1b82036106af576040517f76755b3800000000000000000000000000000000000000000000000000000000815260040160405180910390fd5b7fe0261fa95db2eb3b5439bd033cda66d56b96f92f243a8228fd87550ed7bdfdb35f1b820361070a576040517f4ef6d7fb00000000000000000000000000000000000000000000000000000000815260040160405180910390fd5b8060015f8481526020019081526020015f2090816107289190610c60565b50817fece574603820d07bc9b91f2a932baadf4628aabcb8afba49776529c14a6104b2826040516107599190610d95565b60405180910390a25050565b82600381019282156107d0579160200282015b828111156107cf578251825f6101000a81548173ffffffffffffffffffffffffffffffffffffffff021916908373ffffffffffffffffffffffffffffffffffffffff16021790555091602001919060010190610778565b5b5090506107dd91906107e1565b5090565b5b808211156107f8575f815f9055506001016107e2565b5090565b5f819050919050565b61080e816107fc565b82525050565b5f6020820190506108275f830184610805565b92915050565b5f81519050919050565b7f4e487b71000000000000000000000000000000000000000000000000000000005f52604160045260245ffd5b7f4e487b71000000000000000000000000000000000000000000000000000000005f52602260045260245ffd5b5f60028204905060018216806108a857607f821691505b6020821081036108bb576108ba610864565b5b50919050565b5f819050815f5260205f209050919050565b5f6020601f8301049050919050565b5f82821b905092915050565b5f6008830261091d7fffffffffffffffffffffffffffffffffffffffffffffffffffffffffffffffff826108e2565b61092786836108e2565b95508019841693508086168417925050509392505050565b5f819050919050565b5f61096261095d610958846107fc565b61093f565b6107fc565b9050919050565b5f819050919050565b61097b83610948565b61098f61098782610969565b8484546108ee565b825550505050565b5f5f905090565b6109a6610997565b6109b1818484610972565b505050565b5b818110156109d4576109c95f8261099e565b6001810190506109b7565b5050565b601f821115610a19576109ea816108c1565b6109f3846108d3565b81016020851015610a02578190505b610a16610a0e856108d3565b8301826109b6565b50505b505050565b5f82821c905092915050565b5f610a395f1984600802610a1e565b1980831691505092915050565b5f610a518383610a2a565b9150826002028217905092915050565b610a6a8261082d565b67ffffffffffffffff811115610a8357610a82610837565b5b610a8d8254610891565b610a988282856109d8565b5f60209050601f831160018114610ac9575f8415610ab7578287015190505b610ac18582610a46565b865550610b28565b601f198416610ad7866108c1565b5f5b82811015610afe57848901518255600182019150602085019450602081019050610ad9565b86831015610b1b5784890151610b17601f891682610a2a565b8355505b6001600288020188555050505b505050505050565b5f81905092915050565b7f636f756e63696c5f6d696e7400000000000000000000000000000000000000005f82015250565b5f610b6e600c83610b30565b9150610b7982610b3a565b600c82019050919050565b5f610b8e82610b62565b9150819050919050565b7f7075626c69635f6d696e740000000000000000000000000000000000000000005f82015250565b5f610bcc600b83610b30565b9150610bd782610b98565b600b82019050919050565b5f610bec82610bc0565b9150819050919050565b7f4e487b71000000000000000000000000000000000000000000000000000000005f52601160045260245ffd5b5f610c2d826107fc565b9150610c38836107fc565b9250828201905080821115610c5057610c4f610bf6565b5b92915050565b5f81519050919050565b610c6982610c56565b67ffffffffffffffff811115610c8257610c81610837565b5b610c8c8254610891565b610c978282856109d8565b5f60209050601f831160018114610cc8575f8415610cb6578287015190505b610cc08582610a46565b865550610d27565b601f198416610cd6866108c1565b5f5b82811015610cfd57848901518255600182019150602085019450602081019050610cd8565b86831015610d1a5784890151610d16601f891682610a2a565b8355505b6001600288020188555050505b505050505050565b5f82825260208201905092915050565b8281835e5f83830152505050565b5f601f19601f8301169050919050565b5f610d6782610c56565b610d718185610d2f565b9350610d81818560208601610d3f565b610d8a81610d4d565b840191505092915050565b5f6020820190508181035f830152610dad8184610d5d565b905092915050565b6157d380610dc25f395ff3fe608060405260043610610228575f3560e01c80637a5b4f5911610122578063a37b06d4116100aa578063d6c1407c1161006e578063d6c1407c14610904578063db8c96631461092c578063dedff9c614610954578063f2fde38b14610990578063fe2c6198146109b8576102a1565b8063a37b06d414610810578063a3b261f21461084c578063a533691914610888578063b69a6fd6146108b2578063be9f0e6f146108dc576102a1565b806386a10ddd116100f157806386a10ddd1461075a5780638994bdcf146107825780638da5cb5b146107ac57806393bc47f0146107d657806397902421146107f4576102a1565b80637a5b4f59146106c25780637e87632c146106ec5780637f23690c1461071457806384c4bd4b14610730576102a1565b80632a3654a4116101b057806354f6127f1161017457806354f6127f146105d057806356a6d9ef1461060c5780636963d4381461063457806370a0823114610670578063715018a6146106ac576102a1565b80632a3654a4146104f057806332cb6b0c1461052c5780633ccfd60b1461055657806349a6078d1461056c578063511b6952146105a8576102a1565b806316e023b3116101f757806316e023b3146103d657806318160ddd14610412578063197ebd531461043c5780631d26fce614610478578063217b2270146104b4576102a1565b806301ffc9a7146103075780630d2546071461034357806312065fe01461036d57806316685e5814610397576102a1565b366102a1575f340361026f576040517fe5099ee300000000000000000000000000000000000000000000000000000000815260040161026690613685565b60405180910390fd5b6040517f61f4944200000000000000000000000000000000000000000000000000000000815260040160405180910390fd5b5f36606060045f36905010156102f05782826040517fe5099ee30000000000000000000000000000000000000000000000000000000081526004016102e79291906136ed565b60405180910390fd5b6102fa83836109f4565b9050915050805190602001f35b348015610312575f5ffd5b5061032d60048036038101906103289190613775565b610b6a565b60405161033a91906137ba565b60405180910390f35b34801561034e575f5ffd5b50610357610bda565b60405161036491906137eb565b60405180910390f35b348015610378575f5ffd5b50610381610be0565b60405161038e91906137eb565b60405180910390f35b3480156103a2575f5ffd5b506103bd60048036038101906103b8919061382e565b610bef565b6040516103cd9493929190613910565b60405180910390f35b3480156103e1575f5ffd5b506103fc60048036038101906103f79190613984565b610ccf565b6040516104099190613a04565b60405180910390f35b34801561041d575f5ffd5b50610426610ce3565b60405161043391906137eb565b60405180910390f35b348015610447575f5ffd5b50610462600480360381019061045d919061382e565b610cec565b60405161046f9190613a24565b60405180910390f35b348015610483575f5ffd5b5061049e60048036038101906104999190613b7d565b610d20565b6040516104ab9190613cf6565b60405180910390f35b3480156104bf575f5ffd5b506104da60048036038101906104d59190613d16565b610e27565b6040516104e79190613a24565b60405180910390f35b3480156104fb575f5ffd5b5061051660048036038101906105119190613d6b565b610ed5565b60405161052391906137ba565b60405180910390f35b348015610537575f5ffd5b50610540610ee8565b60405161054d91906137eb565b60405180910390f35b348015610561575f5ffd5b5061056a610eee565b005b348015610577575f5ffd5b50610592600480360381019061058d9190613d16565b610fad565b60405161059f9190613e60565b60405180910390f35b3480156105b3575f5ffd5b506105ce60048036038101906105c99190613f4c565b610fd8565b005b3480156105db575f5ffd5b506105f660048036038101906105f19190613d16565b611039565b6040516106039190613a04565b60405180910390f35b348015610617575f5ffd5b50610632600480360381019061062d919061401a565b61104b565b005b34801561063f575f5ffd5b5061065a600480360381019061065591906140b1565b611100565b6040516106679190613cf6565b60405180910390f35b34801561067b575f5ffd5b50610696600480360381019061069191906140fc565b611276565b6040516106a391906137eb565b60405180910390f35b3480156106b7575f5ffd5b506106c06112c3565b005b3480156106cd575f5ffd5b506106d66112d6565b6040516106e39190613a04565b60405180910390f35b3480156106f7575f5ffd5b50610712600480360381019061070d9190614385565b6113c9565b005b61072e60048036038101906107299190614488565b6114db565b005b34801561073b575f5ffd5b5061074461152a565b60405161075191906137eb565b60405180910390f35b348015610765575f5ffd5b50610780600480360381019061077b91906144e2565b611535565b005b34801561078d575f5ffd5b5061079661178b565b6040516107a391906137eb565b60405180910390f35b3480156107b7575f5ffd5b506107c0611791565b6040516107cd9190613a24565b60405180910390f35b6107de6117b8565b6040516107eb9190614605565b60405180910390f35b61080e60048036038101906108099190614625565b611826565b005b34801561081b575f5ffd5b506108366004803603810190610831919061469b565b611938565b60405161084391906137eb565b60405180910390f35b348015610857575f5ffd5b50610872600480360381019061086d91906140fc565b611971565b60405161087f9190614605565b60405180910390f35b348015610893575f5ffd5b5061089c6119bf565b6040516108a99190613a24565b60405180910390f35b3480156108bd575f5ffd5b506108c66119e4565b6040516108d39190613a04565b60405180910390f35b3480156108e7575f5ffd5b5061090260048036038101906108fd91906146d9565b611a70565b005b34801561090f575f5ffd5b5061092a6004803603810190610925919061477d565b611b71565b005b348015610937575f5ffd5b50610952600480360381019061094d91906147e9565b611b89565b005b34801561095f575f5ffd5b5061097a60048036038101906109759190614869565b611d56565b6040516109879190613cf6565b60405180910390f35b34801561099b575f5ffd5b506109b660048036038101906109b191906140fc565b611e09565b005b3480156109c3575f5ffd5b506109de60048036038101906109d9919061494e565b611e82565b6040516109eb91906137eb565b60405180910390f35b60605f610a235f357fffffffff0000000000000000000000000000000000000000000000000000000016611eaf565b5090505f73ffffffffffffffffffffffffffffffffffffffff168173ffffffffffffffffffffffffffffffffffffffff1603610ab9575f357fffffffff00000000000000000000000000000000000000000000000000000000166040517fbb370b2b000000000000000000000000000000000000000000000000000000008152600401610ab091906149a4565b60405180910390fd5b5f5f8273ffffffffffffffffffffffffffffffffffffffff163487873334604051602001610aea9493929190614a50565b604051602081830303815290604052604051610b069190614aba565b5f6040518083038185875af1925050503d805f8114610b40576040519150601f19603f3d011682016040523d82523d5f602084013e610b45565b606091505b50915091508115610b5b57809350505050610b64565b80518060208301fd5b92915050565b5f633a27170660e01b7bffffffffffffffffffffffffffffffffffffffffffffffffffffffff1916827bffffffffffffffffffffffffffffffffffffffffffffffffffffffff19161480610bc35750610bc282611f65565b5b80610bd35750610bd282611fc5565b5b9050919050565b600d5481565b5f610be9612029565b47905090565b60118181548110610bfe575f80fd5b905f5260205f2090600402015f91509050805f015f9054906101000a900473ffffffffffffffffffffffffffffffffffffffff1690806001015490806002015490806003018054610c4e90614afd565b80601f0160208091040260200160405190810160405280929190818152602001828054610c7a90614afd565b8015610cc55780601f10610c9c57610100808354040283529160200191610cc5565b820191905f5260205f20905b815481529060010190602001808311610ca857829003601f168201915b5050505050905084565b6060610cdb83836120a2565b905092915050565b5f600254905090565b600a8160038110610cfb575f80fd5b015f915054906101000a900473ffffffffffffffffffffffffffffffffffffffff1681565b60608151835114610d5d576040517f2fa71dfe00000000000000000000000000000000000000000000000000000000815260040160405180910390fd5b825167ffffffffffffffff811115610d7857610d77613a41565b5b604051908082528060200260200182016040528015610dab57816020015b6060815260200190600190039081610d965790505b5090505f5b8351811015610e2057610df7848281518110610dcf57610dce614b2d565b5b6020026020010151848381518110610dea57610de9614b2d565b5b60200260200101516120a2565b828281518110610e0a57610e09614b2d565b5b6020026020010181905250806001019050610db0565b5092915050565b5f5f60035f8481526020019081526020015f205f9054906101000a900473ffffffffffffffffffffffffffffffffffffffff1690505f73ffffffffffffffffffffffffffffffffffffffff168173ffffffffffffffffffffffffffffffffffffffff1603610ecc57826040517fae8f9a36000000000000000000000000000000000000000000000000000000008152600401610ec39190614b5a565b60405180910390fd5b80915050919050565b5f610ee08383612153565b905092915050565b61097881565b610ef6612029565b5f4790505f610f03611791565b73ffffffffffffffffffffffffffffffffffffffff1682604051610f2690614b96565b5f6040518083038185875af1925050503d805f8114610f60576040519150601f19603f3d011682016040523d82523d5f602084013e610f65565b606091505b5050905080610fa9576040517f08c379a0000000000000000000000000000000000000000000000000000000008152600401610fa090614bf4565b60405180910390fd5b5050565b6060610fb8826121bd565b610fd160055f8481526020019081526020015f2061220a565b9050919050565b610fe23384612153565b6110255782336040517f1294d2a900000000000000000000000000000000000000000000000000000000815260040161101c929190614c12565b60405180910390fd5b6110328585858585612229565b5050505050565b606061104482612553565b9050919050565b611053612029565b5f8273ffffffffffffffffffffffffffffffffffffffff168260405161107890614b96565b5f6040518083038185875af1925050503d805f81146110b2576040519150601f19603f3d011682016040523d82523d5f602084013e6110b7565b606091505b50509050806110fb576040517f08c379a00000000000000000000000000000000000000000000000000000000081526004016110f290614bf4565b60405180910390fd5b505050565b60608282905067ffffffffffffffff81111561111f5761111e613a41565b5b60405190808252806020026020018201604052801561115257816020015b606081526020019060019003908161113d5790505b5090505f5b8383905081101561126f575f5f3073ffffffffffffffffffffffffffffffffffffffff1686868581811061118e5761118d614b2d565b5b90506020028101906111a09190614c45565b6040516111ae929190614ca7565b5f60405180830381855af49150503d805f81146111e6576040519150601f19603f3d011682016040523d82523d5f602084013e6111eb565b606091505b509150915081611243575f8151146112065780518082602001fd5b826040517f234eb81900000000000000000000000000000000000000000000000000000000815260040161123a91906137eb565b60405180910390fd5b8084848151811061125757611256614b2d565b5b60200260200101819052508260010192505050611157565b5092915050565b5f6112bc60045f8473ffffffffffffffffffffffffffffffffffffffff1673ffffffffffffffffffffffffffffffffffffffff1681526020019081526020015f206125f4565b9050919050565b6112cb612029565b6112d45f612607565b565b60605f600f6040516112e89190614d51565b6040518091039020611381600f805461130090614afd565b80601f016020809104026020016040519081016040528092919081815260200182805461132c90614afd565b80156113775780601f1061134e57610100808354040283529160200191611377565b820191905f5260205f20905b81548152906001019060200180831161135a57829003601f168201915b50505050506126fe565b6040516020016113919190614deb565b6040516020818303038152906040526040516020016113b1929190614e50565b60405160208183030381529060405290508091505090565b5f855190508451811415806113df575083518114155b806113eb575082518114155b806113f7575081518114155b1561142e576040517f93a8311900000000000000000000000000000000000000000000000000000000815260040160405180910390fd5b5f5b818110156114d2576114c787828151811061144e5761144d614b2d565b5b602002602001015187838151811061146957611468614b2d565b5b602002602001015187848151811061148457611483614b2d565b5b602002602001015187858151811061149f5761149e614b2d565b5b60200260200101518786815181106114ba576114b9614b2d565b5b6020026020010151610fd8565b806001019050611430565b50505050505050565b6114e3612029565b5f341461151c576040517ff36ba73700000000000000000000000000000000000000000000000000000000815260040160405180910390fd5b611526828261286b565b5050565b6007805f0154905081565b5f61153f83610e27565b90503373ffffffffffffffffffffffffffffffffffffffff168173ffffffffffffffffffffffffffffffffffffffff16146115b5578083336040517f5b271ea20000000000000000000000000000000000000000000000000000000081526004016115ac93929190614e86565b60405180910390fd5b5f73ffffffffffffffffffffffffffffffffffffffff168473ffffffffffffffffffffffffffffffffffffffff160361161a576040517f9577b8b300000000000000000000000000000000000000000000000000000000815260040160405180910390fd5b8373ffffffffffffffffffffffffffffffffffffffff168173ffffffffffffffffffffffffffffffffffffffff160361167f576040517f89fdad6200000000000000000000000000000000000000000000000000000000815260040160405180910390fd5b5f6116a38560055f8781526020019081526020015f206128d490919063ffffffff16565b9050806116e95784846040517fa7626b680000000000000000000000000000000000000000000000000000000081526004016116e0929190614ebb565b60405180910390fd5b838273ffffffffffffffffffffffffffffffffffffffff168673ffffffffffffffffffffffffffffffffffffffff167f1b1b58aa2ec0cec2228b2d37124556d41f5a1f7b12f089171f896cc236671215866040516117479190613a04565b60405180910390a45f33856001866040516020016117689493929190614ee2565b60405160208183030381529060405290506117838682612901565b505050505050565b60105481565b5f5f5f9054906101000a900473ffffffffffffffffffffffffffffffffffffffff16905090565b60606117c46007612932565b5f6117cf6007612946565b5f1b90506117ee3382600160405180602001604052805f815250612952565b611822817f9afb95cacc9f95858ec44aa8c3b685511002e30ae54415823f406128b85b238e5f1b61181d6112d6565b612bc0565b5090565b61182e612029565b5f3414611867576040517ff36ba73700000000000000000000000000000000000000000000000000000000815260040160405180910390fd5b80518251146118a2576040517f3bcc897900000000000000000000000000000000000000000000000000000000815260040160405180910390fd5b5f8251036118dc576040517f97da5f9500000000000000000000000000000000000000000000000000000000815260040160405180910390fd5b5f5f90505b825181101561193357611928838281518110611900576118ff614b2d565b5b602002602001015183838151811061191b5761191a614b2d565b5b602002602001015161286b565b8060010190506118e1565b505050565b5f606482846119479190614f59565b1015611951575f5ffd5b6064828461195f9190614f59565b6119699190614fc7565b905092915050565b60606119b860045f8473ffffffffffffffffffffffffffffffffffffffff1673ffffffffffffffffffffffffffffffffffffffff1681526020019081526020015f20612c2c565b9050919050565b60095f9054906101000a900473ffffffffffffffffffffffffffffffffffffffff1681565b600f80546119f190614afd565b80601f0160208091040260200160405190810160405280929190818152602001828054611a1d90614afd565b8015611a685780601f10611a3f57610100808354040283529160200191611a68565b820191905f5260205f20905b815481529060010190602001808311611a4b57829003601f168201915b505050505081565b611a78612029565b81518351141580611a8b57508051825114155b15611ac2576040517f2fa71dfe00000000000000000000000000000000000000000000000000000000815260040160405180910390fd5b5f835103611afc576040517f80c9830500000000000000000000000000000000000000000000000000000000815260040160405180910390fd5b5f5b8351811015611b6b57611b60848281518110611b1d57611b1c614b2d565b5b6020026020010151848381518110611b3857611b37614b2d565b5b6020026020010151848481518110611b5357611b52614b2d565b5b6020026020010151612bc0565b806001019050611afe565b50505050565b611b79612029565b611b84838383612bc0565b505050565b5f611b9384610e27565b90508073ffffffffffffffffffffffffffffffffffffffff163373ffffffffffffffffffffffffffffffffffffffff1614611c3d573373ffffffffffffffffffffffffffffffffffffffff168573ffffffffffffffffffffffffffffffffffffffff1614611c3c573381856040517f760b5acd000000000000000000000000000000000000000000000000000000008152600401611c3393929190614ff7565b60405180910390fd5b5b5f73ffffffffffffffffffffffffffffffffffffffff168573ffffffffffffffffffffffffffffffffffffffff1603611ca2576040517f9577b8b300000000000000000000000000000000000000000000000000000000815260040160405180910390fd5b8473ffffffffffffffffffffffffffffffffffffffff168173ffffffffffffffffffffffffffffffffffffffff1603611d07576040517f89fdad6200000000000000000000000000000000000000000000000000000000815260040160405180910390fd5b611d148582868686612c4b565b8215611d4f575f81855f85604051602001611d329493929190614ee2565b6040516020818303038152906040529050611d4d8682612901565b505b5050505050565b6060815167ffffffffffffffff811115611d7357611d72613a41565b5b604051908082528060200260200182016040528015611da657816020015b6060815260200190600190039081611d915790505b5090505f5f90505b8251811015611e0357611dda838281518110611dcd57611dcc614b2d565b5b6020026020010151612553565b828281518110611ded57611dec614b2d565b5b6020026020010181905250806001019050611dae565b50919050565b611e11612029565b5f73ffffffffffffffffffffffffffffffffffffffff168173ffffffffffffffffffffffffffffffffffffffff1603611e76576040517f1ad8836c00000000000000000000000000000000000000000000000000000000815260040160405180910390fd5b611e7f81612607565b50565b6008818051602081018201805184825260208301602085012081835280955050505050505f915090505481565b5f5f5f611ee869cee78b4094da8601109660b01b857bffffffffffffffffffffffffffffffffffffffffffffffffffffffff1916612d25565b90505f611ef482612553565b90506014815114158015611f0957505f815114155b15611f4b57806040517f42bfe79f000000000000000000000000000000000000000000000000000000008152600401611f429190613a04565b60405180910390fd5b80611f5590615086565b60601c6001935093505050915091565b5f63a918fa6b60e01b7bffffffffffffffffffffffffffffffffffffffffffffffffffffffff1916827bffffffffffffffffffffffffffffffffffffffffffffffffffffffff19161480611fbe5750611fbd82612d63565b5b9050919050565b5f5f611fd76301ffc9a760e01b611eaf565b5090505f73ffffffffffffffffffffffffffffffffffffffff168173ffffffffffffffffffffffffffffffffffffffff1603612016575f915050612024565b6120208184612e2c565b9150505b919050565b3373ffffffffffffffffffffffffffffffffffffffff16612048611791565b73ffffffffffffffffffffffffffffffffffffffff16146120a057336040517fbf1169c50000000000000000000000000000000000000000000000000000000081526004016120979190613a24565b60405180910390fd5b565b606060065f8481526020019081526020015f205f8381526020019081526020015f2080546120cf90614afd565b80601f01602080910402602001604051908101604052809291908181526020018280546120fb90614afd565b80156121465780601f1061211d57610100808354040283529160200191612146565b820191905f5260205f20905b81548152906001019060200180831161212957829003601f168201915b5050505050905092915050565b5f61215d82610e27565b73ffffffffffffffffffffffffffffffffffffffff168373ffffffffffffffffffffffffffffffffffffffff1614806121b557506121b48360055f8581526020019081526020015f20612ee590919063ffffffff16565b5b905092915050565b6121c681612f12565b61220757806040517fae8f9a360000000000000000000000000000000000000000000000000000000081526004016121fe9190614b5a565b60405180910390fd5b50565b60605f612218835f01612f7a565b905060608190508092505050919050565b5f61223384610e27565b90508573ffffffffffffffffffffffffffffffffffffffff168173ffffffffffffffffffffffffffffffffffffffff16146122a9578084876040517f5b271ea20000000000000000000000000000000000000000000000000000000081526004016122a093929190614e86565b60405180910390fd5b5f73ffffffffffffffffffffffffffffffffffffffff168573ffffffffffffffffffffffffffffffffffffffff160361230e576040517f24ecef4d00000000000000000000000000000000000000000000000000000000815260040160405180910390fd5b61231a86868685612fd3565b5f61232485610e27565b90508073ffffffffffffffffffffffffffffffffffffffff168273ffffffffffffffffffffffffffffffffffffffff161461239a578482826040517f5a9c31d3000000000000000000000000000000000000000000000000000000008152600401612391939291906150ec565b60405180910390fd5b6123a48786612fd9565b6123f38560045f8a73ffffffffffffffffffffffffffffffffffffffff1673ffffffffffffffffffffffffffffffffffffffff1681526020019081526020015f2061304790919063ffffffff16565b506124438560045f8973ffffffffffffffffffffffffffffffffffffffff1673ffffffffffffffffffffffffffffffffffffffff1681526020019081526020015f2061305c90919063ffffffff16565b508560035f8781526020019081526020015f205f6101000a81548173ffffffffffffffffffffffffffffffffffffffff021916908373ffffffffffffffffffffffffffffffffffffffff160217905550848673ffffffffffffffffffffffffffffffffffffffff168873ffffffffffffffffffffffffffffffffffffffff167fb333c813a7426a7a11e2b190cad52c44119421594b47f6f32ace6d8c7207b2bf3388886040516124f593929190615121565b60405180910390a461250987878786613071565b5f338888888760405160200161252395949392919061515d565b604051602081830303815290604052905061253e8882613077565b6125498786836130a8565b5050505050505050565b606060015f8381526020019081526020015f20805461257190614afd565b80601f016020809104026020016040519081016040528092919081815260200182805461259d90614afd565b80156125e85780601f106125bf576101008083540402835291602001916125e8565b820191905f5260205f20905b8154815290600101906020018083116125cb57829003601f168201915b50505050509050919050565b5f612600825f01613207565b9050919050565b61260f611791565b73ffffffffffffffffffffffffffffffffffffffff168173ffffffffffffffffffffffffffffffffffffffff16146126fb578073ffffffffffffffffffffffffffffffffffffffff165f5f9054906101000a900473ffffffffffffffffffffffffffffffffffffffff1673ffffffffffffffffffffffffffffffffffffffff167f8be0079c531659141344cd1fd0a4f28419497f9722a3daafe3b4186f6b6457e060405160405180910390a3805f5f6101000a81548173ffffffffffffffffffffffffffffffffffffffff021916908373ffffffffffffffffffffffffffffffffffffffff1602179055505b50565b60605f82510361271e5760405180602001604052805f8152509050612866565b5f60405180606001604052806040815260200161575e6040913990505f60036002855161274b91906151b5565b6127559190614fc7565b60046127619190614f59565b67ffffffffffffffff81111561277a57612779613a41565b5b6040519080825280601f01601f1916602001820160405280156127ac5781602001600182028036833780820191505090505b509050600182016020820185865187016020810180515f82525b82841015612821576003840193508351603f8160121c168701518653600186019550603f81600c1c168701518653600186019550603f8160061c168701518653600186019550603f81168701518653600186019550506127c6565b80825260038a51066001811461283e576002811461285157612859565b603d6001870353603d6002870353612859565b603d60018703535b5050505050505080925050505b919050565b7ff675e9361af1c1664c1868cfa3eb97672d6b1a513aa5b81dec34c9ee330e818d5f1b82036128c6576040517f3664800a00000000000000000000000000000000000000000000000000000000815260040160405180910390fd5b6128d08282613216565b5050565b5f6128f9835f018373ffffffffffffffffffffffffffffffffffffffff165f1b613224565b905092915050565b61292e827f8a1c15a8799f71b547e08e2bcb2e85257e81b0a07eee2ce6712549eef1f009705f1b8361328b565b5050565b6001815f015f828254019250508190555050565b5f815f01549050919050565b5f73ffffffffffffffffffffffffffffffffffffffff168473ffffffffffffffffffffffffffffffffffffffff16036129b7576040517f24ecef4d00000000000000000000000000000000000000000000000000000000815260040160405180910390fd5b6129c083612f12565b15612a0257826040517f34c7b5110000000000000000000000000000000000000000000000000000000081526004016129f99190614b5a565b60405180910390fd5b612a0e5f858584612fd3565b612a1783612f12565b15612a5957826040517f34c7b511000000000000000000000000000000000000000000000000000000008152600401612a509190614b5a565b60405180910390fd5b60025f8154612a67906151e8565b91905081905550612abd8360045f8773ffffffffffffffffffffffffffffffffffffffff1673ffffffffffffffffffffffffffffffffffffffff1681526020019081526020015f2061305c90919063ffffffff16565b508360035f8581526020019081526020015f205f6101000a81548173ffffffffffffffffffffffffffffffffffffffff021916908373ffffffffffffffffffffffffffffffffffffffff160217905550828473ffffffffffffffffffffffffffffffffffffffff165f73ffffffffffffffffffffffffffffffffffffffff167fb333c813a7426a7a11e2b190cad52c44119421594b47f6f32ace6d8c7207b2bf338686604051612b6f93929190615121565b60405180910390a4612b835f858584613071565b5f335f868685604051602001612b9d95949392919061515d565b6040516020818303038152906040529050612bb98584836130a8565b5050505050565b8060065f8581526020019081526020015f205f8481526020019081526020015f209081612bed91906153b1565b5081837fa6e4251f855f750545fe414f120db91c76b88def14d120969e5bb2d3f05debbb83604051612c1f9190613a04565b60405180910390a3505050565b60605f612c3a835f01612f7a565b905060608190508092505050919050565b5f612c6f8660055f8781526020019081526020015f2061334590919063ffffffff16565b905080612cb55785846040517f4aa31a8c000000000000000000000000000000000000000000000000000000008152600401612cac929190614ebb565b60405180910390fd5b838573ffffffffffffffffffffffffffffffffffffffff168773ffffffffffffffffffffffffffffffffffffffff167fc78cd419d6136f9f1c1c6aec1d3fae098cffaf8bc86314a8f2685e32fe574e3c8686604051612d15929190615480565b60405180910390a4505050505050565b5f5f835f60f01b84604051602001612d3f93929190615564565b604051602081830303815290604052905080612d5a906155b4565b91505092915050565b5f63629aa69460e01b7bffffffffffffffffffffffffffffffffffffffffffffffffffffffff1916827bffffffffffffffffffffffffffffffffffffffffffffffffffffffff19161480612dbc5750612dbb82612dc3565b5b9050919050565b5f7f01ffc9a7000000000000000000000000000000000000000000000000000000007bffffffffffffffffffffffffffffffffffffffffffffffffffffffff1916827bffffffffffffffffffffffffffffffffffffffffffffffffffffffff1916149050919050565b5f5f6301ffc9a760e01b83604051602401612e4791906149a4565b604051602081830303815290604052907bffffffffffffffffffffffffffffffffffffffffffffffffffffffff19166020820180517bffffffffffffffffffffffffffffffffffffffffffffffffffffffff838183161783525050505090505f5f5f60205f8551602087018a617530fa92503d91505f519050828015612ece575060208210155b8015612ed957505f81115b94505050505092915050565b5f612f0a835f018373ffffffffffffffffffffffffffffffffffffffff165f1b613372565b905092915050565b5f5f73ffffffffffffffffffffffffffffffffffffffff1660035f8481526020019081526020015f205f9054906101000a900473ffffffffffffffffffffffffffffffffffffffff1673ffffffffffffffffffffffffffffffffffffffff1614159050919050565b6060815f01805480602002602001604051908101604052809291908181526020018280548015612fc757602002820191905f5260205f20905b815481526020019060010190808311612fb3575b50505050509050919050565b50505050565b5f60055f8381526020019081526020015f2090505f612ff782613392565b90505f5f5b8281101561303f576130175f856133a590919063ffffffff16565b91506130348287875f60405180602001604052805f815250612c4b565b806001019050612ffc565b505050505050565b5f613054835f01836133bc565b905092915050565b5f613069835f0183613224565b905092915050565b50505050565b6130a4827fb23eae7e6d1564b295b4c3e3be402d9a2f0776c57bdf365903496f6fa481ab005f1b8361328b565b5050565b6130b983636bb56a1460e01b612e2c565b15613164578273ffffffffffffffffffffffffffffffffffffffff16636bb56a147f0b084a55ebf70fd3c06fd755269dac2212c4d3f0f4d09079780bfa50c1b2984d5f1b836040518363ffffffff1660e01b815260040161311b92919061561a565b5f604051808303815f875af1158015613136573d5f5f3e3d5ffd5b505050506040513d5f823e3d601f19601f8201168201806040525081019061315e91906156b6565b50613202565b81613201575f8373ffffffffffffffffffffffffffffffffffffffff163b146131c457826040517f4349776d0000000000000000000000000000000000000000000000000000000081526004016131bb9190613a24565b60405180910390fd5b826040517f031731370000000000000000000000000000000000000000000000000000000081526004016131f89190613a24565b60405180910390fd5b5b505050565b5f815f01805490509050919050565b61322082826134b8565b5050565b5f61322f8383613372565b61328157825f0182908060018154018082558091505060019003905f5260205f20015f9091909190915055825f0180549050836001015f8481526020019081526020015f208190555060019050613285565b5f90505b92915050565b6132bb636bb56a1460e01b8473ffffffffffffffffffffffffffffffffffffffff16612e2c90919063ffffffff16565b15613340578273ffffffffffffffffffffffffffffffffffffffff16636bb56a1483836040518363ffffffff1660e01b81526004016132fb92919061561a565b5f604051808303815f875af1158015613316573d5f5f3e3d5ffd5b505050506040513d5f823e3d601f19601f8201168201806040525081019061333e91906156b6565b505b505050565b5f61336a835f018373ffffffffffffffffffffffffffffffffffffffff165f1b6133bc565b905092915050565b5f5f836001015f8481526020019081526020015f20541415905092915050565b5f61339e825f01613207565b9050919050565b5f6133b2835f0183613624565b5f1c905092915050565b5f5f836001015f8481526020019081526020015f205490505f81146134ad575f6001826133e991906156fd565b90505f6001865f01805490506133ff91906156fd565b9050818114613465575f865f01828154811061341e5761341d614b2d565b5b905f5260205f200154905080875f01848154811061343f5761343e614b2d565b5b905f5260205f20018190555083876001015f8381526020019081526020015f2081905550505b855f0180548061347857613477615730565b5b600190038181905f5260205f20015f90559055856001015f8681526020019081526020015f205f9055600193505050506134b2565b5f9150505b92915050565b7fdeba1e292f8ba88238e10ab3c7f88bd4be4fac56cad5194b6ecceaf653468af15f1b8203613513576040517f85c169bd00000000000000000000000000000000000000000000000000000000815260040160405180910390fd5b7f2f0a68ab07768e01943a599e73362a0e17a63a72e94dd2e384d2c1d4db9327565f1b820361356e576040517f76755b3800000000000000000000000000000000000000000000000000000000815260040160405180910390fd5b7fe0261fa95db2eb3b5439bd033cda66d56b96f92f243a8228fd87550ed7bdfdb35f1b82036135c9576040517f4ef6d7fb00000000000000000000000000000000000000000000000000000000815260040160405180910390fd5b8060015f8481526020019081526020015f2090816135e791906153b1565b50817fece574603820d07bc9b91f2a932baadf4628aabcb8afba49776529c14a6104b2826040516136189190613a04565b60405180910390a25050565b5f825f01828154811061363a57613639614b2d565b5b905f5260205f200154905092915050565b5f82825260208201905092915050565b5f5f82015250565b5f61366f60048361364b565b915061367a8261365b565b602082019050919050565b5f6020820190508181035f83015261369c81613663565b9050919050565b828183375f83830152505050565b5f601f19601f8301169050919050565b5f6136cc838561364b565b93506136d98385846136a3565b6136e2836136b1565b840190509392505050565b5f6020820190508181035f8301526137068184866136c1565b90509392505050565b5f604051905090565b5f5ffd5b5f5ffd5b5f7fffffffff0000000000000000000000000000000000000000000000000000000082169050919050565b61375481613720565b811461375e575f5ffd5b50565b5f8135905061376f8161374b565b92915050565b5f6020828403121561378a57613789613718565b5b5f61379784828501613761565b91505092915050565b5f8115159050919050565b6137b4816137a0565b82525050565b5f6020820190506137cd5f8301846137ab565b92915050565b5f819050919050565b6137e5816137d3565b82525050565b5f6020820190506137fe5f8301846137dc565b92915050565b61380d816137d3565b8114613817575f5ffd5b50565b5f8135905061382881613804565b92915050565b5f6020828403121561384357613842613718565b5b5f6138508482850161381a565b91505092915050565b5f73ffffffffffffffffffffffffffffffffffffffff82169050919050565b5f61388282613859565b9050919050565b61389281613878565b82525050565b5f819050919050565b6138aa81613898565b82525050565b5f81519050919050565b5f82825260208201905092915050565b8281835e5f83830152505050565b5f6138e2826138b0565b6138ec81856138ba565b93506138fc8185602086016138ca565b613905816136b1565b840191505092915050565b5f6080820190506139235f830187613889565b61393060208301866138a1565b61393d60408301856137dc565b818103606083015261394f81846138d8565b905095945050505050565b61396381613898565b811461396d575f5ffd5b50565b5f8135905061397e8161395a565b92915050565b5f5f6040838503121561399a57613999613718565b5b5f6139a785828601613970565b92505060206139b885828601613970565b9150509250929050565b5f81519050919050565b5f6139d6826139c2565b6139e0818561364b565b93506139f08185602086016138ca565b6139f9816136b1565b840191505092915050565b5f6020820190508181035f830152613a1c81846139cc565b905092915050565b5f602082019050613a375f830184613889565b92915050565b5f5ffd5b7f4e487b71000000000000000000000000000000000000000000000000000000005f52604160045260245ffd5b613a77826136b1565b810181811067ffffffffffffffff82111715613a9657613a95613a41565b5b80604052505050565b5f613aa861370f565b9050613ab48282613a6e565b919050565b5f67ffffffffffffffff821115613ad357613ad2613a41565b5b602082029050602081019050919050565b5f5ffd5b5f613afa613af584613ab9565b613a9f565b90508083825260208201905060208402830185811115613b1d57613b1c613ae4565b5b835b81811015613b465780613b328882613970565b845260208401935050602081019050613b1f565b5050509392505050565b5f82601f830112613b6457613b63613a3d565b5b8135613b74848260208601613ae8565b91505092915050565b5f5f60408385031215613b9357613b92613718565b5b5f83013567ffffffffffffffff811115613bb057613baf61371c565b5b613bbc85828601613b50565b925050602083013567ffffffffffffffff811115613bdd57613bdc61371c565b5b613be985828601613b50565b9150509250929050565b5f81519050919050565b5f82825260208201905092915050565b5f819050602082019050919050565b5f82825260208201905092915050565b5f613c36826139c2565b613c408185613c1c565b9350613c508185602086016138ca565b613c59816136b1565b840191505092915050565b5f613c6f8383613c2c565b905092915050565b5f602082019050919050565b5f613c8d82613bf3565b613c978185613bfd565b935083602082028501613ca985613c0d565b805f5b85811015613ce45784840389528151613cc58582613c64565b9450613cd083613c77565b925060208a01995050600181019050613cac565b50829750879550505050505092915050565b5f6020820190508181035f830152613d0e8184613c83565b905092915050565b5f60208284031215613d2b57613d2a613718565b5b5f613d3884828501613970565b91505092915050565b613d4a81613878565b8114613d54575f5ffd5b50565b5f81359050613d6581613d41565b92915050565b5f5f60408385031215613d8157613d80613718565b5b5f613d8e85828601613d57565b9250506020613d9f85828601613970565b9150509250929050565b5f81519050919050565b5f82825260208201905092915050565b5f819050602082019050919050565b613ddb81613878565b82525050565b5f613dec8383613dd2565b60208301905092915050565b5f602082019050919050565b5f613e0e82613da9565b613e188185613db3565b9350613e2383613dc3565b805f5b83811015613e53578151613e3a8882613de1565b9750613e4583613df8565b925050600181019050613e26565b5085935050505092915050565b5f6020820190508181035f830152613e788184613e04565b905092915050565b613e89816137a0565b8114613e93575f5ffd5b50565b5f81359050613ea481613e80565b92915050565b5f5ffd5b5f67ffffffffffffffff821115613ec857613ec7613a41565b5b613ed1826136b1565b9050602081019050919050565b5f613ef0613eeb84613eae565b613a9f565b905082815260208101848484011115613f0c57613f0b613eaa565b5b613f178482856136a3565b509392505050565b5f82601f830112613f3357613f32613a3d565b5b8135613f43848260208601613ede565b91505092915050565b5f5f5f5f5f60a08688031215613f6557613f64613718565b5b5f613f7288828901613d57565b9550506020613f8388828901613d57565b9450506040613f9488828901613970565b9350506060613fa588828901613e96565b925050608086013567ffffffffffffffff811115613fc657613fc561371c565b5b613fd288828901613f1f565b9150509295509295909350565b5f613fe982613859565b9050919050565b613ff981613fdf565b8114614003575f5ffd5b50565b5f8135905061401481613ff0565b92915050565b5f5f604083850312156140305761402f613718565b5b5f61403d85828601614006565b925050602061404e8582860161381a565b9150509250929050565b5f5ffd5b5f5f83601f84011261407157614070613a3d565b5b8235905067ffffffffffffffff81111561408e5761408d614058565b5b6020830191508360208202830111156140aa576140a9613ae4565b5b9250929050565b5f5f602083850312156140c7576140c6613718565b5b5f83013567ffffffffffffffff8111156140e4576140e361371c565b5b6140f08582860161405c565b92509250509250929050565b5f6020828403121561411157614110613718565b5b5f61411e84828501613d57565b91505092915050565b5f67ffffffffffffffff82111561414157614140613a41565b5b602082029050602081019050919050565b5f61416461415f84614127565b613a9f565b9050808382526020820190506020840283018581111561418757614186613ae4565b5b835b818110156141b0578061419c8882613d57565b845260208401935050602081019050614189565b5050509392505050565b5f82601f8301126141ce576141cd613a3d565b5b81356141de848260208601614152565b91505092915050565b5f67ffffffffffffffff82111561420157614200613a41565b5b602082029050602081019050919050565b5f61422461421f846141e7565b613a9f565b9050808382526020820190506020840283018581111561424757614246613ae4565b5b835b81811015614270578061425c8882613e96565b845260208401935050602081019050614249565b5050509392505050565b5f82601f83011261428e5761428d613a3d565b5b813561429e848260208601614212565b91505092915050565b5f67ffffffffffffffff8211156142c1576142c0613a41565b5b602082029050602081019050919050565b5f6142e46142df846142a7565b613a9f565b9050808382526020820190506020840283018581111561430757614306613ae4565b5b835b8181101561434e57803567ffffffffffffffff81111561432c5761432b613a3d565b5b8086016143398982613f1f565b85526020850194505050602081019050614309565b5050509392505050565b5f82601f83011261436c5761436b613a3d565b5b813561437c8482602086016142d2565b91505092915050565b5f5f5f5f5f60a0868803121561439e5761439d613718565b5b5f86013567ffffffffffffffff8111156143bb576143ba61371c565b5b6143c7888289016141ba565b955050602086013567ffffffffffffffff8111156143e8576143e761371c565b5b6143f4888289016141ba565b945050604086013567ffffffffffffffff8111156144155761441461371c565b5b61442188828901613b50565b935050606086013567ffffffffffffffff8111156144425761444161371c565b5b61444e8882890161427a565b925050608086013567ffffffffffffffff81111561446f5761446e61371c565b5b61447b88828901614358565b9150509295509295909350565b5f5f6040838503121561449e5761449d613718565b5b5f6144ab85828601613970565b925050602083013567ffffffffffffffff8111156144cc576144cb61371c565b5b6144d885828601613f1f565b9150509250929050565b5f5f5f606084860312156144f9576144f8613718565b5b5f61450686828701613d57565b935050602061451786828701613970565b925050604084013567ffffffffffffffff8111156145385761453761371c565b5b61454486828701613f1f565b9150509250925092565b5f81519050919050565b5f82825260208201905092915050565b5f819050602082019050919050565b61458081613898565b82525050565b5f6145918383614577565b60208301905092915050565b5f602082019050919050565b5f6145b38261454e565b6145bd8185614558565b93506145c883614568565b805f5b838110156145f85781516145df8882614586565b97506145ea8361459d565b9250506001810190506145cb565b5085935050505092915050565b5f6020820190508181035f83015261461d81846145a9565b905092915050565b5f5f6040838503121561463b5761463a613718565b5b5f83013567ffffffffffffffff8111156146585761465761371c565b5b61466485828601613b50565b925050602083013567ffffffffffffffff8111156146855761468461371c565b5b61469185828601614358565b9150509250929050565b5f5f604083850312156146b1576146b0613718565b5b5f6146be8582860161381a565b92505060206146cf8582860161381a565b9150509250929050565b5f5f5f606084860312156146f0576146ef613718565b5b5f84013567ffffffffffffffff81111561470d5761470c61371c565b5b61471986828701613b50565b935050602084013567ffffffffffffffff81111561473a5761473961371c565b5b61474686828701613b50565b925050604084013567ffffffffffffffff8111156147675761476661371c565b5b61477386828701614358565b9150509250925092565b5f5f5f6060848603121561479457614793613718565b5b5f6147a186828701613970565b93505060206147b286828701613970565b925050604084013567ffffffffffffffff8111156147d3576147d261371c565b5b6147df86828701613f1f565b9150509250925092565b5f5f5f5f6080858703121561480157614800613718565b5b5f61480e87828801613d57565b945050602061481f87828801613970565b935050604061483087828801613e96565b925050606085013567ffffffffffffffff8111156148515761485061371c565b5b61485d87828801613f1f565b91505092959194509250565b5f6020828403121561487e5761487d613718565b5b5f82013567ffffffffffffffff81111561489b5761489a61371c565b5b6148a784828501613b50565b91505092915050565b5f67ffffffffffffffff8211156148ca576148c9613a41565b5b6148d3826136b1565b9050602081019050919050565b5f6148f26148ed846148b0565b613a9f565b90508281526020810184848401111561490e5761490d613eaa565b5b6149198482856136a3565b509392505050565b5f82601f83011261493557614934613a3d565b5b81356149458482602086016148e0565b91505092915050565b5f6020828403121561496357614962613718565b5b5f82013567ffffffffffffffff8111156149805761497f61371c565b5b61498c84828501614921565b91505092915050565b61499e81613720565b82525050565b5f6020820190506149b75f830184614995565b92915050565b5f81905092915050565b5f6149d283856149bd565b93506149df8385846136a3565b82840190509392505050565b5f8160601b9050919050565b5f614a01826149eb565b9050919050565b5f614a12826149f7565b9050919050565b614a2a614a2582613878565b614a08565b82525050565b5f819050919050565b614a4a614a45826137d3565b614a30565b82525050565b5f614a5c8286886149c7565b9150614a688285614a19565b601482019150614a788284614a39565b60208201915081905095945050505050565b5f614a94826139c2565b614a9e81856149bd565b9350614aae8185602086016138ca565b80840191505092915050565b5f614ac58284614a8a565b915081905092915050565b7f4e487b71000000000000000000000000000000000000000000000000000000005f52602260045260245ffd5b5f6002820490506001821680614b1457607f821691505b602082108103614b2757614b26614ad0565b5b50919050565b7f4e487b71000000000000000000000000000000000000000000000000000000005f52603260045260245ffd5b5f602082019050614b6d5f8301846138a1565b92915050565b50565b5f614b815f836149bd565b9150614b8c82614b73565b5f82019050919050565b5f614ba082614b76565b9150819050919050565b7f4661696c656400000000000000000000000000000000000000000000000000005f82015250565b5f614bde6006836138ba565b9150614be982614baa565b602082019050919050565b5f6020820190508181035f830152614c0b81614bd2565b9050919050565b5f604082019050614c255f8301856138a1565b614c326020830184613889565b9392505050565b5f5ffd5b5f5ffd5b5f5ffd5b5f5f83356001602003843603038112614c6157614c60614c39565b5b80840192508235915067ffffffffffffffff821115614c8357614c82614c3d565b5b602083019250600182023603831315614c9f57614c9e614c41565b5b509250929050565b5f614cb38284866149c7565b91508190509392505050565b5f819050815f5260205f209050919050565b5f8154614cdd81614afd565b614ce781866149bd565b9450600182165f8114614d015760018114614d1657614d48565b60ff1983168652811515820286019350614d48565b614d1f85614cbf565b5f5b83811015614d4057815481890152600182019150602081019050614d21565b838801955050505b50505092915050565b5f614d5c8284614cd1565b915081905092915050565b5f81905092915050565b7f646174613a6170706c69636174696f6e2f6a736f6e3b6261736536342c0000005f82015250565b5f614da5601d83614d67565b9150614db082614d71565b601d82019050919050565b5f614dc5826138b0565b614dcf8185614d67565b9350614ddf8185602086016138ca565b80840191505092915050565b5f614df582614d99565b9150614e018284614dbb565b915081905092915050565b7d6f357c6a0020000000000000000000000000000000000000000000000000815250565b5f819050919050565b614e4a614e4582613898565b614e30565b82525050565b5f614e5a82614e0c565b600882019150614e6a8285614e39565b602082019150614e7a8284614a8a565b91508190509392505050565b5f606082019050614e995f830186613889565b614ea660208301856138a1565b614eb36040830184613889565b949350505050565b5f604082019050614ece5f830185613889565b614edb60208301846138a1565b9392505050565b5f608082019050614ef55f830187613889565b614f0260208301866138a1565b614f0f60408301856137ab565b8181036060830152614f2181846139cc565b905095945050505050565b7f4e487b71000000000000000000000000000000000000000000000000000000005f52601160045260245ffd5b5f614f63826137d3565b9150614f6e836137d3565b9250828202614f7c816137d3565b91508282048414831517614f9357614f92614f2c565b5b5092915050565b7f4e487b71000000000000000000000000000000000000000000000000000000005f52601260045260245ffd5b5f614fd1826137d3565b9150614fdc836137d3565b925082614fec57614feb614f9a565b5b828204905092915050565b5f60608201905061500a5f830186613889565b6150176020830185613889565b61502460408301846138a1565b949350505050565b5f819050602082019050919050565b5f7fffffffffffffffffffffffffffffffffffffffff00000000000000000000000082169050919050565b5f615071825161503b565b80915050919050565b5f82821b905092915050565b5f615090826139c2565b8261509a8461502c565b90506150a581615066565b925060148210156150e5576150e07fffffffffffffffffffffffffffffffffffffffff0000000000000000000000008360140360080261507a565b831692505b5050919050565b5f6060820190506150ff5f8301866138a1565b61510c6020830185613889565b6151196040830184613889565b949350505050565b5f6060820190506151345f830186613889565b61514160208301856137ab565b818103604083015261515381846139cc565b9050949350505050565b5f60a0820190506151705f830188613889565b61517d6020830187613889565b61518a6040830186613889565b61519760608301856138a1565b81810360808301526151a981846139cc565b90509695505050505050565b5f6151bf826137d3565b91506151ca836137d3565b92508282019050808211156151e2576151e1614f2c565b5b92915050565b5f6151f2826137d3565b91507fffffffffffffffffffffffffffffffffffffffffffffffffffffffffffffffff820361522457615223614f2c565b5b600182019050919050565b5f6020601f8301049050919050565b5f6008830261526d7fffffffffffffffffffffffffffffffffffffffffffffffffffffffffffffffff8261507a565b615277868361507a565b95508019841693508086168417925050509392505050565b5f819050919050565b5f6152b26152ad6152a8846137d3565b61528f565b6137d3565b9050919050565b5f819050919050565b6152cb83615298565b6152df6152d7826152b9565b84845461523e565b825550505050565b5f5f905090565b6152f66152e7565b6153018184846152c2565b505050565b5b81811015615324576153195f826152ee565b600181019050615307565b5050565b601f8211156153695761533a81614cbf565b6153438461522f565b81016020851015615352578190505b61536661535e8561522f565b830182615306565b50505b505050565b5f82821c905092915050565b5f6153895f198460080261536e565b1980831691505092915050565b5f6153a1838361537a565b9150826002028217905092915050565b6153ba826139c2565b67ffffffffffffffff8111156153d3576153d2613a41565b5b6153dd8254614afd565b6153e8828285615328565b5f60209050601f831160018114615419575f8415615407578287015190505b6154118582615396565b865550615478565b601f19841661542786614cbf565b5f5b8281101561544e57848901518255600182019150602085019450602081019050615429565b8683101561546b5784890151615467601f89168261537a565b8355505b6001600288020188555050505b505050505050565b5f6040820190506154935f8301856137ab565b81810360208301526154a581846139cc565b90509392505050565b5f7fffffffffffffffffffff0000000000000000000000000000000000000000000082169050919050565b5f819050919050565b6154f36154ee826154ae565b6154d9565b82525050565b5f7fffff00000000000000000000000000000000000000000000000000000000000082169050919050565b5f819050919050565b61553e615539826154f9565b615524565b82525050565b5f819050919050565b61555e6155598261503b565b615544565b82525050565b5f61556f82866154e2565b600a8201915061557f828561552d565b60028201915061558f828461554d565b601482019150819050949350505050565b5f6155ab8251613898565b80915050919050565b5f6155be826139c2565b826155c88461502c565b90506155d3816155a0565b925060208210156156135761560e7fffffffffffffffffffffffffffffffffffffffffffffffffffffffffffffffff8360200360080261507a565b831692505b5050919050565b5f60408201905061562d5f8301856138a1565b818103602083015261563f81846139cc565b90509392505050565b5f61565a61565584613eae565b613a9f565b90508281526020810184848401111561567657615675613eaa565b5b6156818482856138ca565b509392505050565b5f82601f83011261569d5761569c613a3d565b5b81516156ad848260208601615648565b91505092915050565b5f602082840312156156cb576156ca613718565b5b5f82015167ffffffffffffffff8111156156e8576156e761371c565b5b6156f484828501615689565b91505092915050565b5f615707826137d3565b9150615712836137d3565b925082820390508181111561572a57615729614f2c565b5b92915050565b7f4e487b71000000000000000000000000000000000000000000000000000000005f52603160045260245ffdfe4142434445464748494a4b4c4d4e4f505152535455565758595a6162636465666768696a6b6c6d6e6f707172737475767778797a303132333435363738392b2fa264697066735822122046b1157bf4944e546a38a24045f0d6d167c09c22c893f3f95bd48578bb3fcd5464736f6c634300081c00337b224c5350344d65746164617461223a7b226e616d65223a2250455049544f2047454e45534953222c226465736372697074696f6e223a224d696e7420796f75722050455049544f2047454e45534953204e465420746f64617920746f206a6f696e207573206f6e20616e20616476656e7475726520696e746f2074686520776f726c64206f662050455049544f2c20323432342050455049544f20537061776e206c6f6f6b696e6720666f72206120686f6d652e20466f72206d6f726520696e666f726d6174696f6e20636865636b206f7574206f757220726f61646d617020646973706c61796564206f6e2068747470733a2f2f70657069746f6c79782e636f6d20616e6420616e797468696e6720656c73652064726f702075732061206d657373616765206f6e20656974686572204347206f7220547769747465722e222c226c696e6b73223a5b7b227469746c65223a2257656273697465222c2275726c223a2268747470733a2f2f70657069746f6c79782e636f6d227d2c7b227469746c65223a224d696e74222c2275726c223a2268747470733a2f2f67656e657369732e70657069746f6c79782e636f6d227d2c7b227469746c65223a22436f6d6d6f6e2047726f756e64222c2275726c223a2268747470733a2f2f6170702e63672f632f50657069746f227d2c7b227469746c65223a22f09d958f222c2275726c223a2268747470733a2f2f782e636f6d2f70657069746f6c7978227d2c7b227469746c65223a2254656c656772616d222c2275726c223a2268747470733a2f2f742e6d652f70657069746f6c7978227d5d2c2261747472696275746573223a5b7b226b6579223a225374616765222c2276616c7565223a2230227d2c7b226b6579223a2254797065222c2276616c7565223a22537061776e227d2c7b226b6579223a224261636b67726f756e64222c2276616c7565223a22227d2c7b226b6579223a22536b696e222c2276616c7565223a22227d2c7b226b6579223a2245796573222c2276616c7565223a22227d2c7b226b6579223a22546174746f6f73222c2276616c7565223a22227d2c7b226b6579223a22436c6f74686573222c2276616c7565223a22227d2c7b226b6579223a224865616467656172222c2276616c7565223a22227d2c7b226b6579223a224163636573736f7279222c2276616c7565223a22227d5d2c2269636f6e223a5b7b227769647468223a3531322c22686569676874223a3531322c2275726c223a22697066733a2f2f516d6472634566516e575a686973633262463435343478644a4748425168574c616f4742585a5376727653547854222c22766572696669636174696f6e223a7b226d6574686f64223a226b656363616b32353628627974657329222c2264617461223a22307865623134666161353934313932623537613263346564623661653231326331613662333834383430393137366537633930303134313133326439393032633835227d7d5d2c226261636b67726f756e64496d616765223a5b5d2c22617373657473223a5b5d2c22696d61676573223a5b5b7b227769647468223a3530302c22686569676874223a3530302c2275726c223a22697066733a2f2f516d59385a3579616f5373545938446e70637172794a536a7434733165686b7443744a6432704b417776344a7357222c22766572696669636174696f6e223a7b226d6574686f64223a226b656363616b32353628627974657329222c2264617461223a22307830663765613530383565316365303338653366353166393766613235343334323632623964353830386231666166323462623431643661323839613932623230227d7d5d5d7d7d",
			"opcodes": "PUSH1 0x80 PUSH1 0x40 MSTORE PUSH0 PUSH1 0x10 SSTORE CALLVALUE DUP1 ISZERO PUSH2 0x13 JUMPI PUSH0 PUSH0 REVERT JUMPDEST POP PUSH1 0x40 MLOAD DUP1 PUSH1 0x40 ADD PUSH1 0x40 MSTORE DUP1 PUSH1 0xE DUP2 MSTORE PUSH1 0x20 ADD PUSH32 0x50657069746F2047656E65736973000000000000000000000000000000000000 DUP2 MSTORE POP PUSH1 0x40 MLOAD DUP1 PUSH1 0x40 ADD PUSH1 0x40 MSTORE DUP1 PUSH1 0x3 DUP2 MSTORE PUSH1 0x20 ADD PUSH32 0x5045500000000000000000000000000000000000000000000000000000000000 DUP2 MSTORE POP CALLER PUSH1 0x2 PUSH0 DUP5 DUP5 DUP5 DUP5 DUP2 PUSH0 PUSH20 0xFFFFFFFFFFFFFFFFFFFFFFFFFFFFFFFFFFFFFFFF AND DUP2 PUSH20 0xFFFFFFFFFFFFFFFFFFFFFFFFFFFFFFFFFFFFFFFF AND SUB PUSH2 0xEE JUMPI PUSH1 0x40 MLOAD PUSH32 0x1AD8836C00000000000000000000000000000000000000000000000000000000 DUP2 MSTORE PUSH1 0x4 ADD PUSH1 0x40 MLOAD DUP1 SWAP2 SUB SWAP1 REVERT JUMPDEST PUSH2 0xFD DUP2 PUSH2 0x466 PUSH1 0x20 SHL PUSH1 0x20 SHR JUMP JUMPDEST POP PUSH2 0x165 PUSH32 0xEAFEC4D89FA9619884B60000A4D96624A38F7AC2D8D9A604ECF07C12C77E480C PUSH0 SHL PUSH1 0x40 MLOAD DUP1 PUSH1 0x40 ADD PUSH1 0x40 MSTORE DUP1 PUSH1 0x4 DUP2 MSTORE PUSH1 0x20 ADD PUSH32 0xA4D9662400000000000000000000000000000000000000000000000000000000 DUP2 MSTORE POP PUSH2 0x563 PUSH1 0x20 SHL PUSH1 0x20 SHR JUMP JUMPDEST PUSH2 0x197 PUSH32 0xDEBA1E292F8BA88238E10AB3C7F88BD4BE4FAC56CAD5194B6ECCEAF653468AF1 PUSH0 SHL DUP6 PUSH2 0x563 PUSH1 0x20 SHL PUSH1 0x20 SHR JUMP JUMPDEST PUSH2 0x1C9 PUSH32 0x2F0A68AB07768E01943A599E73362A0E17A63A72E94DD2E384D2C1D4DB932756 PUSH0 SHL DUP5 PUSH2 0x563 PUSH1 0x20 SHL PUSH1 0x20 SHR JUMP JUMPDEST PUSH2 0x21A PUSH32 0xE0261FA95DB2EB3B5439BD033CDA66D56B96F92F243A8228FD87550ED7BDFDB3 PUSH0 SHL DUP3 PUSH1 0x40 MLOAD PUSH1 0x20 ADD PUSH2 0x200 SWAP2 SWAP1 PUSH2 0x814 JUMP JUMPDEST PUSH1 0x40 MLOAD PUSH1 0x20 DUP2 DUP4 SUB SUB DUP2 MSTORE SWAP1 PUSH1 0x40 MSTORE PUSH2 0x563 PUSH1 0x20 SHL PUSH1 0x20 SHR JUMP JUMPDEST POP POP POP POP PUSH2 0x26F PUSH32 0xF675E9361AF1C1664C1868CFA3EB97672D6B1A513AA5B81DEC34C9EE330E818D PUSH0 SHL DUP3 PUSH1 0x40 MLOAD PUSH1 0x20 ADD PUSH2 0x255 SWAP2 SWAP1 PUSH2 0x814 JUMP JUMPDEST PUSH1 0x40 MLOAD PUSH1 0x20 DUP2 DUP4 SUB SUB DUP2 MSTORE SWAP1 PUSH1 0x40 MSTORE PUSH2 0x5BE PUSH1 0x20 SHL PUSH1 0x20 SHR JUMP JUMPDEST POP POP POP POP POP PUSH1 0x40 MLOAD DUP1 PUSH2 0x580 ADD PUSH1 0x40 MSTORE DUP1 PUSH2 0x545 DUP2 MSTORE PUSH1 0x20 ADD PUSH2 0x6595 PUSH2 0x545 SWAP2 CODECOPY PUSH1 0xF SWAP1 DUP2 PUSH2 0x29E SWAP2 SWAP1 PUSH2 0xA61 JUMP JUMPDEST POP PUSH8 0x1A5E27EEF13E0000 PUSH1 0x8 PUSH1 0x40 MLOAD PUSH2 0x2B6 SWAP1 PUSH2 0xB84 JUMP JUMPDEST SWAP1 DUP2 MSTORE PUSH1 0x20 ADD PUSH1 0x40 MLOAD DUP1 SWAP2 SUB SWAP1 KECCAK256 DUP2 SWAP1 SSTORE POP PUSH8 0x1D4839D21C130000 PUSH1 0x8 PUSH1 0x40 MLOAD PUSH2 0x2DF SWAP1 PUSH2 0xBE2 JUMP JUMPDEST SWAP1 DUP2 MSTORE PUSH1 0x20 ADD PUSH1 0x40 MLOAD DUP1 SWAP2 SUB SWAP1 KECCAK256 DUP2 SWAP1 SSTORE POP PUSH1 0x28 PUSH1 0xE PUSH0 PUSH2 0x100 EXP DUP2 SLOAD DUP2 PUSH1 0xFF MUL NOT AND SWAP1 DUP4 PUSH1 0xFF AND MUL OR SWAP1 SSTORE POP PUSH1 0x40 MLOAD DUP1 PUSH1 0x60 ADD PUSH1 0x40 MSTORE DUP1 PUSH20 0xD64DEB40240209473F676945C2ED2BFA2CEF2B7D PUSH20 0xFFFFFFFFFFFFFFFFFFFFFFFFFFFFFFFFFFFFFFFF AND PUSH20 0xFFFFFFFFFFFFFFFFFFFFFFFFFFFFFFFFFFFFFFFF AND DUP2 MSTORE PUSH1 0x20 ADD PUSH20 0x41BE92E41B9D8E320330BAD6607168ADB833FCD5 PUSH20 0xFFFFFFFFFFFFFFFFFFFFFFFFFFFFFFFFFFFFFFFF AND PUSH20 0xFFFFFFFFFFFFFFFFFFFFFFFFFFFFFFFFFFFFFFFF AND DUP2 MSTORE PUSH1 0x20 ADD PUSH20 0xD5C8B7CC12ED8486E1E0147CC0C3395739F138D PUSH20 0xFFFFFFFFFFFFFFFFFFFFFFFFFFFFFFFFFFFFFFFF AND PUSH20 0xFFFFFFFFFFFFFFFFFFFFFFFFFFFFFFFFFFFFFFFF AND DUP2 MSTORE POP PUSH1 0xA SWAP1 PUSH1 0x3 PUSH2 0x3F7 SWAP3 SWAP2 SWAP1 PUSH2 0x765 JUMP JUMPDEST POP PUSH20 0xC99BE60CC96631E9BEF68B7C68FB7124E62F3EDF PUSH1 0x9 PUSH0 PUSH2 0x100 EXP DUP2 SLOAD DUP2 PUSH20 0xFFFFFFFFFFFFFFFFFFFFFFFFFFFFFFFFFFFFFFFF MUL NOT AND SWAP1 DUP4 PUSH20 0xFFFFFFFFFFFFFFFFFFFFFFFFFFFFFFFFFFFFFFFF AND MUL OR SWAP1 SSTORE POP PUSH3 0x15180 TIMESTAMP PUSH2 0x45B SWAP2 SWAP1 PUSH2 0xC23 JUMP JUMPDEST PUSH1 0xD DUP2 SWAP1 SSTORE POP PUSH2 0xDB5 JUMP JUMPDEST PUSH2 0x474 PUSH2 0x5D2 PUSH1 0x20 SHL PUSH1 0x20 SHR JUMP JUMPDEST PUSH20 0xFFFFFFFFFFFFFFFFFFFFFFFFFFFFFFFFFFFFFFFF AND DUP2 PUSH20 0xFFFFFFFFFFFFFFFFFFFFFFFFFFFFFFFFFFFFFFFF AND EQ PUSH2 0x560 JUMPI DUP1 PUSH20 0xFFFFFFFFFFFFFFFFFFFFFFFFFFFFFFFFFFFFFFFF AND PUSH0 PUSH0 SWAP1 SLOAD SWAP1 PUSH2 0x100 EXP SWAP1 DIV PUSH20 0xFFFFFFFFFFFFFFFFFFFFFFFFFFFFFFFFFFFFFFFF AND PUSH20 0xFFFFFFFFFFFFFFFFFFFFFFFFFFFFFFFFFFFFFFFF AND PUSH32 0x8BE0079C531659141344CD1FD0A4F28419497F9722A3DAAFE3B4186F6B6457E0 PUSH1 0x40 MLOAD PUSH1 0x40 MLOAD DUP1 SWAP2 SUB SWAP1 LOG3 DUP1 PUSH0 PUSH0 PUSH2 0x100 EXP DUP2 SLOAD DUP2 PUSH20 0xFFFFFFFFFFFFFFFFFFFFFFFFFFFFFFFFFFFFFFFF MUL NOT AND SWAP1 DUP4 PUSH20 0xFFFFFFFFFFFFFFFFFFFFFFFFFFFFFFFFFFFFFFFF AND MUL OR SWAP1 SSTORE POP JUMPDEST POP JUMP JUMPDEST DUP1 PUSH1 0x1 PUSH0 DUP5 DUP2 MSTORE PUSH1 0x20 ADD SWAP1 DUP2 MSTORE PUSH1 0x20 ADD PUSH0 KECCAK256 SWAP1 DUP2 PUSH2 0x581 SWAP2 SWAP1 PUSH2 0xC60 JUMP JUMPDEST POP DUP2 PUSH32 0xECE574603820D07BC9B91F2A932BAADF4628AABCB8AFBA49776529C14A6104B2 DUP3 PUSH1 0x40 MLOAD PUSH2 0x5B2 SWAP2 SWAP1 PUSH2 0xD95 JUMP JUMPDEST PUSH1 0x40 MLOAD DUP1 SWAP2 SUB SWAP1 LOG2 POP POP JUMP JUMPDEST PUSH2 0x5CE DUP3 DUP3 PUSH2 0x5F9 PUSH1 0x20 SHL PUSH1 0x20 SHR JUMP JUMPDEST POP POP JUMP JUMPDEST PUSH0 PUSH0 PUSH0 SWAP1 SLOAD SWAP1 PUSH2 0x100 EXP SWAP1 DIV PUSH20 0xFFFFFFFFFFFFFFFFFFFFFFFFFFFFFFFFFFFFFFFF AND SWAP1 POP SWAP1 JUMP JUMPDEST PUSH32 0xDEBA1E292F8BA88238E10AB3C7F88BD4BE4FAC56CAD5194B6ECCEAF653468AF1 PUSH0 SHL DUP3 SUB PUSH2 0x654 JUMPI PUSH1 0x40 MLOAD PUSH32 0x85C169BD00000000000000000000000000000000000000000000000000000000 DUP2 MSTORE PUSH1 0x4 ADD PUSH1 0x40 MLOAD DUP1 SWAP2 SUB SWAP1 REVERT JUMPDEST PUSH32 0x2F0A68AB07768E01943A599E73362A0E17A63A72E94DD2E384D2C1D4DB932756 PUSH0 SHL DUP3 SUB PUSH2 0x6AF JUMPI PUSH1 0x40 MLOAD PUSH32 0x76755B3800000000000000000000000000000000000000000000000000000000 DUP2 MSTORE PUSH1 0x4 ADD PUSH1 0x40 MLOAD DUP1 SWAP2 SUB SWAP1 REVERT JUMPDEST PUSH32 0xE0261FA95DB2EB3B5439BD033CDA66D56B96F92F243A8228FD87550ED7BDFDB3 PUSH0 SHL DUP3 SUB PUSH2 0x70A JUMPI PUSH1 0x40 MLOAD PUSH32 0x4EF6D7FB00000000000000000000000000000000000000000000000000000000 DUP2 MSTORE PUSH1 0x4 ADD PUSH1 0x40 MLOAD DUP1 SWAP2 SUB SWAP1 REVERT JUMPDEST DUP1 PUSH1 0x1 PUSH0 DUP5 DUP2 MSTORE PUSH1 0x20 ADD SWAP1 DUP2 MSTORE PUSH1 0x20 ADD PUSH0 KECCAK256 SWAP1 DUP2 PUSH2 0x728 SWAP2 SWAP1 PUSH2 0xC60 JUMP JUMPDEST POP DUP2 PUSH32 0xECE574603820D07BC9B91F2A932BAADF4628AABCB8AFBA49776529C14A6104B2 DUP3 PUSH1 0x40 MLOAD PUSH2 0x759 SWAP2 SWAP1 PUSH2 0xD95 JUMP JUMPDEST PUSH1 0x40 MLOAD DUP1 SWAP2 SUB SWAP1 LOG2 POP POP JUMP JUMPDEST DUP3 PUSH1 0x3 DUP2 ADD SWAP3 DUP3 ISZERO PUSH2 0x7D0 JUMPI SWAP2 PUSH1 0x20 MUL DUP3 ADD JUMPDEST DUP3 DUP2 GT ISZERO PUSH2 0x7CF JUMPI DUP3 MLOAD DUP3 PUSH0 PUSH2 0x100 EXP DUP2 SLOAD DUP2 PUSH20 0xFFFFFFFFFFFFFFFFFFFFFFFFFFFFFFFFFFFFFFFF MUL NOT AND SWAP1 DUP4 PUSH20 0xFFFFFFFFFFFFFFFFFFFFFFFFFFFFFFFFFFFFFFFF AND MUL OR SWAP1 SSTORE POP SWAP2 PUSH1 0x20 ADD SWAP2 SWAP1 PUSH1 0x1 ADD SWAP1 PUSH2 0x778 JUMP JUMPDEST JUMPDEST POP SWAP1 POP PUSH2 0x7DD SWAP2 SWAP1 PUSH2 0x7E1 JUMP JUMPDEST POP SWAP1 JUMP JUMPDEST JUMPDEST DUP1 DUP3 GT ISZERO PUSH2 0x7F8 JUMPI PUSH0 DUP2 PUSH0 SWAP1 SSTORE POP PUSH1 0x1 ADD PUSH2 0x7E2 JUMP JUMPDEST POP SWAP1 JUMP JUMPDEST PUSH0 DUP2 SWAP1 POP SWAP2 SWAP1 POP JUMP JUMPDEST PUSH2 0x80E DUP2 PUSH2 0x7FC JUMP JUMPDEST DUP3 MSTORE POP POP JUMP JUMPDEST PUSH0 PUSH1 0x20 DUP3 ADD SWAP1 POP PUSH2 0x827 PUSH0 DUP4 ADD DUP5 PUSH2 0x805 JUMP JUMPDEST SWAP3 SWAP2 POP POP JUMP JUMPDEST PUSH0 DUP2 MLOAD SWAP1 POP SWAP2 SWAP1 POP JUMP JUMPDEST PUSH32 0x4E487B7100000000000000000000000000000000000000000000000000000000 PUSH0 MSTORE PUSH1 0x41 PUSH1 0x4 MSTORE PUSH1 0x24 PUSH0 REVERT JUMPDEST PUSH32 0x4E487B7100000000000000000000000000000000000000000000000000000000 PUSH0 MSTORE PUSH1 0x22 PUSH1 0x4 MSTORE PUSH1 0x24 PUSH0 REVERT JUMPDEST PUSH0 PUSH1 0x2 DUP3 DIV SWAP1 POP PUSH1 0x1 DUP3 AND DUP1 PUSH2 0x8A8 JUMPI PUSH1 0x7F DUP3 AND SWAP2 POP JUMPDEST PUSH1 0x20 DUP3 LT DUP2 SUB PUSH2 0x8BB JUMPI PUSH2 0x8BA PUSH2 0x864 JUMP JUMPDEST JUMPDEST POP SWAP2 SWAP1 POP JUMP JUMPDEST PUSH0 DUP2 SWAP1 POP DUP2 PUSH0 MSTORE PUSH1 0x20 PUSH0 KECCAK256 SWAP1 POP SWAP2 SWAP1 POP JUMP JUMPDEST PUSH0 PUSH1 0x20 PUSH1 0x1F DUP4 ADD DIV SWAP1 POP SWAP2 SWAP1 POP JUMP JUMPDEST PUSH0 DUP3 DUP3 SHL SWAP1 POP SWAP3 SWAP2 POP POP JUMP JUMPDEST PUSH0 PUSH1 0x8 DUP4 MUL PUSH2 0x91D PUSH32 0xFFFFFFFFFFFFFFFFFFFFFFFFFFFFFFFFFFFFFFFFFFFFFFFFFFFFFFFFFFFFFFFF DUP3 PUSH2 0x8E2 JUMP JUMPDEST PUSH2 0x927 DUP7 DUP4 PUSH2 0x8E2 JUMP JUMPDEST SWAP6 POP DUP1 NOT DUP5 AND SWAP4 POP DUP1 DUP7 AND DUP5 OR SWAP3 POP POP POP SWAP4 SWAP3 POP POP POP JUMP JUMPDEST PUSH0 DUP2 SWAP1 POP SWAP2 SWAP1 POP JUMP JUMPDEST PUSH0 PUSH2 0x962 PUSH2 0x95D PUSH2 0x958 DUP5 PUSH2 0x7FC JUMP JUMPDEST PUSH2 0x93F JUMP JUMPDEST PUSH2 0x7FC JUMP JUMPDEST SWAP1 POP SWAP2 SWAP1 POP JUMP JUMPDEST PUSH0 DUP2 SWAP1 POP SWAP2 SWAP1 POP JUMP JUMPDEST PUSH2 0x97B DUP4 PUSH2 0x948 JUMP JUMPDEST PUSH2 0x98F PUSH2 0x987 DUP3 PUSH2 0x969 JUMP JUMPDEST DUP5 DUP5 SLOAD PUSH2 0x8EE JUMP JUMPDEST DUP3 SSTORE POP POP POP POP JUMP JUMPDEST PUSH0 PUSH0 SWAP1 POP SWAP1 JUMP JUMPDEST PUSH2 0x9A6 PUSH2 0x997 JUMP JUMPDEST PUSH2 0x9B1 DUP2 DUP5 DUP5 PUSH2 0x972 JUMP JUMPDEST POP POP POP JUMP JUMPDEST JUMPDEST DUP2 DUP2 LT ISZERO PUSH2 0x9D4 JUMPI PUSH2 0x9C9 PUSH0 DUP3 PUSH2 0x99E JUMP JUMPDEST PUSH1 0x1 DUP2 ADD SWAP1 POP PUSH2 0x9B7 JUMP JUMPDEST POP POP JUMP JUMPDEST PUSH1 0x1F DUP3 GT ISZERO PUSH2 0xA19 JUMPI PUSH2 0x9EA DUP2 PUSH2 0x8C1 JUMP JUMPDEST PUSH2 0x9F3 DUP5 PUSH2 0x8D3 JUMP JUMPDEST DUP2 ADD PUSH1 0x20 DUP6 LT ISZERO PUSH2 0xA02 JUMPI DUP2 SWAP1 POP JUMPDEST PUSH2 0xA16 PUSH2 0xA0E DUP6 PUSH2 0x8D3 JUMP JUMPDEST DUP4 ADD DUP3 PUSH2 0x9B6 JUMP JUMPDEST POP POP JUMPDEST POP POP POP JUMP JUMPDEST PUSH0 DUP3 DUP3 SHR SWAP1 POP SWAP3 SWAP2 POP POP JUMP JUMPDEST PUSH0 PUSH2 0xA39 PUSH0 NOT DUP5 PUSH1 0x8 MUL PUSH2 0xA1E JUMP JUMPDEST NOT DUP1 DUP4 AND SWAP2 POP POP SWAP3 SWAP2 POP POP JUMP JUMPDEST PUSH0 PUSH2 0xA51 DUP4 DUP4 PUSH2 0xA2A JUMP JUMPDEST SWAP2 POP DUP3 PUSH1 0x2 MUL DUP3 OR SWAP1 POP SWAP3 SWAP2 POP POP JUMP JUMPDEST PUSH2 0xA6A DUP3 PUSH2 0x82D JUMP JUMPDEST PUSH8 0xFFFFFFFFFFFFFFFF DUP2 GT ISZERO PUSH2 0xA83 JUMPI PUSH2 0xA82 PUSH2 0x837 JUMP JUMPDEST JUMPDEST PUSH2 0xA8D DUP3 SLOAD PUSH2 0x891 JUMP JUMPDEST PUSH2 0xA98 DUP3 DUP3 DUP6 PUSH2 0x9D8 JUMP JUMPDEST PUSH0 PUSH1 0x20 SWAP1 POP PUSH1 0x1F DUP4 GT PUSH1 0x1 DUP2 EQ PUSH2 0xAC9 JUMPI PUSH0 DUP5 ISZERO PUSH2 0xAB7 JUMPI DUP3 DUP8 ADD MLOAD SWAP1 POP JUMPDEST PUSH2 0xAC1 DUP6 DUP3 PUSH2 0xA46 JUMP JUMPDEST DUP7 SSTORE POP PUSH2 0xB28 JUMP JUMPDEST PUSH1 0x1F NOT DUP5 AND PUSH2 0xAD7 DUP7 PUSH2 0x8C1 JUMP JUMPDEST PUSH0 JUMPDEST DUP3 DUP2 LT ISZERO PUSH2 0xAFE JUMPI DUP5 DUP10 ADD MLOAD DUP3 SSTORE PUSH1 0x1 DUP3 ADD SWAP2 POP PUSH1 0x20 DUP6 ADD SWAP5 POP PUSH1 0x20 DUP2 ADD SWAP1 POP PUSH2 0xAD9 JUMP JUMPDEST DUP7 DUP4 LT ISZERO PUSH2 0xB1B JUMPI DUP5 DUP10 ADD MLOAD PUSH2 0xB17 PUSH1 0x1F DUP10 AND DUP3 PUSH2 0xA2A JUMP JUMPDEST DUP4 SSTORE POP JUMPDEST PUSH1 0x1 PUSH1 0x2 DUP9 MUL ADD DUP9 SSTORE POP POP POP JUMPDEST POP POP POP POP POP POP JUMP JUMPDEST PUSH0 DUP2 SWAP1 POP SWAP3 SWAP2 POP POP JUMP JUMPDEST PUSH32 0x636F756E63696C5F6D696E740000000000000000000000000000000000000000 PUSH0 DUP3 ADD MSTORE POP JUMP JUMPDEST PUSH0 PUSH2 0xB6E PUSH1 0xC DUP4 PUSH2 0xB30 JUMP JUMPDEST SWAP2 POP PUSH2 0xB79 DUP3 PUSH2 0xB3A JUMP JUMPDEST PUSH1 0xC DUP3 ADD SWAP1 POP SWAP2 SWAP1 POP JUMP JUMPDEST PUSH0 PUSH2 0xB8E DUP3 PUSH2 0xB62 JUMP JUMPDEST SWAP2 POP DUP2 SWAP1 POP SWAP2 SWAP1 POP JUMP JUMPDEST PUSH32 0x7075626C69635F6D696E74000000000000000000000000000000000000000000 PUSH0 DUP3 ADD MSTORE POP JUMP JUMPDEST PUSH0 PUSH2 0xBCC PUSH1 0xB DUP4 PUSH2 0xB30 JUMP JUMPDEST SWAP2 POP PUSH2 0xBD7 DUP3 PUSH2 0xB98 JUMP JUMPDEST PUSH1 0xB DUP3 ADD SWAP1 POP SWAP2 SWAP1 POP JUMP JUMPDEST PUSH0 PUSH2 0xBEC DUP3 PUSH2 0xBC0 JUMP JUMPDEST SWAP2 POP DUP2 SWAP1 POP SWAP2 SWAP1 POP JUMP JUMPDEST PUSH32 0x4E487B7100000000000000000000000000000000000000000000000000000000 PUSH0 MSTORE PUSH1 0x11 PUSH1 0x4 MSTORE PUSH1 0x24 PUSH0 REVERT JUMPDEST PUSH0 PUSH2 0xC2D DUP3 PUSH2 0x7FC JUMP JUMPDEST SWAP2 POP PUSH2 0xC38 DUP4 PUSH2 0x7FC JUMP JUMPDEST SWAP3 POP DUP3 DUP3 ADD SWAP1 POP DUP1 DUP3 GT ISZERO PUSH2 0xC50 JUMPI PUSH2 0xC4F PUSH2 0xBF6 JUMP JUMPDEST JUMPDEST SWAP3 SWAP2 POP POP JUMP JUMPDEST PUSH0 DUP2 MLOAD SWAP1 POP SWAP2 SWAP1 POP JUMP JUMPDEST PUSH2 0xC69 DUP3 PUSH2 0xC56 JUMP JUMPDEST PUSH8 0xFFFFFFFFFFFFFFFF DUP2 GT ISZERO PUSH2 0xC82 JUMPI PUSH2 0xC81 PUSH2 0x837 JUMP JUMPDEST JUMPDEST PUSH2 0xC8C DUP3 SLOAD PUSH2 0x891 JUMP JUMPDEST PUSH2 0xC97 DUP3 DUP3 DUP6 PUSH2 0x9D8 JUMP JUMPDEST PUSH0 PUSH1 0x20 SWAP1 POP PUSH1 0x1F DUP4 GT PUSH1 0x1 DUP2 EQ PUSH2 0xCC8 JUMPI PUSH0 DUP5 ISZERO PUSH2 0xCB6 JUMPI DUP3 DUP8 ADD MLOAD SWAP1 POP JUMPDEST PUSH2 0xCC0 DUP6 DUP3 PUSH2 0xA46 JUMP JUMPDEST DUP7 SSTORE POP PUSH2 0xD27 JUMP JUMPDEST PUSH1 0x1F NOT DUP5 AND PUSH2 0xCD6 DUP7 PUSH2 0x8C1 JUMP JUMPDEST PUSH0 JUMPDEST DUP3 DUP2 LT ISZERO PUSH2 0xCFD JUMPI DUP5 DUP10 ADD MLOAD DUP3 SSTORE PUSH1 0x1 DUP3 ADD SWAP2 POP PUSH1 0x20 DUP6 ADD SWAP5 POP PUSH1 0x20 DUP2 ADD SWAP1 POP PUSH2 0xCD8 JUMP JUMPDEST DUP7 DUP4 LT ISZERO PUSH2 0xD1A JUMPI DUP5 DUP10 ADD MLOAD PUSH2 0xD16 PUSH1 0x1F DUP10 AND DUP3 PUSH2 0xA2A JUMP JUMPDEST DUP4 SSTORE POP JUMPDEST PUSH1 0x1 PUSH1 0x2 DUP9 MUL ADD DUP9 SSTORE POP POP POP JUMPDEST POP POP POP POP POP POP JUMP JUMPDEST PUSH0 DUP3 DUP3 MSTORE PUSH1 0x20 DUP3 ADD SWAP1 POP SWAP3 SWAP2 POP POP JUMP JUMPDEST DUP3 DUP2 DUP4 MCOPY PUSH0 DUP4 DUP4 ADD MSTORE POP POP POP JUMP JUMPDEST PUSH0 PUSH1 0x1F NOT PUSH1 0x1F DUP4 ADD AND SWAP1 POP SWAP2 SWAP1 POP JUMP JUMPDEST PUSH0 PUSH2 0xD67 DUP3 PUSH2 0xC56 JUMP JUMPDEST PUSH2 0xD71 DUP2 DUP6 PUSH2 0xD2F JUMP JUMPDEST SWAP4 POP PUSH2 0xD81 DUP2 DUP6 PUSH1 0x20 DUP7 ADD PUSH2 0xD3F JUMP JUMPDEST PUSH2 0xD8A DUP2 PUSH2 0xD4D JUMP JUMPDEST DUP5 ADD SWAP2 POP POP SWAP3 SWAP2 POP POP JUMP JUMPDEST PUSH0 PUSH1 0x20 DUP3 ADD SWAP1 POP DUP2 DUP2 SUB PUSH0 DUP4 ADD MSTORE PUSH2 0xDAD DUP2 DUP5 PUSH2 0xD5D JUMP JUMPDEST SWAP1 POP SWAP3 SWAP2 POP POP JUMP JUMPDEST PUSH2 0x57D3 DUP1 PUSH2 0xDC2 PUSH0 CODECOPY PUSH0 RETURN INVALID PUSH1 0x80 PUSH1 0x40 MSTORE PUSH1 0x4 CALLDATASIZE LT PUSH2 0x228 JUMPI PUSH0 CALLDATALOAD PUSH1 0xE0 SHR DUP1 PUSH4 0x7A5B4F59 GT PUSH2 0x122 JUMPI DUP1 PUSH4 0xA37B06D4 GT PUSH2 0xAA JUMPI DUP1 PUSH4 0xD6C1407C GT PUSH2 0x6E JUMPI DUP1 PUSH4 0xD6C1407C EQ PUSH2 0x904 JUMPI DUP1 PUSH4 0xDB8C9663 EQ PUSH2 0x92C JUMPI DUP1 PUSH4 0xDEDFF9C6 EQ PUSH2 0x954 JUMPI DUP1 PUSH4 0xF2FDE38B EQ PUSH2 0x990 JUMPI DUP1 PUSH4 0xFE2C6198 EQ PUSH2 0x9B8 JUMPI PUSH2 0x2A1 JUMP JUMPDEST DUP1 PUSH4 0xA37B06D4 EQ PUSH2 0x810 JUMPI DUP1 PUSH4 0xA3B261F2 EQ PUSH2 0x84C JUMPI DUP1 PUSH4 0xA5336919 EQ PUSH2 0x888 JUMPI DUP1 PUSH4 0xB69A6FD6 EQ PUSH2 0x8B2 JUMPI DUP1 PUSH4 0xBE9F0E6F EQ PUSH2 0x8DC JUMPI PUSH2 0x2A1 JUMP JUMPDEST DUP1 PUSH4 0x86A10DDD GT PUSH2 0xF1 JUMPI DUP1 PUSH4 0x86A10DDD EQ PUSH2 0x75A JUMPI DUP1 PUSH4 0x8994BDCF EQ PUSH2 0x782 JUMPI DUP1 PUSH4 0x8DA5CB5B EQ PUSH2 0x7AC JUMPI DUP1 PUSH4 0x93BC47F0 EQ PUSH2 0x7D6 JUMPI DUP1 PUSH4 0x97902421 EQ PUSH2 0x7F4 JUMPI PUSH2 0x2A1 JUMP JUMPDEST DUP1 PUSH4 0x7A5B4F59 EQ PUSH2 0x6C2 JUMPI DUP1 PUSH4 0x7E87632C EQ PUSH2 0x6EC JUMPI DUP1 PUSH4 0x7F23690C EQ PUSH2 0x714 JUMPI DUP1 PUSH4 0x84C4BD4B EQ PUSH2 0x730 JUMPI PUSH2 0x2A1 JUMP JUMPDEST DUP1 PUSH4 0x2A3654A4 GT PUSH2 0x1B0 JUMPI DUP1 PUSH4 0x54F6127F GT PUSH2 0x174 JUMPI DUP1 PUSH4 0x54F6127F EQ PUSH2 0x5D0 JUMPI DUP1 PUSH4 0x56A6D9EF EQ PUSH2 0x60C JUMPI DUP1 PUSH4 0x6963D438 EQ PUSH2 0x634 JUMPI DUP1 PUSH4 0x70A08231 EQ PUSH2 0x670 JUMPI DUP1 PUSH4 0x715018A6 EQ PUSH2 0x6AC JUMPI PUSH2 0x2A1 JUMP JUMPDEST DUP1 PUSH4 0x2A3654A4 EQ PUSH2 0x4F0 JUMPI DUP1 PUSH4 0x32CB6B0C EQ PUSH2 0x52C JUMPI DUP1 PUSH4 0x3CCFD60B EQ PUSH2 0x556 JUMPI DUP1 PUSH4 0x49A6078D EQ PUSH2 0x56C JUMPI DUP1 PUSH4 0x511B6952 EQ PUSH2 0x5A8 JUMPI PUSH2 0x2A1 JUMP JUMPDEST DUP1 PUSH4 0x16E023B3 GT PUSH2 0x1F7 JUMPI DUP1 PUSH4 0x16E023B3 EQ PUSH2 0x3D6 JUMPI DUP1 PUSH4 0x18160DDD EQ PUSH2 0x412 JUMPI DUP1 PUSH4 0x197EBD53 EQ PUSH2 0x43C JUMPI DUP1 PUSH4 0x1D26FCE6 EQ PUSH2 0x478 JUMPI DUP1 PUSH4 0x217B2270 EQ PUSH2 0x4B4 JUMPI PUSH2 0x2A1 JUMP JUMPDEST DUP1 PUSH4 0x1FFC9A7 EQ PUSH2 0x307 JUMPI DUP1 PUSH4 0xD254607 EQ PUSH2 0x343 JUMPI DUP1 PUSH4 0x12065FE0 EQ PUSH2 0x36D JUMPI DUP1 PUSH4 0x16685E58 EQ PUSH2 0x397 JUMPI PUSH2 0x2A1 JUMP JUMPDEST CALLDATASIZE PUSH2 0x2A1 JUMPI PUSH0 CALLVALUE SUB PUSH2 0x26F JUMPI PUSH1 0x40 MLOAD PUSH32 0xE5099EE300000000000000000000000000000000000000000000000000000000 DUP2 MSTORE PUSH1 0x4 ADD PUSH2 0x266 SWAP1 PUSH2 0x3685 JUMP JUMPDEST PUSH1 0x40 MLOAD DUP1 SWAP2 SUB SWAP1 REVERT JUMPDEST PUSH1 0x40 MLOAD PUSH32 0x61F4944200000000000000000000000000000000000000000000000000000000 DUP2 MSTORE PUSH1 0x4 ADD PUSH1 0x40 MLOAD DUP1 SWAP2 SUB SWAP1 REVERT JUMPDEST PUSH0 CALLDATASIZE PUSH1 0x60 PUSH1 0x4 PUSH0 CALLDATASIZE SWAP1 POP LT ISZERO PUSH2 0x2F0 JUMPI DUP3 DUP3 PUSH1 0x40 MLOAD PUSH32 0xE5099EE300000000000000000000000000000000000000000000000000000000 DUP2 MSTORE PUSH1 0x4 ADD PUSH2 0x2E7 SWAP3 SWAP2 SWAP1 PUSH2 0x36ED JUMP JUMPDEST PUSH1 0x40 MLOAD DUP1 SWAP2 SUB SWAP1 REVERT JUMPDEST PUSH2 0x2FA DUP4 DUP4 PUSH2 0x9F4 JUMP JUMPDEST SWAP1 POP SWAP2 POP POP DUP1 MLOAD SWAP1 PUSH1 0x20 ADD RETURN JUMPDEST CALLVALUE DUP1 ISZERO PUSH2 0x312 JUMPI PUSH0 PUSH0 REVERT JUMPDEST POP PUSH2 0x32D PUSH1 0x4 DUP1 CALLDATASIZE SUB DUP2 ADD SWAP1 PUSH2 0x328 SWAP2 SWAP1 PUSH2 0x3775 JUMP JUMPDEST PUSH2 0xB6A JUMP JUMPDEST PUSH1 0x40 MLOAD PUSH2 0x33A SWAP2 SWAP1 PUSH2 0x37BA JUMP JUMPDEST PUSH1 0x40 MLOAD DUP1 SWAP2 SUB SWAP1 RETURN JUMPDEST CALLVALUE DUP1 ISZERO PUSH2 0x34E JUMPI PUSH0 PUSH0 REVERT JUMPDEST POP PUSH2 0x357 PUSH2 0xBDA JUMP JUMPDEST PUSH1 0x40 MLOAD PUSH2 0x364 SWAP2 SWAP1 PUSH2 0x37EB JUMP JUMPDEST PUSH1 0x40 MLOAD DUP1 SWAP2 SUB SWAP1 RETURN JUMPDEST CALLVALUE DUP1 ISZERO PUSH2 0x378 JUMPI PUSH0 PUSH0 REVERT JUMPDEST POP PUSH2 0x381 PUSH2 0xBE0 JUMP JUMPDEST PUSH1 0x40 MLOAD PUSH2 0x38E SWAP2 SWAP1 PUSH2 0x37EB JUMP JUMPDEST PUSH1 0x40 MLOAD DUP1 SWAP2 SUB SWAP1 RETURN JUMPDEST CALLVALUE DUP1 ISZERO PUSH2 0x3A2 JUMPI PUSH0 PUSH0 REVERT JUMPDEST POP PUSH2 0x3BD PUSH1 0x4 DUP1 CALLDATASIZE SUB DUP2 ADD SWAP1 PUSH2 0x3B8 SWAP2 SWAP1 PUSH2 0x382E JUMP JUMPDEST PUSH2 0xBEF JUMP JUMPDEST PUSH1 0x40 MLOAD PUSH2 0x3CD SWAP5 SWAP4 SWAP3 SWAP2 SWAP1 PUSH2 0x3910 JUMP JUMPDEST PUSH1 0x40 MLOAD DUP1 SWAP2 SUB SWAP1 RETURN JUMPDEST CALLVALUE DUP1 ISZERO PUSH2 0x3E1 JUMPI PUSH0 PUSH0 REVERT JUMPDEST POP PUSH2 0x3FC PUSH1 0x4 DUP1 CALLDATASIZE SUB DUP2 ADD SWAP1 PUSH2 0x3F7 SWAP2 SWAP1 PUSH2 0x3984 JUMP JUMPDEST PUSH2 0xCCF JUMP JUMPDEST PUSH1 0x40 MLOAD PUSH2 0x409 SWAP2 SWAP1 PUSH2 0x3A04 JUMP JUMPDEST PUSH1 0x40 MLOAD DUP1 SWAP2 SUB SWAP1 RETURN JUMPDEST CALLVALUE DUP1 ISZERO PUSH2 0x41D JUMPI PUSH0 PUSH0 REVERT JUMPDEST POP PUSH2 0x426 PUSH2 0xCE3 JUMP JUMPDEST PUSH1 0x40 MLOAD PUSH2 0x433 SWAP2 SWAP1 PUSH2 0x37EB JUMP JUMPDEST PUSH1 0x40 MLOAD DUP1 SWAP2 SUB SWAP1 RETURN JUMPDEST CALLVALUE DUP1 ISZERO PUSH2 0x447 JUMPI PUSH0 PUSH0 REVERT JUMPDEST POP PUSH2 0x462 PUSH1 0x4 DUP1 CALLDATASIZE SUB DUP2 ADD SWAP1 PUSH2 0x45D SWAP2 SWAP1 PUSH2 0x382E JUMP JUMPDEST PUSH2 0xCEC JUMP JUMPDEST PUSH1 0x40 MLOAD PUSH2 0x46F SWAP2 SWAP1 PUSH2 0x3A24 JUMP JUMPDEST PUSH1 0x40 MLOAD DUP1 SWAP2 SUB SWAP1 RETURN JUMPDEST CALLVALUE DUP1 ISZERO PUSH2 0x483 JUMPI PUSH0 PUSH0 REVERT JUMPDEST POP PUSH2 0x49E PUSH1 0x4 DUP1 CALLDATASIZE SUB DUP2 ADD SWAP1 PUSH2 0x499 SWAP2 SWAP1 PUSH2 0x3B7D JUMP JUMPDEST PUSH2 0xD20 JUMP JUMPDEST PUSH1 0x40 MLOAD PUSH2 0x4AB SWAP2 SWAP1 PUSH2 0x3CF6 JUMP JUMPDEST PUSH1 0x40 MLOAD DUP1 SWAP2 SUB SWAP1 RETURN JUMPDEST CALLVALUE DUP1 ISZERO PUSH2 0x4BF JUMPI PUSH0 PUSH0 REVERT JUMPDEST POP PUSH2 0x4DA PUSH1 0x4 DUP1 CALLDATASIZE SUB DUP2 ADD SWAP1 PUSH2 0x4D5 SWAP2 SWAP1 PUSH2 0x3D16 JUMP JUMPDEST PUSH2 0xE27 JUMP JUMPDEST PUSH1 0x40 MLOAD PUSH2 0x4E7 SWAP2 SWAP1 PUSH2 0x3A24 JUMP JUMPDEST PUSH1 0x40 MLOAD DUP1 SWAP2 SUB SWAP1 RETURN JUMPDEST CALLVALUE DUP1 ISZERO PUSH2 0x4FB JUMPI PUSH0 PUSH0 REVERT JUMPDEST POP PUSH2 0x516 PUSH1 0x4 DUP1 CALLDATASIZE SUB DUP2 ADD SWAP1 PUSH2 0x511 SWAP2 SWAP1 PUSH2 0x3D6B JUMP JUMPDEST PUSH2 0xED5 JUMP JUMPDEST PUSH1 0x40 MLOAD PUSH2 0x523 SWAP2 SWAP1 PUSH2 0x37BA JUMP JUMPDEST PUSH1 0x40 MLOAD DUP1 SWAP2 SUB SWAP1 RETURN JUMPDEST CALLVALUE DUP1 ISZERO PUSH2 0x537 JUMPI PUSH0 PUSH0 REVERT JUMPDEST POP PUSH2 0x540 PUSH2 0xEE8 JUMP JUMPDEST PUSH1 0x40 MLOAD PUSH2 0x54D SWAP2 SWAP1 PUSH2 0x37EB JUMP JUMPDEST PUSH1 0x40 MLOAD DUP1 SWAP2 SUB SWAP1 RETURN JUMPDEST CALLVALUE DUP1 ISZERO PUSH2 0x561 JUMPI PUSH0 PUSH0 REVERT JUMPDEST POP PUSH2 0x56A PUSH2 0xEEE JUMP JUMPDEST STOP JUMPDEST CALLVALUE DUP1 ISZERO PUSH2 0x577 JUMPI PUSH0 PUSH0 REVERT JUMPDEST POP PUSH2 0x592 PUSH1 0x4 DUP1 CALLDATASIZE SUB DUP2 ADD SWAP1 PUSH2 0x58D SWAP2 SWAP1 PUSH2 0x3D16 JUMP JUMPDEST PUSH2 0xFAD JUMP JUMPDEST PUSH1 0x40 MLOAD PUSH2 0x59F SWAP2 SWAP1 PUSH2 0x3E60 JUMP JUMPDEST PUSH1 0x40 MLOAD DUP1 SWAP2 SUB SWAP1 RETURN JUMPDEST CALLVALUE DUP1 ISZERO PUSH2 0x5B3 JUMPI PUSH0 PUSH0 REVERT JUMPDEST POP PUSH2 0x5CE PUSH1 0x4 DUP1 CALLDATASIZE SUB DUP2 ADD SWAP1 PUSH2 0x5C9 SWAP2 SWAP1 PUSH2 0x3F4C JUMP JUMPDEST PUSH2 0xFD8 JUMP JUMPDEST STOP JUMPDEST CALLVALUE DUP1 ISZERO PUSH2 0x5DB JUMPI PUSH0 PUSH0 REVERT JUMPDEST POP PUSH2 0x5F6 PUSH1 0x4 DUP1 CALLDATASIZE SUB DUP2 ADD SWAP1 PUSH2 0x5F1 SWAP2 SWAP1 PUSH2 0x3D16 JUMP JUMPDEST PUSH2 0x1039 JUMP JUMPDEST PUSH1 0x40 MLOAD PUSH2 0x603 SWAP2 SWAP1 PUSH2 0x3A04 JUMP JUMPDEST PUSH1 0x40 MLOAD DUP1 SWAP2 SUB SWAP1 RETURN JUMPDEST CALLVALUE DUP1 ISZERO PUSH2 0x617 JUMPI PUSH0 PUSH0 REVERT JUMPDEST POP PUSH2 0x632 PUSH1 0x4 DUP1 CALLDATASIZE SUB DUP2 ADD SWAP1 PUSH2 0x62D SWAP2 SWAP1 PUSH2 0x401A JUMP JUMPDEST PUSH2 0x104B JUMP JUMPDEST STOP JUMPDEST CALLVALUE DUP1 ISZERO PUSH2 0x63F JUMPI PUSH0 PUSH0 REVERT JUMPDEST POP PUSH2 0x65A PUSH1 0x4 DUP1 CALLDATASIZE SUB DUP2 ADD SWAP1 PUSH2 0x655 SWAP2 SWAP1 PUSH2 0x40B1 JUMP JUMPDEST PUSH2 0x1100 JUMP JUMPDEST PUSH1 0x40 MLOAD PUSH2 0x667 SWAP2 SWAP1 PUSH2 0x3CF6 JUMP JUMPDEST PUSH1 0x40 MLOAD DUP1 SWAP2 SUB SWAP1 RETURN JUMPDEST CALLVALUE DUP1 ISZERO PUSH2 0x67B JUMPI PUSH0 PUSH0 REVERT JUMPDEST POP PUSH2 0x696 PUSH1 0x4 DUP1 CALLDATASIZE SUB DUP2 ADD SWAP1 PUSH2 0x691 SWAP2 SWAP1 PUSH2 0x40FC JUMP JUMPDEST PUSH2 0x1276 JUMP JUMPDEST PUSH1 0x40 MLOAD PUSH2 0x6A3 SWAP2 SWAP1 PUSH2 0x37EB JUMP JUMPDEST PUSH1 0x40 MLOAD DUP1 SWAP2 SUB SWAP1 RETURN JUMPDEST CALLVALUE DUP1 ISZERO PUSH2 0x6B7 JUMPI PUSH0 PUSH0 REVERT JUMPDEST POP PUSH2 0x6C0 PUSH2 0x12C3 JUMP JUMPDEST STOP JUMPDEST CALLVALUE DUP1 ISZERO PUSH2 0x6CD JUMPI PUSH0 PUSH0 REVERT JUMPDEST POP PUSH2 0x6D6 PUSH2 0x12D6 JUMP JUMPDEST PUSH1 0x40 MLOAD PUSH2 0x6E3 SWAP2 SWAP1 PUSH2 0x3A04 JUMP JUMPDEST PUSH1 0x40 MLOAD DUP1 SWAP2 SUB SWAP1 RETURN JUMPDEST CALLVALUE DUP1 ISZERO PUSH2 0x6F7 JUMPI PUSH0 PUSH0 REVERT JUMPDEST POP PUSH2 0x712 PUSH1 0x4 DUP1 CALLDATASIZE SUB DUP2 ADD SWAP1 PUSH2 0x70D SWAP2 SWAP1 PUSH2 0x4385 JUMP JUMPDEST PUSH2 0x13C9 JUMP JUMPDEST STOP JUMPDEST PUSH2 0x72E PUSH1 0x4 DUP1 CALLDATASIZE SUB DUP2 ADD SWAP1 PUSH2 0x729 SWAP2 SWAP1 PUSH2 0x4488 JUMP JUMPDEST PUSH2 0x14DB JUMP JUMPDEST STOP JUMPDEST CALLVALUE DUP1 ISZERO PUSH2 0x73B JUMPI PUSH0 PUSH0 REVERT JUMPDEST POP PUSH2 0x744 PUSH2 0x152A JUMP JUMPDEST PUSH1 0x40 MLOAD PUSH2 0x751 SWAP2 SWAP1 PUSH2 0x37EB JUMP JUMPDEST PUSH1 0x40 MLOAD DUP1 SWAP2 SUB SWAP1 RETURN JUMPDEST CALLVALUE DUP1 ISZERO PUSH2 0x765 JUMPI PUSH0 PUSH0 REVERT JUMPDEST POP PUSH2 0x780 PUSH1 0x4 DUP1 CALLDATASIZE SUB DUP2 ADD SWAP1 PUSH2 0x77B SWAP2 SWAP1 PUSH2 0x44E2 JUMP JUMPDEST PUSH2 0x1535 JUMP JUMPDEST STOP JUMPDEST CALLVALUE DUP1 ISZERO PUSH2 0x78D JUMPI PUSH0 PUSH0 REVERT JUMPDEST POP PUSH2 0x796 PUSH2 0x178B JUMP JUMPDEST PUSH1 0x40 MLOAD PUSH2 0x7A3 SWAP2 SWAP1 PUSH2 0x37EB JUMP JUMPDEST PUSH1 0x40 MLOAD DUP1 SWAP2 SUB SWAP1 RETURN JUMPDEST CALLVALUE DUP1 ISZERO PUSH2 0x7B7 JUMPI PUSH0 PUSH0 REVERT JUMPDEST POP PUSH2 0x7C0 PUSH2 0x1791 JUMP JUMPDEST PUSH1 0x40 MLOAD PUSH2 0x7CD SWAP2 SWAP1 PUSH2 0x3A24 JUMP JUMPDEST PUSH1 0x40 MLOAD DUP1 SWAP2 SUB SWAP1 RETURN JUMPDEST PUSH2 0x7DE PUSH2 0x17B8 JUMP JUMPDEST PUSH1 0x40 MLOAD PUSH2 0x7EB SWAP2 SWAP1 PUSH2 0x4605 JUMP JUMPDEST PUSH1 0x40 MLOAD DUP1 SWAP2 SUB SWAP1 RETURN JUMPDEST PUSH2 0x80E PUSH1 0x4 DUP1 CALLDATASIZE SUB DUP2 ADD SWAP1 PUSH2 0x809 SWAP2 SWAP1 PUSH2 0x4625 JUMP JUMPDEST PUSH2 0x1826 JUMP JUMPDEST STOP JUMPDEST CALLVALUE DUP1 ISZERO PUSH2 0x81B JUMPI PUSH0 PUSH0 REVERT JUMPDEST POP PUSH2 0x836 PUSH1 0x4 DUP1 CALLDATASIZE SUB DUP2 ADD SWAP1 PUSH2 0x831 SWAP2 SWAP1 PUSH2 0x469B JUMP JUMPDEST PUSH2 0x1938 JUMP JUMPDEST PUSH1 0x40 MLOAD PUSH2 0x843 SWAP2 SWAP1 PUSH2 0x37EB JUMP JUMPDEST PUSH1 0x40 MLOAD DUP1 SWAP2 SUB SWAP1 RETURN JUMPDEST CALLVALUE DUP1 ISZERO PUSH2 0x857 JUMPI PUSH0 PUSH0 REVERT JUMPDEST POP PUSH2 0x872 PUSH1 0x4 DUP1 CALLDATASIZE SUB DUP2 ADD SWAP1 PUSH2 0x86D SWAP2 SWAP1 PUSH2 0x40FC JUMP JUMPDEST PUSH2 0x1971 JUMP JUMPDEST PUSH1 0x40 MLOAD PUSH2 0x87F SWAP2 SWAP1 PUSH2 0x4605 JUMP JUMPDEST PUSH1 0x40 MLOAD DUP1 SWAP2 SUB SWAP1 RETURN JUMPDEST CALLVALUE DUP1 ISZERO PUSH2 0x893 JUMPI PUSH0 PUSH0 REVERT JUMPDEST POP PUSH2 0x89C PUSH2 0x19BF JUMP JUMPDEST PUSH1 0x40 MLOAD PUSH2 0x8A9 SWAP2 SWAP1 PUSH2 0x3A24 JUMP JUMPDEST PUSH1 0x40 MLOAD DUP1 SWAP2 SUB SWAP1 RETURN JUMPDEST CALLVALUE DUP1 ISZERO PUSH2 0x8BD JUMPI PUSH0 PUSH0 REVERT JUMPDEST POP PUSH2 0x8C6 PUSH2 0x19E4 JUMP JUMPDEST PUSH1 0x40 MLOAD PUSH2 0x8D3 SWAP2 SWAP1 PUSH2 0x3A04 JUMP JUMPDEST PUSH1 0x40 MLOAD DUP1 SWAP2 SUB SWAP1 RETURN JUMPDEST CALLVALUE DUP1 ISZERO PUSH2 0x8E7 JUMPI PUSH0 PUSH0 REVERT JUMPDEST POP PUSH2 0x902 PUSH1 0x4 DUP1 CALLDATASIZE SUB DUP2 ADD SWAP1 PUSH2 0x8FD SWAP2 SWAP1 PUSH2 0x46D9 JUMP JUMPDEST PUSH2 0x1A70 JUMP JUMPDEST STOP JUMPDEST CALLVALUE DUP1 ISZERO PUSH2 0x90F JUMPI PUSH0 PUSH0 REVERT JUMPDEST POP PUSH2 0x92A PUSH1 0x4 DUP1 CALLDATASIZE SUB DUP2 ADD SWAP1 PUSH2 0x925 SWAP2 SWAP1 PUSH2 0x477D JUMP JUMPDEST PUSH2 0x1B71 JUMP JUMPDEST STOP JUMPDEST CALLVALUE DUP1 ISZERO PUSH2 0x937 JUMPI PUSH0 PUSH0 REVERT JUMPDEST POP PUSH2 0x952 PUSH1 0x4 DUP1 CALLDATASIZE SUB DUP2 ADD SWAP1 PUSH2 0x94D SWAP2 SWAP1 PUSH2 0x47E9 JUMP JUMPDEST PUSH2 0x1B89 JUMP JUMPDEST STOP JUMPDEST CALLVALUE DUP1 ISZERO PUSH2 0x95F JUMPI PUSH0 PUSH0 REVERT JUMPDEST POP PUSH2 0x97A PUSH1 0x4 DUP1 CALLDATASIZE SUB DUP2 ADD SWAP1 PUSH2 0x975 SWAP2 SWAP1 PUSH2 0x4869 JUMP JUMPDEST PUSH2 0x1D56 JUMP JUMPDEST PUSH1 0x40 MLOAD PUSH2 0x987 SWAP2 SWAP1 PUSH2 0x3CF6 JUMP JUMPDEST PUSH1 0x40 MLOAD DUP1 SWAP2 SUB SWAP1 RETURN JUMPDEST CALLVALUE DUP1 ISZERO PUSH2 0x99B JUMPI PUSH0 PUSH0 REVERT JUMPDEST POP PUSH2 0x9B6 PUSH1 0x4 DUP1 CALLDATASIZE SUB DUP2 ADD SWAP1 PUSH2 0x9B1 SWAP2 SWAP1 PUSH2 0x40FC JUMP JUMPDEST PUSH2 0x1E09 JUMP JUMPDEST STOP JUMPDEST CALLVALUE DUP1 ISZERO PUSH2 0x9C3 JUMPI PUSH0 PUSH0 REVERT JUMPDEST POP PUSH2 0x9DE PUSH1 0x4 DUP1 CALLDATASIZE SUB DUP2 ADD SWAP1 PUSH2 0x9D9 SWAP2 SWAP1 PUSH2 0x494E JUMP JUMPDEST PUSH2 0x1E82 JUMP JUMPDEST PUSH1 0x40 MLOAD PUSH2 0x9EB SWAP2 SWAP1 PUSH2 0x37EB JUMP JUMPDEST PUSH1 0x40 MLOAD DUP1 SWAP2 SUB SWAP1 RETURN JUMPDEST PUSH1 0x60 PUSH0 PUSH2 0xA23 PUSH0 CALLDATALOAD PUSH32 0xFFFFFFFF00000000000000000000000000000000000000000000000000000000 AND PUSH2 0x1EAF JUMP JUMPDEST POP SWAP1 POP PUSH0 PUSH20 0xFFFFFFFFFFFFFFFFFFFFFFFFFFFFFFFFFFFFFFFF AND DUP2 PUSH20 0xFFFFFFFFFFFFFFFFFFFFFFFFFFFFFFFFFFFFFFFF AND SUB PUSH2 0xAB9 JUMPI PUSH0 CALLDATALOAD PUSH32 0xFFFFFFFF00000000000000000000000000000000000000000000000000000000 AND PUSH1 0x40 MLOAD PUSH32 0xBB370B2B00000000000000000000000000000000000000000000000000000000 DUP2 MSTORE PUSH1 0x4 ADD PUSH2 0xAB0 SWAP2 SWAP1 PUSH2 0x49A4 JUMP JUMPDEST PUSH1 0x40 MLOAD DUP1 SWAP2 SUB SWAP1 REVERT JUMPDEST PUSH0 PUSH0 DUP3 PUSH20 0xFFFFFFFFFFFFFFFFFFFFFFFFFFFFFFFFFFFFFFFF AND CALLVALUE DUP8 DUP8 CALLER CALLVALUE PUSH1 0x40 MLOAD PUSH1 0x20 ADD PUSH2 0xAEA SWAP5 SWAP4 SWAP3 SWAP2 SWAP1 PUSH2 0x4A50 JUMP JUMPDEST PUSH1 0x40 MLOAD PUSH1 0x20 DUP2 DUP4 SUB SUB DUP2 MSTORE SWAP1 PUSH1 0x40 MSTORE PUSH1 0x40 MLOAD PUSH2 0xB06 SWAP2 SWAP1 PUSH2 0x4ABA JUMP JUMPDEST PUSH0 PUSH1 0x40 MLOAD DUP1 DUP4 SUB DUP2 DUP6 DUP8 GAS CALL SWAP3 POP POP POP RETURNDATASIZE DUP1 PUSH0 DUP2 EQ PUSH2 0xB40 JUMPI PUSH1 0x40 MLOAD SWAP2 POP PUSH1 0x1F NOT PUSH1 0x3F RETURNDATASIZE ADD AND DUP3 ADD PUSH1 0x40 MSTORE RETURNDATASIZE DUP3 MSTORE RETURNDATASIZE PUSH0 PUSH1 0x20 DUP5 ADD RETURNDATACOPY PUSH2 0xB45 JUMP JUMPDEST PUSH1 0x60 SWAP2 POP JUMPDEST POP SWAP2 POP SWAP2 POP DUP2 ISZERO PUSH2 0xB5B JUMPI DUP1 SWAP4 POP POP POP POP PUSH2 0xB64 JUMP JUMPDEST DUP1 MLOAD DUP1 PUSH1 0x20 DUP4 ADD REVERT JUMPDEST SWAP3 SWAP2 POP POP JUMP JUMPDEST PUSH0 PUSH4 0x3A271706 PUSH1 0xE0 SHL PUSH28 0xFFFFFFFFFFFFFFFFFFFFFFFFFFFFFFFFFFFFFFFFFFFFFFFFFFFFFFFF NOT AND DUP3 PUSH28 0xFFFFFFFFFFFFFFFFFFFFFFFFFFFFFFFFFFFFFFFFFFFFFFFFFFFFFFFF NOT AND EQ DUP1 PUSH2 0xBC3 JUMPI POP PUSH2 0xBC2 DUP3 PUSH2 0x1F65 JUMP JUMPDEST JUMPDEST DUP1 PUSH2 0xBD3 JUMPI POP PUSH2 0xBD2 DUP3 PUSH2 0x1FC5 JUMP JUMPDEST JUMPDEST SWAP1 POP SWAP2 SWAP1 POP JUMP JUMPDEST PUSH1 0xD SLOAD DUP2 JUMP JUMPDEST PUSH0 PUSH2 0xBE9 PUSH2 0x2029 JUMP JUMPDEST SELFBALANCE SWAP1 POP SWAP1 JUMP JUMPDEST PUSH1 0x11 DUP2 DUP2 SLOAD DUP2 LT PUSH2 0xBFE JUMPI PUSH0 DUP1 REVERT JUMPDEST SWAP1 PUSH0 MSTORE PUSH1 0x20 PUSH0 KECCAK256 SWAP1 PUSH1 0x4 MUL ADD PUSH0 SWAP2 POP SWAP1 POP DUP1 PUSH0 ADD PUSH0 SWAP1 SLOAD SWAP1 PUSH2 0x100 EXP SWAP1 DIV PUSH20 0xFFFFFFFFFFFFFFFFFFFFFFFFFFFFFFFFFFFFFFFF AND SWAP1 DUP1 PUSH1 0x1 ADD SLOAD SWAP1 DUP1 PUSH1 0x2 ADD SLOAD SWAP1 DUP1 PUSH1 0x3 ADD DUP1 SLOAD PUSH2 0xC4E SWAP1 PUSH2 0x4AFD JUMP JUMPDEST DUP1 PUSH1 0x1F ADD PUSH1 0x20 DUP1 SWAP2 DIV MUL PUSH1 0x20 ADD PUSH1 0x40 MLOAD SWAP1 DUP2 ADD PUSH1 0x40 MSTORE DUP1 SWAP3 SWAP2 SWAP1 DUP2 DUP2 MSTORE PUSH1 0x20 ADD DUP3 DUP1 SLOAD PUSH2 0xC7A SWAP1 PUSH2 0x4AFD JUMP JUMPDEST DUP1 ISZERO PUSH2 0xCC5 JUMPI DUP1 PUSH1 0x1F LT PUSH2 0xC9C JUMPI PUSH2 0x100 DUP1 DUP4 SLOAD DIV MUL DUP4 MSTORE SWAP2 PUSH1 0x20 ADD SWAP2 PUSH2 0xCC5 JUMP JUMPDEST DUP3 ADD SWAP2 SWAP1 PUSH0 MSTORE PUSH1 0x20 PUSH0 KECCAK256 SWAP1 JUMPDEST DUP2 SLOAD DUP2 MSTORE SWAP1 PUSH1 0x1 ADD SWAP1 PUSH1 0x20 ADD DUP1 DUP4 GT PUSH2 0xCA8 JUMPI DUP3 SWAP1 SUB PUSH1 0x1F AND DUP3 ADD SWAP2 JUMPDEST POP POP POP POP POP SWAP1 POP DUP5 JUMP JUMPDEST PUSH1 0x60 PUSH2 0xCDB DUP4 DUP4 PUSH2 0x20A2 JUMP JUMPDEST SWAP1 POP SWAP3 SWAP2 POP POP JUMP JUMPDEST PUSH0 PUSH1 0x2 SLOAD SWAP1 POP SWAP1 JUMP JUMPDEST PUSH1 0xA DUP2 PUSH1 0x3 DUP2 LT PUSH2 0xCFB JUMPI PUSH0 DUP1 REVERT JUMPDEST ADD PUSH0 SWAP2 POP SLOAD SWAP1 PUSH2 0x100 EXP SWAP1 DIV PUSH20 0xFFFFFFFFFFFFFFFFFFFFFFFFFFFFFFFFFFFFFFFF AND DUP2 JUMP JUMPDEST PUSH1 0x60 DUP2 MLOAD DUP4 MLOAD EQ PUSH2 0xD5D JUMPI PUSH1 0x40 MLOAD PUSH32 0x2FA71DFE00000000000000000000000000000000000000000000000000000000 DUP2 MSTORE PUSH1 0x4 ADD PUSH1 0x40 MLOAD DUP1 SWAP2 SUB SWAP1 REVERT JUMPDEST DUP3 MLOAD PUSH8 0xFFFFFFFFFFFFFFFF DUP2 GT ISZERO PUSH2 0xD78 JUMPI PUSH2 0xD77 PUSH2 0x3A41 JUMP JUMPDEST JUMPDEST PUSH1 0x40 MLOAD SWAP1 DUP1 DUP3 MSTORE DUP1 PUSH1 0x20 MUL PUSH1 0x20 ADD DUP3 ADD PUSH1 0x40 MSTORE DUP1 ISZERO PUSH2 0xDAB JUMPI DUP2 PUSH1 0x20 ADD JUMPDEST PUSH1 0x60 DUP2 MSTORE PUSH1 0x20 ADD SWAP1 PUSH1 0x1 SWAP1 SUB SWAP1 DUP2 PUSH2 0xD96 JUMPI SWAP1 POP JUMPDEST POP SWAP1 POP PUSH0 JUMPDEST DUP4 MLOAD DUP2 LT ISZERO PUSH2 0xE20 JUMPI PUSH2 0xDF7 DUP5 DUP3 DUP2 MLOAD DUP2 LT PUSH2 0xDCF JUMPI PUSH2 0xDCE PUSH2 0x4B2D JUMP JUMPDEST JUMPDEST PUSH1 0x20 MUL PUSH1 0x20 ADD ADD MLOAD DUP5 DUP4 DUP2 MLOAD DUP2 LT PUSH2 0xDEA JUMPI PUSH2 0xDE9 PUSH2 0x4B2D JUMP JUMPDEST JUMPDEST PUSH1 0x20 MUL PUSH1 0x20 ADD ADD MLOAD PUSH2 0x20A2 JUMP JUMPDEST DUP3 DUP3 DUP2 MLOAD DUP2 LT PUSH2 0xE0A JUMPI PUSH2 0xE09 PUSH2 0x4B2D JUMP JUMPDEST JUMPDEST PUSH1 0x20 MUL PUSH1 0x20 ADD ADD DUP2 SWAP1 MSTORE POP DUP1 PUSH1 0x1 ADD SWAP1 POP PUSH2 0xDB0 JUMP JUMPDEST POP SWAP3 SWAP2 POP POP JUMP JUMPDEST PUSH0 PUSH0 PUSH1 0x3 PUSH0 DUP5 DUP2 MSTORE PUSH1 0x20 ADD SWAP1 DUP2 MSTORE PUSH1 0x20 ADD PUSH0 KECCAK256 PUSH0 SWAP1 SLOAD SWAP1 PUSH2 0x100 EXP SWAP1 DIV PUSH20 0xFFFFFFFFFFFFFFFFFFFFFFFFFFFFFFFFFFFFFFFF AND SWAP1 POP PUSH0 PUSH20 0xFFFFFFFFFFFFFFFFFFFFFFFFFFFFFFFFFFFFFFFF AND DUP2 PUSH20 0xFFFFFFFFFFFFFFFFFFFFFFFFFFFFFFFFFFFFFFFF AND SUB PUSH2 0xECC JUMPI DUP3 PUSH1 0x40 MLOAD PUSH32 0xAE8F9A3600000000000000000000000000000000000000000000000000000000 DUP2 MSTORE PUSH1 0x4 ADD PUSH2 0xEC3 SWAP2 SWAP1 PUSH2 0x4B5A JUMP JUMPDEST PUSH1 0x40 MLOAD DUP1 SWAP2 SUB SWAP1 REVERT JUMPDEST DUP1 SWAP2 POP POP SWAP2 SWAP1 POP JUMP JUMPDEST PUSH0 PUSH2 0xEE0 DUP4 DUP4 PUSH2 0x2153 JUMP JUMPDEST SWAP1 POP SWAP3 SWAP2 POP POP JUMP JUMPDEST PUSH2 0x978 DUP2 JUMP JUMPDEST PUSH2 0xEF6 PUSH2 0x2029 JUMP JUMPDEST PUSH0 SELFBALANCE SWAP1 POP PUSH0 PUSH2 0xF03 PUSH2 0x1791 JUMP JUMPDEST PUSH20 0xFFFFFFFFFFFFFFFFFFFFFFFFFFFFFFFFFFFFFFFF AND DUP3 PUSH1 0x40 MLOAD PUSH2 0xF26 SWAP1 PUSH2 0x4B96 JUMP JUMPDEST PUSH0 PUSH1 0x40 MLOAD DUP1 DUP4 SUB DUP2 DUP6 DUP8 GAS CALL SWAP3 POP POP POP RETURNDATASIZE DUP1 PUSH0 DUP2 EQ PUSH2 0xF60 JUMPI PUSH1 0x40 MLOAD SWAP2 POP PUSH1 0x1F NOT PUSH1 0x3F RETURNDATASIZE ADD AND DUP3 ADD PUSH1 0x40 MSTORE RETURNDATASIZE DUP3 MSTORE RETURNDATASIZE PUSH0 PUSH1 0x20 DUP5 ADD RETURNDATACOPY PUSH2 0xF65 JUMP JUMPDEST PUSH1 0x60 SWAP2 POP JUMPDEST POP POP SWAP1 POP DUP1 PUSH2 0xFA9 JUMPI PUSH1 0x40 MLOAD PUSH32 0x8C379A000000000000000000000000000000000000000000000000000000000 DUP2 MSTORE PUSH1 0x4 ADD PUSH2 0xFA0 SWAP1 PUSH2 0x4BF4 JUMP JUMPDEST PUSH1 0x40 MLOAD DUP1 SWAP2 SUB SWAP1 REVERT JUMPDEST POP POP JUMP JUMPDEST PUSH1 0x60 PUSH2 0xFB8 DUP3 PUSH2 0x21BD JUMP JUMPDEST PUSH2 0xFD1 PUSH1 0x5 PUSH0 DUP5 DUP2 MSTORE PUSH1 0x20 ADD SWAP1 DUP2 MSTORE PUSH1 0x20 ADD PUSH0 KECCAK256 PUSH2 0x220A JUMP JUMPDEST SWAP1 POP SWAP2 SWAP1 POP JUMP JUMPDEST PUSH2 0xFE2 CALLER DUP5 PUSH2 0x2153 JUMP JUMPDEST PUSH2 0x1025 JUMPI DUP3 CALLER PUSH1 0x40 MLOAD PUSH32 0x1294D2A900000000000000000000000000000000000000000000000000000000 DUP2 MSTORE PUSH1 0x4 ADD PUSH2 0x101C SWAP3 SWAP2 SWAP1 PUSH2 0x4C12 JUMP JUMPDEST PUSH1 0x40 MLOAD DUP1 SWAP2 SUB SWAP1 REVERT JUMPDEST PUSH2 0x1032 DUP6 DUP6 DUP6 DUP6 DUP6 PUSH2 0x2229 JUMP JUMPDEST POP POP POP POP POP JUMP JUMPDEST PUSH1 0x60 PUSH2 0x1044 DUP3 PUSH2 0x2553 JUMP JUMPDEST SWAP1 POP SWAP2 SWAP1 POP JUMP JUMPDEST PUSH2 0x1053 PUSH2 0x2029 JUMP JUMPDEST PUSH0 DUP3 PUSH20 0xFFFFFFFFFFFFFFFFFFFFFFFFFFFFFFFFFFFFFFFF AND DUP3 PUSH1 0x40 MLOAD PUSH2 0x1078 SWAP1 PUSH2 0x4B96 JUMP JUMPDEST PUSH0 PUSH1 0x40 MLOAD DUP1 DUP4 SUB DUP2 DUP6 DUP8 GAS CALL SWAP3 POP POP POP RETURNDATASIZE DUP1 PUSH0 DUP2 EQ PUSH2 0x10B2 JUMPI PUSH1 0x40 MLOAD SWAP2 POP PUSH1 0x1F NOT PUSH1 0x3F RETURNDATASIZE ADD AND DUP3 ADD PUSH1 0x40 MSTORE RETURNDATASIZE DUP3 MSTORE RETURNDATASIZE PUSH0 PUSH1 0x20 DUP5 ADD RETURNDATACOPY PUSH2 0x10B7 JUMP JUMPDEST PUSH1 0x60 SWAP2 POP JUMPDEST POP POP SWAP1 POP DUP1 PUSH2 0x10FB JUMPI PUSH1 0x40 MLOAD PUSH32 0x8C379A000000000000000000000000000000000000000000000000000000000 DUP2 MSTORE PUSH1 0x4 ADD PUSH2 0x10F2 SWAP1 PUSH2 0x4BF4 JUMP JUMPDEST PUSH1 0x40 MLOAD DUP1 SWAP2 SUB SWAP1 REVERT JUMPDEST POP POP POP JUMP JUMPDEST PUSH1 0x60 DUP3 DUP3 SWAP1 POP PUSH8 0xFFFFFFFFFFFFFFFF DUP2 GT ISZERO PUSH2 0x111F JUMPI PUSH2 0x111E PUSH2 0x3A41 JUMP JUMPDEST JUMPDEST PUSH1 0x40 MLOAD SWAP1 DUP1 DUP3 MSTORE DUP1 PUSH1 0x20 MUL PUSH1 0x20 ADD DUP3 ADD PUSH1 0x40 MSTORE DUP1 ISZERO PUSH2 0x1152 JUMPI DUP2 PUSH1 0x20 ADD JUMPDEST PUSH1 0x60 DUP2 MSTORE PUSH1 0x20 ADD SWAP1 PUSH1 0x1 SWAP1 SUB SWAP1 DUP2 PUSH2 0x113D JUMPI SWAP1 POP JUMPDEST POP SWAP1 POP PUSH0 JUMPDEST DUP4 DUP4 SWAP1 POP DUP2 LT ISZERO PUSH2 0x126F JUMPI PUSH0 PUSH0 ADDRESS PUSH20 0xFFFFFFFFFFFFFFFFFFFFFFFFFFFFFFFFFFFFFFFF AND DUP7 DUP7 DUP6 DUP2 DUP2 LT PUSH2 0x118E JUMPI PUSH2 0x118D PUSH2 0x4B2D JUMP JUMPDEST JUMPDEST SWAP1 POP PUSH1 0x20 MUL DUP2 ADD SWAP1 PUSH2 0x11A0 SWAP2 SWAP1 PUSH2 0x4C45 JUMP JUMPDEST PUSH1 0x40 MLOAD PUSH2 0x11AE SWAP3 SWAP2 SWAP1 PUSH2 0x4CA7 JUMP JUMPDEST PUSH0 PUSH1 0x40 MLOAD DUP1 DUP4 SUB DUP2 DUP6 GAS DELEGATECALL SWAP2 POP POP RETURNDATASIZE DUP1 PUSH0 DUP2 EQ PUSH2 0x11E6 JUMPI PUSH1 0x40 MLOAD SWAP2 POP PUSH1 0x1F NOT PUSH1 0x3F RETURNDATASIZE ADD AND DUP3 ADD PUSH1 0x40 MSTORE RETURNDATASIZE DUP3 MSTORE RETURNDATASIZE PUSH0 PUSH1 0x20 DUP5 ADD RETURNDATACOPY PUSH2 0x11EB JUMP JUMPDEST PUSH1 0x60 SWAP2 POP JUMPDEST POP SWAP2 POP SWAP2 POP DUP2 PUSH2 0x1243 JUMPI PUSH0 DUP2 MLOAD EQ PUSH2 0x1206 JUMPI DUP1 MLOAD DUP1 DUP3 PUSH1 0x20 ADD REVERT JUMPDEST DUP3 PUSH1 0x40 MLOAD PUSH32 0x234EB81900000000000000000000000000000000000000000000000000000000 DUP2 MSTORE PUSH1 0x4 ADD PUSH2 0x123A SWAP2 SWAP1 PUSH2 0x37EB JUMP JUMPDEST PUSH1 0x40 MLOAD DUP1 SWAP2 SUB SWAP1 REVERT JUMPDEST DUP1 DUP5 DUP5 DUP2 MLOAD DUP2 LT PUSH2 0x1257 JUMPI PUSH2 0x1256 PUSH2 0x4B2D JUMP JUMPDEST JUMPDEST PUSH1 0x20 MUL PUSH1 0x20 ADD ADD DUP2 SWAP1 MSTORE POP DUP3 PUSH1 0x1 ADD SWAP3 POP POP POP PUSH2 0x1157 JUMP JUMPDEST POP SWAP3 SWAP2 POP POP JUMP JUMPDEST PUSH0 PUSH2 0x12BC PUSH1 0x4 PUSH0 DUP5 PUSH20 0xFFFFFFFFFFFFFFFFFFFFFFFFFFFFFFFFFFFFFFFF AND PUSH20 0xFFFFFFFFFFFFFFFFFFFFFFFFFFFFFFFFFFFFFFFF AND DUP2 MSTORE PUSH1 0x20 ADD SWAP1 DUP2 MSTORE PUSH1 0x20 ADD PUSH0 KECCAK256 PUSH2 0x25F4 JUMP JUMPDEST SWAP1 POP SWAP2 SWAP1 POP JUMP JUMPDEST PUSH2 0x12CB PUSH2 0x2029 JUMP JUMPDEST PUSH2 0x12D4 PUSH0 PUSH2 0x2607 JUMP JUMPDEST JUMP JUMPDEST PUSH1 0x60 PUSH0 PUSH1 0xF PUSH1 0x40 MLOAD PUSH2 0x12E8 SWAP2 SWAP1 PUSH2 0x4D51 JUMP JUMPDEST PUSH1 0x40 MLOAD DUP1 SWAP2 SUB SWAP1 KECCAK256 PUSH2 0x1381 PUSH1 0xF DUP1 SLOAD PUSH2 0x1300 SWAP1 PUSH2 0x4AFD JUMP JUMPDEST DUP1 PUSH1 0x1F ADD PUSH1 0x20 DUP1 SWAP2 DIV MUL PUSH1 0x20 ADD PUSH1 0x40 MLOAD SWAP1 DUP2 ADD PUSH1 0x40 MSTORE DUP1 SWAP3 SWAP2 SWAP1 DUP2 DUP2 MSTORE PUSH1 0x20 ADD DUP3 DUP1 SLOAD PUSH2 0x132C SWAP1 PUSH2 0x4AFD JUMP JUMPDEST DUP1 ISZERO PUSH2 0x1377 JUMPI DUP1 PUSH1 0x1F LT PUSH2 0x134E JUMPI PUSH2 0x100 DUP1 DUP4 SLOAD DIV MUL DUP4 MSTORE SWAP2 PUSH1 0x20 ADD SWAP2 PUSH2 0x1377 JUMP JUMPDEST DUP3 ADD SWAP2 SWAP1 PUSH0 MSTORE PUSH1 0x20 PUSH0 KECCAK256 SWAP1 JUMPDEST DUP2 SLOAD DUP2 MSTORE SWAP1 PUSH1 0x1 ADD SWAP1 PUSH1 0x20 ADD DUP1 DUP4 GT PUSH2 0x135A JUMPI DUP3 SWAP1 SUB PUSH1 0x1F AND DUP3 ADD SWAP2 JUMPDEST POP POP POP POP POP PUSH2 0x26FE JUMP JUMPDEST PUSH1 0x40 MLOAD PUSH1 0x20 ADD PUSH2 0x1391 SWAP2 SWAP1 PUSH2 0x4DEB JUMP JUMPDEST PUSH1 0x40 MLOAD PUSH1 0x20 DUP2 DUP4 SUB SUB DUP2 MSTORE SWAP1 PUSH1 0x40 MSTORE PUSH1 0x40 MLOAD PUSH1 0x20 ADD PUSH2 0x13B1 SWAP3 SWAP2 SWAP1 PUSH2 0x4E50 JUMP JUMPDEST PUSH1 0x40 MLOAD PUSH1 0x20 DUP2 DUP4 SUB SUB DUP2 MSTORE SWAP1 PUSH1 0x40 MSTORE SWAP1 POP DUP1 SWAP2 POP POP SWAP1 JUMP JUMPDEST PUSH0 DUP6 MLOAD SWAP1 POP DUP5 MLOAD DUP2 EQ ISZERO DUP1 PUSH2 0x13DF JUMPI POP DUP4 MLOAD DUP2 EQ ISZERO JUMPDEST DUP1 PUSH2 0x13EB JUMPI POP DUP3 MLOAD DUP2 EQ ISZERO JUMPDEST DUP1 PUSH2 0x13F7 JUMPI POP DUP2 MLOAD DUP2 EQ ISZERO JUMPDEST ISZERO PUSH2 0x142E JUMPI PUSH1 0x40 MLOAD PUSH32 0x93A8311900000000000000000000000000000000000000000000000000000000 DUP2 MSTORE PUSH1 0x4 ADD PUSH1 0x40 MLOAD DUP1 SWAP2 SUB SWAP1 REVERT JUMPDEST PUSH0 JUMPDEST DUP2 DUP2 LT ISZERO PUSH2 0x14D2 JUMPI PUSH2 0x14C7 DUP8 DUP3 DUP2 MLOAD DUP2 LT PUSH2 0x144E JUMPI PUSH2 0x144D PUSH2 0x4B2D JUMP JUMPDEST JUMPDEST PUSH1 0x20 MUL PUSH1 0x20 ADD ADD MLOAD DUP8 DUP4 DUP2 MLOAD DUP2 LT PUSH2 0x1469 JUMPI PUSH2 0x1468 PUSH2 0x4B2D JUMP JUMPDEST JUMPDEST PUSH1 0x20 MUL PUSH1 0x20 ADD ADD MLOAD DUP8 DUP5 DUP2 MLOAD DUP2 LT PUSH2 0x1484 JUMPI PUSH2 0x1483 PUSH2 0x4B2D JUMP JUMPDEST JUMPDEST PUSH1 0x20 MUL PUSH1 0x20 ADD ADD MLOAD DUP8 DUP6 DUP2 MLOAD DUP2 LT PUSH2 0x149F JUMPI PUSH2 0x149E PUSH2 0x4B2D JUMP JUMPDEST JUMPDEST PUSH1 0x20 MUL PUSH1 0x20 ADD ADD MLOAD DUP8 DUP7 DUP2 MLOAD DUP2 LT PUSH2 0x14BA JUMPI PUSH2 0x14B9 PUSH2 0x4B2D JUMP JUMPDEST JUMPDEST PUSH1 0x20 MUL PUSH1 0x20 ADD ADD MLOAD PUSH2 0xFD8 JUMP JUMPDEST DUP1 PUSH1 0x1 ADD SWAP1 POP PUSH2 0x1430 JUMP JUMPDEST POP POP POP POP POP POP POP JUMP JUMPDEST PUSH2 0x14E3 PUSH2 0x2029 JUMP JUMPDEST PUSH0 CALLVALUE EQ PUSH2 0x151C JUMPI PUSH1 0x40 MLOAD PUSH32 0xF36BA73700000000000000000000000000000000000000000000000000000000 DUP2 MSTORE PUSH1 0x4 ADD PUSH1 0x40 MLOAD DUP1 SWAP2 SUB SWAP1 REVERT JUMPDEST PUSH2 0x1526 DUP3 DUP3 PUSH2 0x286B JUMP JUMPDEST POP POP JUMP JUMPDEST PUSH1 0x7 DUP1 PUSH0 ADD SLOAD SWAP1 POP DUP2 JUMP JUMPDEST PUSH0 PUSH2 0x153F DUP4 PUSH2 0xE27 JUMP JUMPDEST SWAP1 POP CALLER PUSH20 0xFFFFFFFFFFFFFFFFFFFFFFFFFFFFFFFFFFFFFFFF AND DUP2 PUSH20 0xFFFFFFFFFFFFFFFFFFFFFFFFFFFFFFFFFFFFFFFF AND EQ PUSH2 0x15B5 JUMPI DUP1 DUP4 CALLER PUSH1 0x40 MLOAD PUSH32 0x5B271EA200000000000000000000000000000000000000000000000000000000 DUP2 MSTORE PUSH1 0x4 ADD PUSH2 0x15AC SWAP4 SWAP3 SWAP2 SWAP1 PUSH2 0x4E86 JUMP JUMPDEST PUSH1 0x40 MLOAD DUP1 SWAP2 SUB SWAP1 REVERT JUMPDEST PUSH0 PUSH20 0xFFFFFFFFFFFFFFFFFFFFFFFFFFFFFFFFFFFFFFFF AND DUP5 PUSH20 0xFFFFFFFFFFFFFFFFFFFFFFFFFFFFFFFFFFFFFFFF AND SUB PUSH2 0x161A JUMPI PUSH1 0x40 MLOAD PUSH32 0x9577B8B300000000000000000000000000000000000000000000000000000000 DUP2 MSTORE PUSH1 0x4 ADD PUSH1 0x40 MLOAD DUP1 SWAP2 SUB SWAP1 REVERT JUMPDEST DUP4 PUSH20 0xFFFFFFFFFFFFFFFFFFFFFFFFFFFFFFFFFFFFFFFF AND DUP2 PUSH20 0xFFFFFFFFFFFFFFFFFFFFFFFFFFFFFFFFFFFFFFFF AND SUB PUSH2 0x167F JUMPI PUSH1 0x40 MLOAD PUSH32 0x89FDAD6200000000000000000000000000000000000000000000000000000000 DUP2 MSTORE PUSH1 0x4 ADD PUSH1 0x40 MLOAD DUP1 SWAP2 SUB SWAP1 REVERT JUMPDEST PUSH0 PUSH2 0x16A3 DUP6 PUSH1 0x5 PUSH0 DUP8 DUP2 MSTORE PUSH1 0x20 ADD SWAP1 DUP2 MSTORE PUSH1 0x20 ADD PUSH0 KECCAK256 PUSH2 0x28D4 SWAP1 SWAP2 SWAP1 PUSH4 0xFFFFFFFF AND JUMP JUMPDEST SWAP1 POP DUP1 PUSH2 0x16E9 JUMPI DUP5 DUP5 PUSH1 0x40 MLOAD PUSH32 0xA7626B6800000000000000000000000000000000000000000000000000000000 DUP2 MSTORE PUSH1 0x4 ADD PUSH2 0x16E0 SWAP3 SWAP2 SWAP1 PUSH2 0x4EBB JUMP JUMPDEST PUSH1 0x40 MLOAD DUP1 SWAP2 SUB SWAP1 REVERT JUMPDEST DUP4 DUP3 PUSH20 0xFFFFFFFFFFFFFFFFFFFFFFFFFFFFFFFFFFFFFFFF AND DUP7 PUSH20 0xFFFFFFFFFFFFFFFFFFFFFFFFFFFFFFFFFFFFFFFF AND PUSH32 0x1B1B58AA2EC0CEC2228B2D37124556D41F5A1F7B12F089171F896CC236671215 DUP7 PUSH1 0x40 MLOAD PUSH2 0x1747 SWAP2 SWAP1 PUSH2 0x3A04 JUMP JUMPDEST PUSH1 0x40 MLOAD DUP1 SWAP2 SUB SWAP1 LOG4 PUSH0 CALLER DUP6 PUSH1 0x1 DUP7 PUSH1 0x40 MLOAD PUSH1 0x20 ADD PUSH2 0x1768 SWAP5 SWAP4 SWAP3 SWAP2 SWAP1 PUSH2 0x4EE2 JUMP JUMPDEST PUSH1 0x40 MLOAD PUSH1 0x20 DUP2 DUP4 SUB SUB DUP2 MSTORE SWAP1 PUSH1 0x40 MSTORE SWAP1 POP PUSH2 0x1783 DUP7 DUP3 PUSH2 0x2901 JUMP JUMPDEST POP POP POP POP POP POP JUMP JUMPDEST PUSH1 0x10 SLOAD DUP2 JUMP JUMPDEST PUSH0 PUSH0 PUSH0 SWAP1 SLOAD SWAP1 PUSH2 0x100 EXP SWAP1 DIV PUSH20 0xFFFFFFFFFFFFFFFFFFFFFFFFFFFFFFFFFFFFFFFF AND SWAP1 POP SWAP1 JUMP JUMPDEST PUSH1 0x60 PUSH2 0x17C4 PUSH1 0x7 PUSH2 0x2932 JUMP JUMPDEST PUSH0 PUSH2 0x17CF PUSH1 0x7 PUSH2 0x2946 JUMP JUMPDEST PUSH0 SHL SWAP1 POP PUSH2 0x17EE CALLER DUP3 PUSH1 0x1 PUSH1 0x40 MLOAD DUP1 PUSH1 0x20 ADD PUSH1 0x40 MSTORE DUP1 PUSH0 DUP2 MSTORE POP PUSH2 0x2952 JUMP JUMPDEST PUSH2 0x1822 DUP2 PUSH32 0x9AFB95CACC9F95858EC44AA8C3B685511002E30AE54415823F406128B85B238E PUSH0 SHL PUSH2 0x181D PUSH2 0x12D6 JUMP JUMPDEST PUSH2 0x2BC0 JUMP JUMPDEST POP SWAP1 JUMP JUMPDEST PUSH2 0x182E PUSH2 0x2029 JUMP JUMPDEST PUSH0 CALLVALUE EQ PUSH2 0x1867 JUMPI PUSH1 0x40 MLOAD PUSH32 0xF36BA73700000000000000000000000000000000000000000000000000000000 DUP2 MSTORE PUSH1 0x4 ADD PUSH1 0x40 MLOAD DUP1 SWAP2 SUB SWAP1 REVERT JUMPDEST DUP1 MLOAD DUP3 MLOAD EQ PUSH2 0x18A2 JUMPI PUSH1 0x40 MLOAD PUSH32 0x3BCC897900000000000000000000000000000000000000000000000000000000 DUP2 MSTORE PUSH1 0x4 ADD PUSH1 0x40 MLOAD DUP1 SWAP2 SUB SWAP1 REVERT JUMPDEST PUSH0 DUP3 MLOAD SUB PUSH2 0x18DC JUMPI PUSH1 0x40 MLOAD PUSH32 0x97DA5F9500000000000000000000000000000000000000000000000000000000 DUP2 MSTORE PUSH1 0x4 ADD PUSH1 0x40 MLOAD DUP1 SWAP2 SUB SWAP1 REVERT JUMPDEST PUSH0 PUSH0 SWAP1 POP JUMPDEST DUP3 MLOAD DUP2 LT ISZERO PUSH2 0x1933 JUMPI PUSH2 0x1928 DUP4 DUP3 DUP2 MLOAD DUP2 LT PUSH2 0x1900 JUMPI PUSH2 0x18FF PUSH2 0x4B2D JUMP JUMPDEST JUMPDEST PUSH1 0x20 MUL PUSH1 0x20 ADD ADD MLOAD DUP4 DUP4 DUP2 MLOAD DUP2 LT PUSH2 0x191B JUMPI PUSH2 0x191A PUSH2 0x4B2D JUMP JUMPDEST JUMPDEST PUSH1 0x20 MUL PUSH1 0x20 ADD ADD MLOAD PUSH2 0x286B JUMP JUMPDEST DUP1 PUSH1 0x1 ADD SWAP1 POP PUSH2 0x18E1 JUMP JUMPDEST POP POP POP JUMP JUMPDEST PUSH0 PUSH1 0x64 DUP3 DUP5 PUSH2 0x1947 SWAP2 SWAP1 PUSH2 0x4F59 JUMP JUMPDEST LT ISZERO PUSH2 0x1951 JUMPI PUSH0 PUSH0 REVERT JUMPDEST PUSH1 0x64 DUP3 DUP5 PUSH2 0x195F SWAP2 SWAP1 PUSH2 0x4F59 JUMP JUMPDEST PUSH2 0x1969 SWAP2 SWAP1 PUSH2 0x4FC7 JUMP JUMPDEST SWAP1 POP SWAP3 SWAP2 POP POP JUMP JUMPDEST PUSH1 0x60 PUSH2 0x19B8 PUSH1 0x4 PUSH0 DUP5 PUSH20 0xFFFFFFFFFFFFFFFFFFFFFFFFFFFFFFFFFFFFFFFF AND PUSH20 0xFFFFFFFFFFFFFFFFFFFFFFFFFFFFFFFFFFFFFFFF AND DUP2 MSTORE PUSH1 0x20 ADD SWAP1 DUP2 MSTORE PUSH1 0x20 ADD PUSH0 KECCAK256 PUSH2 0x2C2C JUMP JUMPDEST SWAP1 POP SWAP2 SWAP1 POP JUMP JUMPDEST PUSH1 0x9 PUSH0 SWAP1 SLOAD SWAP1 PUSH2 0x100 EXP SWAP1 DIV PUSH20 0xFFFFFFFFFFFFFFFFFFFFFFFFFFFFFFFFFFFFFFFF AND DUP2 JUMP JUMPDEST PUSH1 0xF DUP1 SLOAD PUSH2 0x19F1 SWAP1 PUSH2 0x4AFD JUMP JUMPDEST DUP1 PUSH1 0x1F ADD PUSH1 0x20 DUP1 SWAP2 DIV MUL PUSH1 0x20 ADD PUSH1 0x40 MLOAD SWAP1 DUP2 ADD PUSH1 0x40 MSTORE DUP1 SWAP3 SWAP2 SWAP1 DUP2 DUP2 MSTORE PUSH1 0x20 ADD DUP3 DUP1 SLOAD PUSH2 0x1A1D SWAP1 PUSH2 0x4AFD JUMP JUMPDEST DUP1 ISZERO PUSH2 0x1A68 JUMPI DUP1 PUSH1 0x1F LT PUSH2 0x1A3F JUMPI PUSH2 0x100 DUP1 DUP4 SLOAD DIV MUL DUP4 MSTORE SWAP2 PUSH1 0x20 ADD SWAP2 PUSH2 0x1A68 JUMP JUMPDEST DUP3 ADD SWAP2 SWAP1 PUSH0 MSTORE PUSH1 0x20 PUSH0 KECCAK256 SWAP1 JUMPDEST DUP2 SLOAD DUP2 MSTORE SWAP1 PUSH1 0x1 ADD SWAP1 PUSH1 0x20 ADD DUP1 DUP4 GT PUSH2 0x1A4B JUMPI DUP3 SWAP1 SUB PUSH1 0x1F AND DUP3 ADD SWAP2 JUMPDEST POP POP POP POP POP DUP2 JUMP JUMPDEST PUSH2 0x1A78 PUSH2 0x2029 JUMP JUMPDEST DUP2 MLOAD DUP4 MLOAD EQ ISZERO DUP1 PUSH2 0x1A8B JUMPI POP DUP1 MLOAD DUP3 MLOAD EQ ISZERO JUMPDEST ISZERO PUSH2 0x1AC2 JUMPI PUSH1 0x40 MLOAD PUSH32 0x2FA71DFE00000000000000000000000000000000000000000000000000000000 DUP2 MSTORE PUSH1 0x4 ADD PUSH1 0x40 MLOAD DUP1 SWAP2 SUB SWAP1 REVERT JUMPDEST PUSH0 DUP4 MLOAD SUB PUSH2 0x1AFC JUMPI PUSH1 0x40 MLOAD PUSH32 0x80C9830500000000000000000000000000000000000000000000000000000000 DUP2 MSTORE PUSH1 0x4 ADD PUSH1 0x40 MLOAD DUP1 SWAP2 SUB SWAP1 REVERT JUMPDEST PUSH0 JUMPDEST DUP4 MLOAD DUP2 LT ISZERO PUSH2 0x1B6B JUMPI PUSH2 0x1B60 DUP5 DUP3 DUP2 MLOAD DUP2 LT PUSH2 0x1B1D JUMPI PUSH2 0x1B1C PUSH2 0x4B2D JUMP JUMPDEST JUMPDEST PUSH1 0x20 MUL PUSH1 0x20 ADD ADD MLOAD DUP5 DUP4 DUP2 MLOAD DUP2 LT PUSH2 0x1B38 JUMPI PUSH2 0x1B37 PUSH2 0x4B2D JUMP JUMPDEST JUMPDEST PUSH1 0x20 MUL PUSH1 0x20 ADD ADD MLOAD DUP5 DUP5 DUP2 MLOAD DUP2 LT PUSH2 0x1B53 JUMPI PUSH2 0x1B52 PUSH2 0x4B2D JUMP JUMPDEST JUMPDEST PUSH1 0x20 MUL PUSH1 0x20 ADD ADD MLOAD PUSH2 0x2BC0 JUMP JUMPDEST DUP1 PUSH1 0x1 ADD SWAP1 POP PUSH2 0x1AFE JUMP JUMPDEST POP POP POP POP JUMP JUMPDEST PUSH2 0x1B79 PUSH2 0x2029 JUMP JUMPDEST PUSH2 0x1B84 DUP4 DUP4 DUP4 PUSH2 0x2BC0 JUMP JUMPDEST POP POP POP JUMP JUMPDEST PUSH0 PUSH2 0x1B93 DUP5 PUSH2 0xE27 JUMP JUMPDEST SWAP1 POP DUP1 PUSH20 0xFFFFFFFFFFFFFFFFFFFFFFFFFFFFFFFFFFFFFFFF AND CALLER PUSH20 0xFFFFFFFFFFFFFFFFFFFFFFFFFFFFFFFFFFFFFFFF AND EQ PUSH2 0x1C3D JUMPI CALLER PUSH20 0xFFFFFFFFFFFFFFFFFFFFFFFFFFFFFFFFFFFFFFFF AND DUP6 PUSH20 0xFFFFFFFFFFFFFFFFFFFFFFFFFFFFFFFFFFFFFFFF AND EQ PUSH2 0x1C3C JUMPI CALLER DUP2 DUP6 PUSH1 0x40 MLOAD PUSH32 0x760B5ACD00000000000000000000000000000000000000000000000000000000 DUP2 MSTORE PUSH1 0x4 ADD PUSH2 0x1C33 SWAP4 SWAP3 SWAP2 SWAP1 PUSH2 0x4FF7 JUMP JUMPDEST PUSH1 0x40 MLOAD DUP1 SWAP2 SUB SWAP1 REVERT JUMPDEST JUMPDEST PUSH0 PUSH20 0xFFFFFFFFFFFFFFFFFFFFFFFFFFFFFFFFFFFFFFFF AND DUP6 PUSH20 0xFFFFFFFFFFFFFFFFFFFFFFFFFFFFFFFFFFFFFFFF AND SUB PUSH2 0x1CA2 JUMPI PUSH1 0x40 MLOAD PUSH32 0x9577B8B300000000000000000000000000000000000000000000000000000000 DUP2 MSTORE PUSH1 0x4 ADD PUSH1 0x40 MLOAD DUP1 SWAP2 SUB SWAP1 REVERT JUMPDEST DUP5 PUSH20 0xFFFFFFFFFFFFFFFFFFFFFFFFFFFFFFFFFFFFFFFF AND DUP2 PUSH20 0xFFFFFFFFFFFFFFFFFFFFFFFFFFFFFFFFFFFFFFFF AND SUB PUSH2 0x1D07 JUMPI PUSH1 0x40 MLOAD PUSH32 0x89FDAD6200000000000000000000000000000000000000000000000000000000 DUP2 MSTORE PUSH1 0x4 ADD PUSH1 0x40 MLOAD DUP1 SWAP2 SUB SWAP1 REVERT JUMPDEST PUSH2 0x1D14 DUP6 DUP3 DUP7 DUP7 DUP7 PUSH2 0x2C4B JUMP JUMPDEST DUP3 ISZERO PUSH2 0x1D4F JUMPI PUSH0 DUP2 DUP6 PUSH0 DUP6 PUSH1 0x40 MLOAD PUSH1 0x20 ADD PUSH2 0x1D32 SWAP5 SWAP4 SWAP3 SWAP2 SWAP1 PUSH2 0x4EE2 JUMP JUMPDEST PUSH1 0x40 MLOAD PUSH1 0x20 DUP2 DUP4 SUB SUB DUP2 MSTORE SWAP1 PUSH1 0x40 MSTORE SWAP1 POP PUSH2 0x1D4D DUP7 DUP3 PUSH2 0x2901 JUMP JUMPDEST POP JUMPDEST POP POP POP POP POP JUMP JUMPDEST PUSH1 0x60 DUP2 MLOAD PUSH8 0xFFFFFFFFFFFFFFFF DUP2 GT ISZERO PUSH2 0x1D73 JUMPI PUSH2 0x1D72 PUSH2 0x3A41 JUMP JUMPDEST JUMPDEST PUSH1 0x40 MLOAD SWAP1 DUP1 DUP3 MSTORE DUP1 PUSH1 0x20 MUL PUSH1 0x20 ADD DUP3 ADD PUSH1 0x40 MSTORE DUP1 ISZERO PUSH2 0x1DA6 JUMPI DUP2 PUSH1 0x20 ADD JUMPDEST PUSH1 0x60 DUP2 MSTORE PUSH1 0x20 ADD SWAP1 PUSH1 0x1 SWAP1 SUB SWAP1 DUP2 PUSH2 0x1D91 JUMPI SWAP1 POP JUMPDEST POP SWAP1 POP PUSH0 PUSH0 SWAP1 POP JUMPDEST DUP3 MLOAD DUP2 LT ISZERO PUSH2 0x1E03 JUMPI PUSH2 0x1DDA DUP4 DUP3 DUP2 MLOAD DUP2 LT PUSH2 0x1DCD JUMPI PUSH2 0x1DCC PUSH2 0x4B2D JUMP JUMPDEST JUMPDEST PUSH1 0x20 MUL PUSH1 0x20 ADD ADD MLOAD PUSH2 0x2553 JUMP JUMPDEST DUP3 DUP3 DUP2 MLOAD DUP2 LT PUSH2 0x1DED JUMPI PUSH2 0x1DEC PUSH2 0x4B2D JUMP JUMPDEST JUMPDEST PUSH1 0x20 MUL PUSH1 0x20 ADD ADD DUP2 SWAP1 MSTORE POP DUP1 PUSH1 0x1 ADD SWAP1 POP PUSH2 0x1DAE JUMP JUMPDEST POP SWAP2 SWAP1 POP JUMP JUMPDEST PUSH2 0x1E11 PUSH2 0x2029 JUMP JUMPDEST PUSH0 PUSH20 0xFFFFFFFFFFFFFFFFFFFFFFFFFFFFFFFFFFFFFFFF AND DUP2 PUSH20 0xFFFFFFFFFFFFFFFFFFFFFFFFFFFFFFFFFFFFFFFF AND SUB PUSH2 0x1E76 JUMPI PUSH1 0x40 MLOAD PUSH32 0x1AD8836C00000000000000000000000000000000000000000000000000000000 DUP2 MSTORE PUSH1 0x4 ADD PUSH1 0x40 MLOAD DUP1 SWAP2 SUB SWAP1 REVERT JUMPDEST PUSH2 0x1E7F DUP2 PUSH2 0x2607 JUMP JUMPDEST POP JUMP JUMPDEST PUSH1 0x8 DUP2 DUP1 MLOAD PUSH1 0x20 DUP2 ADD DUP3 ADD DUP1 MLOAD DUP5 DUP3 MSTORE PUSH1 0x20 DUP4 ADD PUSH1 0x20 DUP6 ADD KECCAK256 DUP2 DUP4 MSTORE DUP1 SWAP6 POP POP POP POP POP POP PUSH0 SWAP2 POP SWAP1 POP SLOAD DUP2 JUMP JUMPDEST PUSH0 PUSH0 PUSH0 PUSH2 0x1EE8 PUSH10 0xCEE78B4094DA86011096 PUSH1 0xB0 SHL DUP6 PUSH28 0xFFFFFFFFFFFFFFFFFFFFFFFFFFFFFFFFFFFFFFFFFFFFFFFFFFFFFFFF NOT AND PUSH2 0x2D25 JUMP JUMPDEST SWAP1 POP PUSH0 PUSH2 0x1EF4 DUP3 PUSH2 0x2553 JUMP JUMPDEST SWAP1 POP PUSH1 0x14 DUP2 MLOAD EQ ISZERO DUP1 ISZERO PUSH2 0x1F09 JUMPI POP PUSH0 DUP2 MLOAD EQ ISZERO JUMPDEST ISZERO PUSH2 0x1F4B JUMPI DUP1 PUSH1 0x40 MLOAD PUSH32 0x42BFE79F00000000000000000000000000000000000000000000000000000000 DUP2 MSTORE PUSH1 0x4 ADD PUSH2 0x1F42 SWAP2 SWAP1 PUSH2 0x3A04 JUMP JUMPDEST PUSH1 0x40 MLOAD DUP1 SWAP2 SUB SWAP1 REVERT JUMPDEST DUP1 PUSH2 0x1F55 SWAP1 PUSH2 0x5086 JUMP JUMPDEST PUSH1 0x60 SHR PUSH1 0x1 SWAP4 POP SWAP4 POP POP POP SWAP2 POP SWAP2 JUMP JUMPDEST PUSH0 PUSH4 0xA918FA6B PUSH1 0xE0 SHL PUSH28 0xFFFFFFFFFFFFFFFFFFFFFFFFFFFFFFFFFFFFFFFFFFFFFFFFFFFFFFFF NOT AND DUP3 PUSH28 0xFFFFFFFFFFFFFFFFFFFFFFFFFFFFFFFFFFFFFFFFFFFFFFFFFFFFFFFF NOT AND EQ DUP1 PUSH2 0x1FBE JUMPI POP PUSH2 0x1FBD DUP3 PUSH2 0x2D63 JUMP JUMPDEST JUMPDEST SWAP1 POP SWAP2 SWAP1 POP JUMP JUMPDEST PUSH0 PUSH0 PUSH2 0x1FD7 PUSH4 0x1FFC9A7 PUSH1 0xE0 SHL PUSH2 0x1EAF JUMP JUMPDEST POP SWAP1 POP PUSH0 PUSH20 0xFFFFFFFFFFFFFFFFFFFFFFFFFFFFFFFFFFFFFFFF AND DUP2 PUSH20 0xFFFFFFFFFFFFFFFFFFFFFFFFFFFFFFFFFFFFFFFF AND SUB PUSH2 0x2016 JUMPI PUSH0 SWAP2 POP POP PUSH2 0x2024 JUMP JUMPDEST PUSH2 0x2020 DUP2 DUP5 PUSH2 0x2E2C JUMP JUMPDEST SWAP2 POP POP JUMPDEST SWAP2 SWAP1 POP JUMP JUMPDEST CALLER PUSH20 0xFFFFFFFFFFFFFFFFFFFFFFFFFFFFFFFFFFFFFFFF AND PUSH2 0x2048 PUSH2 0x1791 JUMP JUMPDEST PUSH20 0xFFFFFFFFFFFFFFFFFFFFFFFFFFFFFFFFFFFFFFFF AND EQ PUSH2 0x20A0 JUMPI CALLER PUSH1 0x40 MLOAD PUSH32 0xBF1169C500000000000000000000000000000000000000000000000000000000 DUP2 MSTORE PUSH1 0x4 ADD PUSH2 0x2097 SWAP2 SWAP1 PUSH2 0x3A24 JUMP JUMPDEST PUSH1 0x40 MLOAD DUP1 SWAP2 SUB SWAP1 REVERT JUMPDEST JUMP JUMPDEST PUSH1 0x60 PUSH1 0x6 PUSH0 DUP5 DUP2 MSTORE PUSH1 0x20 ADD SWAP1 DUP2 MSTORE PUSH1 0x20 ADD PUSH0 KECCAK256 PUSH0 DUP4 DUP2 MSTORE PUSH1 0x20 ADD SWAP1 DUP2 MSTORE PUSH1 0x20 ADD PUSH0 KECCAK256 DUP1 SLOAD PUSH2 0x20CF SWAP1 PUSH2 0x4AFD JUMP JUMPDEST DUP1 PUSH1 0x1F ADD PUSH1 0x20 DUP1 SWAP2 DIV MUL PUSH1 0x20 ADD PUSH1 0x40 MLOAD SWAP1 DUP2 ADD PUSH1 0x40 MSTORE DUP1 SWAP3 SWAP2 SWAP1 DUP2 DUP2 MSTORE PUSH1 0x20 ADD DUP3 DUP1 SLOAD PUSH2 0x20FB SWAP1 PUSH2 0x4AFD JUMP JUMPDEST DUP1 ISZERO PUSH2 0x2146 JUMPI DUP1 PUSH1 0x1F LT PUSH2 0x211D JUMPI PUSH2 0x100 DUP1 DUP4 SLOAD DIV MUL DUP4 MSTORE SWAP2 PUSH1 0x20 ADD SWAP2 PUSH2 0x2146 JUMP JUMPDEST DUP3 ADD SWAP2 SWAP1 PUSH0 MSTORE PUSH1 0x20 PUSH0 KECCAK256 SWAP1 JUMPDEST DUP2 SLOAD DUP2 MSTORE SWAP1 PUSH1 0x1 ADD SWAP1 PUSH1 0x20 ADD DUP1 DUP4 GT PUSH2 0x2129 JUMPI DUP3 SWAP1 SUB PUSH1 0x1F AND DUP3 ADD SWAP2 JUMPDEST POP POP POP POP POP SWAP1 POP SWAP3 SWAP2 POP POP JUMP JUMPDEST PUSH0 PUSH2 0x215D DUP3 PUSH2 0xE27 JUMP JUMPDEST PUSH20 0xFFFFFFFFFFFFFFFFFFFFFFFFFFFFFFFFFFFFFFFF AND DUP4 PUSH20 0xFFFFFFFFFFFFFFFFFFFFFFFFFFFFFFFFFFFFFFFF AND EQ DUP1 PUSH2 0x21B5 JUMPI POP PUSH2 0x21B4 DUP4 PUSH1 0x5 PUSH0 DUP6 DUP2 MSTORE PUSH1 0x20 ADD SWAP1 DUP2 MSTORE PUSH1 0x20 ADD PUSH0 KECCAK256 PUSH2 0x2EE5 SWAP1 SWAP2 SWAP1 PUSH4 0xFFFFFFFF AND JUMP JUMPDEST JUMPDEST SWAP1 POP SWAP3 SWAP2 POP POP JUMP JUMPDEST PUSH2 0x21C6 DUP2 PUSH2 0x2F12 JUMP JUMPDEST PUSH2 0x2207 JUMPI DUP1 PUSH1 0x40 MLOAD PUSH32 0xAE8F9A3600000000000000000000000000000000000000000000000000000000 DUP2 MSTORE PUSH1 0x4 ADD PUSH2 0x21FE SWAP2 SWAP1 PUSH2 0x4B5A JUMP JUMPDEST PUSH1 0x40 MLOAD DUP1 SWAP2 SUB SWAP1 REVERT JUMPDEST POP JUMP JUMPDEST PUSH1 0x60 PUSH0 PUSH2 0x2218 DUP4 PUSH0 ADD PUSH2 0x2F7A JUMP JUMPDEST SWAP1 POP PUSH1 0x60 DUP2 SWAP1 POP DUP1 SWAP3 POP POP POP SWAP2 SWAP1 POP JUMP JUMPDEST PUSH0 PUSH2 0x2233 DUP5 PUSH2 0xE27 JUMP JUMPDEST SWAP1 POP DUP6 PUSH20 0xFFFFFFFFFFFFFFFFFFFFFFFFFFFFFFFFFFFFFFFF AND DUP2 PUSH20 0xFFFFFFFFFFFFFFFFFFFFFFFFFFFFFFFFFFFFFFFF AND EQ PUSH2 0x22A9 JUMPI DUP1 DUP5 DUP8 PUSH1 0x40 MLOAD PUSH32 0x5B271EA200000000000000000000000000000000000000000000000000000000 DUP2 MSTORE PUSH1 0x4 ADD PUSH2 0x22A0 SWAP4 SWAP3 SWAP2 SWAP1 PUSH2 0x4E86 JUMP JUMPDEST PUSH1 0x40 MLOAD DUP1 SWAP2 SUB SWAP1 REVERT JUMPDEST PUSH0 PUSH20 0xFFFFFFFFFFFFFFFFFFFFFFFFFFFFFFFFFFFFFFFF AND DUP6 PUSH20 0xFFFFFFFFFFFFFFFFFFFFFFFFFFFFFFFFFFFFFFFF AND SUB PUSH2 0x230E JUMPI PUSH1 0x40 MLOAD PUSH32 0x24ECEF4D00000000000000000000000000000000000000000000000000000000 DUP2 MSTORE PUSH1 0x4 ADD PUSH1 0x40 MLOAD DUP1 SWAP2 SUB SWAP1 REVERT JUMPDEST PUSH2 0x231A DUP7 DUP7 DUP7 DUP6 PUSH2 0x2FD3 JUMP JUMPDEST PUSH0 PUSH2 0x2324 DUP6 PUSH2 0xE27 JUMP JUMPDEST SWAP1 POP DUP1 PUSH20 0xFFFFFFFFFFFFFFFFFFFFFFFFFFFFFFFFFFFFFFFF AND DUP3 PUSH20 0xFFFFFFFFFFFFFFFFFFFFFFFFFFFFFFFFFFFFFFFF AND EQ PUSH2 0x239A JUMPI DUP5 DUP3 DUP3 PUSH1 0x40 MLOAD PUSH32 0x5A9C31D300000000000000000000000000000000000000000000000000000000 DUP2 MSTORE PUSH1 0x4 ADD PUSH2 0x2391 SWAP4 SWAP3 SWAP2 SWAP1 PUSH2 0x50EC JUMP JUMPDEST PUSH1 0x40 MLOAD DUP1 SWAP2 SUB SWAP1 REVERT JUMPDEST PUSH2 0x23A4 DUP8 DUP7 PUSH2 0x2FD9 JUMP JUMPDEST PUSH2 0x23F3 DUP6 PUSH1 0x4 PUSH0 DUP11 PUSH20 0xFFFFFFFFFFFFFFFFFFFFFFFFFFFFFFFFFFFFFFFF AND PUSH20 0xFFFFFFFFFFFFFFFFFFFFFFFFFFFFFFFFFFFFFFFF AND DUP2 MSTORE PUSH1 0x20 ADD SWAP1 DUP2 MSTORE PUSH1 0x20 ADD PUSH0 KECCAK256 PUSH2 0x3047 SWAP1 SWAP2 SWAP1 PUSH4 0xFFFFFFFF AND JUMP JUMPDEST POP PUSH2 0x2443 DUP6 PUSH1 0x4 PUSH0 DUP10 PUSH20 0xFFFFFFFFFFFFFFFFFFFFFFFFFFFFFFFFFFFFFFFF AND PUSH20 0xFFFFFFFFFFFFFFFFFFFFFFFFFFFFFFFFFFFFFFFF AND DUP2 MSTORE PUSH1 0x20 ADD SWAP1 DUP2 MSTORE PUSH1 0x20 ADD PUSH0 KECCAK256 PUSH2 0x305C SWAP1 SWAP2 SWAP1 PUSH4 0xFFFFFFFF AND JUMP JUMPDEST POP DUP6 PUSH1 0x3 PUSH0 DUP8 DUP2 MSTORE PUSH1 0x20 ADD SWAP1 DUP2 MSTORE PUSH1 0x20 ADD PUSH0 KECCAK256 PUSH0 PUSH2 0x100 EXP DUP2 SLOAD DUP2 PUSH20 0xFFFFFFFFFFFFFFFFFFFFFFFFFFFFFFFFFFFFFFFF MUL NOT AND SWAP1 DUP4 PUSH20 0xFFFFFFFFFFFFFFFFFFFFFFFFFFFFFFFFFFFFFFFF AND MUL OR SWAP1 SSTORE POP DUP5 DUP7 PUSH20 0xFFFFFFFFFFFFFFFFFFFFFFFFFFFFFFFFFFFFFFFF AND DUP9 PUSH20 0xFFFFFFFFFFFFFFFFFFFFFFFFFFFFFFFFFFFFFFFF AND PUSH32 0xB333C813A7426A7A11E2B190CAD52C44119421594B47F6F32ACE6D8C7207B2BF CALLER DUP9 DUP9 PUSH1 0x40 MLOAD PUSH2 0x24F5 SWAP4 SWAP3 SWAP2 SWAP1 PUSH2 0x5121 JUMP JUMPDEST PUSH1 0x40 MLOAD DUP1 SWAP2 SUB SWAP1 LOG4 PUSH2 0x2509 DUP8 DUP8 DUP8 DUP7 PUSH2 0x3071 JUMP JUMPDEST PUSH0 CALLER DUP9 DUP9 DUP9 DUP8 PUSH1 0x40 MLOAD PUSH1 0x20 ADD PUSH2 0x2523 SWAP6 SWAP5 SWAP4 SWAP3 SWAP2 SWAP1 PUSH2 0x515D JUMP JUMPDEST PUSH1 0x40 MLOAD PUSH1 0x20 DUP2 DUP4 SUB SUB DUP2 MSTORE SWAP1 PUSH1 0x40 MSTORE SWAP1 POP PUSH2 0x253E DUP9 DUP3 PUSH2 0x3077 JUMP JUMPDEST PUSH2 0x2549 DUP8 DUP7 DUP4 PUSH2 0x30A8 JUMP JUMPDEST POP POP POP POP POP POP POP POP JUMP JUMPDEST PUSH1 0x60 PUSH1 0x1 PUSH0 DUP4 DUP2 MSTORE PUSH1 0x20 ADD SWAP1 DUP2 MSTORE PUSH1 0x20 ADD PUSH0 KECCAK256 DUP1 SLOAD PUSH2 0x2571 SWAP1 PUSH2 0x4AFD JUMP JUMPDEST DUP1 PUSH1 0x1F ADD PUSH1 0x20 DUP1 SWAP2 DIV MUL PUSH1 0x20 ADD PUSH1 0x40 MLOAD SWAP1 DUP2 ADD PUSH1 0x40 MSTORE DUP1 SWAP3 SWAP2 SWAP1 DUP2 DUP2 MSTORE PUSH1 0x20 ADD DUP3 DUP1 SLOAD PUSH2 0x259D SWAP1 PUSH2 0x4AFD JUMP JUMPDEST DUP1 ISZERO PUSH2 0x25E8 JUMPI DUP1 PUSH1 0x1F LT PUSH2 0x25BF JUMPI PUSH2 0x100 DUP1 DUP4 SLOAD DIV MUL DUP4 MSTORE SWAP2 PUSH1 0x20 ADD SWAP2 PUSH2 0x25E8 JUMP JUMPDEST DUP3 ADD SWAP2 SWAP1 PUSH0 MSTORE PUSH1 0x20 PUSH0 KECCAK256 SWAP1 JUMPDEST DUP2 SLOAD DUP2 MSTORE SWAP1 PUSH1 0x1 ADD SWAP1 PUSH1 0x20 ADD DUP1 DUP4 GT PUSH2 0x25CB JUMPI DUP3 SWAP1 SUB PUSH1 0x1F AND DUP3 ADD SWAP2 JUMPDEST POP POP POP POP POP SWAP1 POP SWAP2 SWAP1 POP JUMP JUMPDEST PUSH0 PUSH2 0x2600 DUP3 PUSH0 ADD PUSH2 0x3207 JUMP JUMPDEST SWAP1 POP SWAP2 SWAP1 POP JUMP JUMPDEST PUSH2 0x260F PUSH2 0x1791 JUMP JUMPDEST PUSH20 0xFFFFFFFFFFFFFFFFFFFFFFFFFFFFFFFFFFFFFFFF AND DUP2 PUSH20 0xFFFFFFFFFFFFFFFFFFFFFFFFFFFFFFFFFFFFFFFF AND EQ PUSH2 0x26FB JUMPI DUP1 PUSH20 0xFFFFFFFFFFFFFFFFFFFFFFFFFFFFFFFFFFFFFFFF AND PUSH0 PUSH0 SWAP1 SLOAD SWAP1 PUSH2 0x100 EXP SWAP1 DIV PUSH20 0xFFFFFFFFFFFFFFFFFFFFFFFFFFFFFFFFFFFFFFFF AND PUSH20 0xFFFFFFFFFFFFFFFFFFFFFFFFFFFFFFFFFFFFFFFF AND PUSH32 0x8BE0079C531659141344CD1FD0A4F28419497F9722A3DAAFE3B4186F6B6457E0 PUSH1 0x40 MLOAD PUSH1 0x40 MLOAD DUP1 SWAP2 SUB SWAP1 LOG3 DUP1 PUSH0 PUSH0 PUSH2 0x100 EXP DUP2 SLOAD DUP2 PUSH20 0xFFFFFFFFFFFFFFFFFFFFFFFFFFFFFFFFFFFFFFFF MUL NOT AND SWAP1 DUP4 PUSH20 0xFFFFFFFFFFFFFFFFFFFFFFFFFFFFFFFFFFFFFFFF AND MUL OR SWAP1 SSTORE POP JUMPDEST POP JUMP JUMPDEST PUSH1 0x60 PUSH0 DUP3 MLOAD SUB PUSH2 0x271E JUMPI PUSH1 0x40 MLOAD DUP1 PUSH1 0x20 ADD PUSH1 0x40 MSTORE DUP1 PUSH0 DUP2 MSTORE POP SWAP1 POP PUSH2 0x2866 JUMP JUMPDEST PUSH0 PUSH1 0x40 MLOAD DUP1 PUSH1 0x60 ADD PUSH1 0x40 MSTORE DUP1 PUSH1 0x40 DUP2 MSTORE PUSH1 0x20 ADD PUSH2 0x575E PUSH1 0x40 SWAP2 CODECOPY SWAP1 POP PUSH0 PUSH1 0x3 PUSH1 0x2 DUP6 MLOAD PUSH2 0x274B SWAP2 SWAP1 PUSH2 0x51B5 JUMP JUMPDEST PUSH2 0x2755 SWAP2 SWAP1 PUSH2 0x4FC7 JUMP JUMPDEST PUSH1 0x4 PUSH2 0x2761 SWAP2 SWAP1 PUSH2 0x4F59 JUMP JUMPDEST PUSH8 0xFFFFFFFFFFFFFFFF DUP2 GT ISZERO PUSH2 0x277A JUMPI PUSH2 0x2779 PUSH2 0x3A41 JUMP JUMPDEST JUMPDEST PUSH1 0x40 MLOAD SWAP1 DUP1 DUP3 MSTORE DUP1 PUSH1 0x1F ADD PUSH1 0x1F NOT AND PUSH1 0x20 ADD DUP3 ADD PUSH1 0x40 MSTORE DUP1 ISZERO PUSH2 0x27AC JUMPI DUP2 PUSH1 0x20 ADD PUSH1 0x1 DUP3 MUL DUP1 CALLDATASIZE DUP4 CALLDATACOPY DUP1 DUP3 ADD SWAP2 POP POP SWAP1 POP JUMPDEST POP SWAP1 POP PUSH1 0x1 DUP3 ADD PUSH1 0x20 DUP3 ADD DUP6 DUP7 MLOAD DUP8 ADD PUSH1 0x20 DUP2 ADD DUP1 MLOAD PUSH0 DUP3 MSTORE JUMPDEST DUP3 DUP5 LT ISZERO PUSH2 0x2821 JUMPI PUSH1 0x3 DUP5 ADD SWAP4 POP DUP4 MLOAD PUSH1 0x3F DUP2 PUSH1 0x12 SHR AND DUP8 ADD MLOAD DUP7 MSTORE8 PUSH1 0x1 DUP7 ADD SWAP6 POP PUSH1 0x3F DUP2 PUSH1 0xC SHR AND DUP8 ADD MLOAD DUP7 MSTORE8 PUSH1 0x1 DUP7 ADD SWAP6 POP PUSH1 0x3F DUP2 PUSH1 0x6 SHR AND DUP8 ADD MLOAD DUP7 MSTORE8 PUSH1 0x1 DUP7 ADD SWAP6 POP PUSH1 0x3F DUP2 AND DUP8 ADD MLOAD DUP7 MSTORE8 PUSH1 0x1 DUP7 ADD SWAP6 POP POP PUSH2 0x27C6 JUMP JUMPDEST DUP1 DUP3 MSTORE PUSH1 0x3 DUP11 MLOAD MOD PUSH1 0x1 DUP2 EQ PUSH2 0x283E JUMPI PUSH1 0x2 DUP2 EQ PUSH2 0x2851 JUMPI PUSH2 0x2859 JUMP JUMPDEST PUSH1 0x3D PUSH1 0x1 DUP8 SUB MSTORE8 PUSH1 0x3D PUSH1 0x2 DUP8 SUB MSTORE8 PUSH2 0x2859 JUMP JUMPDEST PUSH1 0x3D PUSH1 0x1 DUP8 SUB MSTORE8 JUMPDEST POP POP POP POP POP POP POP DUP1 SWAP3 POP POP POP JUMPDEST SWAP2 SWAP1 POP JUMP JUMPDEST PUSH32 0xF675E9361AF1C1664C1868CFA3EB97672D6B1A513AA5B81DEC34C9EE330E818D PUSH0 SHL DUP3 SUB PUSH2 0x28C6 JUMPI PUSH1 0x40 MLOAD PUSH32 0x3664800A00000000000000000000000000000000000000000000000000000000 DUP2 MSTORE PUSH1 0x4 ADD PUSH1 0x40 MLOAD DUP1 SWAP2 SUB SWAP1 REVERT JUMPDEST PUSH2 0x28D0 DUP3 DUP3 PUSH2 0x3216 JUMP JUMPDEST POP POP JUMP JUMPDEST PUSH0 PUSH2 0x28F9 DUP4 PUSH0 ADD DUP4 PUSH20 0xFFFFFFFFFFFFFFFFFFFFFFFFFFFFFFFFFFFFFFFF AND PUSH0 SHL PUSH2 0x3224 JUMP JUMPDEST SWAP1 POP SWAP3 SWAP2 POP POP JUMP JUMPDEST PUSH2 0x292E DUP3 PUSH32 0x8A1C15A8799F71B547E08E2BCB2E85257E81B0A07EEE2CE6712549EEF1F00970 PUSH0 SHL DUP4 PUSH2 0x328B JUMP JUMPDEST POP POP JUMP JUMPDEST PUSH1 0x1 DUP2 PUSH0 ADD PUSH0 DUP3 DUP3 SLOAD ADD SWAP3 POP POP DUP2 SWAP1 SSTORE POP POP JUMP JUMPDEST PUSH0 DUP2 PUSH0 ADD SLOAD SWAP1 POP SWAP2 SWAP1 POP JUMP JUMPDEST PUSH0 PUSH20 0xFFFFFFFFFFFFFFFFFFFFFFFFFFFFFFFFFFFFFFFF AND DUP5 PUSH20 0xFFFFFFFFFFFFFFFFFFFFFFFFFFFFFFFFFFFFFFFF AND SUB PUSH2 0x29B7 JUMPI PUSH1 0x40 MLOAD PUSH32 0x24ECEF4D00000000000000000000000000000000000000000000000000000000 DUP2 MSTORE PUSH1 0x4 ADD PUSH1 0x40 MLOAD DUP1 SWAP2 SUB SWAP1 REVERT JUMPDEST PUSH2 0x29C0 DUP4 PUSH2 0x2F12 JUMP JUMPDEST ISZERO PUSH2 0x2A02 JUMPI DUP3 PUSH1 0x40 MLOAD PUSH32 0x34C7B51100000000000000000000000000000000000000000000000000000000 DUP2 MSTORE PUSH1 0x4 ADD PUSH2 0x29F9 SWAP2 SWAP1 PUSH2 0x4B5A JUMP JUMPDEST PUSH1 0x40 MLOAD DUP1 SWAP2 SUB SWAP1 REVERT JUMPDEST PUSH2 0x2A0E PUSH0 DUP6 DUP6 DUP5 PUSH2 0x2FD3 JUMP JUMPDEST PUSH2 0x2A17 DUP4 PUSH2 0x2F12 JUMP JUMPDEST ISZERO PUSH2 0x2A59 JUMPI DUP3 PUSH1 0x40 MLOAD PUSH32 0x34C7B51100000000000000000000000000000000000000000000000000000000 DUP2 MSTORE PUSH1 0x4 ADD PUSH2 0x2A50 SWAP2 SWAP1 PUSH2 0x4B5A JUMP JUMPDEST PUSH1 0x40 MLOAD DUP1 SWAP2 SUB SWAP1 REVERT JUMPDEST PUSH1 0x2 PUSH0 DUP2 SLOAD PUSH2 0x2A67 SWAP1 PUSH2 0x51E8 JUMP JUMPDEST SWAP2 SWAP1 POP DUP2 SWAP1 SSTORE POP PUSH2 0x2ABD DUP4 PUSH1 0x4 PUSH0 DUP8 PUSH20 0xFFFFFFFFFFFFFFFFFFFFFFFFFFFFFFFFFFFFFFFF AND PUSH20 0xFFFFFFFFFFFFFFFFFFFFFFFFFFFFFFFFFFFFFFFF AND DUP2 MSTORE PUSH1 0x20 ADD SWAP1 DUP2 MSTORE PUSH1 0x20 ADD PUSH0 KECCAK256 PUSH2 0x305C SWAP1 SWAP2 SWAP1 PUSH4 0xFFFFFFFF AND JUMP JUMPDEST POP DUP4 PUSH1 0x3 PUSH0 DUP6 DUP2 MSTORE PUSH1 0x20 ADD SWAP1 DUP2 MSTORE PUSH1 0x20 ADD PUSH0 KECCAK256 PUSH0 PUSH2 0x100 EXP DUP2 SLOAD DUP2 PUSH20 0xFFFFFFFFFFFFFFFFFFFFFFFFFFFFFFFFFFFFFFFF MUL NOT AND SWAP1 DUP4 PUSH20 0xFFFFFFFFFFFFFFFFFFFFFFFFFFFFFFFFFFFFFFFF AND MUL OR SWAP1 SSTORE POP DUP3 DUP5 PUSH20 0xFFFFFFFFFFFFFFFFFFFFFFFFFFFFFFFFFFFFFFFF AND PUSH0 PUSH20 0xFFFFFFFFFFFFFFFFFFFFFFFFFFFFFFFFFFFFFFFF AND PUSH32 0xB333C813A7426A7A11E2B190CAD52C44119421594B47F6F32ACE6D8C7207B2BF CALLER DUP7 DUP7 PUSH1 0x40 MLOAD PUSH2 0x2B6F SWAP4 SWAP3 SWAP2 SWAP1 PUSH2 0x5121 JUMP JUMPDEST PUSH1 0x40 MLOAD DUP1 SWAP2 SUB SWAP1 LOG4 PUSH2 0x2B83 PUSH0 DUP6 DUP6 DUP5 PUSH2 0x3071 JUMP JUMPDEST PUSH0 CALLER PUSH0 DUP7 DUP7 DUP6 PUSH1 0x40 MLOAD PUSH1 0x20 ADD PUSH2 0x2B9D SWAP6 SWAP5 SWAP4 SWAP3 SWAP2 SWAP1 PUSH2 0x515D JUMP JUMPDEST PUSH1 0x40 MLOAD PUSH1 0x20 DUP2 DUP4 SUB SUB DUP2 MSTORE SWAP1 PUSH1 0x40 MSTORE SWAP1 POP PUSH2 0x2BB9 DUP6 DUP5 DUP4 PUSH2 0x30A8 JUMP JUMPDEST POP POP POP POP POP JUMP JUMPDEST DUP1 PUSH1 0x6 PUSH0 DUP6 DUP2 MSTORE PUSH1 0x20 ADD SWAP1 DUP2 MSTORE PUSH1 0x20 ADD PUSH0 KECCAK256 PUSH0 DUP5 DUP2 MSTORE PUSH1 0x20 ADD SWAP1 DUP2 MSTORE PUSH1 0x20 ADD PUSH0 KECCAK256 SWAP1 DUP2 PUSH2 0x2BED SWAP2 SWAP1 PUSH2 0x53B1 JUMP JUMPDEST POP DUP2 DUP4 PUSH32 0xA6E4251F855F750545FE414F120DB91C76B88DEF14D120969E5BB2D3F05DEBBB DUP4 PUSH1 0x40 MLOAD PUSH2 0x2C1F SWAP2 SWAP1 PUSH2 0x3A04 JUMP JUMPDEST PUSH1 0x40 MLOAD DUP1 SWAP2 SUB SWAP1 LOG3 POP POP POP JUMP JUMPDEST PUSH1 0x60 PUSH0 PUSH2 0x2C3A DUP4 PUSH0 ADD PUSH2 0x2F7A JUMP JUMPDEST SWAP1 POP PUSH1 0x60 DUP2 SWAP1 POP DUP1 SWAP3 POP POP POP SWAP2 SWAP1 POP JUMP JUMPDEST PUSH0 PUSH2 0x2C6F DUP7 PUSH1 0x5 PUSH0 DUP8 DUP2 MSTORE PUSH1 0x20 ADD SWAP1 DUP2 MSTORE PUSH1 0x20 ADD PUSH0 KECCAK256 PUSH2 0x3345 SWAP1 SWAP2 SWAP1 PUSH4 0xFFFFFFFF AND JUMP JUMPDEST SWAP1 POP DUP1 PUSH2 0x2CB5 JUMPI DUP6 DUP5 PUSH1 0x40 MLOAD PUSH32 0x4AA31A8C00000000000000000000000000000000000000000000000000000000 DUP2 MSTORE PUSH1 0x4 ADD PUSH2 0x2CAC SWAP3 SWAP2 SWAP1 PUSH2 0x4EBB JUMP JUMPDEST PUSH1 0x40 MLOAD DUP1 SWAP2 SUB SWAP1 REVERT JUMPDEST DUP4 DUP6 PUSH20 0xFFFFFFFFFFFFFFFFFFFFFFFFFFFFFFFFFFFFFFFF AND DUP8 PUSH20 0xFFFFFFFFFFFFFFFFFFFFFFFFFFFFFFFFFFFFFFFF AND PUSH32 0xC78CD419D6136F9F1C1C6AEC1D3FAE098CFFAF8BC86314A8F2685E32FE574E3C DUP7 DUP7 PUSH1 0x40 MLOAD PUSH2 0x2D15 SWAP3 SWAP2 SWAP1 PUSH2 0x5480 JUMP JUMPDEST PUSH1 0x40 MLOAD DUP1 SWAP2 SUB SWAP1 LOG4 POP POP POP POP POP POP JUMP JUMPDEST PUSH0 PUSH0 DUP4 PUSH0 PUSH1 0xF0 SHL DUP5 PUSH1 0x40 MLOAD PUSH1 0x20 ADD PUSH2 0x2D3F SWAP4 SWAP3 SWAP2 SWAP1 PUSH2 0x5564 JUMP JUMPDEST PUSH1 0x40 MLOAD PUSH1 0x20 DUP2 DUP4 SUB SUB DUP2 MSTORE SWAP1 PUSH1 0x40 MSTORE SWAP1 POP DUP1 PUSH2 0x2D5A SWAP1 PUSH2 0x55B4 JUMP JUMPDEST SWAP2 POP POP SWAP3 SWAP2 POP POP JUMP JUMPDEST PUSH0 PUSH4 0x629AA694 PUSH1 0xE0 SHL PUSH28 0xFFFFFFFFFFFFFFFFFFFFFFFFFFFFFFFFFFFFFFFFFFFFFFFFFFFFFFFF NOT AND DUP3 PUSH28 0xFFFFFFFFFFFFFFFFFFFFFFFFFFFFFFFFFFFFFFFFFFFFFFFFFFFFFFFF NOT AND EQ DUP1 PUSH2 0x2DBC JUMPI POP PUSH2 0x2DBB DUP3 PUSH2 0x2DC3 JUMP JUMPDEST JUMPDEST SWAP1 POP SWAP2 SWAP1 POP JUMP JUMPDEST PUSH0 PUSH32 0x1FFC9A700000000000000000000000000000000000000000000000000000000 PUSH28 0xFFFFFFFFFFFFFFFFFFFFFFFFFFFFFFFFFFFFFFFFFFFFFFFFFFFFFFFF NOT AND DUP3 PUSH28 0xFFFFFFFFFFFFFFFFFFFFFFFFFFFFFFFFFFFFFFFFFFFFFFFFFFFFFFFF NOT AND EQ SWAP1 POP SWAP2 SWAP1 POP JUMP JUMPDEST PUSH0 PUSH0 PUSH4 0x1FFC9A7 PUSH1 0xE0 SHL DUP4 PUSH1 0x40 MLOAD PUSH1 0x24 ADD PUSH2 0x2E47 SWAP2 SWAP1 PUSH2 0x49A4 JUMP JUMPDEST PUSH1 0x40 MLOAD PUSH1 0x20 DUP2 DUP4 SUB SUB DUP2 MSTORE SWAP1 PUSH1 0x40 MSTORE SWAP1 PUSH28 0xFFFFFFFFFFFFFFFFFFFFFFFFFFFFFFFFFFFFFFFFFFFFFFFFFFFFFFFF NOT AND PUSH1 0x20 DUP3 ADD DUP1 MLOAD PUSH28 0xFFFFFFFFFFFFFFFFFFFFFFFFFFFFFFFFFFFFFFFFFFFFFFFFFFFFFFFF DUP4 DUP2 DUP4 AND OR DUP4 MSTORE POP POP POP POP SWAP1 POP PUSH0 PUSH0 PUSH0 PUSH1 0x20 PUSH0 DUP6 MLOAD PUSH1 0x20 DUP8 ADD DUP11 PUSH2 0x7530 STATICCALL SWAP3 POP RETURNDATASIZE SWAP2 POP PUSH0 MLOAD SWAP1 POP DUP3 DUP1 ISZERO PUSH2 0x2ECE JUMPI POP PUSH1 0x20 DUP3 LT ISZERO JUMPDEST DUP1 ISZERO PUSH2 0x2ED9 JUMPI POP PUSH0 DUP2 GT JUMPDEST SWAP5 POP POP POP POP POP SWAP3 SWAP2 POP POP JUMP JUMPDEST PUSH0 PUSH2 0x2F0A DUP4 PUSH0 ADD DUP4 PUSH20 0xFFFFFFFFFFFFFFFFFFFFFFFFFFFFFFFFFFFFFFFF AND PUSH0 SHL PUSH2 0x3372 JUMP JUMPDEST SWAP1 POP SWAP3 SWAP2 POP POP JUMP JUMPDEST PUSH0 PUSH0 PUSH20 0xFFFFFFFFFFFFFFFFFFFFFFFFFFFFFFFFFFFFFFFF AND PUSH1 0x3 PUSH0 DUP5 DUP2 MSTORE PUSH1 0x20 ADD SWAP1 DUP2 MSTORE PUSH1 0x20 ADD PUSH0 KECCAK256 PUSH0 SWAP1 SLOAD SWAP1 PUSH2 0x100 EXP SWAP1 DIV PUSH20 0xFFFFFFFFFFFFFFFFFFFFFFFFFFFFFFFFFFFFFFFF AND PUSH20 0xFFFFFFFFFFFFFFFFFFFFFFFFFFFFFFFFFFFFFFFF AND EQ ISZERO SWAP1 POP SWAP2 SWAP1 POP JUMP JUMPDEST PUSH1 0x60 DUP2 PUSH0 ADD DUP1 SLOAD DUP1 PUSH1 0x20 MUL PUSH1 0x20 ADD PUSH1 0x40 MLOAD SWAP1 DUP2 ADD PUSH1 0x40 MSTORE DUP1 SWAP3 SWAP2 SWAP1 DUP2 DUP2 MSTORE PUSH1 0x20 ADD DUP3 DUP1 SLOAD DUP1 ISZERO PUSH2 0x2FC7 JUMPI PUSH1 0x20 MUL DUP3 ADD SWAP2 SWAP1 PUSH0 MSTORE PUSH1 0x20 PUSH0 KECCAK256 SWAP1 JUMPDEST DUP2 SLOAD DUP2 MSTORE PUSH1 0x20 ADD SWAP1 PUSH1 0x1 ADD SWAP1 DUP1 DUP4 GT PUSH2 0x2FB3 JUMPI JUMPDEST POP POP POP POP POP SWAP1 POP SWAP2 SWAP1 POP JUMP JUMPDEST POP POP POP POP JUMP JUMPDEST PUSH0 PUSH1 0x5 PUSH0 DUP4 DUP2 MSTORE PUSH1 0x20 ADD SWAP1 DUP2 MSTORE PUSH1 0x20 ADD PUSH0 KECCAK256 SWAP1 POP PUSH0 PUSH2 0x2FF7 DUP3 PUSH2 0x3392 JUMP JUMPDEST SWAP1 POP PUSH0 PUSH0 JUMPDEST DUP3 DUP2 LT ISZERO PUSH2 0x303F JUMPI PUSH2 0x3017 PUSH0 DUP6 PUSH2 0x33A5 SWAP1 SWAP2 SWAP1 PUSH4 0xFFFFFFFF AND JUMP JUMPDEST SWAP2 POP PUSH2 0x3034 DUP3 DUP8 DUP8 PUSH0 PUSH1 0x40 MLOAD DUP1 PUSH1 0x20 ADD PUSH1 0x40 MSTORE DUP1 PUSH0 DUP2 MSTORE POP PUSH2 0x2C4B JUMP JUMPDEST DUP1 PUSH1 0x1 ADD SWAP1 POP PUSH2 0x2FFC JUMP JUMPDEST POP POP POP POP POP POP JUMP JUMPDEST PUSH0 PUSH2 0x3054 DUP4 PUSH0 ADD DUP4 PUSH2 0x33BC JUMP JUMPDEST SWAP1 POP SWAP3 SWAP2 POP POP JUMP JUMPDEST PUSH0 PUSH2 0x3069 DUP4 PUSH0 ADD DUP4 PUSH2 0x3224 JUMP JUMPDEST SWAP1 POP SWAP3 SWAP2 POP POP JUMP JUMPDEST POP POP POP POP JUMP JUMPDEST PUSH2 0x30A4 DUP3 PUSH32 0xB23EAE7E6D1564B295B4C3E3BE402D9A2F0776C57BDF365903496F6FA481AB00 PUSH0 SHL DUP4 PUSH2 0x328B JUMP JUMPDEST POP POP JUMP JUMPDEST PUSH2 0x30B9 DUP4 PUSH4 0x6BB56A14 PUSH1 0xE0 SHL PUSH2 0x2E2C JUMP JUMPDEST ISZERO PUSH2 0x3164 JUMPI DUP3 PUSH20 0xFFFFFFFFFFFFFFFFFFFFFFFFFFFFFFFFFFFFFFFF AND PUSH4 0x6BB56A14 PUSH32 0xB084A55EBF70FD3C06FD755269DAC2212C4D3F0F4D09079780BFA50C1B2984D PUSH0 SHL DUP4 PUSH1 0x40 MLOAD DUP4 PUSH4 0xFFFFFFFF AND PUSH1 0xE0 SHL DUP2 MSTORE PUSH1 0x4 ADD PUSH2 0x311B SWAP3 SWAP2 SWAP1 PUSH2 0x561A JUMP JUMPDEST PUSH0 PUSH1 0x40 MLOAD DUP1 DUP4 SUB DUP2 PUSH0 DUP8 GAS CALL ISZERO DUP1 ISZERO PUSH2 0x3136 JUMPI RETURNDATASIZE PUSH0 PUSH0 RETURNDATACOPY RETURNDATASIZE PUSH0 REVERT JUMPDEST POP POP POP POP PUSH1 0x40 MLOAD RETURNDATASIZE PUSH0 DUP3 RETURNDATACOPY RETURNDATASIZE PUSH1 0x1F NOT PUSH1 0x1F DUP3 ADD AND DUP3 ADD DUP1 PUSH1 0x40 MSTORE POP DUP2 ADD SWAP1 PUSH2 0x315E SWAP2 SWAP1 PUSH2 0x56B6 JUMP JUMPDEST POP PUSH2 0x3202 JUMP JUMPDEST DUP2 PUSH2 0x3201 JUMPI PUSH0 DUP4 PUSH20 0xFFFFFFFFFFFFFFFFFFFFFFFFFFFFFFFFFFFFFFFF AND EXTCODESIZE EQ PUSH2 0x31C4 JUMPI DUP3 PUSH1 0x40 MLOAD PUSH32 0x4349776D00000000000000000000000000000000000000000000000000000000 DUP2 MSTORE PUSH1 0x4 ADD PUSH2 0x31BB SWAP2 SWAP1 PUSH2 0x3A24 JUMP JUMPDEST PUSH1 0x40 MLOAD DUP1 SWAP2 SUB SWAP1 REVERT JUMPDEST DUP3 PUSH1 0x40 MLOAD PUSH32 0x317313700000000000000000000000000000000000000000000000000000000 DUP2 MSTORE PUSH1 0x4 ADD PUSH2 0x31F8 SWAP2 SWAP1 PUSH2 0x3A24 JUMP JUMPDEST PUSH1 0x40 MLOAD DUP1 SWAP2 SUB SWAP1 REVERT JUMPDEST JUMPDEST POP POP POP JUMP JUMPDEST PUSH0 DUP2 PUSH0 ADD DUP1 SLOAD SWAP1 POP SWAP1 POP SWAP2 SWAP1 POP JUMP JUMPDEST PUSH2 0x3220 DUP3 DUP3 PUSH2 0x34B8 JUMP JUMPDEST POP POP JUMP JUMPDEST PUSH0 PUSH2 0x322F DUP4 DUP4 PUSH2 0x3372 JUMP JUMPDEST PUSH2 0x3281 JUMPI DUP3 PUSH0 ADD DUP3 SWAP1 DUP1 PUSH1 0x1 DUP2 SLOAD ADD DUP1 DUP3 SSTORE DUP1 SWAP2 POP POP PUSH1 0x1 SWAP1 SUB SWAP1 PUSH0 MSTORE PUSH1 0x20 PUSH0 KECCAK256 ADD PUSH0 SWAP1 SWAP2 SWAP1 SWAP2 SWAP1 SWAP2 POP SSTORE DUP3 PUSH0 ADD DUP1 SLOAD SWAP1 POP DUP4 PUSH1 0x1 ADD PUSH0 DUP5 DUP2 MSTORE PUSH1 0x20 ADD SWAP1 DUP2 MSTORE PUSH1 0x20 ADD PUSH0 KECCAK256 DUP2 SWAP1 SSTORE POP PUSH1 0x1 SWAP1 POP PUSH2 0x3285 JUMP JUMPDEST PUSH0 SWAP1 POP JUMPDEST SWAP3 SWAP2 POP POP JUMP JUMPDEST PUSH2 0x32BB PUSH4 0x6BB56A14 PUSH1 0xE0 SHL DUP5 PUSH20 0xFFFFFFFFFFFFFFFFFFFFFFFFFFFFFFFFFFFFFFFF AND PUSH2 0x2E2C SWAP1 SWAP2 SWAP1 PUSH4 0xFFFFFFFF AND JUMP JUMPDEST ISZERO PUSH2 0x3340 JUMPI DUP3 PUSH20 0xFFFFFFFFFFFFFFFFFFFFFFFFFFFFFFFFFFFFFFFF AND PUSH4 0x6BB56A14 DUP4 DUP4 PUSH1 0x40 MLOAD DUP4 PUSH4 0xFFFFFFFF AND PUSH1 0xE0 SHL DUP2 MSTORE PUSH1 0x4 ADD PUSH2 0x32FB SWAP3 SWAP2 SWAP1 PUSH2 0x561A JUMP JUMPDEST PUSH0 PUSH1 0x40 MLOAD DUP1 DUP4 SUB DUP2 PUSH0 DUP8 GAS CALL ISZERO DUP1 ISZERO PUSH2 0x3316 JUMPI RETURNDATASIZE PUSH0 PUSH0 RETURNDATACOPY RETURNDATASIZE PUSH0 REVERT JUMPDEST POP POP POP POP PUSH1 0x40 MLOAD RETURNDATASIZE PUSH0 DUP3 RETURNDATACOPY RETURNDATASIZE PUSH1 0x1F NOT PUSH1 0x1F DUP3 ADD AND DUP3 ADD DUP1 PUSH1 0x40 MSTORE POP DUP2 ADD SWAP1 PUSH2 0x333E SWAP2 SWAP1 PUSH2 0x56B6 JUMP JUMPDEST POP JUMPDEST POP POP POP JUMP JUMPDEST PUSH0 PUSH2 0x336A DUP4 PUSH0 ADD DUP4 PUSH20 0xFFFFFFFFFFFFFFFFFFFFFFFFFFFFFFFFFFFFFFFF AND PUSH0 SHL PUSH2 0x33BC JUMP JUMPDEST SWAP1 POP SWAP3 SWAP2 POP POP JUMP JUMPDEST PUSH0 PUSH0 DUP4 PUSH1 0x1 ADD PUSH0 DUP5 DUP2 MSTORE PUSH1 0x20 ADD SWAP1 DUP2 MSTORE PUSH1 0x20 ADD PUSH0 KECCAK256 SLOAD EQ ISZERO SWAP1 POP SWAP3 SWAP2 POP POP JUMP JUMPDEST PUSH0 PUSH2 0x339E DUP3 PUSH0 ADD PUSH2 0x3207 JUMP JUMPDEST SWAP1 POP SWAP2 SWAP1 POP JUMP JUMPDEST PUSH0 PUSH2 0x33B2 DUP4 PUSH0 ADD DUP4 PUSH2 0x3624 JUMP JUMPDEST PUSH0 SHR SWAP1 POP SWAP3 SWAP2 POP POP JUMP JUMPDEST PUSH0 PUSH0 DUP4 PUSH1 0x1 ADD PUSH0 DUP5 DUP2 MSTORE PUSH1 0x20 ADD SWAP1 DUP2 MSTORE PUSH1 0x20 ADD PUSH0 KECCAK256 SLOAD SWAP1 POP PUSH0 DUP2 EQ PUSH2 0x34AD JUMPI PUSH0 PUSH1 0x1 DUP3 PUSH2 0x33E9 SWAP2 SWAP1 PUSH2 0x56FD JUMP JUMPDEST SWAP1 POP PUSH0 PUSH1 0x1 DUP7 PUSH0 ADD DUP1 SLOAD SWAP1 POP PUSH2 0x33FF SWAP2 SWAP1 PUSH2 0x56FD JUMP JUMPDEST SWAP1 POP DUP2 DUP2 EQ PUSH2 0x3465 JUMPI PUSH0 DUP7 PUSH0 ADD DUP3 DUP2 SLOAD DUP2 LT PUSH2 0x341E JUMPI PUSH2 0x341D PUSH2 0x4B2D JUMP JUMPDEST JUMPDEST SWAP1 PUSH0 MSTORE PUSH1 0x20 PUSH0 KECCAK256 ADD SLOAD SWAP1 POP DUP1 DUP8 PUSH0 ADD DUP5 DUP2 SLOAD DUP2 LT PUSH2 0x343F JUMPI PUSH2 0x343E PUSH2 0x4B2D JUMP JUMPDEST JUMPDEST SWAP1 PUSH0 MSTORE PUSH1 0x20 PUSH0 KECCAK256 ADD DUP2 SWAP1 SSTORE POP DUP4 DUP8 PUSH1 0x1 ADD PUSH0 DUP4 DUP2 MSTORE PUSH1 0x20 ADD SWAP1 DUP2 MSTORE PUSH1 0x20 ADD PUSH0 KECCAK256 DUP2 SWAP1 SSTORE POP POP JUMPDEST DUP6 PUSH0 ADD DUP1 SLOAD DUP1 PUSH2 0x3478 JUMPI PUSH2 0x3477 PUSH2 0x5730 JUMP JUMPDEST JUMPDEST PUSH1 0x1 SWAP1 SUB DUP2 DUP2 SWAP1 PUSH0 MSTORE PUSH1 0x20 PUSH0 KECCAK256 ADD PUSH0 SWAP1 SSTORE SWAP1 SSTORE DUP6 PUSH1 0x1 ADD PUSH0 DUP7 DUP2 MSTORE PUSH1 0x20 ADD SWAP1 DUP2 MSTORE PUSH1 0x20 ADD PUSH0 KECCAK256 PUSH0 SWAP1 SSTORE PUSH1 0x1 SWAP4 POP POP POP POP PUSH2 0x34B2 JUMP JUMPDEST PUSH0 SWAP2 POP POP JUMPDEST SWAP3 SWAP2 POP POP JUMP JUMPDEST PUSH32 0xDEBA1E292F8BA88238E10AB3C7F88BD4BE4FAC56CAD5194B6ECCEAF653468AF1 PUSH0 SHL DUP3 SUB PUSH2 0x3513 JUMPI PUSH1 0x40 MLOAD PUSH32 0x85C169BD00000000000000000000000000000000000000000000000000000000 DUP2 MSTORE PUSH1 0x4 ADD PUSH1 0x40 MLOAD DUP1 SWAP2 SUB SWAP1 REVERT JUMPDEST PUSH32 0x2F0A68AB07768E01943A599E73362A0E17A63A72E94DD2E384D2C1D4DB932756 PUSH0 SHL DUP3 SUB PUSH2 0x356E JUMPI PUSH1 0x40 MLOAD PUSH32 0x76755B3800000000000000000000000000000000000000000000000000000000 DUP2 MSTORE PUSH1 0x4 ADD PUSH1 0x40 MLOAD DUP1 SWAP2 SUB SWAP1 REVERT JUMPDEST PUSH32 0xE0261FA95DB2EB3B5439BD033CDA66D56B96F92F243A8228FD87550ED7BDFDB3 PUSH0 SHL DUP3 SUB PUSH2 0x35C9 JUMPI PUSH1 0x40 MLOAD PUSH32 0x4EF6D7FB00000000000000000000000000000000000000000000000000000000 DUP2 MSTORE PUSH1 0x4 ADD PUSH1 0x40 MLOAD DUP1 SWAP2 SUB SWAP1 REVERT JUMPDEST DUP1 PUSH1 0x1 PUSH0 DUP5 DUP2 MSTORE PUSH1 0x20 ADD SWAP1 DUP2 MSTORE PUSH1 0x20 ADD PUSH0 KECCAK256 SWAP1 DUP2 PUSH2 0x35E7 SWAP2 SWAP1 PUSH2 0x53B1 JUMP JUMPDEST POP DUP2 PUSH32 0xECE574603820D07BC9B91F2A932BAADF4628AABCB8AFBA49776529C14A6104B2 DUP3 PUSH1 0x40 MLOAD PUSH2 0x3618 SWAP2 SWAP1 PUSH2 0x3A04 JUMP JUMPDEST PUSH1 0x40 MLOAD DUP1 SWAP2 SUB SWAP1 LOG2 POP POP JUMP JUMPDEST PUSH0 DUP3 PUSH0 ADD DUP3 DUP2 SLOAD DUP2 LT PUSH2 0x363A JUMPI PUSH2 0x3639 PUSH2 0x4B2D JUMP JUMPDEST JUMPDEST SWAP1 PUSH0 MSTORE PUSH1 0x20 PUSH0 KECCAK256 ADD SLOAD SWAP1 POP SWAP3 SWAP2 POP POP JUMP JUMPDEST PUSH0 DUP3 DUP3 MSTORE PUSH1 0x20 DUP3 ADD SWAP1 POP SWAP3 SWAP2 POP POP JUMP JUMPDEST PUSH0 PUSH0 DUP3 ADD MSTORE POP JUMP JUMPDEST PUSH0 PUSH2 0x366F PUSH1 0x4 DUP4 PUSH2 0x364B JUMP JUMPDEST SWAP2 POP PUSH2 0x367A DUP3 PUSH2 0x365B JUMP JUMPDEST PUSH1 0x20 DUP3 ADD SWAP1 POP SWAP2 SWAP1 POP JUMP JUMPDEST PUSH0 PUSH1 0x20 DUP3 ADD SWAP1 POP DUP2 DUP2 SUB PUSH0 DUP4 ADD MSTORE PUSH2 0x369C DUP2 PUSH2 0x3663 JUMP JUMPDEST SWAP1 POP SWAP2 SWAP1 POP JUMP JUMPDEST DUP3 DUP2 DUP4 CALLDATACOPY PUSH0 DUP4 DUP4 ADD MSTORE POP POP POP JUMP JUMPDEST PUSH0 PUSH1 0x1F NOT PUSH1 0x1F DUP4 ADD AND SWAP1 POP SWAP2 SWAP1 POP JUMP JUMPDEST PUSH0 PUSH2 0x36CC DUP4 DUP6 PUSH2 0x364B JUMP JUMPDEST SWAP4 POP PUSH2 0x36D9 DUP4 DUP6 DUP5 PUSH2 0x36A3 JUMP JUMPDEST PUSH2 0x36E2 DUP4 PUSH2 0x36B1 JUMP JUMPDEST DUP5 ADD SWAP1 POP SWAP4 SWAP3 POP POP POP JUMP JUMPDEST PUSH0 PUSH1 0x20 DUP3 ADD SWAP1 POP DUP2 DUP2 SUB PUSH0 DUP4 ADD MSTORE PUSH2 0x3706 DUP2 DUP5 DUP7 PUSH2 0x36C1 JUMP JUMPDEST SWAP1 POP SWAP4 SWAP3 POP POP POP JUMP JUMPDEST PUSH0 PUSH1 0x40 MLOAD SWAP1 POP SWAP1 JUMP JUMPDEST PUSH0 PUSH0 REVERT JUMPDEST PUSH0 PUSH0 REVERT JUMPDEST PUSH0 PUSH32 0xFFFFFFFF00000000000000000000000000000000000000000000000000000000 DUP3 AND SWAP1 POP SWAP2 SWAP1 POP JUMP JUMPDEST PUSH2 0x3754 DUP2 PUSH2 0x3720 JUMP JUMPDEST DUP2 EQ PUSH2 0x375E JUMPI PUSH0 PUSH0 REVERT JUMPDEST POP JUMP JUMPDEST PUSH0 DUP2 CALLDATALOAD SWAP1 POP PUSH2 0x376F DUP2 PUSH2 0x374B JUMP JUMPDEST SWAP3 SWAP2 POP POP JUMP JUMPDEST PUSH0 PUSH1 0x20 DUP3 DUP5 SUB SLT ISZERO PUSH2 0x378A JUMPI PUSH2 0x3789 PUSH2 0x3718 JUMP JUMPDEST JUMPDEST PUSH0 PUSH2 0x3797 DUP5 DUP3 DUP6 ADD PUSH2 0x3761 JUMP JUMPDEST SWAP2 POP POP SWAP3 SWAP2 POP POP JUMP JUMPDEST PUSH0 DUP2 ISZERO ISZERO SWAP1 POP SWAP2 SWAP1 POP JUMP JUMPDEST PUSH2 0x37B4 DUP2 PUSH2 0x37A0 JUMP JUMPDEST DUP3 MSTORE POP POP JUMP JUMPDEST PUSH0 PUSH1 0x20 DUP3 ADD SWAP1 POP PUSH2 0x37CD PUSH0 DUP4 ADD DUP5 PUSH2 0x37AB JUMP JUMPDEST SWAP3 SWAP2 POP POP JUMP JUMPDEST PUSH0 DUP2 SWAP1 POP SWAP2 SWAP1 POP JUMP JUMPDEST PUSH2 0x37E5 DUP2 PUSH2 0x37D3 JUMP JUMPDEST DUP3 MSTORE POP POP JUMP JUMPDEST PUSH0 PUSH1 0x20 DUP3 ADD SWAP1 POP PUSH2 0x37FE PUSH0 DUP4 ADD DUP5 PUSH2 0x37DC JUMP JUMPDEST SWAP3 SWAP2 POP POP JUMP JUMPDEST PUSH2 0x380D DUP2 PUSH2 0x37D3 JUMP JUMPDEST DUP2 EQ PUSH2 0x3817 JUMPI PUSH0 PUSH0 REVERT JUMPDEST POP JUMP JUMPDEST PUSH0 DUP2 CALLDATALOAD SWAP1 POP PUSH2 0x3828 DUP2 PUSH2 0x3804 JUMP JUMPDEST SWAP3 SWAP2 POP POP JUMP JUMPDEST PUSH0 PUSH1 0x20 DUP3 DUP5 SUB SLT ISZERO PUSH2 0x3843 JUMPI PUSH2 0x3842 PUSH2 0x3718 JUMP JUMPDEST JUMPDEST PUSH0 PUSH2 0x3850 DUP5 DUP3 DUP6 ADD PUSH2 0x381A JUMP JUMPDEST SWAP2 POP POP SWAP3 SWAP2 POP POP JUMP JUMPDEST PUSH0 PUSH20 0xFFFFFFFFFFFFFFFFFFFFFFFFFFFFFFFFFFFFFFFF DUP3 AND SWAP1 POP SWAP2 SWAP1 POP JUMP JUMPDEST PUSH0 PUSH2 0x3882 DUP3 PUSH2 0x3859 JUMP JUMPDEST SWAP1 POP SWAP2 SWAP1 POP JUMP JUMPDEST PUSH2 0x3892 DUP2 PUSH2 0x3878 JUMP JUMPDEST DUP3 MSTORE POP POP JUMP JUMPDEST PUSH0 DUP2 SWAP1 POP SWAP2 SWAP1 POP JUMP JUMPDEST PUSH2 0x38AA DUP2 PUSH2 0x3898 JUMP JUMPDEST DUP3 MSTORE POP POP JUMP JUMPDEST PUSH0 DUP2 MLOAD SWAP1 POP SWAP2 SWAP1 POP JUMP JUMPDEST PUSH0 DUP3 DUP3 MSTORE PUSH1 0x20 DUP3 ADD SWAP1 POP SWAP3 SWAP2 POP POP JUMP JUMPDEST DUP3 DUP2 DUP4 MCOPY PUSH0 DUP4 DUP4 ADD MSTORE POP POP POP JUMP JUMPDEST PUSH0 PUSH2 0x38E2 DUP3 PUSH2 0x38B0 JUMP JUMPDEST PUSH2 0x38EC DUP2 DUP6 PUSH2 0x38BA JUMP JUMPDEST SWAP4 POP PUSH2 0x38FC DUP2 DUP6 PUSH1 0x20 DUP7 ADD PUSH2 0x38CA JUMP JUMPDEST PUSH2 0x3905 DUP2 PUSH2 0x36B1 JUMP JUMPDEST DUP5 ADD SWAP2 POP POP SWAP3 SWAP2 POP POP JUMP JUMPDEST PUSH0 PUSH1 0x80 DUP3 ADD SWAP1 POP PUSH2 0x3923 PUSH0 DUP4 ADD DUP8 PUSH2 0x3889 JUMP JUMPDEST PUSH2 0x3930 PUSH1 0x20 DUP4 ADD DUP7 PUSH2 0x38A1 JUMP JUMPDEST PUSH2 0x393D PUSH1 0x40 DUP4 ADD DUP6 PUSH2 0x37DC JUMP JUMPDEST DUP2 DUP2 SUB PUSH1 0x60 DUP4 ADD MSTORE PUSH2 0x394F DUP2 DUP5 PUSH2 0x38D8 JUMP JUMPDEST SWAP1 POP SWAP6 SWAP5 POP POP POP POP POP JUMP JUMPDEST PUSH2 0x3963 DUP2 PUSH2 0x3898 JUMP JUMPDEST DUP2 EQ PUSH2 0x396D JUMPI PUSH0 PUSH0 REVERT JUMPDEST POP JUMP JUMPDEST PUSH0 DUP2 CALLDATALOAD SWAP1 POP PUSH2 0x397E DUP2 PUSH2 0x395A JUMP JUMPDEST SWAP3 SWAP2 POP POP JUMP JUMPDEST PUSH0 PUSH0 PUSH1 0x40 DUP4 DUP6 SUB SLT ISZERO PUSH2 0x399A JUMPI PUSH2 0x3999 PUSH2 0x3718 JUMP JUMPDEST JUMPDEST PUSH0 PUSH2 0x39A7 DUP6 DUP3 DUP7 ADD PUSH2 0x3970 JUMP JUMPDEST SWAP3 POP POP PUSH1 0x20 PUSH2 0x39B8 DUP6 DUP3 DUP7 ADD PUSH2 0x3970 JUMP JUMPDEST SWAP2 POP POP SWAP3 POP SWAP3 SWAP1 POP JUMP JUMPDEST PUSH0 DUP2 MLOAD SWAP1 POP SWAP2 SWAP1 POP JUMP JUMPDEST PUSH0 PUSH2 0x39D6 DUP3 PUSH2 0x39C2 JUMP JUMPDEST PUSH2 0x39E0 DUP2 DUP6 PUSH2 0x364B JUMP JUMPDEST SWAP4 POP PUSH2 0x39F0 DUP2 DUP6 PUSH1 0x20 DUP7 ADD PUSH2 0x38CA JUMP JUMPDEST PUSH2 0x39F9 DUP2 PUSH2 0x36B1 JUMP JUMPDEST DUP5 ADD SWAP2 POP POP SWAP3 SWAP2 POP POP JUMP JUMPDEST PUSH0 PUSH1 0x20 DUP3 ADD SWAP1 POP DUP2 DUP2 SUB PUSH0 DUP4 ADD MSTORE PUSH2 0x3A1C DUP2 DUP5 PUSH2 0x39CC JUMP JUMPDEST SWAP1 POP SWAP3 SWAP2 POP POP JUMP JUMPDEST PUSH0 PUSH1 0x20 DUP3 ADD SWAP1 POP PUSH2 0x3A37 PUSH0 DUP4 ADD DUP5 PUSH2 0x3889 JUMP JUMPDEST SWAP3 SWAP2 POP POP JUMP JUMPDEST PUSH0 PUSH0 REVERT JUMPDEST PUSH32 0x4E487B7100000000000000000000000000000000000000000000000000000000 PUSH0 MSTORE PUSH1 0x41 PUSH1 0x4 MSTORE PUSH1 0x24 PUSH0 REVERT JUMPDEST PUSH2 0x3A77 DUP3 PUSH2 0x36B1 JUMP JUMPDEST DUP2 ADD DUP2 DUP2 LT PUSH8 0xFFFFFFFFFFFFFFFF DUP3 GT OR ISZERO PUSH2 0x3A96 JUMPI PUSH2 0x3A95 PUSH2 0x3A41 JUMP JUMPDEST JUMPDEST DUP1 PUSH1 0x40 MSTORE POP POP POP JUMP JUMPDEST PUSH0 PUSH2 0x3AA8 PUSH2 0x370F JUMP JUMPDEST SWAP1 POP PUSH2 0x3AB4 DUP3 DUP3 PUSH2 0x3A6E JUMP JUMPDEST SWAP2 SWAP1 POP JUMP JUMPDEST PUSH0 PUSH8 0xFFFFFFFFFFFFFFFF DUP3 GT ISZERO PUSH2 0x3AD3 JUMPI PUSH2 0x3AD2 PUSH2 0x3A41 JUMP JUMPDEST JUMPDEST PUSH1 0x20 DUP3 MUL SWAP1 POP PUSH1 0x20 DUP2 ADD SWAP1 POP SWAP2 SWAP1 POP JUMP JUMPDEST PUSH0 PUSH0 REVERT JUMPDEST PUSH0 PUSH2 0x3AFA PUSH2 0x3AF5 DUP5 PUSH2 0x3AB9 JUMP JUMPDEST PUSH2 0x3A9F JUMP JUMPDEST SWAP1 POP DUP1 DUP4 DUP3 MSTORE PUSH1 0x20 DUP3 ADD SWAP1 POP PUSH1 0x20 DUP5 MUL DUP4 ADD DUP6 DUP2 GT ISZERO PUSH2 0x3B1D JUMPI PUSH2 0x3B1C PUSH2 0x3AE4 JUMP JUMPDEST JUMPDEST DUP4 JUMPDEST DUP2 DUP2 LT ISZERO PUSH2 0x3B46 JUMPI DUP1 PUSH2 0x3B32 DUP9 DUP3 PUSH2 0x3970 JUMP JUMPDEST DUP5 MSTORE PUSH1 0x20 DUP5 ADD SWAP4 POP POP PUSH1 0x20 DUP2 ADD SWAP1 POP PUSH2 0x3B1F JUMP JUMPDEST POP POP POP SWAP4 SWAP3 POP POP POP JUMP JUMPDEST PUSH0 DUP3 PUSH1 0x1F DUP4 ADD SLT PUSH2 0x3B64 JUMPI PUSH2 0x3B63 PUSH2 0x3A3D JUMP JUMPDEST JUMPDEST DUP2 CALLDATALOAD PUSH2 0x3B74 DUP5 DUP3 PUSH1 0x20 DUP7 ADD PUSH2 0x3AE8 JUMP JUMPDEST SWAP2 POP POP SWAP3 SWAP2 POP POP JUMP JUMPDEST PUSH0 PUSH0 PUSH1 0x40 DUP4 DUP6 SUB SLT ISZERO PUSH2 0x3B93 JUMPI PUSH2 0x3B92 PUSH2 0x3718 JUMP JUMPDEST JUMPDEST PUSH0 DUP4 ADD CALLDATALOAD PUSH8 0xFFFFFFFFFFFFFFFF DUP2 GT ISZERO PUSH2 0x3BB0 JUMPI PUSH2 0x3BAF PUSH2 0x371C JUMP JUMPDEST JUMPDEST PUSH2 0x3BBC DUP6 DUP3 DUP7 ADD PUSH2 0x3B50 JUMP JUMPDEST SWAP3 POP POP PUSH1 0x20 DUP4 ADD CALLDATALOAD PUSH8 0xFFFFFFFFFFFFFFFF DUP2 GT ISZERO PUSH2 0x3BDD JUMPI PUSH2 0x3BDC PUSH2 0x371C JUMP JUMPDEST JUMPDEST PUSH2 0x3BE9 DUP6 DUP3 DUP7 ADD PUSH2 0x3B50 JUMP JUMPDEST SWAP2 POP POP SWAP3 POP SWAP3 SWAP1 POP JUMP JUMPDEST PUSH0 DUP2 MLOAD SWAP1 POP SWAP2 SWAP1 POP JUMP JUMPDEST PUSH0 DUP3 DUP3 MSTORE PUSH1 0x20 DUP3 ADD SWAP1 POP SWAP3 SWAP2 POP POP JUMP JUMPDEST PUSH0 DUP2 SWAP1 POP PUSH1 0x20 DUP3 ADD SWAP1 POP SWAP2 SWAP1 POP JUMP JUMPDEST PUSH0 DUP3 DUP3 MSTORE PUSH1 0x20 DUP3 ADD SWAP1 POP SWAP3 SWAP2 POP POP JUMP JUMPDEST PUSH0 PUSH2 0x3C36 DUP3 PUSH2 0x39C2 JUMP JUMPDEST PUSH2 0x3C40 DUP2 DUP6 PUSH2 0x3C1C JUMP JUMPDEST SWAP4 POP PUSH2 0x3C50 DUP2 DUP6 PUSH1 0x20 DUP7 ADD PUSH2 0x38CA JUMP JUMPDEST PUSH2 0x3C59 DUP2 PUSH2 0x36B1 JUMP JUMPDEST DUP5 ADD SWAP2 POP POP SWAP3 SWAP2 POP POP JUMP JUMPDEST PUSH0 PUSH2 0x3C6F DUP4 DUP4 PUSH2 0x3C2C JUMP JUMPDEST SWAP1 POP SWAP3 SWAP2 POP POP JUMP JUMPDEST PUSH0 PUSH1 0x20 DUP3 ADD SWAP1 POP SWAP2 SWAP1 POP JUMP JUMPDEST PUSH0 PUSH2 0x3C8D DUP3 PUSH2 0x3BF3 JUMP JUMPDEST PUSH2 0x3C97 DUP2 DUP6 PUSH2 0x3BFD JUMP JUMPDEST SWAP4 POP DUP4 PUSH1 0x20 DUP3 MUL DUP6 ADD PUSH2 0x3CA9 DUP6 PUSH2 0x3C0D JUMP JUMPDEST DUP1 PUSH0 JUMPDEST DUP6 DUP2 LT ISZERO PUSH2 0x3CE4 JUMPI DUP5 DUP5 SUB DUP10 MSTORE DUP2 MLOAD PUSH2 0x3CC5 DUP6 DUP3 PUSH2 0x3C64 JUMP JUMPDEST SWAP5 POP PUSH2 0x3CD0 DUP4 PUSH2 0x3C77 JUMP JUMPDEST SWAP3 POP PUSH1 0x20 DUP11 ADD SWAP10 POP POP PUSH1 0x1 DUP2 ADD SWAP1 POP PUSH2 0x3CAC JUMP JUMPDEST POP DUP3 SWAP8 POP DUP8 SWAP6 POP POP POP POP POP POP SWAP3 SWAP2 POP POP JUMP JUMPDEST PUSH0 PUSH1 0x20 DUP3 ADD SWAP1 POP DUP2 DUP2 SUB PUSH0 DUP4 ADD MSTORE PUSH2 0x3D0E DUP2 DUP5 PUSH2 0x3C83 JUMP JUMPDEST SWAP1 POP SWAP3 SWAP2 POP POP JUMP JUMPDEST PUSH0 PUSH1 0x20 DUP3 DUP5 SUB SLT ISZERO PUSH2 0x3D2B JUMPI PUSH2 0x3D2A PUSH2 0x3718 JUMP JUMPDEST JUMPDEST PUSH0 PUSH2 0x3D38 DUP5 DUP3 DUP6 ADD PUSH2 0x3970 JUMP JUMPDEST SWAP2 POP POP SWAP3 SWAP2 POP POP JUMP JUMPDEST PUSH2 0x3D4A DUP2 PUSH2 0x3878 JUMP JUMPDEST DUP2 EQ PUSH2 0x3D54 JUMPI PUSH0 PUSH0 REVERT JUMPDEST POP JUMP JUMPDEST PUSH0 DUP2 CALLDATALOAD SWAP1 POP PUSH2 0x3D65 DUP2 PUSH2 0x3D41 JUMP JUMPDEST SWAP3 SWAP2 POP POP JUMP JUMPDEST PUSH0 PUSH0 PUSH1 0x40 DUP4 DUP6 SUB SLT ISZERO PUSH2 0x3D81 JUMPI PUSH2 0x3D80 PUSH2 0x3718 JUMP JUMPDEST JUMPDEST PUSH0 PUSH2 0x3D8E DUP6 DUP3 DUP7 ADD PUSH2 0x3D57 JUMP JUMPDEST SWAP3 POP POP PUSH1 0x20 PUSH2 0x3D9F DUP6 DUP3 DUP7 ADD PUSH2 0x3970 JUMP JUMPDEST SWAP2 POP POP SWAP3 POP SWAP3 SWAP1 POP JUMP JUMPDEST PUSH0 DUP2 MLOAD SWAP1 POP SWAP2 SWAP1 POP JUMP JUMPDEST PUSH0 DUP3 DUP3 MSTORE PUSH1 0x20 DUP3 ADD SWAP1 POP SWAP3 SWAP2 POP POP JUMP JUMPDEST PUSH0 DUP2 SWAP1 POP PUSH1 0x20 DUP3 ADD SWAP1 POP SWAP2 SWAP1 POP JUMP JUMPDEST PUSH2 0x3DDB DUP2 PUSH2 0x3878 JUMP JUMPDEST DUP3 MSTORE POP POP JUMP JUMPDEST PUSH0 PUSH2 0x3DEC DUP4 DUP4 PUSH2 0x3DD2 JUMP JUMPDEST PUSH1 0x20 DUP4 ADD SWAP1 POP SWAP3 SWAP2 POP POP JUMP JUMPDEST PUSH0 PUSH1 0x20 DUP3 ADD SWAP1 POP SWAP2 SWAP1 POP JUMP JUMPDEST PUSH0 PUSH2 0x3E0E DUP3 PUSH2 0x3DA9 JUMP JUMPDEST PUSH2 0x3E18 DUP2 DUP6 PUSH2 0x3DB3 JUMP JUMPDEST SWAP4 POP PUSH2 0x3E23 DUP4 PUSH2 0x3DC3 JUMP JUMPDEST DUP1 PUSH0 JUMPDEST DUP4 DUP2 LT ISZERO PUSH2 0x3E53 JUMPI DUP2 MLOAD PUSH2 0x3E3A DUP9 DUP3 PUSH2 0x3DE1 JUMP JUMPDEST SWAP8 POP PUSH2 0x3E45 DUP4 PUSH2 0x3DF8 JUMP JUMPDEST SWAP3 POP POP PUSH1 0x1 DUP2 ADD SWAP1 POP PUSH2 0x3E26 JUMP JUMPDEST POP DUP6 SWAP4 POP POP POP POP SWAP3 SWAP2 POP POP JUMP JUMPDEST PUSH0 PUSH1 0x20 DUP3 ADD SWAP1 POP DUP2 DUP2 SUB PUSH0 DUP4 ADD MSTORE PUSH2 0x3E78 DUP2 DUP5 PUSH2 0x3E04 JUMP JUMPDEST SWAP1 POP SWAP3 SWAP2 POP POP JUMP JUMPDEST PUSH2 0x3E89 DUP2 PUSH2 0x37A0 JUMP JUMPDEST DUP2 EQ PUSH2 0x3E93 JUMPI PUSH0 PUSH0 REVERT JUMPDEST POP JUMP JUMPDEST PUSH0 DUP2 CALLDATALOAD SWAP1 POP PUSH2 0x3EA4 DUP2 PUSH2 0x3E80 JUMP JUMPDEST SWAP3 SWAP2 POP POP JUMP JUMPDEST PUSH0 PUSH0 REVERT JUMPDEST PUSH0 PUSH8 0xFFFFFFFFFFFFFFFF DUP3 GT ISZERO PUSH2 0x3EC8 JUMPI PUSH2 0x3EC7 PUSH2 0x3A41 JUMP JUMPDEST JUMPDEST PUSH2 0x3ED1 DUP3 PUSH2 0x36B1 JUMP JUMPDEST SWAP1 POP PUSH1 0x20 DUP2 ADD SWAP1 POP SWAP2 SWAP1 POP JUMP JUMPDEST PUSH0 PUSH2 0x3EF0 PUSH2 0x3EEB DUP5 PUSH2 0x3EAE JUMP JUMPDEST PUSH2 0x3A9F JUMP JUMPDEST SWAP1 POP DUP3 DUP2 MSTORE PUSH1 0x20 DUP2 ADD DUP5 DUP5 DUP5 ADD GT ISZERO PUSH2 0x3F0C JUMPI PUSH2 0x3F0B PUSH2 0x3EAA JUMP JUMPDEST JUMPDEST PUSH2 0x3F17 DUP5 DUP3 DUP6 PUSH2 0x36A3 JUMP JUMPDEST POP SWAP4 SWAP3 POP POP POP JUMP JUMPDEST PUSH0 DUP3 PUSH1 0x1F DUP4 ADD SLT PUSH2 0x3F33 JUMPI PUSH2 0x3F32 PUSH2 0x3A3D JUMP JUMPDEST JUMPDEST DUP2 CALLDATALOAD PUSH2 0x3F43 DUP5 DUP3 PUSH1 0x20 DUP7 ADD PUSH2 0x3EDE JUMP JUMPDEST SWAP2 POP POP SWAP3 SWAP2 POP POP JUMP JUMPDEST PUSH0 PUSH0 PUSH0 PUSH0 PUSH0 PUSH1 0xA0 DUP7 DUP9 SUB SLT ISZERO PUSH2 0x3F65 JUMPI PUSH2 0x3F64 PUSH2 0x3718 JUMP JUMPDEST JUMPDEST PUSH0 PUSH2 0x3F72 DUP9 DUP3 DUP10 ADD PUSH2 0x3D57 JUMP JUMPDEST SWAP6 POP POP PUSH1 0x20 PUSH2 0x3F83 DUP9 DUP3 DUP10 ADD PUSH2 0x3D57 JUMP JUMPDEST SWAP5 POP POP PUSH1 0x40 PUSH2 0x3F94 DUP9 DUP3 DUP10 ADD PUSH2 0x3970 JUMP JUMPDEST SWAP4 POP POP PUSH1 0x60 PUSH2 0x3FA5 DUP9 DUP3 DUP10 ADD PUSH2 0x3E96 JUMP JUMPDEST SWAP3 POP POP PUSH1 0x80 DUP7 ADD CALLDATALOAD PUSH8 0xFFFFFFFFFFFFFFFF DUP2 GT ISZERO PUSH2 0x3FC6 JUMPI PUSH2 0x3FC5 PUSH2 0x371C JUMP JUMPDEST JUMPDEST PUSH2 0x3FD2 DUP9 DUP3 DUP10 ADD PUSH2 0x3F1F JUMP JUMPDEST SWAP2 POP POP SWAP3 SWAP6 POP SWAP3 SWAP6 SWAP1 SWAP4 POP JUMP JUMPDEST PUSH0 PUSH2 0x3FE9 DUP3 PUSH2 0x3859 JUMP JUMPDEST SWAP1 POP SWAP2 SWAP1 POP JUMP JUMPDEST PUSH2 0x3FF9 DUP2 PUSH2 0x3FDF JUMP JUMPDEST DUP2 EQ PUSH2 0x4003 JUMPI PUSH0 PUSH0 REVERT JUMPDEST POP JUMP JUMPDEST PUSH0 DUP2 CALLDATALOAD SWAP1 POP PUSH2 0x4014 DUP2 PUSH2 0x3FF0 JUMP JUMPDEST SWAP3 SWAP2 POP POP JUMP JUMPDEST PUSH0 PUSH0 PUSH1 0x40 DUP4 DUP6 SUB SLT ISZERO PUSH2 0x4030 JUMPI PUSH2 0x402F PUSH2 0x3718 JUMP JUMPDEST JUMPDEST PUSH0 PUSH2 0x403D DUP6 DUP3 DUP7 ADD PUSH2 0x4006 JUMP JUMPDEST SWAP3 POP POP PUSH1 0x20 PUSH2 0x404E DUP6 DUP3 DUP7 ADD PUSH2 0x381A JUMP JUMPDEST SWAP2 POP POP SWAP3 POP SWAP3 SWAP1 POP JUMP JUMPDEST PUSH0 PUSH0 REVERT JUMPDEST PUSH0 PUSH0 DUP4 PUSH1 0x1F DUP5 ADD SLT PUSH2 0x4071 JUMPI PUSH2 0x4070 PUSH2 0x3A3D JUMP JUMPDEST JUMPDEST DUP3 CALLDATALOAD SWAP1 POP PUSH8 0xFFFFFFFFFFFFFFFF DUP2 GT ISZERO PUSH2 0x408E JUMPI PUSH2 0x408D PUSH2 0x4058 JUMP JUMPDEST JUMPDEST PUSH1 0x20 DUP4 ADD SWAP2 POP DUP4 PUSH1 0x20 DUP3 MUL DUP4 ADD GT ISZERO PUSH2 0x40AA JUMPI PUSH2 0x40A9 PUSH2 0x3AE4 JUMP JUMPDEST JUMPDEST SWAP3 POP SWAP3 SWAP1 POP JUMP JUMPDEST PUSH0 PUSH0 PUSH1 0x20 DUP4 DUP6 SUB SLT ISZERO PUSH2 0x40C7 JUMPI PUSH2 0x40C6 PUSH2 0x3718 JUMP JUMPDEST JUMPDEST PUSH0 DUP4 ADD CALLDATALOAD PUSH8 0xFFFFFFFFFFFFFFFF DUP2 GT ISZERO PUSH2 0x40E4 JUMPI PUSH2 0x40E3 PUSH2 0x371C JUMP JUMPDEST JUMPDEST PUSH2 0x40F0 DUP6 DUP3 DUP7 ADD PUSH2 0x405C JUMP JUMPDEST SWAP3 POP SWAP3 POP POP SWAP3 POP SWAP3 SWAP1 POP JUMP JUMPDEST PUSH0 PUSH1 0x20 DUP3 DUP5 SUB SLT ISZERO PUSH2 0x4111 JUMPI PUSH2 0x4110 PUSH2 0x3718 JUMP JUMPDEST JUMPDEST PUSH0 PUSH2 0x411E DUP5 DUP3 DUP6 ADD PUSH2 0x3D57 JUMP JUMPDEST SWAP2 POP POP SWAP3 SWAP2 POP POP JUMP JUMPDEST PUSH0 PUSH8 0xFFFFFFFFFFFFFFFF DUP3 GT ISZERO PUSH2 0x4141 JUMPI PUSH2 0x4140 PUSH2 0x3A41 JUMP JUMPDEST JUMPDEST PUSH1 0x20 DUP3 MUL SWAP1 POP PUSH1 0x20 DUP2 ADD SWAP1 POP SWAP2 SWAP1 POP JUMP JUMPDEST PUSH0 PUSH2 0x4164 PUSH2 0x415F DUP5 PUSH2 0x4127 JUMP JUMPDEST PUSH2 0x3A9F JUMP JUMPDEST SWAP1 POP DUP1 DUP4 DUP3 MSTORE PUSH1 0x20 DUP3 ADD SWAP1 POP PUSH1 0x20 DUP5 MUL DUP4 ADD DUP6 DUP2 GT ISZERO PUSH2 0x4187 JUMPI PUSH2 0x4186 PUSH2 0x3AE4 JUMP JUMPDEST JUMPDEST DUP4 JUMPDEST DUP2 DUP2 LT ISZERO PUSH2 0x41B0 JUMPI DUP1 PUSH2 0x419C DUP9 DUP3 PUSH2 0x3D57 JUMP JUMPDEST DUP5 MSTORE PUSH1 0x20 DUP5 ADD SWAP4 POP POP PUSH1 0x20 DUP2 ADD SWAP1 POP PUSH2 0x4189 JUMP JUMPDEST POP POP POP SWAP4 SWAP3 POP POP POP JUMP JUMPDEST PUSH0 DUP3 PUSH1 0x1F DUP4 ADD SLT PUSH2 0x41CE JUMPI PUSH2 0x41CD PUSH2 0x3A3D JUMP JUMPDEST JUMPDEST DUP2 CALLDATALOAD PUSH2 0x41DE DUP5 DUP3 PUSH1 0x20 DUP7 ADD PUSH2 0x4152 JUMP JUMPDEST SWAP2 POP POP SWAP3 SWAP2 POP POP JUMP JUMPDEST PUSH0 PUSH8 0xFFFFFFFFFFFFFFFF DUP3 GT ISZERO PUSH2 0x4201 JUMPI PUSH2 0x4200 PUSH2 0x3A41 JUMP JUMPDEST JUMPDEST PUSH1 0x20 DUP3 MUL SWAP1 POP PUSH1 0x20 DUP2 ADD SWAP1 POP SWAP2 SWAP1 POP JUMP JUMPDEST PUSH0 PUSH2 0x4224 PUSH2 0x421F DUP5 PUSH2 0x41E7 JUMP JUMPDEST PUSH2 0x3A9F JUMP JUMPDEST SWAP1 POP DUP1 DUP4 DUP3 MSTORE PUSH1 0x20 DUP3 ADD SWAP1 POP PUSH1 0x20 DUP5 MUL DUP4 ADD DUP6 DUP2 GT ISZERO PUSH2 0x4247 JUMPI PUSH2 0x4246 PUSH2 0x3AE4 JUMP JUMPDEST JUMPDEST DUP4 JUMPDEST DUP2 DUP2 LT ISZERO PUSH2 0x4270 JUMPI DUP1 PUSH2 0x425C DUP9 DUP3 PUSH2 0x3E96 JUMP JUMPDEST DUP5 MSTORE PUSH1 0x20 DUP5 ADD SWAP4 POP POP PUSH1 0x20 DUP2 ADD SWAP1 POP PUSH2 0x4249 JUMP JUMPDEST POP POP POP SWAP4 SWAP3 POP POP POP JUMP JUMPDEST PUSH0 DUP3 PUSH1 0x1F DUP4 ADD SLT PUSH2 0x428E JUMPI PUSH2 0x428D PUSH2 0x3A3D JUMP JUMPDEST JUMPDEST DUP2 CALLDATALOAD PUSH2 0x429E DUP5 DUP3 PUSH1 0x20 DUP7 ADD PUSH2 0x4212 JUMP JUMPDEST SWAP2 POP POP SWAP3 SWAP2 POP POP JUMP JUMPDEST PUSH0 PUSH8 0xFFFFFFFFFFFFFFFF DUP3 GT ISZERO PUSH2 0x42C1 JUMPI PUSH2 0x42C0 PUSH2 0x3A41 JUMP JUMPDEST JUMPDEST PUSH1 0x20 DUP3 MUL SWAP1 POP PUSH1 0x20 DUP2 ADD SWAP1 POP SWAP2 SWAP1 POP JUMP JUMPDEST PUSH0 PUSH2 0x42E4 PUSH2 0x42DF DUP5 PUSH2 0x42A7 JUMP JUMPDEST PUSH2 0x3A9F JUMP JUMPDEST SWAP1 POP DUP1 DUP4 DUP3 MSTORE PUSH1 0x20 DUP3 ADD SWAP1 POP PUSH1 0x20 DUP5 MUL DUP4 ADD DUP6 DUP2 GT ISZERO PUSH2 0x4307 JUMPI PUSH2 0x4306 PUSH2 0x3AE4 JUMP JUMPDEST JUMPDEST DUP4 JUMPDEST DUP2 DUP2 LT ISZERO PUSH2 0x434E JUMPI DUP1 CALLDATALOAD PUSH8 0xFFFFFFFFFFFFFFFF DUP2 GT ISZERO PUSH2 0x432C JUMPI PUSH2 0x432B PUSH2 0x3A3D JUMP JUMPDEST JUMPDEST DUP1 DUP7 ADD PUSH2 0x4339 DUP10 DUP3 PUSH2 0x3F1F JUMP JUMPDEST DUP6 MSTORE PUSH1 0x20 DUP6 ADD SWAP5 POP POP POP PUSH1 0x20 DUP2 ADD SWAP1 POP PUSH2 0x4309 JUMP JUMPDEST POP POP POP SWAP4 SWAP3 POP POP POP JUMP JUMPDEST PUSH0 DUP3 PUSH1 0x1F DUP4 ADD SLT PUSH2 0x436C JUMPI PUSH2 0x436B PUSH2 0x3A3D JUMP JUMPDEST JUMPDEST DUP2 CALLDATALOAD PUSH2 0x437C DUP5 DUP3 PUSH1 0x20 DUP7 ADD PUSH2 0x42D2 JUMP JUMPDEST SWAP2 POP POP SWAP3 SWAP2 POP POP JUMP JUMPDEST PUSH0 PUSH0 PUSH0 PUSH0 PUSH0 PUSH1 0xA0 DUP7 DUP9 SUB SLT ISZERO PUSH2 0x439E JUMPI PUSH2 0x439D PUSH2 0x3718 JUMP JUMPDEST JUMPDEST PUSH0 DUP7 ADD CALLDATALOAD PUSH8 0xFFFFFFFFFFFFFFFF DUP2 GT ISZERO PUSH2 0x43BB JUMPI PUSH2 0x43BA PUSH2 0x371C JUMP JUMPDEST JUMPDEST PUSH2 0x43C7 DUP9 DUP3 DUP10 ADD PUSH2 0x41BA JUMP JUMPDEST SWAP6 POP POP PUSH1 0x20 DUP7 ADD CALLDATALOAD PUSH8 0xFFFFFFFFFFFFFFFF DUP2 GT ISZERO PUSH2 0x43E8 JUMPI PUSH2 0x43E7 PUSH2 0x371C JUMP JUMPDEST JUMPDEST PUSH2 0x43F4 DUP9 DUP3 DUP10 ADD PUSH2 0x41BA JUMP JUMPDEST SWAP5 POP POP PUSH1 0x40 DUP7 ADD CALLDATALOAD PUSH8 0xFFFFFFFFFFFFFFFF DUP2 GT ISZERO PUSH2 0x4415 JUMPI PUSH2 0x4414 PUSH2 0x371C JUMP JUMPDEST JUMPDEST PUSH2 0x4421 DUP9 DUP3 DUP10 ADD PUSH2 0x3B50 JUMP JUMPDEST SWAP4 POP POP PUSH1 0x60 DUP7 ADD CALLDATALOAD PUSH8 0xFFFFFFFFFFFFFFFF DUP2 GT ISZERO PUSH2 0x4442 JUMPI PUSH2 0x4441 PUSH2 0x371C JUMP JUMPDEST JUMPDEST PUSH2 0x444E DUP9 DUP3 DUP10 ADD PUSH2 0x427A JUMP JUMPDEST SWAP3 POP POP PUSH1 0x80 DUP7 ADD CALLDATALOAD PUSH8 0xFFFFFFFFFFFFFFFF DUP2 GT ISZERO PUSH2 0x446F JUMPI PUSH2 0x446E PUSH2 0x371C JUMP JUMPDEST JUMPDEST PUSH2 0x447B DUP9 DUP3 DUP10 ADD PUSH2 0x4358 JUMP JUMPDEST SWAP2 POP POP SWAP3 SWAP6 POP SWAP3 SWAP6 SWAP1 SWAP4 POP JUMP JUMPDEST PUSH0 PUSH0 PUSH1 0x40 DUP4 DUP6 SUB SLT ISZERO PUSH2 0x449E JUMPI PUSH2 0x449D PUSH2 0x3718 JUMP JUMPDEST JUMPDEST PUSH0 PUSH2 0x44AB DUP6 DUP3 DUP7 ADD PUSH2 0x3970 JUMP JUMPDEST SWAP3 POP POP PUSH1 0x20 DUP4 ADD CALLDATALOAD PUSH8 0xFFFFFFFFFFFFFFFF DUP2 GT ISZERO PUSH2 0x44CC JUMPI PUSH2 0x44CB PUSH2 0x371C JUMP JUMPDEST JUMPDEST PUSH2 0x44D8 DUP6 DUP3 DUP7 ADD PUSH2 0x3F1F JUMP JUMPDEST SWAP2 POP POP SWAP3 POP SWAP3 SWAP1 POP JUMP JUMPDEST PUSH0 PUSH0 PUSH0 PUSH1 0x60 DUP5 DUP7 SUB SLT ISZERO PUSH2 0x44F9 JUMPI PUSH2 0x44F8 PUSH2 0x3718 JUMP JUMPDEST JUMPDEST PUSH0 PUSH2 0x4506 DUP7 DUP3 DUP8 ADD PUSH2 0x3D57 JUMP JUMPDEST SWAP4 POP POP PUSH1 0x20 PUSH2 0x4517 DUP7 DUP3 DUP8 ADD PUSH2 0x3970 JUMP JUMPDEST SWAP3 POP POP PUSH1 0x40 DUP5 ADD CALLDATALOAD PUSH8 0xFFFFFFFFFFFFFFFF DUP2 GT ISZERO PUSH2 0x4538 JUMPI PUSH2 0x4537 PUSH2 0x371C JUMP JUMPDEST JUMPDEST PUSH2 0x4544 DUP7 DUP3 DUP8 ADD PUSH2 0x3F1F JUMP JUMPDEST SWAP2 POP POP SWAP3 POP SWAP3 POP SWAP3 JUMP JUMPDEST PUSH0 DUP2 MLOAD SWAP1 POP SWAP2 SWAP1 POP JUMP JUMPDEST PUSH0 DUP3 DUP3 MSTORE PUSH1 0x20 DUP3 ADD SWAP1 POP SWAP3 SWAP2 POP POP JUMP JUMPDEST PUSH0 DUP2 SWAP1 POP PUSH1 0x20 DUP3 ADD SWAP1 POP SWAP2 SWAP1 POP JUMP JUMPDEST PUSH2 0x4580 DUP2 PUSH2 0x3898 JUMP JUMPDEST DUP3 MSTORE POP POP JUMP JUMPDEST PUSH0 PUSH2 0x4591 DUP4 DUP4 PUSH2 0x4577 JUMP JUMPDEST PUSH1 0x20 DUP4 ADD SWAP1 POP SWAP3 SWAP2 POP POP JUMP JUMPDEST PUSH0 PUSH1 0x20 DUP3 ADD SWAP1 POP SWAP2 SWAP1 POP JUMP JUMPDEST PUSH0 PUSH2 0x45B3 DUP3 PUSH2 0x454E JUMP JUMPDEST PUSH2 0x45BD DUP2 DUP6 PUSH2 0x4558 JUMP JUMPDEST SWAP4 POP PUSH2 0x45C8 DUP4 PUSH2 0x4568 JUMP JUMPDEST DUP1 PUSH0 JUMPDEST DUP4 DUP2 LT ISZERO PUSH2 0x45F8 JUMPI DUP2 MLOAD PUSH2 0x45DF DUP9 DUP3 PUSH2 0x4586 JUMP JUMPDEST SWAP8 POP PUSH2 0x45EA DUP4 PUSH2 0x459D JUMP JUMPDEST SWAP3 POP POP PUSH1 0x1 DUP2 ADD SWAP1 POP PUSH2 0x45CB JUMP JUMPDEST POP DUP6 SWAP4 POP POP POP POP SWAP3 SWAP2 POP POP JUMP JUMPDEST PUSH0 PUSH1 0x20 DUP3 ADD SWAP1 POP DUP2 DUP2 SUB PUSH0 DUP4 ADD MSTORE PUSH2 0x461D DUP2 DUP5 PUSH2 0x45A9 JUMP JUMPDEST SWAP1 POP SWAP3 SWAP2 POP POP JUMP JUMPDEST PUSH0 PUSH0 PUSH1 0x40 DUP4 DUP6 SUB SLT ISZERO PUSH2 0x463B JUMPI PUSH2 0x463A PUSH2 0x3718 JUMP JUMPDEST JUMPDEST PUSH0 DUP4 ADD CALLDATALOAD PUSH8 0xFFFFFFFFFFFFFFFF DUP2 GT ISZERO PUSH2 0x4658 JUMPI PUSH2 0x4657 PUSH2 0x371C JUMP JUMPDEST JUMPDEST PUSH2 0x4664 DUP6 DUP3 DUP7 ADD PUSH2 0x3B50 JUMP JUMPDEST SWAP3 POP POP PUSH1 0x20 DUP4 ADD CALLDATALOAD PUSH8 0xFFFFFFFFFFFFFFFF DUP2 GT ISZERO PUSH2 0x4685 JUMPI PUSH2 0x4684 PUSH2 0x371C JUMP JUMPDEST JUMPDEST PUSH2 0x4691 DUP6 DUP3 DUP7 ADD PUSH2 0x4358 JUMP JUMPDEST SWAP2 POP POP SWAP3 POP SWAP3 SWAP1 POP JUMP JUMPDEST PUSH0 PUSH0 PUSH1 0x40 DUP4 DUP6 SUB SLT ISZERO PUSH2 0x46B1 JUMPI PUSH2 0x46B0 PUSH2 0x3718 JUMP JUMPDEST JUMPDEST PUSH0 PUSH2 0x46BE DUP6 DUP3 DUP7 ADD PUSH2 0x381A JUMP JUMPDEST SWAP3 POP POP PUSH1 0x20 PUSH2 0x46CF DUP6 DUP3 DUP7 ADD PUSH2 0x381A JUMP JUMPDEST SWAP2 POP POP SWAP3 POP SWAP3 SWAP1 POP JUMP JUMPDEST PUSH0 PUSH0 PUSH0 PUSH1 0x60 DUP5 DUP7 SUB SLT ISZERO PUSH2 0x46F0 JUMPI PUSH2 0x46EF PUSH2 0x3718 JUMP JUMPDEST JUMPDEST PUSH0 DUP5 ADD CALLDATALOAD PUSH8 0xFFFFFFFFFFFFFFFF DUP2 GT ISZERO PUSH2 0x470D JUMPI PUSH2 0x470C PUSH2 0x371C JUMP JUMPDEST JUMPDEST PUSH2 0x4719 DUP7 DUP3 DUP8 ADD PUSH2 0x3B50 JUMP JUMPDEST SWAP4 POP POP PUSH1 0x20 DUP5 ADD CALLDATALOAD PUSH8 0xFFFFFFFFFFFFFFFF DUP2 GT ISZERO PUSH2 0x473A JUMPI PUSH2 0x4739 PUSH2 0x371C JUMP JUMPDEST JUMPDEST PUSH2 0x4746 DUP7 DUP3 DUP8 ADD PUSH2 0x3B50 JUMP JUMPDEST SWAP3 POP POP PUSH1 0x40 DUP5 ADD CALLDATALOAD PUSH8 0xFFFFFFFFFFFFFFFF DUP2 GT ISZERO PUSH2 0x4767 JUMPI PUSH2 0x4766 PUSH2 0x371C JUMP JUMPDEST JUMPDEST PUSH2 0x4773 DUP7 DUP3 DUP8 ADD PUSH2 0x4358 JUMP JUMPDEST SWAP2 POP POP SWAP3 POP SWAP3 POP SWAP3 JUMP JUMPDEST PUSH0 PUSH0 PUSH0 PUSH1 0x60 DUP5 DUP7 SUB SLT ISZERO PUSH2 0x4794 JUMPI PUSH2 0x4793 PUSH2 0x3718 JUMP JUMPDEST JUMPDEST PUSH0 PUSH2 0x47A1 DUP7 DUP3 DUP8 ADD PUSH2 0x3970 JUMP JUMPDEST SWAP4 POP POP PUSH1 0x20 PUSH2 0x47B2 DUP7 DUP3 DUP8 ADD PUSH2 0x3970 JUMP JUMPDEST SWAP3 POP POP PUSH1 0x40 DUP5 ADD CALLDATALOAD PUSH8 0xFFFFFFFFFFFFFFFF DUP2 GT ISZERO PUSH2 0x47D3 JUMPI PUSH2 0x47D2 PUSH2 0x371C JUMP JUMPDEST JUMPDEST PUSH2 0x47DF DUP7 DUP3 DUP8 ADD PUSH2 0x3F1F JUMP JUMPDEST SWAP2 POP POP SWAP3 POP SWAP3 POP SWAP3 JUMP JUMPDEST PUSH0 PUSH0 PUSH0 PUSH0 PUSH1 0x80 DUP6 DUP8 SUB SLT ISZERO PUSH2 0x4801 JUMPI PUSH2 0x4800 PUSH2 0x3718 JUMP JUMPDEST JUMPDEST PUSH0 PUSH2 0x480E DUP8 DUP3 DUP9 ADD PUSH2 0x3D57 JUMP JUMPDEST SWAP5 POP POP PUSH1 0x20 PUSH2 0x481F DUP8 DUP3 DUP9 ADD PUSH2 0x3970 JUMP JUMPDEST SWAP4 POP POP PUSH1 0x40 PUSH2 0x4830 DUP8 DUP3 DUP9 ADD PUSH2 0x3E96 JUMP JUMPDEST SWAP3 POP POP PUSH1 0x60 DUP6 ADD CALLDATALOAD PUSH8 0xFFFFFFFFFFFFFFFF DUP2 GT ISZERO PUSH2 0x4851 JUMPI PUSH2 0x4850 PUSH2 0x371C JUMP JUMPDEST JUMPDEST PUSH2 0x485D DUP8 DUP3 DUP9 ADD PUSH2 0x3F1F JUMP JUMPDEST SWAP2 POP POP SWAP3 SWAP6 SWAP2 SWAP5 POP SWAP3 POP JUMP JUMPDEST PUSH0 PUSH1 0x20 DUP3 DUP5 SUB SLT ISZERO PUSH2 0x487E JUMPI PUSH2 0x487D PUSH2 0x3718 JUMP JUMPDEST JUMPDEST PUSH0 DUP3 ADD CALLDATALOAD PUSH8 0xFFFFFFFFFFFFFFFF DUP2 GT ISZERO PUSH2 0x489B JUMPI PUSH2 0x489A PUSH2 0x371C JUMP JUMPDEST JUMPDEST PUSH2 0x48A7 DUP5 DUP3 DUP6 ADD PUSH2 0x3B50 JUMP JUMPDEST SWAP2 POP POP SWAP3 SWAP2 POP POP JUMP JUMPDEST PUSH0 PUSH8 0xFFFFFFFFFFFFFFFF DUP3 GT ISZERO PUSH2 0x48CA JUMPI PUSH2 0x48C9 PUSH2 0x3A41 JUMP JUMPDEST JUMPDEST PUSH2 0x48D3 DUP3 PUSH2 0x36B1 JUMP JUMPDEST SWAP1 POP PUSH1 0x20 DUP2 ADD SWAP1 POP SWAP2 SWAP1 POP JUMP JUMPDEST PUSH0 PUSH2 0x48F2 PUSH2 0x48ED DUP5 PUSH2 0x48B0 JUMP JUMPDEST PUSH2 0x3A9F JUMP JUMPDEST SWAP1 POP DUP3 DUP2 MSTORE PUSH1 0x20 DUP2 ADD DUP5 DUP5 DUP5 ADD GT ISZERO PUSH2 0x490E JUMPI PUSH2 0x490D PUSH2 0x3EAA JUMP JUMPDEST JUMPDEST PUSH2 0x4919 DUP5 DUP3 DUP6 PUSH2 0x36A3 JUMP JUMPDEST POP SWAP4 SWAP3 POP POP POP JUMP JUMPDEST PUSH0 DUP3 PUSH1 0x1F DUP4 ADD SLT PUSH2 0x4935 JUMPI PUSH2 0x4934 PUSH2 0x3A3D JUMP JUMPDEST JUMPDEST DUP2 CALLDATALOAD PUSH2 0x4945 DUP5 DUP3 PUSH1 0x20 DUP7 ADD PUSH2 0x48E0 JUMP JUMPDEST SWAP2 POP POP SWAP3 SWAP2 POP POP JUMP JUMPDEST PUSH0 PUSH1 0x20 DUP3 DUP5 SUB SLT ISZERO PUSH2 0x4963 JUMPI PUSH2 0x4962 PUSH2 0x3718 JUMP JUMPDEST JUMPDEST PUSH0 DUP3 ADD CALLDATALOAD PUSH8 0xFFFFFFFFFFFFFFFF DUP2 GT ISZERO PUSH2 0x4980 JUMPI PUSH2 0x497F PUSH2 0x371C JUMP JUMPDEST JUMPDEST PUSH2 0x498C DUP5 DUP3 DUP6 ADD PUSH2 0x4921 JUMP JUMPDEST SWAP2 POP POP SWAP3 SWAP2 POP POP JUMP JUMPDEST PUSH2 0x499E DUP2 PUSH2 0x3720 JUMP JUMPDEST DUP3 MSTORE POP POP JUMP JUMPDEST PUSH0 PUSH1 0x20 DUP3 ADD SWAP1 POP PUSH2 0x49B7 PUSH0 DUP4 ADD DUP5 PUSH2 0x4995 JUMP JUMPDEST SWAP3 SWAP2 POP POP JUMP JUMPDEST PUSH0 DUP2 SWAP1 POP SWAP3 SWAP2 POP POP JUMP JUMPDEST PUSH0 PUSH2 0x49D2 DUP4 DUP6 PUSH2 0x49BD JUMP JUMPDEST SWAP4 POP PUSH2 0x49DF DUP4 DUP6 DUP5 PUSH2 0x36A3 JUMP JUMPDEST DUP3 DUP5 ADD SWAP1 POP SWAP4 SWAP3 POP POP POP JUMP JUMPDEST PUSH0 DUP2 PUSH1 0x60 SHL SWAP1 POP SWAP2 SWAP1 POP JUMP JUMPDEST PUSH0 PUSH2 0x4A01 DUP3 PUSH2 0x49EB JUMP JUMPDEST SWAP1 POP SWAP2 SWAP1 POP JUMP JUMPDEST PUSH0 PUSH2 0x4A12 DUP3 PUSH2 0x49F7 JUMP JUMPDEST SWAP1 POP SWAP2 SWAP1 POP JUMP JUMPDEST PUSH2 0x4A2A PUSH2 0x4A25 DUP3 PUSH2 0x3878 JUMP JUMPDEST PUSH2 0x4A08 JUMP JUMPDEST DUP3 MSTORE POP POP JUMP JUMPDEST PUSH0 DUP2 SWAP1 POP SWAP2 SWAP1 POP JUMP JUMPDEST PUSH2 0x4A4A PUSH2 0x4A45 DUP3 PUSH2 0x37D3 JUMP JUMPDEST PUSH2 0x4A30 JUMP JUMPDEST DUP3 MSTORE POP POP JUMP JUMPDEST PUSH0 PUSH2 0x4A5C DUP3 DUP7 DUP9 PUSH2 0x49C7 JUMP JUMPDEST SWAP2 POP PUSH2 0x4A68 DUP3 DUP6 PUSH2 0x4A19 JUMP JUMPDEST PUSH1 0x14 DUP3 ADD SWAP2 POP PUSH2 0x4A78 DUP3 DUP5 PUSH2 0x4A39 JUMP JUMPDEST PUSH1 0x20 DUP3 ADD SWAP2 POP DUP2 SWAP1 POP SWAP6 SWAP5 POP POP POP POP POP JUMP JUMPDEST PUSH0 PUSH2 0x4A94 DUP3 PUSH2 0x39C2 JUMP JUMPDEST PUSH2 0x4A9E DUP2 DUP6 PUSH2 0x49BD JUMP JUMPDEST SWAP4 POP PUSH2 0x4AAE DUP2 DUP6 PUSH1 0x20 DUP7 ADD PUSH2 0x38CA JUMP JUMPDEST DUP1 DUP5 ADD SWAP2 POP POP SWAP3 SWAP2 POP POP JUMP JUMPDEST PUSH0 PUSH2 0x4AC5 DUP3 DUP5 PUSH2 0x4A8A JUMP JUMPDEST SWAP2 POP DUP2 SWAP1 POP SWAP3 SWAP2 POP POP JUMP JUMPDEST PUSH32 0x4E487B7100000000000000000000000000000000000000000000000000000000 PUSH0 MSTORE PUSH1 0x22 PUSH1 0x4 MSTORE PUSH1 0x24 PUSH0 REVERT JUMPDEST PUSH0 PUSH1 0x2 DUP3 DIV SWAP1 POP PUSH1 0x1 DUP3 AND DUP1 PUSH2 0x4B14 JUMPI PUSH1 0x7F DUP3 AND SWAP2 POP JUMPDEST PUSH1 0x20 DUP3 LT DUP2 SUB PUSH2 0x4B27 JUMPI PUSH2 0x4B26 PUSH2 0x4AD0 JUMP JUMPDEST JUMPDEST POP SWAP2 SWAP1 POP JUMP JUMPDEST PUSH32 0x4E487B7100000000000000000000000000000000000000000000000000000000 PUSH0 MSTORE PUSH1 0x32 PUSH1 0x4 MSTORE PUSH1 0x24 PUSH0 REVERT JUMPDEST PUSH0 PUSH1 0x20 DUP3 ADD SWAP1 POP PUSH2 0x4B6D PUSH0 DUP4 ADD DUP5 PUSH2 0x38A1 JUMP JUMPDEST SWAP3 SWAP2 POP POP JUMP JUMPDEST POP JUMP JUMPDEST PUSH0 PUSH2 0x4B81 PUSH0 DUP4 PUSH2 0x49BD JUMP JUMPDEST SWAP2 POP PUSH2 0x4B8C DUP3 PUSH2 0x4B73 JUMP JUMPDEST PUSH0 DUP3 ADD SWAP1 POP SWAP2 SWAP1 POP JUMP JUMPDEST PUSH0 PUSH2 0x4BA0 DUP3 PUSH2 0x4B76 JUMP JUMPDEST SWAP2 POP DUP2 SWAP1 POP SWAP2 SWAP1 POP JUMP JUMPDEST PUSH32 0x4661696C65640000000000000000000000000000000000000000000000000000 PUSH0 DUP3 ADD MSTORE POP JUMP JUMPDEST PUSH0 PUSH2 0x4BDE PUSH1 0x6 DUP4 PUSH2 0x38BA JUMP JUMPDEST SWAP2 POP PUSH2 0x4BE9 DUP3 PUSH2 0x4BAA JUMP JUMPDEST PUSH1 0x20 DUP3 ADD SWAP1 POP SWAP2 SWAP1 POP JUMP JUMPDEST PUSH0 PUSH1 0x20 DUP3 ADD SWAP1 POP DUP2 DUP2 SUB PUSH0 DUP4 ADD MSTORE PUSH2 0x4C0B DUP2 PUSH2 0x4BD2 JUMP JUMPDEST SWAP1 POP SWAP2 SWAP1 POP JUMP JUMPDEST PUSH0 PUSH1 0x40 DUP3 ADD SWAP1 POP PUSH2 0x4C25 PUSH0 DUP4 ADD DUP6 PUSH2 0x38A1 JUMP JUMPDEST PUSH2 0x4C32 PUSH1 0x20 DUP4 ADD DUP5 PUSH2 0x3889 JUMP JUMPDEST SWAP4 SWAP3 POP POP POP JUMP JUMPDEST PUSH0 PUSH0 REVERT JUMPDEST PUSH0 PUSH0 REVERT JUMPDEST PUSH0 PUSH0 REVERT JUMPDEST PUSH0 PUSH0 DUP4 CALLDATALOAD PUSH1 0x1 PUSH1 0x20 SUB DUP5 CALLDATASIZE SUB SUB DUP2 SLT PUSH2 0x4C61 JUMPI PUSH2 0x4C60 PUSH2 0x4C39 JUMP JUMPDEST JUMPDEST DUP1 DUP5 ADD SWAP3 POP DUP3 CALLDATALOAD SWAP2 POP PUSH8 0xFFFFFFFFFFFFFFFF DUP3 GT ISZERO PUSH2 0x4C83 JUMPI PUSH2 0x4C82 PUSH2 0x4C3D JUMP JUMPDEST JUMPDEST PUSH1 0x20 DUP4 ADD SWAP3 POP PUSH1 0x1 DUP3 MUL CALLDATASIZE SUB DUP4 SGT ISZERO PUSH2 0x4C9F JUMPI PUSH2 0x4C9E PUSH2 0x4C41 JUMP JUMPDEST JUMPDEST POP SWAP3 POP SWAP3 SWAP1 POP JUMP JUMPDEST PUSH0 PUSH2 0x4CB3 DUP3 DUP5 DUP7 PUSH2 0x49C7 JUMP JUMPDEST SWAP2 POP DUP2 SWAP1 POP SWAP4 SWAP3 POP POP POP JUMP JUMPDEST PUSH0 DUP2 SWAP1 POP DUP2 PUSH0 MSTORE PUSH1 0x20 PUSH0 KECCAK256 SWAP1 POP SWAP2 SWAP1 POP JUMP JUMPDEST PUSH0 DUP2 SLOAD PUSH2 0x4CDD DUP2 PUSH2 0x4AFD JUMP JUMPDEST PUSH2 0x4CE7 DUP2 DUP7 PUSH2 0x49BD JUMP JUMPDEST SWAP5 POP PUSH1 0x1 DUP3 AND PUSH0 DUP2 EQ PUSH2 0x4D01 JUMPI PUSH1 0x1 DUP2 EQ PUSH2 0x4D16 JUMPI PUSH2 0x4D48 JUMP JUMPDEST PUSH1 0xFF NOT DUP4 AND DUP7 MSTORE DUP2 ISZERO ISZERO DUP3 MUL DUP7 ADD SWAP4 POP PUSH2 0x4D48 JUMP JUMPDEST PUSH2 0x4D1F DUP6 PUSH2 0x4CBF JUMP JUMPDEST PUSH0 JUMPDEST DUP4 DUP2 LT ISZERO PUSH2 0x4D40 JUMPI DUP2 SLOAD DUP2 DUP10 ADD MSTORE PUSH1 0x1 DUP3 ADD SWAP2 POP PUSH1 0x20 DUP2 ADD SWAP1 POP PUSH2 0x4D21 JUMP JUMPDEST DUP4 DUP9 ADD SWAP6 POP POP POP JUMPDEST POP POP POP SWAP3 SWAP2 POP POP JUMP JUMPDEST PUSH0 PUSH2 0x4D5C DUP3 DUP5 PUSH2 0x4CD1 JUMP JUMPDEST SWAP2 POP DUP2 SWAP1 POP SWAP3 SWAP2 POP POP JUMP JUMPDEST PUSH0 DUP2 SWAP1 POP SWAP3 SWAP2 POP POP JUMP JUMPDEST PUSH32 0x646174613A6170706C69636174696F6E2F6A736F6E3B6261736536342C000000 PUSH0 DUP3 ADD MSTORE POP JUMP JUMPDEST PUSH0 PUSH2 0x4DA5 PUSH1 0x1D DUP4 PUSH2 0x4D67 JUMP JUMPDEST SWAP2 POP PUSH2 0x4DB0 DUP3 PUSH2 0x4D71 JUMP JUMPDEST PUSH1 0x1D DUP3 ADD SWAP1 POP SWAP2 SWAP1 POP JUMP JUMPDEST PUSH0 PUSH2 0x4DC5 DUP3 PUSH2 0x38B0 JUMP JUMPDEST PUSH2 0x4DCF DUP2 DUP6 PUSH2 0x4D67 JUMP JUMPDEST SWAP4 POP PUSH2 0x4DDF DUP2 DUP6 PUSH1 0x20 DUP7 ADD PUSH2 0x38CA JUMP JUMPDEST DUP1 DUP5 ADD SWAP2 POP POP SWAP3 SWAP2 POP POP JUMP JUMPDEST PUSH0 PUSH2 0x4DF5 DUP3 PUSH2 0x4D99 JUMP JUMPDEST SWAP2 POP PUSH2 0x4E01 DUP3 DUP5 PUSH2 0x4DBB JUMP JUMPDEST SWAP2 POP DUP2 SWAP1 POP SWAP3 SWAP2 POP POP JUMP JUMPDEST PUSH30 0x6F357C6A0020000000000000000000000000000000000000000000000000 DUP2 MSTORE POP JUMP JUMPDEST PUSH0 DUP2 SWAP1 POP SWAP2 SWAP1 POP JUMP JUMPDEST PUSH2 0x4E4A PUSH2 0x4E45 DUP3 PUSH2 0x3898 JUMP JUMPDEST PUSH2 0x4E30 JUMP JUMPDEST DUP3 MSTORE POP POP JUMP JUMPDEST PUSH0 PUSH2 0x4E5A DUP3 PUSH2 0x4E0C JUMP JUMPDEST PUSH1 0x8 DUP3 ADD SWAP2 POP PUSH2 0x4E6A DUP3 DUP6 PUSH2 0x4E39 JUMP JUMPDEST PUSH1 0x20 DUP3 ADD SWAP2 POP PUSH2 0x4E7A DUP3 DUP5 PUSH2 0x4A8A JUMP JUMPDEST SWAP2 POP DUP2 SWAP1 POP SWAP4 SWAP3 POP POP POP JUMP JUMPDEST PUSH0 PUSH1 0x60 DUP3 ADD SWAP1 POP PUSH2 0x4E99 PUSH0 DUP4 ADD DUP7 PUSH2 0x3889 JUMP JUMPDEST PUSH2 0x4EA6 PUSH1 0x20 DUP4 ADD DUP6 PUSH2 0x38A1 JUMP JUMPDEST PUSH2 0x4EB3 PUSH1 0x40 DUP4 ADD DUP5 PUSH2 0x3889 JUMP JUMPDEST SWAP5 SWAP4 POP POP POP POP JUMP JUMPDEST PUSH0 PUSH1 0x40 DUP3 ADD SWAP1 POP PUSH2 0x4ECE PUSH0 DUP4 ADD DUP6 PUSH2 0x3889 JUMP JUMPDEST PUSH2 0x4EDB PUSH1 0x20 DUP4 ADD DUP5 PUSH2 0x38A1 JUMP JUMPDEST SWAP4 SWAP3 POP POP POP JUMP JUMPDEST PUSH0 PUSH1 0x80 DUP3 ADD SWAP1 POP PUSH2 0x4EF5 PUSH0 DUP4 ADD DUP8 PUSH2 0x3889 JUMP JUMPDEST PUSH2 0x4F02 PUSH1 0x20 DUP4 ADD DUP7 PUSH2 0x38A1 JUMP JUMPDEST PUSH2 0x4F0F PUSH1 0x40 DUP4 ADD DUP6 PUSH2 0x37AB JUMP JUMPDEST DUP2 DUP2 SUB PUSH1 0x60 DUP4 ADD MSTORE PUSH2 0x4F21 DUP2 DUP5 PUSH2 0x39CC JUMP JUMPDEST SWAP1 POP SWAP6 SWAP5 POP POP POP POP POP JUMP JUMPDEST PUSH32 0x4E487B7100000000000000000000000000000000000000000000000000000000 PUSH0 MSTORE PUSH1 0x11 PUSH1 0x4 MSTORE PUSH1 0x24 PUSH0 REVERT JUMPDEST PUSH0 PUSH2 0x4F63 DUP3 PUSH2 0x37D3 JUMP JUMPDEST SWAP2 POP PUSH2 0x4F6E DUP4 PUSH2 0x37D3 JUMP JUMPDEST SWAP3 POP DUP3 DUP3 MUL PUSH2 0x4F7C DUP2 PUSH2 0x37D3 JUMP JUMPDEST SWAP2 POP DUP3 DUP3 DIV DUP5 EQ DUP4 ISZERO OR PUSH2 0x4F93 JUMPI PUSH2 0x4F92 PUSH2 0x4F2C JUMP JUMPDEST JUMPDEST POP SWAP3 SWAP2 POP POP JUMP JUMPDEST PUSH32 0x4E487B7100000000000000000000000000000000000000000000000000000000 PUSH0 MSTORE PUSH1 0x12 PUSH1 0x4 MSTORE PUSH1 0x24 PUSH0 REVERT JUMPDEST PUSH0 PUSH2 0x4FD1 DUP3 PUSH2 0x37D3 JUMP JUMPDEST SWAP2 POP PUSH2 0x4FDC DUP4 PUSH2 0x37D3 JUMP JUMPDEST SWAP3 POP DUP3 PUSH2 0x4FEC JUMPI PUSH2 0x4FEB PUSH2 0x4F9A JUMP JUMPDEST JUMPDEST DUP3 DUP3 DIV SWAP1 POP SWAP3 SWAP2 POP POP JUMP JUMPDEST PUSH0 PUSH1 0x60 DUP3 ADD SWAP1 POP PUSH2 0x500A PUSH0 DUP4 ADD DUP7 PUSH2 0x3889 JUMP JUMPDEST PUSH2 0x5017 PUSH1 0x20 DUP4 ADD DUP6 PUSH2 0x3889 JUMP JUMPDEST PUSH2 0x5024 PUSH1 0x40 DUP4 ADD DUP5 PUSH2 0x38A1 JUMP JUMPDEST SWAP5 SWAP4 POP POP POP POP JUMP JUMPDEST PUSH0 DUP2 SWAP1 POP PUSH1 0x20 DUP3 ADD SWAP1 POP SWAP2 SWAP1 POP JUMP JUMPDEST PUSH0 PUSH32 0xFFFFFFFFFFFFFFFFFFFFFFFFFFFFFFFFFFFFFFFF000000000000000000000000 DUP3 AND SWAP1 POP SWAP2 SWAP1 POP JUMP JUMPDEST PUSH0 PUSH2 0x5071 DUP3 MLOAD PUSH2 0x503B JUMP JUMPDEST DUP1 SWAP2 POP POP SWAP2 SWAP1 POP JUMP JUMPDEST PUSH0 DUP3 DUP3 SHL SWAP1 POP SWAP3 SWAP2 POP POP JUMP JUMPDEST PUSH0 PUSH2 0x5090 DUP3 PUSH2 0x39C2 JUMP JUMPDEST DUP3 PUSH2 0x509A DUP5 PUSH2 0x502C JUMP JUMPDEST SWAP1 POP PUSH2 0x50A5 DUP2 PUSH2 0x5066 JUMP JUMPDEST SWAP3 POP PUSH1 0x14 DUP3 LT ISZERO PUSH2 0x50E5 JUMPI PUSH2 0x50E0 PUSH32 0xFFFFFFFFFFFFFFFFFFFFFFFFFFFFFFFFFFFFFFFF000000000000000000000000 DUP4 PUSH1 0x14 SUB PUSH1 0x8 MUL PUSH2 0x507A JUMP JUMPDEST DUP4 AND SWAP3 POP JUMPDEST POP POP SWAP2 SWAP1 POP JUMP JUMPDEST PUSH0 PUSH1 0x60 DUP3 ADD SWAP1 POP PUSH2 0x50FF PUSH0 DUP4 ADD DUP7 PUSH2 0x38A1 JUMP JUMPDEST PUSH2 0x510C PUSH1 0x20 DUP4 ADD DUP6 PUSH2 0x3889 JUMP JUMPDEST PUSH2 0x5119 PUSH1 0x40 DUP4 ADD DUP5 PUSH2 0x3889 JUMP JUMPDEST SWAP5 SWAP4 POP POP POP POP JUMP JUMPDEST PUSH0 PUSH1 0x60 DUP3 ADD SWAP1 POP PUSH2 0x5134 PUSH0 DUP4 ADD DUP7 PUSH2 0x3889 JUMP JUMPDEST PUSH2 0x5141 PUSH1 0x20 DUP4 ADD DUP6 PUSH2 0x37AB JUMP JUMPDEST DUP2 DUP2 SUB PUSH1 0x40 DUP4 ADD MSTORE PUSH2 0x5153 DUP2 DUP5 PUSH2 0x39CC JUMP JUMPDEST SWAP1 POP SWAP5 SWAP4 POP POP POP POP JUMP JUMPDEST PUSH0 PUSH1 0xA0 DUP3 ADD SWAP1 POP PUSH2 0x5170 PUSH0 DUP4 ADD DUP9 PUSH2 0x3889 JUMP JUMPDEST PUSH2 0x517D PUSH1 0x20 DUP4 ADD DUP8 PUSH2 0x3889 JUMP JUMPDEST PUSH2 0x518A PUSH1 0x40 DUP4 ADD DUP7 PUSH2 0x3889 JUMP JUMPDEST PUSH2 0x5197 PUSH1 0x60 DUP4 ADD DUP6 PUSH2 0x38A1 JUMP JUMPDEST DUP2 DUP2 SUB PUSH1 0x80 DUP4 ADD MSTORE PUSH2 0x51A9 DUP2 DUP5 PUSH2 0x39CC JUMP JUMPDEST SWAP1 POP SWAP7 SWAP6 POP POP POP POP POP POP JUMP JUMPDEST PUSH0 PUSH2 0x51BF DUP3 PUSH2 0x37D3 JUMP JUMPDEST SWAP2 POP PUSH2 0x51CA DUP4 PUSH2 0x37D3 JUMP JUMPDEST SWAP3 POP DUP3 DUP3 ADD SWAP1 POP DUP1 DUP3 GT ISZERO PUSH2 0x51E2 JUMPI PUSH2 0x51E1 PUSH2 0x4F2C JUMP JUMPDEST JUMPDEST SWAP3 SWAP2 POP POP JUMP JUMPDEST PUSH0 PUSH2 0x51F2 DUP3 PUSH2 0x37D3 JUMP JUMPDEST SWAP2 POP PUSH32 0xFFFFFFFFFFFFFFFFFFFFFFFFFFFFFFFFFFFFFFFFFFFFFFFFFFFFFFFFFFFFFFFF DUP3 SUB PUSH2 0x5224 JUMPI PUSH2 0x5223 PUSH2 0x4F2C JUMP JUMPDEST JUMPDEST PUSH1 0x1 DUP3 ADD SWAP1 POP SWAP2 SWAP1 POP JUMP JUMPDEST PUSH0 PUSH1 0x20 PUSH1 0x1F DUP4 ADD DIV SWAP1 POP SWAP2 SWAP1 POP JUMP JUMPDEST PUSH0 PUSH1 0x8 DUP4 MUL PUSH2 0x526D PUSH32 0xFFFFFFFFFFFFFFFFFFFFFFFFFFFFFFFFFFFFFFFFFFFFFFFFFFFFFFFFFFFFFFFF DUP3 PUSH2 0x507A JUMP JUMPDEST PUSH2 0x5277 DUP7 DUP4 PUSH2 0x507A JUMP JUMPDEST SWAP6 POP DUP1 NOT DUP5 AND SWAP4 POP DUP1 DUP7 AND DUP5 OR SWAP3 POP POP POP SWAP4 SWAP3 POP POP POP JUMP JUMPDEST PUSH0 DUP2 SWAP1 POP SWAP2 SWAP1 POP JUMP JUMPDEST PUSH0 PUSH2 0x52B2 PUSH2 0x52AD PUSH2 0x52A8 DUP5 PUSH2 0x37D3 JUMP JUMPDEST PUSH2 0x528F JUMP JUMPDEST PUSH2 0x37D3 JUMP JUMPDEST SWAP1 POP SWAP2 SWAP1 POP JUMP JUMPDEST PUSH0 DUP2 SWAP1 POP SWAP2 SWAP1 POP JUMP JUMPDEST PUSH2 0x52CB DUP4 PUSH2 0x5298 JUMP JUMPDEST PUSH2 0x52DF PUSH2 0x52D7 DUP3 PUSH2 0x52B9 JUMP JUMPDEST DUP5 DUP5 SLOAD PUSH2 0x523E JUMP JUMPDEST DUP3 SSTORE POP POP POP POP JUMP JUMPDEST PUSH0 PUSH0 SWAP1 POP SWAP1 JUMP JUMPDEST PUSH2 0x52F6 PUSH2 0x52E7 JUMP JUMPDEST PUSH2 0x5301 DUP2 DUP5 DUP5 PUSH2 0x52C2 JUMP JUMPDEST POP POP POP JUMP JUMPDEST JUMPDEST DUP2 DUP2 LT ISZERO PUSH2 0x5324 JUMPI PUSH2 0x5319 PUSH0 DUP3 PUSH2 0x52EE JUMP JUMPDEST PUSH1 0x1 DUP2 ADD SWAP1 POP PUSH2 0x5307 JUMP JUMPDEST POP POP JUMP JUMPDEST PUSH1 0x1F DUP3 GT ISZERO PUSH2 0x5369 JUMPI PUSH2 0x533A DUP2 PUSH2 0x4CBF JUMP JUMPDEST PUSH2 0x5343 DUP5 PUSH2 0x522F JUMP JUMPDEST DUP2 ADD PUSH1 0x20 DUP6 LT ISZERO PUSH2 0x5352 JUMPI DUP2 SWAP1 POP JUMPDEST PUSH2 0x5366 PUSH2 0x535E DUP6 PUSH2 0x522F JUMP JUMPDEST DUP4 ADD DUP3 PUSH2 0x5306 JUMP JUMPDEST POP POP JUMPDEST POP POP POP JUMP JUMPDEST PUSH0 DUP3 DUP3 SHR SWAP1 POP SWAP3 SWAP2 POP POP JUMP JUMPDEST PUSH0 PUSH2 0x5389 PUSH0 NOT DUP5 PUSH1 0x8 MUL PUSH2 0x536E JUMP JUMPDEST NOT DUP1 DUP4 AND SWAP2 POP POP SWAP3 SWAP2 POP POP JUMP JUMPDEST PUSH0 PUSH2 0x53A1 DUP4 DUP4 PUSH2 0x537A JUMP JUMPDEST SWAP2 POP DUP3 PUSH1 0x2 MUL DUP3 OR SWAP1 POP SWAP3 SWAP2 POP POP JUMP JUMPDEST PUSH2 0x53BA DUP3 PUSH2 0x39C2 JUMP JUMPDEST PUSH8 0xFFFFFFFFFFFFFFFF DUP2 GT ISZERO PUSH2 0x53D3 JUMPI PUSH2 0x53D2 PUSH2 0x3A41 JUMP JUMPDEST JUMPDEST PUSH2 0x53DD DUP3 SLOAD PUSH2 0x4AFD JUMP JUMPDEST PUSH2 0x53E8 DUP3 DUP3 DUP6 PUSH2 0x5328 JUMP JUMPDEST PUSH0 PUSH1 0x20 SWAP1 POP PUSH1 0x1F DUP4 GT PUSH1 0x1 DUP2 EQ PUSH2 0x5419 JUMPI PUSH0 DUP5 ISZERO PUSH2 0x5407 JUMPI DUP3 DUP8 ADD MLOAD SWAP1 POP JUMPDEST PUSH2 0x5411 DUP6 DUP3 PUSH2 0x5396 JUMP JUMPDEST DUP7 SSTORE POP PUSH2 0x5478 JUMP JUMPDEST PUSH1 0x1F NOT DUP5 AND PUSH2 0x5427 DUP7 PUSH2 0x4CBF JUMP JUMPDEST PUSH0 JUMPDEST DUP3 DUP2 LT ISZERO PUSH2 0x544E JUMPI DUP5 DUP10 ADD MLOAD DUP3 SSTORE PUSH1 0x1 DUP3 ADD SWAP2 POP PUSH1 0x20 DUP6 ADD SWAP5 POP PUSH1 0x20 DUP2 ADD SWAP1 POP PUSH2 0x5429 JUMP JUMPDEST DUP7 DUP4 LT ISZERO PUSH2 0x546B JUMPI DUP5 DUP10 ADD MLOAD PUSH2 0x5467 PUSH1 0x1F DUP10 AND DUP3 PUSH2 0x537A JUMP JUMPDEST DUP4 SSTORE POP JUMPDEST PUSH1 0x1 PUSH1 0x2 DUP9 MUL ADD DUP9 SSTORE POP POP POP JUMPDEST POP POP POP POP POP POP JUMP JUMPDEST PUSH0 PUSH1 0x40 DUP3 ADD SWAP1 POP PUSH2 0x5493 PUSH0 DUP4 ADD DUP6 PUSH2 0x37AB JUMP JUMPDEST DUP2 DUP2 SUB PUSH1 0x20 DUP4 ADD MSTORE PUSH2 0x54A5 DUP2 DUP5 PUSH2 0x39CC JUMP JUMPDEST SWAP1 POP SWAP4 SWAP3 POP POP POP JUMP JUMPDEST PUSH0 PUSH32 0xFFFFFFFFFFFFFFFFFFFF00000000000000000000000000000000000000000000 DUP3 AND SWAP1 POP SWAP2 SWAP1 POP JUMP JUMPDEST PUSH0 DUP2 SWAP1 POP SWAP2 SWAP1 POP JUMP JUMPDEST PUSH2 0x54F3 PUSH2 0x54EE DUP3 PUSH2 0x54AE JUMP JUMPDEST PUSH2 0x54D9 JUMP JUMPDEST DUP3 MSTORE POP POP JUMP JUMPDEST PUSH0 PUSH32 0xFFFF000000000000000000000000000000000000000000000000000000000000 DUP3 AND SWAP1 POP SWAP2 SWAP1 POP JUMP JUMPDEST PUSH0 DUP2 SWAP1 POP SWAP2 SWAP1 POP JUMP JUMPDEST PUSH2 0x553E PUSH2 0x5539 DUP3 PUSH2 0x54F9 JUMP JUMPDEST PUSH2 0x5524 JUMP JUMPDEST DUP3 MSTORE POP POP JUMP JUMPDEST PUSH0 DUP2 SWAP1 POP SWAP2 SWAP1 POP JUMP JUMPDEST PUSH2 0x555E PUSH2 0x5559 DUP3 PUSH2 0x503B JUMP JUMPDEST PUSH2 0x5544 JUMP JUMPDEST DUP3 MSTORE POP POP JUMP JUMPDEST PUSH0 PUSH2 0x556F DUP3 DUP7 PUSH2 0x54E2 JUMP JUMPDEST PUSH1 0xA DUP3 ADD SWAP2 POP PUSH2 0x557F DUP3 DUP6 PUSH2 0x552D JUMP JUMPDEST PUSH1 0x2 DUP3 ADD SWAP2 POP PUSH2 0x558F DUP3 DUP5 PUSH2 0x554D JUMP JUMPDEST PUSH1 0x14 DUP3 ADD SWAP2 POP DUP2 SWAP1 POP SWAP5 SWAP4 POP POP POP POP JUMP JUMPDEST PUSH0 PUSH2 0x55AB DUP3 MLOAD PUSH2 0x3898 JUMP JUMPDEST DUP1 SWAP2 POP POP SWAP2 SWAP1 POP JUMP JUMPDEST PUSH0 PUSH2 0x55BE DUP3 PUSH2 0x39C2 JUMP JUMPDEST DUP3 PUSH2 0x55C8 DUP5 PUSH2 0x502C JUMP JUMPDEST SWAP1 POP PUSH2 0x55D3 DUP2 PUSH2 0x55A0 JUMP JUMPDEST SWAP3 POP PUSH1 0x20 DUP3 LT ISZERO PUSH2 0x5613 JUMPI PUSH2 0x560E PUSH32 0xFFFFFFFFFFFFFFFFFFFFFFFFFFFFFFFFFFFFFFFFFFFFFFFFFFFFFFFFFFFFFFFF DUP4 PUSH1 0x20 SUB PUSH1 0x8 MUL PUSH2 0x507A JUMP JUMPDEST DUP4 AND SWAP3 POP JUMPDEST POP POP SWAP2 SWAP1 POP JUMP JUMPDEST PUSH0 PUSH1 0x40 DUP3 ADD SWAP1 POP PUSH2 0x562D PUSH0 DUP4 ADD DUP6 PUSH2 0x38A1 JUMP JUMPDEST DUP2 DUP2 SUB PUSH1 0x20 DUP4 ADD MSTORE PUSH2 0x563F DUP2 DUP5 PUSH2 0x39CC JUMP JUMPDEST SWAP1 POP SWAP4 SWAP3 POP POP POP JUMP JUMPDEST PUSH0 PUSH2 0x565A PUSH2 0x5655 DUP5 PUSH2 0x3EAE JUMP JUMPDEST PUSH2 0x3A9F JUMP JUMPDEST SWAP1 POP DUP3 DUP2 MSTORE PUSH1 0x20 DUP2 ADD DUP5 DUP5 DUP5 ADD GT ISZERO PUSH2 0x5676 JUMPI PUSH2 0x5675 PUSH2 0x3EAA JUMP JUMPDEST JUMPDEST PUSH2 0x5681 DUP5 DUP3 DUP6 PUSH2 0x38CA JUMP JUMPDEST POP SWAP4 SWAP3 POP POP POP JUMP JUMPDEST PUSH0 DUP3 PUSH1 0x1F DUP4 ADD SLT PUSH2 0x569D JUMPI PUSH2 0x569C PUSH2 0x3A3D JUMP JUMPDEST JUMPDEST DUP2 MLOAD PUSH2 0x56AD DUP5 DUP3 PUSH1 0x20 DUP7 ADD PUSH2 0x5648 JUMP JUMPDEST SWAP2 POP POP SWAP3 SWAP2 POP POP JUMP JUMPDEST PUSH0 PUSH1 0x20 DUP3 DUP5 SUB SLT ISZERO PUSH2 0x56CB JUMPI PUSH2 0x56CA PUSH2 0x3718 JUMP JUMPDEST JUMPDEST PUSH0 DUP3 ADD MLOAD PUSH8 0xFFFFFFFFFFFFFFFF DUP2 GT ISZERO PUSH2 0x56E8 JUMPI PUSH2 0x56E7 PUSH2 0x371C JUMP JUMPDEST JUMPDEST PUSH2 0x56F4 DUP5 DUP3 DUP6 ADD PUSH2 0x5689 JUMP JUMPDEST SWAP2 POP POP SWAP3 SWAP2 POP POP JUMP JUMPDEST PUSH0 PUSH2 0x5707 DUP3 PUSH2 0x37D3 JUMP JUMPDEST SWAP2 POP PUSH2 0x5712 DUP4 PUSH2 0x37D3 JUMP JUMPDEST SWAP3 POP DUP3 DUP3 SUB SWAP1 POP DUP2 DUP2 GT ISZERO PUSH2 0x572A JUMPI PUSH2 0x5729 PUSH2 0x4F2C JUMP JUMPDEST JUMPDEST SWAP3 SWAP2 POP POP JUMP JUMPDEST PUSH32 0x4E487B7100000000000000000000000000000000000000000000000000000000 PUSH0 MSTORE PUSH1 0x31 PUSH1 0x4 MSTORE PUSH1 0x24 PUSH0 REVERT INVALID COINBASE TIMESTAMP NUMBER PREVRANDAO GASLIMIT CHAINID SELFBALANCE BASEFEE BLOBHASH BLOBBASEFEE 0x4B 0x4C 0x4D 0x4E 0x4F POP MLOAD MSTORE MSTORE8 SLOAD SSTORE JUMP JUMPI PC MSIZE GAS PUSH2 0x6263 PUSH5 0x6566676869 PUSH11 0x6B6C6D6E6F707172737475 PUSH23 0x7778797A303132333435363738392B2FA2646970667358 0x22 SLT KECCAK256 CHAINID 0xB1 ISZERO PUSH28 0xF4944E546A38A24045F0D6D167C09C22C893F3F95BD48578BB3FCD54 PUSH5 0x736F6C6343 STOP ADDMOD SHR STOP CALLER PUSH28 0x224C5350344D65746164617461223A7B226E616D65223A2250455049 SLOAD 0x4F KECCAK256 SELFBALANCE GASLIMIT 0x4E GASLIMIT MSTORE8 BLOBHASH MSTORE8 0x22 0x2C 0x22 PUSH5 0x6573637269 PUSH17 0x74696F6E223A224D696E7420796F757220 POP GASLIMIT POP BLOBHASH SLOAD 0x4F KECCAK256 SELFBALANCE GASLIMIT 0x4E GASLIMIT MSTORE8 BLOBHASH MSTORE8 KECCAK256 0x4E CHAINID SLOAD KECCAK256 PUSH21 0x6F64617920746F206A6F696E207573206F6E20616E KECCAK256 PUSH2 0x6476 PUSH6 0x6E7475726520 PUSH10 0x6E746F2074686520776F PUSH19 0x6C64206F662050455049544F2C203234323420 POP GASLIMIT POP BLOBHASH SLOAD 0x4F KECCAK256 MSTORE8 PUSH17 0x61776E206C6F6F6B696E6720666F722061 KECCAK256 PUSH9 0x6F6D652E20466F7220 PUSH14 0x6F726520696E666F726D6174696F PUSH15 0x20636865636B206F7574206F757220 PUSH19 0x6F61646D617020646973706C61796564206F6E KECCAK256 PUSH9 0x747470733A2F2F7065 PUSH17 0x69746F6C79782E636F6D20616E6420616E PUSH26 0x7468696E6720656C73652064726F702075732061206D65737361 PUSH8 0x65206F6E20656974 PUSH9 0x6572204347206F7220 SLOAD PUSH24 0x69747465722E222C226C696E6B73223A5B7B227469746C65 0x22 GASPRICE 0x22 JUMPI PUSH6 0x627369746522 0x2C 0x22 PUSH22 0x726C223A2268747470733A2F2F70657069746F6C7978 0x2E PUSH4 0x6F6D227D 0x2C PUSH28 0x227469746C65223A224D696E74222C2275726C223A2268747470733A 0x2F 0x2F PUSH8 0x656E657369732E70 PUSH6 0x7069746F6C79 PUSH25 0x2E636F6D227D2C7B227469746C65223A22436F6D6D6F6E2047 PUSH19 0x6F756E64222C2275726C223A2268747470733A 0x2F 0x2F PUSH2 0x7070 0x2E PUSH4 0x672F632F POP PUSH6 0x7069746F227D 0x2C PUSH28 0x227469746C65223A22F09D958F222C2275726C223A2268747470733A 0x2F 0x2F PUSH25 0x2E636F6D2F70657069746F6C7978227D2C7B227469746C6522 GASPRICE 0x22 SLOAD PUSH6 0x6C656772616D 0x22 0x2C 0x22 PUSH22 0x726C223A2268747470733A2F2F742E6D652F70657069 PUSH21 0x6F6C7978227D5D2C2261747472696275746573223A JUMPDEST PUSH28 0x226B6579223A225374616765222C2276616C7565223A2230227D2C7B 0x22 PUSH12 0x6579223A2254797065222C22 PUSH23 0x616C7565223A22537061776E227D2C7B226B6579223A22 TIMESTAMP PUSH2 0x636B PUSH8 0x726F756E64222C22 PUSH23 0x616C7565223A22227D2C7B226B6579223A22536B696E22 0x2C 0x22 PUSH23 0x616C7565223A22227D2C7B226B6579223A224579657322 0x2C 0x22 PUSH23 0x616C7565223A22227D2C7B226B6579223A22546174746F PUSH16 0x73222C2276616C7565223A22227D2C7B 0x22 PUSH12 0x6579223A22436C6F74686573 0x22 0x2C 0x22 PUSH23 0x616C7565223A22227D2C7B226B6579223A224865616467 PUSH6 0x6172222C2276 PUSH2 0x6C75 PUSH6 0x223A22227D2C PUSH28 0x226B6579223A224163636573736F7279222C2276616C7565223A2222 PUSH30 0x5D2C2269636F6E223A5B7B227769647468223A3531322C22686569676874 0x22 GASPRICE CALLDATALOAD BALANCE ORIGIN 0x2C 0x22 PUSH22 0x726C223A22697066733A2F2F516D6472634566516E57 GAS PUSH9 0x697363326246343534 CALLVALUE PUSH25 0x644A4748425168574C616F4742585A5376727653547854222C 0x22 PUSH23 0x6572696669636174696F6E223A7B226D6574686F64223A 0x22 PUSH12 0x656363616B32353628627974 PUSH6 0x7329222C2264 PUSH2 0x7461 0x22 GASPRICE 0x22 ADDRESS PUSH25 0x65623134666161353934313932623537613263346564623661 PUSH6 0x323132633161 CALLDATASIZE PUSH3 0x333834 CODESIZE CALLVALUE ADDRESS CODECOPY BALANCE CALLDATACOPY CALLDATASIZE PUSH6 0x376339303031 CALLVALUE BALANCE BALANCE CALLER ORIGIN PUSH5 0x3939303263 CODESIZE CALLDATALOAD 0x22 PUSH30 0x7D5D2C226261636B67726F756E64496D616765223A5B5D2C226173736574 PUSH20 0x223A5B5D2C22696D61676573223A5B5B7B227769 PUSH5 0x7468223A35 ADDRESS ADDRESS 0x2C 0x22 PUSH9 0x6569676874223A3530 ADDRESS 0x2C 0x22 PUSH22 0x726C223A22697066733A2F2F516D59385A3579616F53 PUSH20 0x545938446E70637172794A536A7434733165686B PUSH21 0x43744A6432704B417776344A7357222C2276657269 PUSH7 0x69636174696F6E 0x22 GASPRICE PUSH28 0x226D6574686F64223A226B656363616B32353628627974657329222C 0x22 PUSH5 0x617461223A 0x22 ADDRESS PUSH25 0x30663765613530383565316365303338653366353166393766 PUSH2 0x3235 CALLVALUE CALLER CALLVALUE ORIGIN CALLDATASIZE ORIGIN PUSH3 0x396435 CODESIZE ADDRESS CODESIZE PUSH3 0x316661 PUSH7 0x32346262343164 CALLDATASIZE PUSH2 0x3238 CODECOPY PUSH2 0x3932 PUSH3 0x323022 PUSH30 0x7D5D5D7D7D00000000000000000000000000000000000000000000000000 "
		},
		"gasEstimates": {
			"creation": {
				"codeDepositCost": "4496600",
				"executionCost": "infinite",
				"totalCost": "infinite"
			},
			"external": {
				"": "infinite",
				"MAX_SUPPLY()": "393",
				"_tokenIdCounter()": "2550",
				"authorizeOperator(address,bytes32,bytes)": "infinite",
				"balanceOf(address)": "3042",
				"batchCalls(bytes[])": "infinite",
				"calcPercentage(uint256,uint256)": "infinite",
				"councilMintExpiration()": "2494",
				"getBalance()": "2687",
				"getData(bytes32)": "infinite",
				"getDataBatch(bytes32[])": "infinite",
				"getDataBatchForTokenIds(bytes32[],bytes32[])": "infinite",
				"getDataForTokenId(bytes32,bytes32)": "infinite",
				"getMetadata()": "infinite",
				"getOperatorsOf(bytes32)": "infinite",
				"isOperatorFor(address,bytes32)": "infinite",
				"mintPool(uint256)": "infinite",
				"mintmint()": "infinite",
				"owner()": "2603",
				"pepito_vault()": "2597",
				"price(string)": "infinite",
				"rawMetadata()": "infinite",
				"renounceOwnership()": "infinite",
				"revokeOperator(address,bytes32,bool,bytes)": "infinite",
				"setData(bytes32,bytes)": "infinite",
				"setDataBatch(bytes32[],bytes[])": "infinite",
				"setDataBatchForTokenIds(bytes32[],bytes32[],bytes[])": "infinite",
				"setDataForTokenId(bytes32,bytes32,bytes)": "infinite",
				"supportsInterface(bytes4)": "infinite",
				"team(uint256)": "2885",
				"teamMintCounter()": "2492",
				"tokenIdsOf(address)": "infinite",
				"tokenOwnerOf(bytes32)": "infinite",
				"totalSupply()": "2500",
				"transfer(address,address,bytes32,bool,bytes)": "infinite",
				"transferBalance(address,uint256)": "infinite",
				"transferBatch(address[],address[],bytes32[],bool[],bytes[])": "infinite",
				"transferOwnership(address)": "infinite",
				"withdraw()": "infinite"
			}
		},
		"methodIdentifiers": {
			"MAX_SUPPLY()": "32cb6b0c",
			"_tokenIdCounter()": "84c4bd4b",
			"authorizeOperator(address,bytes32,bytes)": "86a10ddd",
			"balanceOf(address)": "70a08231",
			"batchCalls(bytes[])": "6963d438",
			"calcPercentage(uint256,uint256)": "a37b06d4",
			"councilMintExpiration()": "0d254607",
			"getBalance()": "12065fe0",
			"getData(bytes32)": "54f6127f",
			"getDataBatch(bytes32[])": "dedff9c6",
			"getDataBatchForTokenIds(bytes32[],bytes32[])": "1d26fce6",
			"getDataForTokenId(bytes32,bytes32)": "16e023b3",
			"getMetadata()": "7a5b4f59",
			"getOperatorsOf(bytes32)": "49a6078d",
			"isOperatorFor(address,bytes32)": "2a3654a4",
			"mintPool(uint256)": "16685e58",
			"mintmint()": "93bc47f0",
			"owner()": "8da5cb5b",
			"pepito_vault()": "a5336919",
			"price(string)": "fe2c6198",
			"rawMetadata()": "b69a6fd6",
			"renounceOwnership()": "715018a6",
			"revokeOperator(address,bytes32,bool,bytes)": "db8c9663",
			"setData(bytes32,bytes)": "7f23690c",
			"setDataBatch(bytes32[],bytes[])": "97902421",
			"setDataBatchForTokenIds(bytes32[],bytes32[],bytes[])": "be9f0e6f",
			"setDataForTokenId(bytes32,bytes32,bytes)": "d6c1407c",
			"supportsInterface(bytes4)": "01ffc9a7",
			"team(uint256)": "197ebd53",
			"teamMintCounter()": "8994bdcf",
			"tokenIdsOf(address)": "a3b261f2",
			"tokenOwnerOf(bytes32)": "217b2270",
			"totalSupply()": "18160ddd",
			"transfer(address,address,bytes32,bool,bytes)": "511b6952",
			"transferBalance(address,uint256)": "56a6d9ef",
			"transferBatch(address[],address[],bytes32[],bool[],bytes[])": "7e87632c",
			"transferOwnership(address)": "f2fde38b",
			"withdraw()": "3ccfd60b"
		}
	},
	"abi": [
		{
			"inputs": [],
			"stateMutability": "nonpayable",
			"type": "constructor"
		},
		{
			"inputs": [],
			"name": "ERC725Y_DataKeysValuesEmptyArray",
			"type": "error"
		},
		{
			"inputs": [],
			"name": "ERC725Y_DataKeysValuesLengthMismatch",
			"type": "error"
		},
		{
			"inputs": [],
			"name": "ERC725Y_MsgValueDisallowed",
			"type": "error"
		},
		{
			"inputs": [
				{
					"internalType": "bytes",
					"name": "storedData",
					"type": "bytes"
				}
			],
			"name": "InvalidExtensionAddress",
			"type": "error"
		},
		{
			"inputs": [
				{
					"internalType": "bytes",
					"name": "data",
					"type": "bytes"
				}
			],
			"name": "InvalidFunctionSelector",
			"type": "error"
		},
		{
			"inputs": [],
			"name": "LSP4TokenNameNotEditable",
			"type": "error"
		},
		{
			"inputs": [],
			"name": "LSP4TokenSymbolNotEditable",
			"type": "error"
		},
		{
			"inputs": [],
			"name": "LSP4TokenTypeNotEditable",
			"type": "error"
		},
		{
			"inputs": [
				{
					"internalType": "uint256",
					"name": "callIndex",
					"type": "uint256"
				}
			],
			"name": "LSP8BatchCallFailed",
			"type": "error"
		},
		{
			"inputs": [],
			"name": "LSP8CannotSendToAddressZero",
			"type": "error"
		},
		{
			"inputs": [],
			"name": "LSP8CannotUseAddressZeroAsOperator",
			"type": "error"
		},
		{
			"inputs": [],
			"name": "LSP8InvalidTransferBatch",
			"type": "error"
		},
		{
			"inputs": [
				{
					"internalType": "bytes32",
					"name": "tokenId",
					"type": "bytes32"
				}
			],
			"name": "LSP8NonExistentTokenId",
			"type": "error"
		},
		{
			"inputs": [
				{
					"internalType": "address",
					"name": "operator",
					"type": "address"
				},
				{
					"internalType": "bytes32",
					"name": "tokenId",
					"type": "bytes32"
				}
			],
			"name": "LSP8NonExistingOperator",
			"type": "error"
		},
		{
			"inputs": [
				{
					"internalType": "bytes32",
					"name": "tokenId",
					"type": "bytes32"
				},
				{
					"internalType": "address",
					"name": "caller",
					"type": "address"
				}
			],
			"name": "LSP8NotTokenOperator",
			"type": "error"
		},
		{
			"inputs": [
				{
					"internalType": "address",
					"name": "tokenOwner",
					"type": "address"
				},
				{
					"internalType": "bytes32",
					"name": "tokenId",
					"type": "bytes32"
				},
				{
					"internalType": "address",
					"name": "caller",
					"type": "address"
				}
			],
			"name": "LSP8NotTokenOwner",
			"type": "error"
		},
		{
			"inputs": [
				{
					"internalType": "address",
					"name": "tokenReceiver",
					"type": "address"
				}
			],
			"name": "LSP8NotifyTokenReceiverContractMissingLSP1Interface",
			"type": "error"
		},
		{
			"inputs": [
				{
					"internalType": "address",
					"name": "tokenReceiver",
					"type": "address"
				}
			],
			"name": "LSP8NotifyTokenReceiverIsEOA",
			"type": "error"
		},
		{
			"inputs": [
				{
					"internalType": "address",
					"name": "operator",
					"type": "address"
				},
				{
					"internalType": "bytes32",
					"name": "tokenId",
					"type": "bytes32"
				}
			],
			"name": "LSP8OperatorAlreadyAuthorized",
			"type": "error"
		},
		{
			"inputs": [
				{
					"internalType": "address",
					"name": "caller",
					"type": "address"
				},
				{
					"internalType": "address",
					"name": "tokenOwner",
					"type": "address"
				},
				{
					"internalType": "bytes32",
					"name": "tokenId",
					"type": "bytes32"
				}
			],
			"name": "LSP8RevokeOperatorNotAuthorized",
			"type": "error"
		},
		{
			"inputs": [],
			"name": "LSP8TokenContractCannotHoldValue",
			"type": "error"
		},
		{
			"inputs": [
				{
					"internalType": "bytes32",
					"name": "tokenId",
					"type": "bytes32"
				}
			],
			"name": "LSP8TokenIdAlreadyMinted",
			"type": "error"
		},
		{
			"inputs": [],
			"name": "LSP8TokenIdFormatNotEditable",
			"type": "error"
		},
		{
			"inputs": [],
			"name": "LSP8TokenIdsDataEmptyArray",
			"type": "error"
		},
		{
			"inputs": [],
			"name": "LSP8TokenIdsDataLengthMismatch",
			"type": "error"
		},
		{
			"inputs": [],
			"name": "LSP8TokenOwnerCannotBeOperator",
			"type": "error"
		},
		{
			"inputs": [
				{
					"internalType": "bytes32",
					"name": "tokenId",
					"type": "bytes32"
				},
				{
					"internalType": "address",
					"name": "oldOwner",
					"type": "address"
				},
				{
					"internalType": "address",
					"name": "newOwner",
					"type": "address"
				}
			],
			"name": "LSP8TokenOwnerChanged",
			"type": "error"
		},
		{
			"inputs": [
				{
					"internalType": "bytes4",
					"name": "functionSelector",
					"type": "bytes4"
				}
			],
			"name": "NoExtensionFoundForFunctionSelector",
			"type": "error"
		},
		{
			"inputs": [
				{
					"internalType": "address",
					"name": "callerAddress",
					"type": "address"
				}
			],
			"name": "OwnableCallerNotTheOwner",
			"type": "error"
		},
		{
			"inputs": [],
			"name": "OwnableCannotSetZeroAddressAsOwner",
			"type": "error"
		},
		{
			"anonymous": false,
			"inputs": [
				{
					"indexed": true,
					"internalType": "bytes32",
					"name": "dataKey",
					"type": "bytes32"
				},
				{
					"indexed": false,
					"internalType": "bytes",
					"name": "dataValue",
					"type": "bytes"
				}
			],
			"name": "DataChanged",
			"type": "event"
		},
		{
			"anonymous": false,
			"inputs": [
				{
					"indexed": true,
					"internalType": "address",
					"name": "operator",
					"type": "address"
				},
				{
					"indexed": true,
					"internalType": "address",
					"name": "tokenOwner",
					"type": "address"
				},
				{
					"indexed": true,
					"internalType": "bytes32",
					"name": "tokenId",
					"type": "bytes32"
				},
				{
					"indexed": false,
					"internalType": "bytes",
					"name": "operatorNotificationData",
					"type": "bytes"
				}
			],
			"name": "OperatorAuthorizationChanged",
			"type": "event"
		},
		{
			"anonymous": false,
			"inputs": [
				{
					"indexed": true,
					"internalType": "address",
					"name": "operator",
					"type": "address"
				},
				{
					"indexed": true,
					"internalType": "address",
					"name": "tokenOwner",
					"type": "address"
				},
				{
					"indexed": true,
					"internalType": "bytes32",
					"name": "tokenId",
					"type": "bytes32"
				},
				{
					"indexed": false,
					"internalType": "bool",
					"name": "notified",
					"type": "bool"
				},
				{
					"indexed": false,
					"internalType": "bytes",
					"name": "operatorNotificationData",
					"type": "bytes"
				}
			],
			"name": "OperatorRevoked",
			"type": "event"
		},
		{
			"anonymous": false,
			"inputs": [
				{
					"indexed": true,
					"internalType": "address",
					"name": "previousOwner",
					"type": "address"
				},
				{
					"indexed": true,
					"internalType": "address",
					"name": "newOwner",
					"type": "address"
				}
			],
			"name": "OwnershipTransferred",
			"type": "event"
		},
		{
			"anonymous": false,
			"inputs": [
				{
					"indexed": true,
					"internalType": "bytes32",
					"name": "tokenId",
					"type": "bytes32"
				},
				{
					"indexed": true,
					"internalType": "bytes32",
					"name": "dataKey",
					"type": "bytes32"
				},
				{
					"indexed": false,
					"internalType": "bytes",
					"name": "dataValue",
					"type": "bytes"
				}
			],
			"name": "TokenIdDataChanged",
			"type": "event"
		},
		{
			"anonymous": false,
			"inputs": [
				{
					"indexed": false,
					"internalType": "address",
					"name": "operator",
					"type": "address"
				},
				{
					"indexed": true,
					"internalType": "address",
					"name": "from",
					"type": "address"
				},
				{
					"indexed": true,
					"internalType": "address",
					"name": "to",
					"type": "address"
				},
				{
					"indexed": true,
					"internalType": "bytes32",
					"name": "tokenId",
					"type": "bytes32"
				},
				{
					"indexed": false,
					"internalType": "bool",
					"name": "force",
					"type": "bool"
				},
				{
					"indexed": false,
					"internalType": "bytes",
					"name": "data",
					"type": "bytes"
				}
			],
			"name": "Transfer",
			"type": "event"
		},
		{
			"stateMutability": "payable",
			"type": "fallback"
		},
		{
			"inputs": [],
			"name": "MAX_SUPPLY",
			"outputs": [
				{
					"internalType": "uint256",
					"name": "",
					"type": "uint256"
				}
			],
			"stateMutability": "view",
			"type": "function"
		},
		{
			"inputs": [],
			"name": "_tokenIdCounter",
			"outputs": [
				{
					"internalType": "uint256",
					"name": "_value",
					"type": "uint256"
				}
			],
			"stateMutability": "view",
			"type": "function"
		},
		{
			"inputs": [
				{
					"internalType": "address",
					"name": "operator",
					"type": "address"
				},
				{
					"internalType": "bytes32",
					"name": "tokenId",
					"type": "bytes32"
				},
				{
					"internalType": "bytes",
					"name": "operatorNotificationData",
					"type": "bytes"
				}
			],
			"name": "authorizeOperator",
			"outputs": [],
			"stateMutability": "nonpayable",
			"type": "function"
		},
		{
			"inputs": [
				{
					"internalType": "address",
					"name": "tokenOwner",
					"type": "address"
				}
			],
			"name": "balanceOf",
			"outputs": [
				{
					"internalType": "uint256",
					"name": "",
					"type": "uint256"
				}
			],
			"stateMutability": "view",
			"type": "function"
		},
		{
			"inputs": [
				{
					"internalType": "bytes[]",
					"name": "data",
					"type": "bytes[]"
				}
			],
			"name": "batchCalls",
			"outputs": [
				{
					"internalType": "bytes[]",
					"name": "results",
					"type": "bytes[]"
				}
			],
			"stateMutability": "nonpayable",
			"type": "function"
		},
		{
			"inputs": [
				{
					"internalType": "uint256",
					"name": "amount",
					"type": "uint256"
				},
				{
					"internalType": "uint256",
					"name": "bps",
					"type": "uint256"
				}
			],
			"name": "calcPercentage",
			"outputs": [
				{
					"internalType": "uint256",
					"name": "",
					"type": "uint256"
				}
			],
			"stateMutability": "pure",
			"type": "function"
		},
		{
			"inputs": [],
			"name": "councilMintExpiration",
			"outputs": [
				{
					"internalType": "uint256",
					"name": "",
					"type": "uint256"
				}
			],
			"stateMutability": "view",
			"type": "function"
		},
		{
			"inputs": [],
			"name": "getBalance",
			"outputs": [
				{
					"internalType": "uint256",
					"name": "",
					"type": "uint256"
				}
			],
			"stateMutability": "view",
			"type": "function"
		},
		{
			"inputs": [
				{
					"internalType": "bytes32",
					"name": "dataKey",
					"type": "bytes32"
				}
			],
			"name": "getData",
			"outputs": [
				{
					"internalType": "bytes",
					"name": "dataValue",
					"type": "bytes"
				}
			],
			"stateMutability": "view",
			"type": "function"
		},
		{
			"inputs": [
				{
					"internalType": "bytes32[]",
					"name": "dataKeys",
					"type": "bytes32[]"
				}
			],
			"name": "getDataBatch",
			"outputs": [
				{
					"internalType": "bytes[]",
					"name": "dataValues",
					"type": "bytes[]"
				}
			],
			"stateMutability": "view",
			"type": "function"
		},
		{
			"inputs": [
				{
					"internalType": "bytes32[]",
					"name": "tokenIds",
					"type": "bytes32[]"
				},
				{
					"internalType": "bytes32[]",
					"name": "dataKeys",
					"type": "bytes32[]"
				}
			],
			"name": "getDataBatchForTokenIds",
			"outputs": [
				{
					"internalType": "bytes[]",
					"name": "dataValues",
					"type": "bytes[]"
				}
			],
			"stateMutability": "view",
			"type": "function"
		},
		{
			"inputs": [
				{
					"internalType": "bytes32",
					"name": "tokenId",
					"type": "bytes32"
				},
				{
					"internalType": "bytes32",
					"name": "dataKey",
					"type": "bytes32"
				}
			],
			"name": "getDataForTokenId",
			"outputs": [
				{
					"internalType": "bytes",
					"name": "dataValue",
					"type": "bytes"
				}
			],
			"stateMutability": "view",
			"type": "function"
		},
		{
			"inputs": [],
			"name": "getMetadata",
			"outputs": [
				{
					"internalType": "bytes",
					"name": "",
					"type": "bytes"
				}
			],
			"stateMutability": "view",
			"type": "function"
		},
		{
			"inputs": [
				{
					"internalType": "bytes32",
					"name": "tokenId",
					"type": "bytes32"
				}
			],
			"name": "getOperatorsOf",
			"outputs": [
				{
					"internalType": "address[]",
					"name": "",
					"type": "address[]"
				}
			],
			"stateMutability": "view",
			"type": "function"
		},
		{
			"inputs": [
				{
					"internalType": "address",
					"name": "operator",
					"type": "address"
				},
				{
					"internalType": "bytes32",
					"name": "tokenId",
					"type": "bytes32"
				}
			],
			"name": "isOperatorFor",
			"outputs": [
				{
					"internalType": "bool",
					"name": "",
					"type": "bool"
				}
			],
			"stateMutability": "view",
			"type": "function"
		},
		{
			"inputs": [
				{
					"internalType": "uint256",
					"name": "",
					"type": "uint256"
				}
			],
			"name": "mintPool",
			"outputs": [
				{
					"internalType": "address",
					"name": "sender",
					"type": "address"
				},
				{
					"internalType": "bytes32",
					"name": "tokenId",
					"type": "bytes32"
				},
				{
					"internalType": "uint256",
					"name": "dt",
					"type": "uint256"
				},
				{
					"internalType": "string",
					"name": "referral",
					"type": "string"
				}
			],
			"stateMutability": "view",
			"type": "function"
		},
		{
			"inputs": [],
			"name": "mintmint",
			"outputs": [
				{
					"internalType": "bytes32[]",
					"name": "tokenId",
					"type": "bytes32[]"
				}
			],
			"stateMutability": "payable",
			"type": "function"
		},
		{
			"inputs": [],
			"name": "owner",
			"outputs": [
				{
					"internalType": "address",
					"name": "",
					"type": "address"
				}
			],
			"stateMutability": "view",
			"type": "function"
		},
		{
			"inputs": [],
			"name": "pepito_vault",
			"outputs": [
				{
					"internalType": "address",
					"name": "",
					"type": "address"
				}
			],
			"stateMutability": "view",
			"type": "function"
		},
		{
			"inputs": [
				{
					"internalType": "string",
					"name": "",
					"type": "string"
				}
			],
			"name": "price",
			"outputs": [
				{
					"internalType": "uint256",
					"name": "",
					"type": "uint256"
				}
			],
			"stateMutability": "view",
			"type": "function"
		},
		{
			"inputs": [],
			"name": "rawMetadata",
			"outputs": [
				{
					"internalType": "bytes",
					"name": "",
					"type": "bytes"
				}
			],
			"stateMutability": "view",
			"type": "function"
		},
		{
			"inputs": [],
			"name": "renounceOwnership",
			"outputs": [],
			"stateMutability": "nonpayable",
			"type": "function"
		},
		{
			"inputs": [
				{
					"internalType": "address",
					"name": "operator",
					"type": "address"
				},
				{
					"internalType": "bytes32",
					"name": "tokenId",
					"type": "bytes32"
				},
				{
					"internalType": "bool",
					"name": "notify",
					"type": "bool"
				},
				{
					"internalType": "bytes",
					"name": "operatorNotificationData",
					"type": "bytes"
				}
			],
			"name": "revokeOperator",
			"outputs": [],
			"stateMutability": "nonpayable",
			"type": "function"
		},
		{
			"inputs": [
				{
					"internalType": "bytes32",
					"name": "dataKey",
					"type": "bytes32"
				},
				{
					"internalType": "bytes",
					"name": "dataValue",
					"type": "bytes"
				}
			],
			"name": "setData",
			"outputs": [],
			"stateMutability": "payable",
			"type": "function"
		},
		{
			"inputs": [
				{
					"internalType": "bytes32[]",
					"name": "dataKeys",
					"type": "bytes32[]"
				},
				{
					"internalType": "bytes[]",
					"name": "dataValues",
					"type": "bytes[]"
				}
			],
			"name": "setDataBatch",
			"outputs": [],
			"stateMutability": "payable",
			"type": "function"
		},
		{
			"inputs": [
				{
					"internalType": "bytes32[]",
					"name": "tokenIds",
					"type": "bytes32[]"
				},
				{
					"internalType": "bytes32[]",
					"name": "dataKeys",
					"type": "bytes32[]"
				},
				{
					"internalType": "bytes[]",
					"name": "dataValues",
					"type": "bytes[]"
				}
			],
			"name": "setDataBatchForTokenIds",
			"outputs": [],
			"stateMutability": "nonpayable",
			"type": "function"
		},
		{
			"inputs": [
				{
					"internalType": "bytes32",
					"name": "tokenId",
					"type": "bytes32"
				},
				{
					"internalType": "bytes32",
					"name": "dataKey",
					"type": "bytes32"
				},
				{
					"internalType": "bytes",
					"name": "dataValue",
					"type": "bytes"
				}
			],
			"name": "setDataForTokenId",
			"outputs": [],
			"stateMutability": "nonpayable",
			"type": "function"
		},
		{
			"inputs": [
				{
					"internalType": "bytes4",
					"name": "interfaceId",
					"type": "bytes4"
				}
			],
			"name": "supportsInterface",
			"outputs": [
				{
					"internalType": "bool",
					"name": "",
					"type": "bool"
				}
			],
			"stateMutability": "view",
			"type": "function"
		},
		{
			"inputs": [
				{
					"internalType": "uint256",
					"name": "",
					"type": "uint256"
				}
			],
			"name": "team",
			"outputs": [
				{
					"internalType": "address",
					"name": "",
					"type": "address"
				}
			],
			"stateMutability": "view",
			"type": "function"
		},
		{
			"inputs": [],
			"name": "teamMintCounter",
			"outputs": [
				{
					"internalType": "uint256",
					"name": "",
					"type": "uint256"
				}
			],
			"stateMutability": "view",
			"type": "function"
		},
		{
			"inputs": [
				{
					"internalType": "address",
					"name": "tokenOwner",
					"type": "address"
				}
			],
			"name": "tokenIdsOf",
			"outputs": [
				{
					"internalType": "bytes32[]",
					"name": "",
					"type": "bytes32[]"
				}
			],
			"stateMutability": "view",
			"type": "function"
		},
		{
			"inputs": [
				{
					"internalType": "bytes32",
					"name": "tokenId",
					"type": "bytes32"
				}
			],
			"name": "tokenOwnerOf",
			"outputs": [
				{
					"internalType": "address",
					"name": "",
					"type": "address"
				}
			],
			"stateMutability": "view",
			"type": "function"
		},
		{
			"inputs": [],
			"name": "totalSupply",
			"outputs": [
				{
					"internalType": "uint256",
					"name": "",
					"type": "uint256"
				}
			],
			"stateMutability": "view",
			"type": "function"
		},
		{
			"inputs": [
				{
					"internalType": "address",
					"name": "from",
					"type": "address"
				},
				{
					"internalType": "address",
					"name": "to",
					"type": "address"
				},
				{
					"internalType": "bytes32",
					"name": "tokenId",
					"type": "bytes32"
				},
				{
					"internalType": "bool",
					"name": "force",
					"type": "bool"
				},
				{
					"internalType": "bytes",
					"name": "data",
					"type": "bytes"
				}
			],
			"name": "transfer",
			"outputs": [],
			"stateMutability": "nonpayable",
			"type": "function"
		},
		{
			"inputs": [
				{
					"internalType": "address payable",
					"name": "_to",
					"type": "address"
				},
				{
					"internalType": "uint256",
					"name": "_amount",
					"type": "uint256"
				}
			],
			"name": "transferBalance",
			"outputs": [],
			"stateMutability": "nonpayable",
			"type": "function"
		},
		{
			"inputs": [
				{
					"internalType": "address[]",
					"name": "from",
					"type": "address[]"
				},
				{
					"internalType": "address[]",
					"name": "to",
					"type": "address[]"
				},
				{
					"internalType": "bytes32[]",
					"name": "tokenId",
					"type": "bytes32[]"
				},
				{
					"internalType": "bool[]",
					"name": "force",
					"type": "bool[]"
				},
				{
					"internalType": "bytes[]",
					"name": "data",
					"type": "bytes[]"
				}
			],
			"name": "transferBatch",
			"outputs": [],
			"stateMutability": "nonpayable",
			"type": "function"
		},
		{
			"inputs": [
				{
					"internalType": "address",
					"name": "newOwner",
					"type": "address"
				}
			],
			"name": "transferOwnership",
			"outputs": [],
			"stateMutability": "nonpayable",
			"type": "function"
		},
		{
			"inputs": [],
			"name": "withdraw",
			"outputs": [],
			"stateMutability": "nonpayable",
			"type": "function"
		},
		{
			"stateMutability": "payable",
			"type": "receive"
		}
	]
}