{
	"data": {
		"bytecode": {
			"linkReferences": {},
			"object": "60806040526040518060a00160405280600160ff168152602001600260ff168152602001600360ff168152602001600460ff168152602001600560ff168152505f906005604c929190605c565b503480156057575f5ffd5b5060c0565b828054828255905f5260205f209081019282156098579160200282015b828111156097578251829060ff169055916020019190600101906079565b5b50905060a3919060a7565b5090565b5b8082111560bc575f815f90555060010160a8565b5090565b6104d4806100cd5f395ff3fe608060405234801561000f575f5ffd5b506004361061004a575f3560e01c80634a90be571461004e5780636d4ce63c1461006c57806380c9419e1461008a578063f471c8f6146100ba575b5f5ffd5b6100566100ea565b6040516100639190610235565b60405180910390f35b6100746100f5565b6040516100819190610305565b60405180910390f35b6100a4600480360381019061009f9190610353565b61014a565b6040516100b19190610235565b60405180910390f35b6100d460048036038101906100cf9190610353565b610169565b6040516100e19190610398565b60405180910390f35b5f5f80549050905090565b60605f80548060200260200160405190810160405280929190818152602001828054801561014057602002820191905f5260205f20905b81548152602001906001019080831161012c575b5050505050905090565b5f8181548110610158575f80fd5b905f5260205f20015f915090505481565b5f5f80549050821061017d575f9050610218565b5f8290505b60015f8054905061019391906103de565b8110156101ee575f6001826101a89190610411565b815481106101b9576101b8610444565b5b905f5260205f2001545f82815481106101d5576101d4610444565b5b905f5260205f2001819055508080600101915050610182565b505f805480610200576101ff610471565b5b600190038181905f5260205f20015f90559055600190505b919050565b5f819050919050565b61022f8161021d565b82525050565b5f6020820190506102485f830184610226565b92915050565b5f81519050919050565b5f82825260208201905092915050565b5f819050602082019050919050565b6102808161021d565b82525050565b5f6102918383610277565b60208301905092915050565b5f602082019050919050565b5f6102b38261024e565b6102bd8185610258565b93506102c883610268565b805f5b838110156102f85781516102df8882610286565b97506102ea8361029d565b9250506001810190506102cb565b5085935050505092915050565b5f6020820190508181035f83015261031d81846102a9565b905092915050565b5f5ffd5b6103328161021d565b811461033c575f5ffd5b50565b5f8135905061034d81610329565b92915050565b5f6020828403121561036857610367610325565b5b5f6103758482850161033f565b91505092915050565b5f8115159050919050565b6103928161037e565b82525050565b5f6020820190506103ab5f830184610389565b92915050565b7f4e487b71000000000000000000000000000000000000000000000000000000005f52601160045260245ffd5b5f6103e88261021d565b91506103f38361021d565b925082820390508181111561040b5761040a6103b1565b5b92915050565b5f61041b8261021d565b91506104268361021d565b925082820190508082111561043e5761043d6103b1565b5b92915050565b7f4e487b71000000000000000000000000000000000000000000000000000000005f52603260045260245ffd5b7f4e487b71000000000000000000000000000000000000000000000000000000005f52603160045260245ffdfea2646970667358221220d4d33895e4ee310341abfb5b26dccbdeb5c8ed5888cadfa0b58c2f0ac7fe390d64736f6c634300081c0033",
			"opcodes": "PUSH1 0x80 PUSH1 0x40 MSTORE PUSH1 0x40 MLOAD DUP1 PUSH1 0xA0 ADD PUSH1 0x40 MSTORE DUP1 PUSH1 0x1 PUSH1 0xFF AND DUP2 MSTORE PUSH1 0x20 ADD PUSH1 0x2 PUSH1 0xFF AND DUP2 MSTORE PUSH1 0x20 ADD PUSH1 0x3 PUSH1 0xFF AND DUP2 MSTORE PUSH1 0x20 ADD PUSH1 0x4 PUSH1 0xFF AND DUP2 MSTORE PUSH1 0x20 ADD PUSH1 0x5 PUSH1 0xFF AND DUP2 MSTORE POP PUSH0 SWAP1 PUSH1 0x5 PUSH1 0x4C SWAP3 SWAP2 SWAP1 PUSH1 0x5C JUMP JUMPDEST POP CALLVALUE DUP1 ISZERO PUSH1 0x57 JUMPI PUSH0 PUSH0 REVERT JUMPDEST POP PUSH1 0xC0 JUMP JUMPDEST DUP3 DUP1 SLOAD DUP3 DUP3 SSTORE SWAP1 PUSH0 MSTORE PUSH1 0x20 PUSH0 KECCAK256 SWAP1 DUP2 ADD SWAP3 DUP3 ISZERO PUSH1 0x98 JUMPI SWAP2 PUSH1 0x20 MUL DUP3 ADD JUMPDEST DUP3 DUP2 GT ISZERO PUSH1 0x97 JUMPI DUP3 MLOAD DUP3 SWAP1 PUSH1 0xFF AND SWAP1 SSTORE SWAP2 PUSH1 0x20 ADD SWAP2 SWAP1 PUSH1 0x1 ADD SWAP1 PUSH1 0x79 JUMP JUMPDEST JUMPDEST POP SWAP1 POP PUSH1 0xA3 SWAP2 SWAP1 PUSH1 0xA7 JUMP JUMPDEST POP SWAP1 JUMP JUMPDEST JUMPDEST DUP1 DUP3 GT ISZERO PUSH1 0xBC JUMPI PUSH0 DUP2 PUSH0 SWAP1 SSTORE POP PUSH1 0x1 ADD PUSH1 0xA8 JUMP JUMPDEST POP SWAP1 JUMP JUMPDEST PUSH2 0x4D4 DUP1 PUSH2 0xCD PUSH0 CODECOPY PUSH0 RETURN INVALID PUSH1 0x80 PUSH1 0x40 MSTORE CALLVALUE DUP1 ISZERO PUSH2 0xF JUMPI PUSH0 PUSH0 REVERT JUMPDEST POP PUSH1 0x4 CALLDATASIZE LT PUSH2 0x4A JUMPI PUSH0 CALLDATALOAD PUSH1 0xE0 SHR DUP1 PUSH4 0x4A90BE57 EQ PUSH2 0x4E JUMPI DUP1 PUSH4 0x6D4CE63C EQ PUSH2 0x6C JUMPI DUP1 PUSH4 0x80C9419E EQ PUSH2 0x8A JUMPI DUP1 PUSH4 0xF471C8F6 EQ PUSH2 0xBA JUMPI JUMPDEST PUSH0 PUSH0 REVERT JUMPDEST PUSH2 0x56 PUSH2 0xEA JUMP JUMPDEST PUSH1 0x40 MLOAD PUSH2 0x63 SWAP2 SWAP1 PUSH2 0x235 JUMP JUMPDEST PUSH1 0x40 MLOAD DUP1 SWAP2 SUB SWAP1 RETURN JUMPDEST PUSH2 0x74 PUSH2 0xF5 JUMP JUMPDEST PUSH1 0x40 MLOAD PUSH2 0x81 SWAP2 SWAP1 PUSH2 0x305 JUMP JUMPDEST PUSH1 0x40 MLOAD DUP1 SWAP2 SUB SWAP1 RETURN JUMPDEST PUSH2 0xA4 PUSH1 0x4 DUP1 CALLDATASIZE SUB DUP2 ADD SWAP1 PUSH2 0x9F SWAP2 SWAP1 PUSH2 0x353 JUMP JUMPDEST PUSH2 0x14A JUMP JUMPDEST PUSH1 0x40 MLOAD PUSH2 0xB1 SWAP2 SWAP1 PUSH2 0x235 JUMP JUMPDEST PUSH1 0x40 MLOAD DUP1 SWAP2 SUB SWAP1 RETURN JUMPDEST PUSH2 0xD4 PUSH1 0x4 DUP1 CALLDATASIZE SUB DUP2 ADD SWAP1 PUSH2 0xCF SWAP2 SWAP1 PUSH2 0x353 JUMP JUMPDEST PUSH2 0x169 JUMP JUMPDEST PUSH1 0x40 MLOAD PUSH2 0xE1 SWAP2 SWAP1 PUSH2 0x398 JUMP JUMPDEST PUSH1 0x40 MLOAD DUP1 SWAP2 SUB SWAP1 RETURN JUMPDEST PUSH0 PUSH0 DUP1 SLOAD SWAP1 POP SWAP1 POP SWAP1 JUMP JUMPDEST PUSH1 0x60 PUSH0 DUP1 SLOAD DUP1 PUSH1 0x20 MUL PUSH1 0x20 ADD PUSH1 0x40 MLOAD SWAP1 DUP2 ADD PUSH1 0x40 MSTORE DUP1 SWAP3 SWAP2 SWAP1 DUP2 DUP2 MSTORE PUSH1 0x20 ADD DUP3 DUP1 SLOAD DUP1 ISZERO PUSH2 0x140 JUMPI PUSH1 0x20 MUL DUP3 ADD SWAP2 SWAP1 PUSH0 MSTORE PUSH1 0x20 PUSH0 KECCAK256 SWAP1 JUMPDEST DUP2 SLOAD DUP2 MSTORE PUSH1 0x20 ADD SWAP1 PUSH1 0x1 ADD SWAP1 DUP1 DUP4 GT PUSH2 0x12C JUMPI JUMPDEST POP POP POP POP POP SWAP1 POP SWAP1 JUMP JUMPDEST PUSH0 DUP2 DUP2 SLOAD DUP2 LT PUSH2 0x158 JUMPI PUSH0 DUP1 REVERT JUMPDEST SWAP1 PUSH0 MSTORE PUSH1 0x20 PUSH0 KECCAK256 ADD PUSH0 SWAP2 POP SWAP1 POP SLOAD DUP2 JUMP JUMPDEST PUSH0 PUSH0 DUP1 SLOAD SWAP1 POP DUP3 LT PUSH2 0x17D JUMPI PUSH0 SWAP1 POP PUSH2 0x218 JUMP JUMPDEST PUSH0 DUP3 SWAP1 POP JUMPDEST PUSH1 0x1 PUSH0 DUP1 SLOAD SWAP1 POP PUSH2 0x193 SWAP2 SWAP1 PUSH2 0x3DE JUMP JUMPDEST DUP2 LT ISZERO PUSH2 0x1EE JUMPI PUSH0 PUSH1 0x1 DUP3 PUSH2 0x1A8 SWAP2 SWAP1 PUSH2 0x411 JUMP JUMPDEST DUP2 SLOAD DUP2 LT PUSH2 0x1B9 JUMPI PUSH2 0x1B8 PUSH2 0x444 JUMP JUMPDEST JUMPDEST SWAP1 PUSH0 MSTORE PUSH1 0x20 PUSH0 KECCAK256 ADD SLOAD PUSH0 DUP3 DUP2 SLOAD DUP2 LT PUSH2 0x1D5 JUMPI PUSH2 0x1D4 PUSH2 0x444 JUMP JUMPDEST JUMPDEST SWAP1 PUSH0 MSTORE PUSH1 0x20 PUSH0 KECCAK256 ADD DUP2 SWAP1 SSTORE POP DUP1 DUP1 PUSH1 0x1 ADD SWAP2 POP POP PUSH2 0x182 JUMP JUMPDEST POP PUSH0 DUP1 SLOAD DUP1 PUSH2 0x200 JUMPI PUSH2 0x1FF PUSH2 0x471 JUMP JUMPDEST JUMPDEST PUSH1 0x1 SWAP1 SUB DUP2 DUP2 SWAP1 PUSH0 MSTORE PUSH1 0x20 PUSH0 KECCAK256 ADD PUSH0 SWAP1 SSTORE SWAP1 SSTORE PUSH1 0x1 SWAP1 POP JUMPDEST SWAP2 SWAP1 POP JUMP JUMPDEST PUSH0 DUP2 SWAP1 POP SWAP2 SWAP1 POP JUMP JUMPDEST PUSH2 0x22F DUP2 PUSH2 0x21D JUMP JUMPDEST DUP3 MSTORE POP POP JUMP JUMPDEST PUSH0 PUSH1 0x20 DUP3 ADD SWAP1 POP PUSH2 0x248 PUSH0 DUP4 ADD DUP5 PUSH2 0x226 JUMP JUMPDEST SWAP3 SWAP2 POP POP JUMP JUMPDEST PUSH0 DUP2 MLOAD SWAP1 POP SWAP2 SWAP1 POP JUMP JUMPDEST PUSH0 DUP3 DUP3 MSTORE PUSH1 0x20 DUP3 ADD SWAP1 POP SWAP3 SWAP2 POP POP JUMP JUMPDEST PUSH0 DUP2 SWAP1 POP PUSH1 0x20 DUP3 ADD SWAP1 POP SWAP2 SWAP1 POP JUMP JUMPDEST PUSH2 0x280 DUP2 PUSH2 0x21D JUMP JUMPDEST DUP3 MSTORE POP POP JUMP JUMPDEST PUSH0 PUSH2 0x291 DUP4 DUP4 PUSH2 0x277 JUMP JUMPDEST PUSH1 0x20 DUP4 ADD SWAP1 POP SWAP3 SWAP2 POP POP JUMP JUMPDEST PUSH0 PUSH1 0x20 DUP3 ADD SWAP1 POP SWAP2 SWAP1 POP JUMP JUMPDEST PUSH0 PUSH2 0x2B3 DUP3 PUSH2 0x24E JUMP JUMPDEST PUSH2 0x2BD DUP2 DUP6 PUSH2 0x258 JUMP JUMPDEST SWAP4 POP PUSH2 0x2C8 DUP4 PUSH2 0x268 JUMP JUMPDEST DUP1 PUSH0 JUMPDEST DUP4 DUP2 LT ISZERO PUSH2 0x2F8 JUMPI DUP2 MLOAD PUSH2 0x2DF DUP9 DUP3 PUSH2 0x286 JUMP JUMPDEST SWAP8 POP PUSH2 0x2EA DUP4 PUSH2 0x29D JUMP JUMPDEST SWAP3 POP POP PUSH1 0x1 DUP2 ADD SWAP1 POP PUSH2 0x2CB JUMP JUMPDEST POP DUP6 SWAP4 POP POP POP POP SWAP3 SWAP2 POP POP JUMP JUMPDEST PUSH0 PUSH1 0x20 DUP3 ADD SWAP1 POP DUP2 DUP2 SUB PUSH0 DUP4 ADD MSTORE PUSH2 0x31D DUP2 DUP5 PUSH2 0x2A9 JUMP JUMPDEST SWAP1 POP SWAP3 SWAP2 POP POP JUMP JUMPDEST PUSH0 PUSH0 REVERT JUMPDEST PUSH2 0x332 DUP2 PUSH2 0x21D JUMP JUMPDEST DUP2 EQ PUSH2 0x33C JUMPI PUSH0 PUSH0 REVERT JUMPDEST POP JUMP JUMPDEST PUSH0 DUP2 CALLDATALOAD SWAP1 POP PUSH2 0x34D DUP2 PUSH2 0x329 JUMP JUMPDEST SWAP3 SWAP2 POP POP JUMP JUMPDEST PUSH0 PUSH1 0x20 DUP3 DUP5 SUB SLT ISZERO PUSH2 0x368 JUMPI PUSH2 0x367 PUSH2 0x325 JUMP JUMPDEST JUMPDEST PUSH0 PUSH2 0x375 DUP5 DUP3 DUP6 ADD PUSH2 0x33F JUMP JUMPDEST SWAP2 POP POP SWAP3 SWAP2 POP POP JUMP JUMPDEST PUSH0 DUP2 ISZERO ISZERO SWAP1 POP SWAP2 SWAP1 POP JUMP JUMPDEST PUSH2 0x392 DUP2 PUSH2 0x37E JUMP JUMPDEST DUP3 MSTORE POP POP JUMP JUMPDEST PUSH0 PUSH1 0x20 DUP3 ADD SWAP1 POP PUSH2 0x3AB PUSH0 DUP4 ADD DUP5 PUSH2 0x389 JUMP JUMPDEST SWAP3 SWAP2 POP POP JUMP JUMPDEST PUSH32 0x4E487B7100000000000000000000000000000000000000000000000000000000 PUSH0 MSTORE PUSH1 0x11 PUSH1 0x4 MSTORE PUSH1 0x24 PUSH0 REVERT JUMPDEST PUSH0 PUSH2 0x3E8 DUP3 PUSH2 0x21D JUMP JUMPDEST SWAP2 POP PUSH2 0x3F3 DUP4 PUSH2 0x21D JUMP JUMPDEST SWAP3 POP DUP3 DUP3 SUB SWAP1 POP DUP2 DUP2 GT ISZERO PUSH2 0x40B JUMPI PUSH2 0x40A PUSH2 0x3B1 JUMP JUMPDEST JUMPDEST SWAP3 SWAP2 POP POP JUMP JUMPDEST PUSH0 PUSH2 0x41B DUP3 PUSH2 0x21D JUMP JUMPDEST SWAP2 POP PUSH2 0x426 DUP4 PUSH2 0x21D JUMP JUMPDEST SWAP3 POP DUP3 DUP3 ADD SWAP1 POP DUP1 DUP3 GT ISZERO PUSH2 0x43E JUMPI PUSH2 0x43D PUSH2 0x3B1 JUMP JUMPDEST JUMPDEST SWAP3 SWAP2 POP POP JUMP JUMPDEST PUSH32 0x4E487B7100000000000000000000000000000000000000000000000000000000 PUSH0 MSTORE PUSH1 0x32 PUSH1 0x4 MSTORE PUSH1 0x24 PUSH0 REVERT JUMPDEST PUSH32 0x4E487B7100000000000000000000000000000000000000000000000000000000 PUSH0 MSTORE PUSH1 0x31 PUSH1 0x4 MSTORE PUSH1 0x24 PUSH0 REVERT INVALID LOG2 PUSH5 0x6970667358 0x22 SLT KECCAK256 0xD4 0xD3 CODESIZE SWAP6 0xE4 0xEE BALANCE SUB COINBASE 0xAB 0xFB JUMPDEST 0x26 0xDC 0xCB 0xDE 0xB5 0xC8 0xED PC DUP9 0xCA 0xDF LOG0 0xB5 DUP13 0x2F EXP 0xC7 INVALID CODECOPY 0xD PUSH5 0x736F6C6343 STOP ADDMOD SHR STOP CALLER "
		},
		"gasEstimates": {
			"creation": {
				"codeDepositCost": "247200",
				"executionCost": "infinite",
				"totalCost": "infinite"
			},
			"external": {
				"get()": "infinite",
				"getLen()": "2417",
				"list(uint256)": "infinite",
				"removeElementByIndex(uint256)": "infinite"
			}
		},
		"methodIdentifiers": {
			"get()": "6d4ce63c",
			"getLen()": "4a90be57",
			"list(uint256)": "80c9419e",
			"removeElementByIndex(uint256)": "f471c8f6"
		}
	},
	"abi": [
		{
			"inputs": [],
			"name": "get",
			"outputs": [
				{
					"internalType": "uint256[]",
					"name": "",
					"type": "uint256[]"
				}
			],
			"stateMutability": "view",
			"type": "function"
		},
		{
			"inputs": [],
			"name": "getLen",
			"outputs": [
				{
					"internalType": "uint256",
					"name": "",
					"type": "uint256"
				}
			],
			"stateMutability": "view",
			"type": "function"
		},
		{
			"inputs": [
				{
					"internalType": "uint256",
					"name": "",
					"type": "uint256"
				}
			],
			"name": "list",
			"outputs": [
				{
					"internalType": "uint256",
					"name": "",
					"type": "uint256"
				}
			],
			"stateMutability": "view",
			"type": "function"
		},
		{
			"inputs": [
				{
					"internalType": "uint256",
					"name": "_index",
					"type": "uint256"
				}
			],
			"name": "removeElementByIndex",
			"outputs": [
				{
					"internalType": "bool",
					"name": "",
					"type": "bool"
				}
			],
			"stateMutability": "nonpayable",
			"type": "function"
		}
	]
}