{
	"data": {
		"bytecode": {
			"linkReferences": {},
			"object": "608060405234801561000f575f5ffd5b50335f73ffffffffffffffffffffffffffffffffffffffff168173ffffffffffffffffffffffffffffffffffffffff1603610081575f6040517f1e4fbdf700000000000000000000000000000000000000000000000000000000815260040161007891906101ca565b60405180910390fd5b610090816100ca60201b60201c565b505f5f60146101000a81548160ff021916908315150217905550600160025f6101000a81548160ff021916908360ff1602179055506101e3565b5f5f5f9054906101000a900473ffffffffffffffffffffffffffffffffffffffff169050815f5f6101000a81548173ffffffffffffffffffffffffffffffffffffffff021916908373ffffffffffffffffffffffffffffffffffffffff1602179055508173ffffffffffffffffffffffffffffffffffffffff168173ffffffffffffffffffffffffffffffffffffffff167f8be0079c531659141344cd1fd0a4f28419497f9722a3daafe3b4186f6b6457e060405160405180910390a35050565b5f73ffffffffffffffffffffffffffffffffffffffff82169050919050565b5f6101b48261018b565b9050919050565b6101c4816101aa565b82525050565b5f6020820190506101dd5f8301846101bb565b92915050565b615613806101f05f395ff3fe608060405260043610610180575f3560e01c80638da5cb5b116100d0578063ba35cacd11610089578063da4f4dfa11610063578063da4f4dfa146105a0578063ddca3f43146105d0578063ed191b04146105fa578063f2fde38b1461063a57610180565b8063ba35cacd146104eb578063beb7a14714610527578063cd1220b21461056357610180565b80638da5cb5b146103b7578063949c09b8146103e1578063a37b06d414610409578063a452de6e14610445578063a4d2658214610481578063a982b1f9146104a957610180565b80635c975abb1161013d578063723eb27311610117578063723eb273146102fe5780637c4740b81461033b5780638456cb5914610377578063863c05571461038d57610180565b80635c975abb14610282578063682bf593146102ac578063715018a6146102e857610180565b806312065fe0146101845780633ccfd60b146101ae5780633f4ba83a146101c4578063437315b4146101da57806356a6d9ef1461021e578063599a452214610246575b5f5ffd5b34801561018f575f5ffd5b50610198610662565b6040516101a5919061414a565b60405180910390f35b3480156101b9575f5ffd5b506101c2610671565b005b3480156101cf575f5ffd5b506101d8610730565b005b3480156101e5575f5ffd5b5061020060048036038101906101fb91906141a7565b610742565b6040516102159998979695949392919061423b565b60405180910390f35b348015610229575f5ffd5b50610244600480360381019061023f919061432b565b610834565b005b348015610251575f5ffd5b5061026c60048036038101906102679190614393565b6108e9565b6040516102799190614476565b60405180910390f35b34801561028d575f5ffd5b50610296610a87565b6040516102a391906144a9565b60405180910390f35b3480156102b7575f5ffd5b506102d260048036038101906102cd9190614393565b610a9c565b6040516102df91906144a9565b60405180910390f35b3480156102f3575f5ffd5b506102fc610b01565b005b348015610309575f5ffd5b50610324600480360381019061031f91906144c2565b610b14565b60405161033292919061465d565b60405180910390f35b348015610346575f5ffd5b50610361600480360381019061035c91906146b5565b610cf1565b60405161036e91906144a9565b60405180910390f35b348015610382575f5ffd5b5061038b611261565b005b348015610398575f5ffd5b506103a1611273565b6040516103ae919061414a565b60405180910390f35b3480156103c2575f5ffd5b506103cb61127e565b6040516103d8919061472c565b60405180910390f35b3480156103ec575f5ffd5b5061040760048036038101906104029190614745565b6112a5565b005b348015610414575f5ffd5b5061042f600480360381019061042a9190614770565b611323565b60405161043c919061414a565b60405180910390f35b348015610450575f5ffd5b5061046b60048036038101906104669190614393565b61136c565b60405161047891906144a9565b60405180910390f35b34801561048c575f5ffd5b506104a760048036038101906104a29190614914565b611dd4565b005b3480156104b4575f5ffd5b506104cf60048036038101906104ca91906149a7565b611e51565b6040516104e297969594939291906149e5565b60405180910390f35b3480156104f6575f5ffd5b50610511600480360381019061050c91906146b5565b611eff565b60405161051e91906144a9565b60405180910390f35b348015610532575f5ffd5b5061054d60048036038101906105489190614a52565b6127be565b60405161055a91906144a9565b60405180910390f35b34801561056e575f5ffd5b5061058960048036038101906105849190614393565b6129e4565b604051610597929190614c30565b60405180910390f35b6105ba60048036038101906105b59190614c5e565b612d3e565b6040516105c791906144a9565b60405180910390f35b3480156105db575f5ffd5b506105e4613c9f565b6040516105f19190614cf1565b60405180910390f35b348015610605575f5ffd5b50610620600480360381019061061b9190614393565b613cb1565b604051610631959493929190614d0a565b60405180910390f35b348015610645575f5ffd5b50610660600480360381019061065b91906144c2565b613d25565b005b5f61066b613da9565b47905090565b610679613da9565b5f4790505f61068661127e565b73ffffffffffffffffffffffffffffffffffffffff16826040516106a990614d88565b5f6040518083038185875af1925050503d805f81146106e3576040519150601f19603f3d011682016040523d82523d5f602084013e6106e8565b606091505b505090508061072c576040517f08c379a000000000000000000000000000000000000000000000000000000000815260040161072390614df6565b60405180910390fd5b5050565b610738613da9565b610740613e30565b565b6005602052805f5260405f205f91509050805f015f9054906101000a900473ffffffffffffffffffffffffffffffffffffffff1690806001015490806002015f9054906101000a900473ffffffffffffffffffffffffffffffffffffffff1690806003015490806004015f9054906101000a900473ffffffffffffffffffffffffffffffffffffffff1690806005015f9054906101000a900473ffffffffffffffffffffffffffffffffffffffff1690806006015f9054906101000a900473ffffffffffffffffffffffffffffffffffffffff16908060060160149054906101000a900460ff16908060070154905089565b61083c613da9565b5f8273ffffffffffffffffffffffffffffffffffffffff168260405161086190614d88565b5f6040518083038185875af1925050503d805f811461089b576040519150601f19603f3d011682016040523d82523d5f602084013e6108a0565b606091505b50509050806108e4576040517f08c379a00000000000000000000000000000000000000000000000000000000081526004016108db90614df6565b60405180910390fd5b505050565b6108f161405c565b5f60035f8573ffffffffffffffffffffffffffffffffffffffff1673ffffffffffffffffffffffffffffffffffffffff1681526020019081526020015f205f8481526020019081526020015f206040518060a00160405290815f82015f9054906101000a900473ffffffffffffffffffffffffffffffffffffffff1673ffffffffffffffffffffffffffffffffffffffff1673ffffffffffffffffffffffffffffffffffffffff16815260200160018201548152602001600282015f9054906101000a900460ff1660ff1660ff16815260200160038201548152602001600482015f9054906101000a900460ff16151515158152505090505f610a09826020015160025f9054906101000a900460ff1660ff16611323565b90505f610a218360200151846040015160ff16611323565b90505f610a5e8460200151856040015160025f9054906101000a900460ff166064610a4c9190614e41565b610a569190614e41565b60ff16611323565b905060405180606001604052808481526020018381526020018281525094505050505092915050565b5f5f60149054906101000a900460ff16905090565b5f60035f8473ffffffffffffffffffffffffffffffffffffffff1673ffffffffffffffffffffffffffffffffffffffff1681526020019081526020015f205f8381526020019081526020015f206004015f9054906101000a900460ff16905092915050565b610b09613da9565b610b125f613e91565b565b5f606060045f8473ffffffffffffffffffffffffffffffffffffffff1673ffffffffffffffffffffffffffffffffffffffff1681526020019081526020015f208054905060045f8573ffffffffffffffffffffffffffffffffffffffff1673ffffffffffffffffffffffffffffffffffffffff1681526020019081526020015f2080805480602002602001604051908101604052809291908181526020015f905b82821015610ce2578382905f5260205f2090600702016040518060e00160405290815f82015f9054906101000a900473ffffffffffffffffffffffffffffffffffffffff1673ffffffffffffffffffffffffffffffffffffffff1673ffffffffffffffffffffffffffffffffffffffff16815260200160018201548152602001600282015f9054906101000a900473ffffffffffffffffffffffffffffffffffffffff1673ffffffffffffffffffffffffffffffffffffffff1673ffffffffffffffffffffffffffffffffffffffff16815260200160038201548152602001600482015f9054906101000a900460ff1660ff1660ff16815260200160058201548152602001600682015f9054906101000a900460ff16151515158152505081526020019060010190610bb5565b50505050905091509150915091565b5f610cfa613f52565b5f869050610d06613f93565b73ffffffffffffffffffffffffffffffffffffffff168173ffffffffffffffffffffffffffffffffffffffff1663217b2270886040518263ffffffff1660e01b8152600401610d559190614e75565b602060405180830381865afa158015610d70573d5f5f3e3d5ffd5b505050506040513d601f19601f82011682018060405250810190610d949190614ea2565b73ffffffffffffffffffffffffffffffffffffffff1614610de1576040517f82b4290000000000000000000000000000000000000000000000000000000000815260040160405180910390fd5b8073ffffffffffffffffffffffffffffffffffffffff16632a3654a430886040518363ffffffff1660e01b8152600401610e1c929190614ecd565b602060405180830381865afa158015610e37573d5f5f3e3d5ffd5b505050506040513d601f19601f82011682018060405250810190610e5b9190614f08565b610e9c57306040517f76c6c93a000000000000000000000000000000000000000000000000000000008152600401610e93919061472c565b60405180910390fd5b60025f9054906101000a900460ff166064610eb79190614e41565b60ff168360ff1610610efe576040517f08c379a0000000000000000000000000000000000000000000000000000000008152600401610ef590614fa3565b60405180910390fd5b6040518060a001604052808673ffffffffffffffffffffffffffffffffffffffff1681526020018581526020018460ff1681526020014281526020016001151581525060035f8973ffffffffffffffffffffffffffffffffffffffff1673ffffffffffffffffffffffffffffffffffffffff1681526020019081526020015f205f8881526020019081526020015f205f820151815f015f6101000a81548173ffffffffffffffffffffffffffffffffffffffff021916908373ffffffffffffffffffffffffffffffffffffffff160217905550602082015181600101556040820151816002015f6101000a81548160ff021916908360ff160217905550606082015181600301556080820151816004015f6101000a81548160ff02191690831515021790555090505060045f611032613f93565b73ffffffffffffffffffffffffffffffffffffffff1673ffffffffffffffffffffffffffffffffffffffff1681526020019081526020015f206040518060e001604052808973ffffffffffffffffffffffffffffffffffffffff1681526020018881526020018773ffffffffffffffffffffffffffffffffffffffff1681526020018681526020018560ff16815260200142815260200160011515815250908060018154018082558091505060019003905f5260205f2090600702015f909190919091505f820151815f015f6101000a81548173ffffffffffffffffffffffffffffffffffffffff021916908373ffffffffffffffffffffffffffffffffffffffff160217905550602082015181600101556040820151816002015f6101000a81548173ffffffffffffffffffffffffffffffffffffffff021916908373ffffffffffffffffffffffffffffffffffffffff160217905550606082015181600301556080820151816004015f6101000a81548160ff021916908360ff16021790555060a0820151816005015560c0820151816006015f6101000a81548160ff02191690831515021790555050506111e7613f93565b73ffffffffffffffffffffffffffffffffffffffff16868873ffffffffffffffffffffffffffffffffffffffff167fb20ca2ee28a0256ec25aa29b97566e4f45cd9a901cbd867038d58f314b9fa370888842600160405161124b9493929190614fc1565b60405180910390a4600191505095945050505050565b611269613da9565b611271613f9a565b565b6001805f0154905081565b5f5f5f9054906101000a900473ffffffffffffffffffffffffffffffffffffffff16905090565b6112ad613da9565b606460025f9054906101000a900460ff1660ff16106112cf576112ce615004565b5b8060025f6101000a81548160ff021916908360ff1602179055507f8c4d35e54a3f2ef1134138fd8ea3daee6a3c89e10d2665996babdf70261e2c7681604051611318919061506a565b60405180910390a150565b5f5f8203611333575f9050611366565b606482846113419190615083565b101561134b575f5ffd5b606482846113599190615083565b61136391906150f1565b90505b92915050565b5f611375613f52565b5f839050611381613f93565b73ffffffffffffffffffffffffffffffffffffffff168173ffffffffffffffffffffffffffffffffffffffff1663217b2270856040518263ffffffff1660e01b81526004016113d09190614e75565b602060405180830381865afa1580156113eb573d5f5f3e3d5ffd5b505050506040513d601f19601f8201168201806040525081019061140f9190614ea2565b73ffffffffffffffffffffffffffffffffffffffff161461145c576040517f82b4290000000000000000000000000000000000000000000000000000000000815260040160405180910390fd5b60035f8573ffffffffffffffffffffffffffffffffffffffff1673ffffffffffffffffffffffffffffffffffffffff1681526020019081526020015f205f8481526020019081526020015f206004015f9054906101000a900460ff166114f7576040517f08c379a00000000000000000000000000000000000000000000000000000000081526004016114ee90615191565b60405180910390fd5b6040518060a001604052805f73ffffffffffffffffffffffffffffffffffffffff1681526020015f81526020015f60ff1681526020014281526020015f151581525060035f8673ffffffffffffffffffffffffffffffffffffffff1673ffffffffffffffffffffffffffffffffffffffff1681526020019081526020015f205f8581526020019081526020015f205f820151815f015f6101000a81548173ffffffffffffffffffffffffffffffffffffffff021916908373ffffffffffffffffffffffffffffffffffffffff160217905550602082015181600101556040820151816002015f6101000a81548160ff021916908360ff160217905550606082015181600301556080820151816004015f6101000a81548160ff021916908315150217905550905050611627613f93565b73ffffffffffffffffffffffffffffffffffffffff16838573ffffffffffffffffffffffffffffffffffffffff167fedaa3dec3bfe408e0c9108bd646f1d6b585e08d945bfb8700e26552d358892475f5f425f60405161168a94939291906151e8565b60405180910390a45f5f90505b600160045f8473ffffffffffffffffffffffffffffffffffffffff1663217b2270886040518263ffffffff1660e01b81526004016116d59190614e75565b602060405180830381865afa1580156116f0573d5f5f3e3d5ffd5b505050506040513d601f19601f820116820180604052508101906117149190614ea2565b73ffffffffffffffffffffffffffffffffffffffff1673ffffffffffffffffffffffffffffffffffffffff1681526020019081526020015f208054905061175b919061522b565b811015611c67578473ffffffffffffffffffffffffffffffffffffffff1660045f8473ffffffffffffffffffffffffffffffffffffffff1663217b2270886040518263ffffffff1660e01b81526004016117b59190614e75565b602060405180830381865afa1580156117d0573d5f5f3e3d5ffd5b505050506040513d601f19601f820116820180604052508101906117f49190614ea2565b73ffffffffffffffffffffffffffffffffffffffff1673ffffffffffffffffffffffffffffffffffffffff1681526020019081526020015f20828154811061183f5761183e61525e565b5b905f5260205f2090600702015f015f9054906101000a900473ffffffffffffffffffffffffffffffffffffffff1673ffffffffffffffffffffffffffffffffffffffff1614801561196457508360045f8473ffffffffffffffffffffffffffffffffffffffff1663217b2270886040518263ffffffff1660e01b81526004016118c89190614e75565b602060405180830381865afa1580156118e3573d5f5f3e3d5ffd5b505050506040513d601f19601f820116820180604052508101906119079190614ea2565b73ffffffffffffffffffffffffffffffffffffffff1673ffffffffffffffffffffffffffffffffffffffff1681526020019081526020015f2082815481106119525761195161525e565b5b905f5260205f20906007020160010154145b15611c5a5760045f8373ffffffffffffffffffffffffffffffffffffffff1663217b2270876040518263ffffffff1660e01b81526004016119a59190614e75565b602060405180830381865afa1580156119c0573d5f5f3e3d5ffd5b505050506040513d601f19601f820116820180604052508101906119e49190614ea2565b73ffffffffffffffffffffffffffffffffffffffff1673ffffffffffffffffffffffffffffffffffffffff1681526020019081526020015f20600182611a2a919061528b565b81548110611a3b57611a3a61525e565b5b905f5260205f20906007020160045f8473ffffffffffffffffffffffffffffffffffffffff1663217b2270886040518263ffffffff1660e01b8152600401611a839190614e75565b602060405180830381865afa158015611a9e573d5f5f3e3d5ffd5b505050506040513d601f19601f82011682018060405250810190611ac29190614ea2565b73ffffffffffffffffffffffffffffffffffffffff1673ffffffffffffffffffffffffffffffffffffffff1681526020019081526020015f208281548110611b0d57611b0c61525e565b5b905f5260205f2090600702015f82015f9054906101000a900473ffffffffffffffffffffffffffffffffffffffff16815f015f6101000a81548173ffffffffffffffffffffffffffffffffffffffff021916908373ffffffffffffffffffffffffffffffffffffffff16021790555060018201548160010155600282015f9054906101000a900473ffffffffffffffffffffffffffffffffffffffff16816002015f6101000a81548173ffffffffffffffffffffffffffffffffffffffff021916908373ffffffffffffffffffffffffffffffffffffffff16021790555060038201548160030155600482015f9054906101000a900460ff16816004015f6101000a81548160ff021916908360ff16021790555060058201548160050155600682015f9054906101000a900460ff16816006015f6101000a81548160ff0219169083151502179055509050505b8080600101915050611697565b5060045f8273ffffffffffffffffffffffffffffffffffffffff1663217b2270866040518263ffffffff1660e01b8152600401611ca49190614e75565b602060405180830381865afa158015611cbf573d5f5f3e3d5ffd5b505050506040513d601f19601f82011682018060405250810190611ce39190614ea2565b73ffffffffffffffffffffffffffffffffffffffff1673ffffffffffffffffffffffffffffffffffffffff1681526020019081526020015f20805480611d2c57611d2b6152be565b5b600190038181905f5260205f2090600702015f5f82015f6101000a81549073ffffffffffffffffffffffffffffffffffffffff0219169055600182015f9055600282015f6101000a81549073ffffffffffffffffffffffffffffffffffffffff0219169055600382015f9055600482015f6101000a81549060ff0219169055600582015f9055600682015f6101000a81549060ff021916905550509055600191505092915050565b611ddc613da9565b8473ffffffffffffffffffffffffffffffffffffffff1663760d9bba30868686866040518663ffffffff1660e01b8152600401611e1d95949392919061534b565b5f604051808303815f87803b158015611e34575f5ffd5b505af1158015611e46573d5f5f3e3d5ffd5b505050505050505050565b6004602052815f5260405f208181548110611e6a575f80fd5b905f5260205f2090600702015f9150915050805f015f9054906101000a900473ffffffffffffffffffffffffffffffffffffffff1690806001015490806002015f9054906101000a900473ffffffffffffffffffffffffffffffffffffffff1690806003015490806004015f9054906101000a900460ff1690806005015490806006015f9054906101000a900460ff16905087565b5f611f08613f52565b5f869050611f14613f93565b73ffffffffffffffffffffffffffffffffffffffff168173ffffffffffffffffffffffffffffffffffffffff1663217b2270886040518263ffffffff1660e01b8152600401611f639190614e75565b602060405180830381865afa158015611f7e573d5f5f3e3d5ffd5b505050506040513d601f19601f82011682018060405250810190611fa29190614ea2565b73ffffffffffffffffffffffffffffffffffffffff1614611fef576040517f82b4290000000000000000000000000000000000000000000000000000000000815260040160405180910390fd5b8073ffffffffffffffffffffffffffffffffffffffff16632a3654a430886040518363ffffffff1660e01b815260040161202a929190614ecd565b602060405180830381865afa158015612045573d5f5f3e3d5ffd5b505050506040513d601f19601f820116820180604052508101906120699190614f08565b6120aa57306040517f76c6c93a0000000000000000000000000000000000000000000000000000000081526004016120a1919061472c565b60405180910390fd5b60025f9054906101000a900460ff1660646120c59190614e41565b60ff168360ff161061210c576040517f08c379a000000000000000000000000000000000000000000000000000000000815260040161210390614fa3565b60405180910390fd5b6040518060a001604052808673ffffffffffffffffffffffffffffffffffffffff1681526020018581526020018460ff1681526020014281526020016001151581525060035f8973ffffffffffffffffffffffffffffffffffffffff1673ffffffffffffffffffffffffffffffffffffffff1681526020019081526020015f205f8881526020019081526020015f205f820151815f015f6101000a81548173ffffffffffffffffffffffffffffffffffffffff021916908373ffffffffffffffffffffffffffffffffffffffff160217905550602082015181600101556040820151816002015f6101000a81548160ff021916908360ff160217905550606082015181600301556080820151816004015f6101000a81548160ff0219169083151502179055509050505f5f90505b600160045f8473ffffffffffffffffffffffffffffffffffffffff1663217b22708b6040518263ffffffff1660e01b81526004016122789190614e75565b602060405180830381865afa158015612293573d5f5f3e3d5ffd5b505050506040513d601f19601f820116820180604052508101906122b79190614ea2565b73ffffffffffffffffffffffffffffffffffffffff1673ffffffffffffffffffffffffffffffffffffffff1681526020019081526020015f20805490506122fe919061522b565b81101561273b578773ffffffffffffffffffffffffffffffffffffffff1660045f8473ffffffffffffffffffffffffffffffffffffffff1663217b22708b6040518263ffffffff1660e01b81526004016123589190614e75565b602060405180830381865afa158015612373573d5f5f3e3d5ffd5b505050506040513d601f19601f820116820180604052508101906123979190614ea2565b73ffffffffffffffffffffffffffffffffffffffff1673ffffffffffffffffffffffffffffffffffffffff1681526020019081526020015f2082815481106123e2576123e161525e565b5b905f5260205f2090600702015f015f9054906101000a900473ffffffffffffffffffffffffffffffffffffffff1673ffffffffffffffffffffffffffffffffffffffff1614801561250757508660045f8473ffffffffffffffffffffffffffffffffffffffff1663217b22708b6040518263ffffffff1660e01b815260040161246b9190614e75565b602060405180830381865afa158015612486573d5f5f3e3d5ffd5b505050506040513d601f19601f820116820180604052508101906124aa9190614ea2565b73ffffffffffffffffffffffffffffffffffffffff1673ffffffffffffffffffffffffffffffffffffffff1681526020019081526020015f2082815481106124f5576124f461525e565b5b905f5260205f20906007020160010154145b1561272e576040518060e001604052808973ffffffffffffffffffffffffffffffffffffffff1681526020018881526020018773ffffffffffffffffffffffffffffffffffffffff1681526020018681526020018560ff1681526020014281526020016001151581525060045f8473ffffffffffffffffffffffffffffffffffffffff1663217b22708b6040518263ffffffff1660e01b81526004016125ad9190614e75565b602060405180830381865afa1580156125c8573d5f5f3e3d5ffd5b505050506040513d601f19601f820116820180604052508101906125ec9190614ea2565b73ffffffffffffffffffffffffffffffffffffffff1673ffffffffffffffffffffffffffffffffffffffff1681526020019081526020015f2082815481106126375761263661525e565b5b905f5260205f2090600702015f820151815f015f6101000a81548173ffffffffffffffffffffffffffffffffffffffff021916908373ffffffffffffffffffffffffffffffffffffffff160217905550602082015181600101556040820151816002015f6101000a81548173ffffffffffffffffffffffffffffffffffffffff021916908373ffffffffffffffffffffffffffffffffffffffff160217905550606082015181600301556080820151816004015f6101000a81548160ff021916908360ff16021790555060a0820151816005015560c0820151816006015f6101000a81548160ff0219169083151502179055509050505b808060010191505061223a565b50612744613f93565b73ffffffffffffffffffffffffffffffffffffffff16868873ffffffffffffffffffffffffffffffffffffffff167fb20ca2ee28a0256ec25aa29b97566e4f45cd9a901cbd867038d58f314b9fa37088884260016040516127a89493929190614fc1565b60405180910390a4600191505095945050505050565b5f5f8590508073ffffffffffffffffffffffffffffffffffffffff1663511b69528273ffffffffffffffffffffffffffffffffffffffff1663217b2270886040518263ffffffff1660e01b81526004016128189190614e75565b602060405180830381865afa158015612833573d5f5f3e3d5ffd5b505050506040513d601f19601f820116820180604052508101906128579190614ea2565b61285f613f93565b8888886040518663ffffffff1660e01b81526004016128829594939291906153a3565b5f604051808303815f87803b158015612899575f5ffd5b505af11580156128ab573d5f5f3e3d5ffd5b505050506040518060a001604052805f73ffffffffffffffffffffffffffffffffffffffff1681526020015f81526020015f60ff1681526020014281526020015f151581525060035f8873ffffffffffffffffffffffffffffffffffffffff1673ffffffffffffffffffffffffffffffffffffffff1681526020019081526020015f205f8781526020019081526020015f205f820151815f015f6101000a81548173ffffffffffffffffffffffffffffffffffffffff021916908373ffffffffffffffffffffffffffffffffffffffff160217905550602082015181600101556040820151816002015f6101000a81548160ff021916908360ff160217905550606082015181600301556080820151816004015f6101000a81548160ff0219169083151502179055509050506001915050949350505050565b60605f5f6129f26001613ffc565b90505f600167ffffffffffffffff811115612a1057612a0f6147f0565b5b604051908082528060200260200182016040528015612a4957816020015b612a3661407e565b815260200190600190039081612a2e5790505b5090505f5f5f90505b83811015612d2d575f600182612a68919061528b565b5f1b90508873ffffffffffffffffffffffffffffffffffffffff1660055f8381526020019081526020015f205f015f9054906101000a900473ffffffffffffffffffffffffffffffffffffffff1673ffffffffffffffffffffffffffffffffffffffff16148015612aec57508760055f8381526020019081526020015f2060010154145b15612d1f5760405180610120016040528060055f8481526020019081526020015f205f015f9054906101000a900473ffffffffffffffffffffffffffffffffffffffff1673ffffffffffffffffffffffffffffffffffffffff16815260200160055f8481526020019081526020015f2060010154815260200160055f8481526020019081526020015f206002015f9054906101000a900473ffffffffffffffffffffffffffffffffffffffff1673ffffffffffffffffffffffffffffffffffffffff16815260200160055f8481526020019081526020015f2060030154815260200160055f8481526020019081526020015f206004015f9054906101000a900473ffffffffffffffffffffffffffffffffffffffff1673ffffffffffffffffffffffffffffffffffffffff16815260200160055f8481526020019081526020015f206005015f9054906101000a900473ffffffffffffffffffffffffffffffffffffffff1673ffffffffffffffffffffffffffffffffffffffff16815260200160055f8481526020019081526020015f206006015f9054906101000a900473ffffffffffffffffffffffffffffffffffffffff1673ffffffffffffffffffffffffffffffffffffffff16815260200160055f8481526020019081526020015f2060060160149054906101000a900460ff1660ff16815260200160055f8481526020019081526020015f2060070154815250845f81518110612d1057612d0f61525e565b5b60200260200101819052508192505b508080600101915050612a52565b508181945094505050509250929050565b5f612d47613f52565b5f8690505f60035f8973ffffffffffffffffffffffffffffffffffffffff1673ffffffffffffffffffffffffffffffffffffffff1681526020019081526020015f205f8881526020019081526020015f206040518060a00160405290815f82015f9054906101000a900473ffffffffffffffffffffffffffffffffffffffff1673ffffffffffffffffffffffffffffffffffffffff1673ffffffffffffffffffffffffffffffffffffffff16815260200160018201548152602001600282015f9054906101000a900460ff1660ff1660ff16815260200160038201548152602001600482015f9054906101000a900460ff16151515158152505090508060800151612e87576040517f08c379a0000000000000000000000000000000000000000000000000000000008152600401612e7e9061546b565b60405180910390fd5b612e8f613f93565b73ffffffffffffffffffffffffffffffffffffffff168273ffffffffffffffffffffffffffffffffffffffff1663217b2270896040518263ffffffff1660e01b8152600401612ede9190614e75565b602060405180830381865afa158015612ef9573d5f5f3e3d5ffd5b505050506040513d601f19601f82011682018060405250810190612f1d9190614ea2565b73ffffffffffffffffffffffffffffffffffffffff1603612f73576040517f08c379a0000000000000000000000000000000000000000000000000000000008152600401612f6a906154d3565b60405180910390fd5b8173ffffffffffffffffffffffffffffffffffffffff16632a3654a430896040518363ffffffff1660e01b8152600401612fae929190614ecd565b602060405180830381865afa158015612fc9573d5f5f3e3d5ffd5b505050506040513d601f19601f82011682018060405250810190612fed9190614f08565b61302e57306040517f76c6c93a000000000000000000000000000000000000000000000000000000008152600401613025919061472c565b60405180910390fd5b5f81602001511115613763575f73ffffffffffffffffffffffffffffffffffffffff16815f015173ffffffffffffffffffffffffffffffffffffffff16036133ed57806020015134146130b857346040517f926653510000000000000000000000000000000000000000000000000000000081526004016130af919061414a565b60405180910390fd5b5f6130c389896108e9565b90505f816002600381106130da576130d961525e565b5b6020020151111561321e575f8373ffffffffffffffffffffffffffffffffffffffff1663217b22708a6040518263ffffffff1660e01b815260040161311f9190614e75565b602060405180830381865afa15801561313a573d5f5f3e3d5ffd5b505050506040513d601f19601f8201168201806040525081019061315e9190614ea2565b73ffffffffffffffffffffffffffffffffffffffff16826002600381106131885761318761525e565b5b602002015160405161319990614d88565b5f6040518083038185875af1925050503d805f81146131d3576040519150601f19603f3d011682016040523d82523d5f602084013e6131d8565b606091505b505090508061321c576040517f08c379a000000000000000000000000000000000000000000000000000000000815260040161321390614df6565b60405180910390fd5b505b5f816001600381106132335761323261525e565b5b60200201511115613300575f8773ffffffffffffffffffffffffffffffffffffffff168260016003811061326a5761326961525e565b5b602002015160405161327b90614d88565b5f6040518083038185875af1925050503d805f81146132b5576040519150601f19603f3d011682016040523d82523d5f602084013e6132ba565b606091505b50509050806132fe576040517f08c379a00000000000000000000000000000000000000000000000000000000081526004016132f590614df6565b60405180910390fd5b505b5f815f600381106133145761331361525e565b5b602002015111156133e7575f61332861127e565b73ffffffffffffffffffffffffffffffffffffffff16825f600381106133515761335061525e565b5b602002015160405161336290614d88565b5f6040518083038185875af1925050503d805f811461339c576040519150601f19603f3d011682016040523d82523d5f602084013e6133a1565b606091505b50509050806133e5576040517f08c379a00000000000000000000000000000000000000000000000000000000081526004016133dc90614df6565b60405180910390fd5b505b50613762565b5f815f015173ffffffffffffffffffffffffffffffffffffffff166365aeaa9530613416613f93565b6040518363ffffffff1660e01b81526004016134339291906154f1565b602060405180830381865afa15801561344e573d5f5f3e3d5ffd5b505050506040513d601f19601f82011682018060405250810190613472919061552c565b905081602001518110156134c3578160200151816040517fa24f8be90000000000000000000000000000000000000000000000000000000081526004016134ba929190615557565b60405180910390fd5b5f6134ce8a8a6108e9565b90505f816002600381106134e5576134e461525e565b5b602002015111156135f857825f015173ffffffffffffffffffffffffffffffffffffffff1663760d9bba613517613f93565b8673ffffffffffffffffffffffffffffffffffffffff1663217b22708d6040518263ffffffff1660e01b81526004016135509190614e75565b602060405180830381865afa15801561356b573d5f5f3e3d5ffd5b505050506040513d601f19601f8201168201806040525081019061358f9190614ea2565b846002600381106135a3576135a261525e565b5b60200201518b8b6040518663ffffffff1660e01b81526004016135ca95949392919061534b565b5f604051808303815f87803b1580156135e1575f5ffd5b505af11580156135f3573d5f5f3e3d5ffd5b505050505b5f8160016003811061360d5761360c61525e565b5b602002015111156136a957825f015173ffffffffffffffffffffffffffffffffffffffff1663760d9bba61363f613f93565b8a846001600381106136545761365361525e565b5b60200201518b8b6040518663ffffffff1660e01b815260040161367b95949392919061534b565b5f604051808303815f87803b158015613692575f5ffd5b505af11580156136a4573d5f5f3e3d5ffd5b505050505b5f815f600381106136bd576136bc61525e565b5b6020020151111561375f57825f015173ffffffffffffffffffffffffffffffffffffffff1663760d9bba6136ef613f93565b6136f761127e565b845f6003811061370a5761370961525e565b5b60200201518b8b6040518663ffffffff1660e01b815260040161373195949392919061534b565b5f604051808303815f87803b158015613748575f5ffd5b505af115801561375a573d5f5f3e3d5ffd5b505050505b50505b5b61376d6001614008565b6040518061012001604052808973ffffffffffffffffffffffffffffffffffffffff168152602001888152602001825f015173ffffffffffffffffffffffffffffffffffffffff168152602001826020015181526020018373ffffffffffffffffffffffffffffffffffffffff1663217b22708a6040518263ffffffff1660e01b81526004016137fd9190614e75565b602060405180830381865afa158015613818573d5f5f3e3d5ffd5b505050506040513d601f19601f8201168201806040525081019061383c9190614ea2565b73ffffffffffffffffffffffffffffffffffffffff16815260200161385f613f93565b73ffffffffffffffffffffffffffffffffffffffff1681526020018773ffffffffffffffffffffffffffffffffffffffff168152602001826040015160ff1681526020014281525060055f6138b46001613ffc565b5f1b81526020019081526020015f205f820151815f015f6101000a81548173ffffffffffffffffffffffffffffffffffffffff021916908373ffffffffffffffffffffffffffffffffffffffff160217905550602082015181600101556040820151816002015f6101000a81548173ffffffffffffffffffffffffffffffffffffffff021916908373ffffffffffffffffffffffffffffffffffffffff160217905550606082015181600301556080820151816004015f6101000a81548173ffffffffffffffffffffffffffffffffffffffff021916908373ffffffffffffffffffffffffffffffffffffffff16021790555060a0820151816005015f6101000a81548173ffffffffffffffffffffffffffffffffffffffff021916908373ffffffffffffffffffffffffffffffffffffffff16021790555060c0820151816006015f6101000a81548173ffffffffffffffffffffffffffffffffffffffff021916908373ffffffffffffffffffffffffffffffffffffffff16021790555060e08201518160060160146101000a81548160ff021916908360ff1602179055506101008201518160070155905050613a6e888887876127be565b506040518060a001604052805f73ffffffffffffffffffffffffffffffffffffffff1681526020015f81526020015f60ff1681526020014281526020015f151581525060035f8a73ffffffffffffffffffffffffffffffffffffffff1673ffffffffffffffffffffffffffffffffffffffff1681526020019081526020015f205f8981526020019081526020015f205f820151815f015f6101000a81548173ffffffffffffffffffffffffffffffffffffffff021916908373ffffffffffffffffffffffffffffffffffffffff160217905550602082015181600101556040820151816002015f6101000a81548160ff021916908360ff160217905550606082015181600301556080820151816004015f6101000a81548160ff0219169083151502179055509050508173ffffffffffffffffffffffffffffffffffffffff1663217b2270886040518263ffffffff1660e01b8152600401613bd09190614e75565b602060405180830381865afa158015613beb573d5f5f3e3d5ffd5b505050506040513d601f19601f82011682018060405250810190613c0f9190614ea2565b73ffffffffffffffffffffffffffffffffffffffff16878973ffffffffffffffffffffffffffffffffffffffff167fcba23a4d55badb5c8026b71e35b1d7520f7ec7128eed76c0e620731383b494d8845f01518560200151613c6f613f93565b8c886040015142604051613c889695949392919061557e565b60405180910390a460019250505095945050505050565b60025f9054906101000a900460ff1681565b6003602052815f5260405f20602052805f5260405f205f9150915050805f015f9054906101000a900473ffffffffffffffffffffffffffffffffffffffff1690806001015490806002015f9054906101000a900460ff1690806003015490806004015f9054906101000a900460ff16905085565b613d2d613da9565b5f73ffffffffffffffffffffffffffffffffffffffff168173ffffffffffffffffffffffffffffffffffffffff1603613d9d575f6040517f1e4fbdf7000000000000000000000000000000000000000000000000000000008152600401613d94919061472c565b60405180910390fd5b613da681613e91565b50565b613db1613f93565b73ffffffffffffffffffffffffffffffffffffffff16613dcf61127e565b73ffffffffffffffffffffffffffffffffffffffff1614613e2e57613df2613f93565b6040517f118cdaa7000000000000000000000000000000000000000000000000000000008152600401613e25919061472c565b60405180910390fd5b565b613e3861401c565b5f5f60146101000a81548160ff0219169083151502179055507f5db9ee0a495bf2e6ff9c91a7834c1ba4fdd244a5e8aa4e537bd38aeae4b073aa613e7a613f93565b604051613e87919061472c565b60405180910390a1565b5f5f5f9054906101000a900473ffffffffffffffffffffffffffffffffffffffff169050815f5f6101000a81548173ffffffffffffffffffffffffffffffffffffffff021916908373ffffffffffffffffffffffffffffffffffffffff1602179055508173ffffffffffffffffffffffffffffffffffffffff168173ffffffffffffffffffffffffffffffffffffffff167f8be0079c531659141344cd1fd0a4f28419497f9722a3daafe3b4186f6b6457e060405160405180910390a35050565b613f5a610a87565b15613f91576040517fd93c066500000000000000000000000000000000000000000000000000000000815260040160405180910390fd5b565b5f33905090565b613fa2613f52565b60015f60146101000a81548160ff0219169083151502179055507f62e78cea01bee320cd4e420270b5ea74000d11b0c9f74754ebdbfc544b05a258613fe5613f93565b604051613ff2919061472c565b60405180910390a1565b5f815f01549050919050565b6001815f015f828254019250508190555050565b614024610a87565b61405a576040517f8dfc202b00000000000000000000000000000000000000000000000000000000815260040160405180910390fd5b565b6040518060600160405280600390602082028036833780820191505090505090565b6040518061012001604052805f73ffffffffffffffffffffffffffffffffffffffff1681526020015f81526020015f73ffffffffffffffffffffffffffffffffffffffff1681526020015f81526020015f73ffffffffffffffffffffffffffffffffffffffff1681526020015f73ffffffffffffffffffffffffffffffffffffffff1681526020015f73ffffffffffffffffffffffffffffffffffffffff1681526020015f60ff1681526020015f81525090565b5f819050919050565b61414481614132565b82525050565b5f60208201905061415d5f83018461413b565b92915050565b5f604051905090565b5f5ffd5b5f5ffd5b5f819050919050565b61418681614174565b8114614190575f5ffd5b50565b5f813590506141a18161417d565b92915050565b5f602082840312156141bc576141bb61416c565b5b5f6141c984828501614193565b91505092915050565b5f73ffffffffffffffffffffffffffffffffffffffff82169050919050565b5f6141fb826141d2565b9050919050565b61420b816141f1565b82525050565b61421a81614174565b82525050565b5f60ff82169050919050565b61423581614220565b82525050565b5f6101208201905061424f5f83018c614202565b61425c602083018b614211565b614269604083018a614202565b614276606083018961413b565b6142836080830188614202565b61429060a0830187614202565b61429d60c0830186614202565b6142aa60e083018561422c565b6142b861010083018461413b565b9a9950505050505050505050565b5f6142d0826141d2565b9050919050565b6142e0816142c6565b81146142ea575f5ffd5b50565b5f813590506142fb816142d7565b92915050565b61430a81614132565b8114614314575f5ffd5b50565b5f8135905061432581614301565b92915050565b5f5f604083850312156143415761434061416c565b5b5f61434e858286016142ed565b925050602061435f85828601614317565b9150509250929050565b614372816141f1565b811461437c575f5ffd5b50565b5f8135905061438d81614369565b92915050565b5f5f604083850312156143a9576143a861416c565b5b5f6143b68582860161437f565b92505060206143c785828601614193565b9150509250929050565b5f60039050919050565b5f81905092915050565b5f819050919050565b6143f781614132565b82525050565b5f61440883836143ee565b60208301905092915050565b5f602082019050919050565b614429816143d1565b61443381846143db565b925061443e826143e5565b805f5b8381101561446e57815161445587826143fd565b965061446083614414565b925050600181019050614441565b505050505050565b5f6060820190506144895f830184614420565b92915050565b5f8115159050919050565b6144a38161448f565b82525050565b5f6020820190506144bc5f83018461449a565b92915050565b5f602082840312156144d7576144d661416c565b5b5f6144e48482850161437f565b91505092915050565b5f81519050919050565b5f82825260208201905092915050565b5f819050602082019050919050565b61451f816141f1565b82525050565b61452e81614174565b82525050565b61453d81614220565b82525050565b61454c8161448f565b82525050565b60e082015f8201516145665f850182614516565b5060208201516145796020850182614525565b50604082015161458c6040850182614516565b50606082015161459f60608501826143ee565b5060808201516145b26080850182614534565b5060a08201516145c560a08501826143ee565b5060c08201516145d860c0850182614543565b50505050565b5f6145e98383614552565b60e08301905092915050565b5f602082019050919050565b5f61460b826144ed565b61461581856144f7565b935061462083614507565b805f5b8381101561465057815161463788826145de565b9750614642836145f5565b925050600181019050614623565b5085935050505092915050565b5f6040820190506146705f83018561413b565b81810360208301526146828184614601565b90509392505050565b61469481614220565b811461469e575f5ffd5b50565b5f813590506146af8161468b565b92915050565b5f5f5f5f5f60a086880312156146ce576146cd61416c565b5b5f6146db8882890161437f565b95505060206146ec88828901614193565b94505060406146fd8882890161437f565b935050606061470e88828901614317565b925050608061471f888289016146a1565b9150509295509295909350565b5f60208201905061473f5f830184614202565b92915050565b5f6020828403121561475a5761475961416c565b5b5f614767848285016146a1565b91505092915050565b5f5f604083850312156147865761478561416c565b5b5f61479385828601614317565b92505060206147a485828601614317565b9150509250929050565b6147b78161448f565b81146147c1575f5ffd5b50565b5f813590506147d2816147ae565b92915050565b5f5ffd5b5f5ffd5b5f601f19601f8301169050919050565b7f4e487b71000000000000000000000000000000000000000000000000000000005f52604160045260245ffd5b614826826147e0565b810181811067ffffffffffffffff82111715614845576148446147f0565b5b80604052505050565b5f614857614163565b9050614863828261481d565b919050565b5f67ffffffffffffffff821115614882576148816147f0565b5b61488b826147e0565b9050602081019050919050565b828183375f83830152505050565b5f6148b86148b384614868565b61484e565b9050828152602081018484840111156148d4576148d36147dc565b5b6148df848285614898565b509392505050565b5f82601f8301126148fb576148fa6147d8565b5b813561490b8482602086016148a6565b91505092915050565b5f5f5f5f5f60a0868803121561492d5761492c61416c565b5b5f61493a8882890161437f565b955050602061494b8882890161437f565b945050604061495c88828901614317565b935050606061496d888289016147c4565b925050608086013567ffffffffffffffff81111561498e5761498d614170565b5b61499a888289016148e7565b9150509295509295909350565b5f5f604083850312156149bd576149bc61416c565b5b5f6149ca8582860161437f565b92505060206149db85828601614317565b9150509250929050565b5f60e0820190506149f85f83018a614202565b614a056020830189614211565b614a126040830188614202565b614a1f606083018761413b565b614a2c608083018661422c565b614a3960a083018561413b565b614a4660c083018461449a565b98975050505050505050565b5f5f5f5f60808587031215614a6a57614a6961416c565b5b5f614a778782880161437f565b9450506020614a8887828801614193565b9350506040614a99878288016147c4565b925050606085013567ffffffffffffffff811115614aba57614ab9614170565b5b614ac6878288016148e7565b91505092959194509250565b5f81519050919050565b5f82825260208201905092915050565b5f819050602082019050919050565b61012082015f820151614b105f850182614516565b506020820151614b236020850182614525565b506040820151614b366040850182614516565b506060820151614b4960608501826143ee565b506080820151614b5c6080850182614516565b5060a0820151614b6f60a0850182614516565b5060c0820151614b8260c0850182614516565b5060e0820151614b9560e0850182614534565b50610100820151614baa6101008501826143ee565b50505050565b5f614bbb8383614afb565b6101208301905092915050565b5f602082019050919050565b5f614bde82614ad2565b614be88185614adc565b9350614bf383614aec565b805f5b83811015614c23578151614c0a8882614bb0565b9750614c1583614bc8565b925050600181019050614bf6565b5085935050505092915050565b5f6040820190508181035f830152614c488185614bd4565b9050614c57602083018461413b565b9392505050565b5f5f5f5f5f60a08688031215614c7757614c7661416c565b5b5f614c848882890161437f565b9550506020614c9588828901614193565b9450506040614ca68882890161437f565b9350506060614cb7888289016147c4565b925050608086013567ffffffffffffffff811115614cd857614cd7614170565b5b614ce4888289016148e7565b9150509295509295909350565b5f602082019050614d045f83018461422c565b92915050565b5f60a082019050614d1d5f830188614202565b614d2a602083018761413b565b614d37604083018661422c565b614d44606083018561413b565b614d51608083018461449a565b9695505050505050565b5f81905092915050565b50565b5f614d735f83614d5b565b9150614d7e82614d65565b5f82019050919050565b5f614d9282614d68565b9150819050919050565b5f82825260208201905092915050565b7f4661696c656420746f2073656e642045746865720000000000000000000000005f82015250565b5f614de0601483614d9c565b9150614deb82614dac565b602082019050919050565b5f6020820190508181035f830152614e0d81614dd4565b9050919050565b7f4e487b71000000000000000000000000000000000000000000000000000000005f52601160045260245ffd5b5f614e4b82614220565b9150614e5683614220565b9250828203905060ff811115614e6f57614e6e614e14565b5b92915050565b5f602082019050614e885f830184614211565b92915050565b5f81519050614e9c81614369565b92915050565b5f60208284031215614eb757614eb661416c565b5b5f614ec484828501614e8e565b91505092915050565b5f604082019050614ee05f830185614202565b614eed6020830184614211565b9392505050565b5f81519050614f02816147ae565b92915050565b5f60208284031215614f1d57614f1c61416c565b5b5f614f2a84828501614ef4565b91505092915050565b7f526566657272616c20666565206d757374206265206c6f776572207468616e205f8201527f706c6174666f726d206665650000000000000000000000000000000000000000602082015250565b5f614f8d602c83614d9c565b9150614f9882614f33565b604082019050919050565b5f6020820190508181035f830152614fba81614f81565b9050919050565b5f608082019050614fd45f830187614202565b614fe1602083018661413b565b614fee604083018561413b565b614ffb606083018461449a565b95945050505050565b7f4e487b71000000000000000000000000000000000000000000000000000000005f52600160045260245ffd5b5f819050919050565b5f61505461504f61504a84614220565b615031565b614132565b9050919050565b6150648161503a565b82525050565b5f60208201905061507d5f83018461505b565b92915050565b5f61508d82614132565b915061509883614132565b92508282026150a681614132565b915082820484148315176150bd576150bc614e14565b5b5092915050565b7f4e487b71000000000000000000000000000000000000000000000000000000005f52601260045260245ffd5b5f6150fb82614132565b915061510683614132565b925082615116576151156150c4565b5b828204905092915050565b7f54686520656e746572656420746f6b656e4964206973206e6f74206c697374655f8201527f642e000000000000000000000000000000000000000000000000000000000000602082015250565b5f61517b602283614d9c565b915061518682615121565b604082019050919050565b5f6020820190508181035f8301526151a88161516f565b9050919050565b5f819050919050565b5f6151d26151cd6151c8846151af565b615031565b614132565b9050919050565b6151e2816151b8565b82525050565b5f6080820190506151fb5f830187614202565b61520860208301866151d9565b615215604083018561413b565b615222606083018461449a565b95945050505050565b5f61523582614132565b915061524083614132565b925082820390508181111561525857615257614e14565b5b92915050565b7f4e487b71000000000000000000000000000000000000000000000000000000005f52603260045260245ffd5b5f61529582614132565b91506152a083614132565b92508282019050808211156152b8576152b7614e14565b5b92915050565b7f4e487b71000000000000000000000000000000000000000000000000000000005f52603160045260245ffd5b5f81519050919050565b5f82825260208201905092915050565b8281835e5f83830152505050565b5f61531d826152eb565b61532781856152f5565b9350615337818560208601615305565b615340816147e0565b840191505092915050565b5f60a08201905061535e5f830188614202565b61536b6020830187614202565b615378604083018661413b565b615385606083018561449a565b81810360808301526153978184615313565b90509695505050505050565b5f60a0820190506153b65f830188614202565b6153c36020830187614202565b6153d06040830186614211565b6153dd606083018561449a565b81810360808301526153ef8184615313565b90509695505050505050565b7f54686520656e746572656420746f6b656e4964206973206e6f74206c697374655f8201527f642e6275792e0000000000000000000000000000000000000000000000000000602082015250565b5f615455602683614d9c565b9150615460826153fb565b604082019050919050565b5f6020820190508181035f83015261548281615449565b9050919050565b7f4f776e65722063616e27742062757921000000000000000000000000000000005f82015250565b5f6154bd601083614d9c565b91506154c882615489565b602082019050919050565b5f6020820190508181035f8301526154ea816154b1565b9050919050565b5f6040820190506155045f830185614202565b6155116020830184614202565b9392505050565b5f8151905061552681614301565b92915050565b5f602082840312156155415761554061416c565b5b5f61554e84828501615518565b91505092915050565b5f60408201905061556a5f83018561413b565b615577602083018461413b565b9392505050565b5f60c0820190506155915f830189614202565b61559e602083018861413b565b6155ab6040830187614202565b6155b86060830186614202565b6155c5608083018561422c565b6155d260a083018461413b565b97965050505050505056fea26469706673582212209415bc60d9d458635ab20ccd561020b738f68e125d531b121f0ade3944b17fe764736f6c634300081c0033",
			"opcodes": "PUSH1 0x80 PUSH1 0x40 MSTORE CALLVALUE DUP1 ISZERO PUSH2 0xF JUMPI PUSH0 PUSH0 REVERT JUMPDEST POP CALLER PUSH0 PUSH20 0xFFFFFFFFFFFFFFFFFFFFFFFFFFFFFFFFFFFFFFFF AND DUP2 PUSH20 0xFFFFFFFFFFFFFFFFFFFFFFFFFFFFFFFFFFFFFFFF AND SUB PUSH2 0x81 JUMPI PUSH0 PUSH1 0x40 MLOAD PUSH32 0x1E4FBDF700000000000000000000000000000000000000000000000000000000 DUP2 MSTORE PUSH1 0x4 ADD PUSH2 0x78 SWAP2 SWAP1 PUSH2 0x1CA JUMP JUMPDEST PUSH1 0x40 MLOAD DUP1 SWAP2 SUB SWAP1 REVERT JUMPDEST PUSH2 0x90 DUP2 PUSH2 0xCA PUSH1 0x20 SHL PUSH1 0x20 SHR JUMP JUMPDEST POP PUSH0 PUSH0 PUSH1 0x14 PUSH2 0x100 EXP DUP2 SLOAD DUP2 PUSH1 0xFF MUL NOT AND SWAP1 DUP4 ISZERO ISZERO MUL OR SWAP1 SSTORE POP PUSH1 0x1 PUSH1 0x2 PUSH0 PUSH2 0x100 EXP DUP2 SLOAD DUP2 PUSH1 0xFF MUL NOT AND SWAP1 DUP4 PUSH1 0xFF AND MUL OR SWAP1 SSTORE POP PUSH2 0x1E3 JUMP JUMPDEST PUSH0 PUSH0 PUSH0 SWAP1 SLOAD SWAP1 PUSH2 0x100 EXP SWAP1 DIV PUSH20 0xFFFFFFFFFFFFFFFFFFFFFFFFFFFFFFFFFFFFFFFF AND SWAP1 POP DUP2 PUSH0 PUSH0 PUSH2 0x100 EXP DUP2 SLOAD DUP2 PUSH20 0xFFFFFFFFFFFFFFFFFFFFFFFFFFFFFFFFFFFFFFFF MUL NOT AND SWAP1 DUP4 PUSH20 0xFFFFFFFFFFFFFFFFFFFFFFFFFFFFFFFFFFFFFFFF AND MUL OR SWAP1 SSTORE POP DUP2 PUSH20 0xFFFFFFFFFFFFFFFFFFFFFFFFFFFFFFFFFFFFFFFF AND DUP2 PUSH20 0xFFFFFFFFFFFFFFFFFFFFFFFFFFFFFFFFFFFFFFFF AND PUSH32 0x8BE0079C531659141344CD1FD0A4F28419497F9722A3DAAFE3B4186F6B6457E0 PUSH1 0x40 MLOAD PUSH1 0x40 MLOAD DUP1 SWAP2 SUB SWAP1 LOG3 POP POP JUMP JUMPDEST PUSH0 PUSH20 0xFFFFFFFFFFFFFFFFFFFFFFFFFFFFFFFFFFFFFFFF DUP3 AND SWAP1 POP SWAP2 SWAP1 POP JUMP JUMPDEST PUSH0 PUSH2 0x1B4 DUP3 PUSH2 0x18B JUMP JUMPDEST SWAP1 POP SWAP2 SWAP1 POP JUMP JUMPDEST PUSH2 0x1C4 DUP2 PUSH2 0x1AA JUMP JUMPDEST DUP3 MSTORE POP POP JUMP JUMPDEST PUSH0 PUSH1 0x20 DUP3 ADD SWAP1 POP PUSH2 0x1DD PUSH0 DUP4 ADD DUP5 PUSH2 0x1BB JUMP JUMPDEST SWAP3 SWAP2 POP POP JUMP JUMPDEST PUSH2 0x5613 DUP1 PUSH2 0x1F0 PUSH0 CODECOPY PUSH0 RETURN INVALID PUSH1 0x80 PUSH1 0x40 MSTORE PUSH1 0x4 CALLDATASIZE LT PUSH2 0x180 JUMPI PUSH0 CALLDATALOAD PUSH1 0xE0 SHR DUP1 PUSH4 0x8DA5CB5B GT PUSH2 0xD0 JUMPI DUP1 PUSH4 0xBA35CACD GT PUSH2 0x89 JUMPI DUP1 PUSH4 0xDA4F4DFA GT PUSH2 0x63 JUMPI DUP1 PUSH4 0xDA4F4DFA EQ PUSH2 0x5A0 JUMPI DUP1 PUSH4 0xDDCA3F43 EQ PUSH2 0x5D0 JUMPI DUP1 PUSH4 0xED191B04 EQ PUSH2 0x5FA JUMPI DUP1 PUSH4 0xF2FDE38B EQ PUSH2 0x63A JUMPI PUSH2 0x180 JUMP JUMPDEST DUP1 PUSH4 0xBA35CACD EQ PUSH2 0x4EB JUMPI DUP1 PUSH4 0xBEB7A147 EQ PUSH2 0x527 JUMPI DUP1 PUSH4 0xCD1220B2 EQ PUSH2 0x563 JUMPI PUSH2 0x180 JUMP JUMPDEST DUP1 PUSH4 0x8DA5CB5B EQ PUSH2 0x3B7 JUMPI DUP1 PUSH4 0x949C09B8 EQ PUSH2 0x3E1 JUMPI DUP1 PUSH4 0xA37B06D4 EQ PUSH2 0x409 JUMPI DUP1 PUSH4 0xA452DE6E EQ PUSH2 0x445 JUMPI DUP1 PUSH4 0xA4D26582 EQ PUSH2 0x481 JUMPI DUP1 PUSH4 0xA982B1F9 EQ PUSH2 0x4A9 JUMPI PUSH2 0x180 JUMP JUMPDEST DUP1 PUSH4 0x5C975ABB GT PUSH2 0x13D JUMPI DUP1 PUSH4 0x723EB273 GT PUSH2 0x117 JUMPI DUP1 PUSH4 0x723EB273 EQ PUSH2 0x2FE JUMPI DUP1 PUSH4 0x7C4740B8 EQ PUSH2 0x33B JUMPI DUP1 PUSH4 0x8456CB59 EQ PUSH2 0x377 JUMPI DUP1 PUSH4 0x863C0557 EQ PUSH2 0x38D JUMPI PUSH2 0x180 JUMP JUMPDEST DUP1 PUSH4 0x5C975ABB EQ PUSH2 0x282 JUMPI DUP1 PUSH4 0x682BF593 EQ PUSH2 0x2AC JUMPI DUP1 PUSH4 0x715018A6 EQ PUSH2 0x2E8 JUMPI PUSH2 0x180 JUMP JUMPDEST DUP1 PUSH4 0x12065FE0 EQ PUSH2 0x184 JUMPI DUP1 PUSH4 0x3CCFD60B EQ PUSH2 0x1AE JUMPI DUP1 PUSH4 0x3F4BA83A EQ PUSH2 0x1C4 JUMPI DUP1 PUSH4 0x437315B4 EQ PUSH2 0x1DA JUMPI DUP1 PUSH4 0x56A6D9EF EQ PUSH2 0x21E JUMPI DUP1 PUSH4 0x599A4522 EQ PUSH2 0x246 JUMPI JUMPDEST PUSH0 PUSH0 REVERT JUMPDEST CALLVALUE DUP1 ISZERO PUSH2 0x18F JUMPI PUSH0 PUSH0 REVERT JUMPDEST POP PUSH2 0x198 PUSH2 0x662 JUMP JUMPDEST PUSH1 0x40 MLOAD PUSH2 0x1A5 SWAP2 SWAP1 PUSH2 0x414A JUMP JUMPDEST PUSH1 0x40 MLOAD DUP1 SWAP2 SUB SWAP1 RETURN JUMPDEST CALLVALUE DUP1 ISZERO PUSH2 0x1B9 JUMPI PUSH0 PUSH0 REVERT JUMPDEST POP PUSH2 0x1C2 PUSH2 0x671 JUMP JUMPDEST STOP JUMPDEST CALLVALUE DUP1 ISZERO PUSH2 0x1CF JUMPI PUSH0 PUSH0 REVERT JUMPDEST POP PUSH2 0x1D8 PUSH2 0x730 JUMP JUMPDEST STOP JUMPDEST CALLVALUE DUP1 ISZERO PUSH2 0x1E5 JUMPI PUSH0 PUSH0 REVERT JUMPDEST POP PUSH2 0x200 PUSH1 0x4 DUP1 CALLDATASIZE SUB DUP2 ADD SWAP1 PUSH2 0x1FB SWAP2 SWAP1 PUSH2 0x41A7 JUMP JUMPDEST PUSH2 0x742 JUMP JUMPDEST PUSH1 0x40 MLOAD PUSH2 0x215 SWAP10 SWAP9 SWAP8 SWAP7 SWAP6 SWAP5 SWAP4 SWAP3 SWAP2 SWAP1 PUSH2 0x423B JUMP JUMPDEST PUSH1 0x40 MLOAD DUP1 SWAP2 SUB SWAP1 RETURN JUMPDEST CALLVALUE DUP1 ISZERO PUSH2 0x229 JUMPI PUSH0 PUSH0 REVERT JUMPDEST POP PUSH2 0x244 PUSH1 0x4 DUP1 CALLDATASIZE SUB DUP2 ADD SWAP1 PUSH2 0x23F SWAP2 SWAP1 PUSH2 0x432B JUMP JUMPDEST PUSH2 0x834 JUMP JUMPDEST STOP JUMPDEST CALLVALUE DUP1 ISZERO PUSH2 0x251 JUMPI PUSH0 PUSH0 REVERT JUMPDEST POP PUSH2 0x26C PUSH1 0x4 DUP1 CALLDATASIZE SUB DUP2 ADD SWAP1 PUSH2 0x267 SWAP2 SWAP1 PUSH2 0x4393 JUMP JUMPDEST PUSH2 0x8E9 JUMP JUMPDEST PUSH1 0x40 MLOAD PUSH2 0x279 SWAP2 SWAP1 PUSH2 0x4476 JUMP JUMPDEST PUSH1 0x40 MLOAD DUP1 SWAP2 SUB SWAP1 RETURN JUMPDEST CALLVALUE DUP1 ISZERO PUSH2 0x28D JUMPI PUSH0 PUSH0 REVERT JUMPDEST POP PUSH2 0x296 PUSH2 0xA87 JUMP JUMPDEST PUSH1 0x40 MLOAD PUSH2 0x2A3 SWAP2 SWAP1 PUSH2 0x44A9 JUMP JUMPDEST PUSH1 0x40 MLOAD DUP1 SWAP2 SUB SWAP1 RETURN JUMPDEST CALLVALUE DUP1 ISZERO PUSH2 0x2B7 JUMPI PUSH0 PUSH0 REVERT JUMPDEST POP PUSH2 0x2D2 PUSH1 0x4 DUP1 CALLDATASIZE SUB DUP2 ADD SWAP1 PUSH2 0x2CD SWAP2 SWAP1 PUSH2 0x4393 JUMP JUMPDEST PUSH2 0xA9C JUMP JUMPDEST PUSH1 0x40 MLOAD PUSH2 0x2DF SWAP2 SWAP1 PUSH2 0x44A9 JUMP JUMPDEST PUSH1 0x40 MLOAD DUP1 SWAP2 SUB SWAP1 RETURN JUMPDEST CALLVALUE DUP1 ISZERO PUSH2 0x2F3 JUMPI PUSH0 PUSH0 REVERT JUMPDEST POP PUSH2 0x2FC PUSH2 0xB01 JUMP JUMPDEST STOP JUMPDEST CALLVALUE DUP1 ISZERO PUSH2 0x309 JUMPI PUSH0 PUSH0 REVERT JUMPDEST POP PUSH2 0x324 PUSH1 0x4 DUP1 CALLDATASIZE SUB DUP2 ADD SWAP1 PUSH2 0x31F SWAP2 SWAP1 PUSH2 0x44C2 JUMP JUMPDEST PUSH2 0xB14 JUMP JUMPDEST PUSH1 0x40 MLOAD PUSH2 0x332 SWAP3 SWAP2 SWAP1 PUSH2 0x465D JUMP JUMPDEST PUSH1 0x40 MLOAD DUP1 SWAP2 SUB SWAP1 RETURN JUMPDEST CALLVALUE DUP1 ISZERO PUSH2 0x346 JUMPI PUSH0 PUSH0 REVERT JUMPDEST POP PUSH2 0x361 PUSH1 0x4 DUP1 CALLDATASIZE SUB DUP2 ADD SWAP1 PUSH2 0x35C SWAP2 SWAP1 PUSH2 0x46B5 JUMP JUMPDEST PUSH2 0xCF1 JUMP JUMPDEST PUSH1 0x40 MLOAD PUSH2 0x36E SWAP2 SWAP1 PUSH2 0x44A9 JUMP JUMPDEST PUSH1 0x40 MLOAD DUP1 SWAP2 SUB SWAP1 RETURN JUMPDEST CALLVALUE DUP1 ISZERO PUSH2 0x382 JUMPI PUSH0 PUSH0 REVERT JUMPDEST POP PUSH2 0x38B PUSH2 0x1261 JUMP JUMPDEST STOP JUMPDEST CALLVALUE DUP1 ISZERO PUSH2 0x398 JUMPI PUSH0 PUSH0 REVERT JUMPDEST POP PUSH2 0x3A1 PUSH2 0x1273 JUMP JUMPDEST PUSH1 0x40 MLOAD PUSH2 0x3AE SWAP2 SWAP1 PUSH2 0x414A JUMP JUMPDEST PUSH1 0x40 MLOAD DUP1 SWAP2 SUB SWAP1 RETURN JUMPDEST CALLVALUE DUP1 ISZERO PUSH2 0x3C2 JUMPI PUSH0 PUSH0 REVERT JUMPDEST POP PUSH2 0x3CB PUSH2 0x127E JUMP JUMPDEST PUSH1 0x40 MLOAD PUSH2 0x3D8 SWAP2 SWAP1 PUSH2 0x472C JUMP JUMPDEST PUSH1 0x40 MLOAD DUP1 SWAP2 SUB SWAP1 RETURN JUMPDEST CALLVALUE DUP1 ISZERO PUSH2 0x3EC JUMPI PUSH0 PUSH0 REVERT JUMPDEST POP PUSH2 0x407 PUSH1 0x4 DUP1 CALLDATASIZE SUB DUP2 ADD SWAP1 PUSH2 0x402 SWAP2 SWAP1 PUSH2 0x4745 JUMP JUMPDEST PUSH2 0x12A5 JUMP JUMPDEST STOP JUMPDEST CALLVALUE DUP1 ISZERO PUSH2 0x414 JUMPI PUSH0 PUSH0 REVERT JUMPDEST POP PUSH2 0x42F PUSH1 0x4 DUP1 CALLDATASIZE SUB DUP2 ADD SWAP1 PUSH2 0x42A SWAP2 SWAP1 PUSH2 0x4770 JUMP JUMPDEST PUSH2 0x1323 JUMP JUMPDEST PUSH1 0x40 MLOAD PUSH2 0x43C SWAP2 SWAP1 PUSH2 0x414A JUMP JUMPDEST PUSH1 0x40 MLOAD DUP1 SWAP2 SUB SWAP1 RETURN JUMPDEST CALLVALUE DUP1 ISZERO PUSH2 0x450 JUMPI PUSH0 PUSH0 REVERT JUMPDEST POP PUSH2 0x46B PUSH1 0x4 DUP1 CALLDATASIZE SUB DUP2 ADD SWAP1 PUSH2 0x466 SWAP2 SWAP1 PUSH2 0x4393 JUMP JUMPDEST PUSH2 0x136C JUMP JUMPDEST PUSH1 0x40 MLOAD PUSH2 0x478 SWAP2 SWAP1 PUSH2 0x44A9 JUMP JUMPDEST PUSH1 0x40 MLOAD DUP1 SWAP2 SUB SWAP1 RETURN JUMPDEST CALLVALUE DUP1 ISZERO PUSH2 0x48C JUMPI PUSH0 PUSH0 REVERT JUMPDEST POP PUSH2 0x4A7 PUSH1 0x4 DUP1 CALLDATASIZE SUB DUP2 ADD SWAP1 PUSH2 0x4A2 SWAP2 SWAP1 PUSH2 0x4914 JUMP JUMPDEST PUSH2 0x1DD4 JUMP JUMPDEST STOP JUMPDEST CALLVALUE DUP1 ISZERO PUSH2 0x4B4 JUMPI PUSH0 PUSH0 REVERT JUMPDEST POP PUSH2 0x4CF PUSH1 0x4 DUP1 CALLDATASIZE SUB DUP2 ADD SWAP1 PUSH2 0x4CA SWAP2 SWAP1 PUSH2 0x49A7 JUMP JUMPDEST PUSH2 0x1E51 JUMP JUMPDEST PUSH1 0x40 MLOAD PUSH2 0x4E2 SWAP8 SWAP7 SWAP6 SWAP5 SWAP4 SWAP3 SWAP2 SWAP1 PUSH2 0x49E5 JUMP JUMPDEST PUSH1 0x40 MLOAD DUP1 SWAP2 SUB SWAP1 RETURN JUMPDEST CALLVALUE DUP1 ISZERO PUSH2 0x4F6 JUMPI PUSH0 PUSH0 REVERT JUMPDEST POP PUSH2 0x511 PUSH1 0x4 DUP1 CALLDATASIZE SUB DUP2 ADD SWAP1 PUSH2 0x50C SWAP2 SWAP1 PUSH2 0x46B5 JUMP JUMPDEST PUSH2 0x1EFF JUMP JUMPDEST PUSH1 0x40 MLOAD PUSH2 0x51E SWAP2 SWAP1 PUSH2 0x44A9 JUMP JUMPDEST PUSH1 0x40 MLOAD DUP1 SWAP2 SUB SWAP1 RETURN JUMPDEST CALLVALUE DUP1 ISZERO PUSH2 0x532 JUMPI PUSH0 PUSH0 REVERT JUMPDEST POP PUSH2 0x54D PUSH1 0x4 DUP1 CALLDATASIZE SUB DUP2 ADD SWAP1 PUSH2 0x548 SWAP2 SWAP1 PUSH2 0x4A52 JUMP JUMPDEST PUSH2 0x27BE JUMP JUMPDEST PUSH1 0x40 MLOAD PUSH2 0x55A SWAP2 SWAP1 PUSH2 0x44A9 JUMP JUMPDEST PUSH1 0x40 MLOAD DUP1 SWAP2 SUB SWAP1 RETURN JUMPDEST CALLVALUE DUP1 ISZERO PUSH2 0x56E JUMPI PUSH0 PUSH0 REVERT JUMPDEST POP PUSH2 0x589 PUSH1 0x4 DUP1 CALLDATASIZE SUB DUP2 ADD SWAP1 PUSH2 0x584 SWAP2 SWAP1 PUSH2 0x4393 JUMP JUMPDEST PUSH2 0x29E4 JUMP JUMPDEST PUSH1 0x40 MLOAD PUSH2 0x597 SWAP3 SWAP2 SWAP1 PUSH2 0x4C30 JUMP JUMPDEST PUSH1 0x40 MLOAD DUP1 SWAP2 SUB SWAP1 RETURN JUMPDEST PUSH2 0x5BA PUSH1 0x4 DUP1 CALLDATASIZE SUB DUP2 ADD SWAP1 PUSH2 0x5B5 SWAP2 SWAP1 PUSH2 0x4C5E JUMP JUMPDEST PUSH2 0x2D3E JUMP JUMPDEST PUSH1 0x40 MLOAD PUSH2 0x5C7 SWAP2 SWAP1 PUSH2 0x44A9 JUMP JUMPDEST PUSH1 0x40 MLOAD DUP1 SWAP2 SUB SWAP1 RETURN JUMPDEST CALLVALUE DUP1 ISZERO PUSH2 0x5DB JUMPI PUSH0 PUSH0 REVERT JUMPDEST POP PUSH2 0x5E4 PUSH2 0x3C9F JUMP JUMPDEST PUSH1 0x40 MLOAD PUSH2 0x5F1 SWAP2 SWAP1 PUSH2 0x4CF1 JUMP JUMPDEST PUSH1 0x40 MLOAD DUP1 SWAP2 SUB SWAP1 RETURN JUMPDEST CALLVALUE DUP1 ISZERO PUSH2 0x605 JUMPI PUSH0 PUSH0 REVERT JUMPDEST POP PUSH2 0x620 PUSH1 0x4 DUP1 CALLDATASIZE SUB DUP2 ADD SWAP1 PUSH2 0x61B SWAP2 SWAP1 PUSH2 0x4393 JUMP JUMPDEST PUSH2 0x3CB1 JUMP JUMPDEST PUSH1 0x40 MLOAD PUSH2 0x631 SWAP6 SWAP5 SWAP4 SWAP3 SWAP2 SWAP1 PUSH2 0x4D0A JUMP JUMPDEST PUSH1 0x40 MLOAD DUP1 SWAP2 SUB SWAP1 RETURN JUMPDEST CALLVALUE DUP1 ISZERO PUSH2 0x645 JUMPI PUSH0 PUSH0 REVERT JUMPDEST POP PUSH2 0x660 PUSH1 0x4 DUP1 CALLDATASIZE SUB DUP2 ADD SWAP1 PUSH2 0x65B SWAP2 SWAP1 PUSH2 0x44C2 JUMP JUMPDEST PUSH2 0x3D25 JUMP JUMPDEST STOP JUMPDEST PUSH0 PUSH2 0x66B PUSH2 0x3DA9 JUMP JUMPDEST SELFBALANCE SWAP1 POP SWAP1 JUMP JUMPDEST PUSH2 0x679 PUSH2 0x3DA9 JUMP JUMPDEST PUSH0 SELFBALANCE SWAP1 POP PUSH0 PUSH2 0x686 PUSH2 0x127E JUMP JUMPDEST PUSH20 0xFFFFFFFFFFFFFFFFFFFFFFFFFFFFFFFFFFFFFFFF AND DUP3 PUSH1 0x40 MLOAD PUSH2 0x6A9 SWAP1 PUSH2 0x4D88 JUMP JUMPDEST PUSH0 PUSH1 0x40 MLOAD DUP1 DUP4 SUB DUP2 DUP6 DUP8 GAS CALL SWAP3 POP POP POP RETURNDATASIZE DUP1 PUSH0 DUP2 EQ PUSH2 0x6E3 JUMPI PUSH1 0x40 MLOAD SWAP2 POP PUSH1 0x1F NOT PUSH1 0x3F RETURNDATASIZE ADD AND DUP3 ADD PUSH1 0x40 MSTORE RETURNDATASIZE DUP3 MSTORE RETURNDATASIZE PUSH0 PUSH1 0x20 DUP5 ADD RETURNDATACOPY PUSH2 0x6E8 JUMP JUMPDEST PUSH1 0x60 SWAP2 POP JUMPDEST POP POP SWAP1 POP DUP1 PUSH2 0x72C JUMPI PUSH1 0x40 MLOAD PUSH32 0x8C379A000000000000000000000000000000000000000000000000000000000 DUP2 MSTORE PUSH1 0x4 ADD PUSH2 0x723 SWAP1 PUSH2 0x4DF6 JUMP JUMPDEST PUSH1 0x40 MLOAD DUP1 SWAP2 SUB SWAP1 REVERT JUMPDEST POP POP JUMP JUMPDEST PUSH2 0x738 PUSH2 0x3DA9 JUMP JUMPDEST PUSH2 0x740 PUSH2 0x3E30 JUMP JUMPDEST JUMP JUMPDEST PUSH1 0x5 PUSH1 0x20 MSTORE DUP1 PUSH0 MSTORE PUSH1 0x40 PUSH0 KECCAK256 PUSH0 SWAP2 POP SWAP1 POP DUP1 PUSH0 ADD PUSH0 SWAP1 SLOAD SWAP1 PUSH2 0x100 EXP SWAP1 DIV PUSH20 0xFFFFFFFFFFFFFFFFFFFFFFFFFFFFFFFFFFFFFFFF AND SWAP1 DUP1 PUSH1 0x1 ADD SLOAD SWAP1 DUP1 PUSH1 0x2 ADD PUSH0 SWAP1 SLOAD SWAP1 PUSH2 0x100 EXP SWAP1 DIV PUSH20 0xFFFFFFFFFFFFFFFFFFFFFFFFFFFFFFFFFFFFFFFF AND SWAP1 DUP1 PUSH1 0x3 ADD SLOAD SWAP1 DUP1 PUSH1 0x4 ADD PUSH0 SWAP1 SLOAD SWAP1 PUSH2 0x100 EXP SWAP1 DIV PUSH20 0xFFFFFFFFFFFFFFFFFFFFFFFFFFFFFFFFFFFFFFFF AND SWAP1 DUP1 PUSH1 0x5 ADD PUSH0 SWAP1 SLOAD SWAP1 PUSH2 0x100 EXP SWAP1 DIV PUSH20 0xFFFFFFFFFFFFFFFFFFFFFFFFFFFFFFFFFFFFFFFF AND SWAP1 DUP1 PUSH1 0x6 ADD PUSH0 SWAP1 SLOAD SWAP1 PUSH2 0x100 EXP SWAP1 DIV PUSH20 0xFFFFFFFFFFFFFFFFFFFFFFFFFFFFFFFFFFFFFFFF AND SWAP1 DUP1 PUSH1 0x6 ADD PUSH1 0x14 SWAP1 SLOAD SWAP1 PUSH2 0x100 EXP SWAP1 DIV PUSH1 0xFF AND SWAP1 DUP1 PUSH1 0x7 ADD SLOAD SWAP1 POP DUP10 JUMP JUMPDEST PUSH2 0x83C PUSH2 0x3DA9 JUMP JUMPDEST PUSH0 DUP3 PUSH20 0xFFFFFFFFFFFFFFFFFFFFFFFFFFFFFFFFFFFFFFFF AND DUP3 PUSH1 0x40 MLOAD PUSH2 0x861 SWAP1 PUSH2 0x4D88 JUMP JUMPDEST PUSH0 PUSH1 0x40 MLOAD DUP1 DUP4 SUB DUP2 DUP6 DUP8 GAS CALL SWAP3 POP POP POP RETURNDATASIZE DUP1 PUSH0 DUP2 EQ PUSH2 0x89B JUMPI PUSH1 0x40 MLOAD SWAP2 POP PUSH1 0x1F NOT PUSH1 0x3F RETURNDATASIZE ADD AND DUP3 ADD PUSH1 0x40 MSTORE RETURNDATASIZE DUP3 MSTORE RETURNDATASIZE PUSH0 PUSH1 0x20 DUP5 ADD RETURNDATACOPY PUSH2 0x8A0 JUMP JUMPDEST PUSH1 0x60 SWAP2 POP JUMPDEST POP POP SWAP1 POP DUP1 PUSH2 0x8E4 JUMPI PUSH1 0x40 MLOAD PUSH32 0x8C379A000000000000000000000000000000000000000000000000000000000 DUP2 MSTORE PUSH1 0x4 ADD PUSH2 0x8DB SWAP1 PUSH2 0x4DF6 JUMP JUMPDEST PUSH1 0x40 MLOAD DUP1 SWAP2 SUB SWAP1 REVERT JUMPDEST POP POP POP JUMP JUMPDEST PUSH2 0x8F1 PUSH2 0x405C JUMP JUMPDEST PUSH0 PUSH1 0x3 PUSH0 DUP6 PUSH20 0xFFFFFFFFFFFFFFFFFFFFFFFFFFFFFFFFFFFFFFFF AND PUSH20 0xFFFFFFFFFFFFFFFFFFFFFFFFFFFFFFFFFFFFFFFF AND DUP2 MSTORE PUSH1 0x20 ADD SWAP1 DUP2 MSTORE PUSH1 0x20 ADD PUSH0 KECCAK256 PUSH0 DUP5 DUP2 MSTORE PUSH1 0x20 ADD SWAP1 DUP2 MSTORE PUSH1 0x20 ADD PUSH0 KECCAK256 PUSH1 0x40 MLOAD DUP1 PUSH1 0xA0 ADD PUSH1 0x40 MSTORE SWAP1 DUP2 PUSH0 DUP3 ADD PUSH0 SWAP1 SLOAD SWAP1 PUSH2 0x100 EXP SWAP1 DIV PUSH20 0xFFFFFFFFFFFFFFFFFFFFFFFFFFFFFFFFFFFFFFFF AND PUSH20 0xFFFFFFFFFFFFFFFFFFFFFFFFFFFFFFFFFFFFFFFF AND PUSH20 0xFFFFFFFFFFFFFFFFFFFFFFFFFFFFFFFFFFFFFFFF AND DUP2 MSTORE PUSH1 0x20 ADD PUSH1 0x1 DUP3 ADD SLOAD DUP2 MSTORE PUSH1 0x20 ADD PUSH1 0x2 DUP3 ADD PUSH0 SWAP1 SLOAD SWAP1 PUSH2 0x100 EXP SWAP1 DIV PUSH1 0xFF AND PUSH1 0xFF AND PUSH1 0xFF AND DUP2 MSTORE PUSH1 0x20 ADD PUSH1 0x3 DUP3 ADD SLOAD DUP2 MSTORE PUSH1 0x20 ADD PUSH1 0x4 DUP3 ADD PUSH0 SWAP1 SLOAD SWAP1 PUSH2 0x100 EXP SWAP1 DIV PUSH1 0xFF AND ISZERO ISZERO ISZERO ISZERO DUP2 MSTORE POP POP SWAP1 POP PUSH0 PUSH2 0xA09 DUP3 PUSH1 0x20 ADD MLOAD PUSH1 0x2 PUSH0 SWAP1 SLOAD SWAP1 PUSH2 0x100 EXP SWAP1 DIV PUSH1 0xFF AND PUSH1 0xFF AND PUSH2 0x1323 JUMP JUMPDEST SWAP1 POP PUSH0 PUSH2 0xA21 DUP4 PUSH1 0x20 ADD MLOAD DUP5 PUSH1 0x40 ADD MLOAD PUSH1 0xFF AND PUSH2 0x1323 JUMP JUMPDEST SWAP1 POP PUSH0 PUSH2 0xA5E DUP5 PUSH1 0x20 ADD MLOAD DUP6 PUSH1 0x40 ADD MLOAD PUSH1 0x2 PUSH0 SWAP1 SLOAD SWAP1 PUSH2 0x100 EXP SWAP1 DIV PUSH1 0xFF AND PUSH1 0x64 PUSH2 0xA4C SWAP2 SWAP1 PUSH2 0x4E41 JUMP JUMPDEST PUSH2 0xA56 SWAP2 SWAP1 PUSH2 0x4E41 JUMP JUMPDEST PUSH1 0xFF AND PUSH2 0x1323 JUMP JUMPDEST SWAP1 POP PUSH1 0x40 MLOAD DUP1 PUSH1 0x60 ADD PUSH1 0x40 MSTORE DUP1 DUP5 DUP2 MSTORE PUSH1 0x20 ADD DUP4 DUP2 MSTORE PUSH1 0x20 ADD DUP3 DUP2 MSTORE POP SWAP5 POP POP POP POP POP SWAP3 SWAP2 POP POP JUMP JUMPDEST PUSH0 PUSH0 PUSH1 0x14 SWAP1 SLOAD SWAP1 PUSH2 0x100 EXP SWAP1 DIV PUSH1 0xFF AND SWAP1 POP SWAP1 JUMP JUMPDEST PUSH0 PUSH1 0x3 PUSH0 DUP5 PUSH20 0xFFFFFFFFFFFFFFFFFFFFFFFFFFFFFFFFFFFFFFFF AND PUSH20 0xFFFFFFFFFFFFFFFFFFFFFFFFFFFFFFFFFFFFFFFF AND DUP2 MSTORE PUSH1 0x20 ADD SWAP1 DUP2 MSTORE PUSH1 0x20 ADD PUSH0 KECCAK256 PUSH0 DUP4 DUP2 MSTORE PUSH1 0x20 ADD SWAP1 DUP2 MSTORE PUSH1 0x20 ADD PUSH0 KECCAK256 PUSH1 0x4 ADD PUSH0 SWAP1 SLOAD SWAP1 PUSH2 0x100 EXP SWAP1 DIV PUSH1 0xFF AND SWAP1 POP SWAP3 SWAP2 POP POP JUMP JUMPDEST PUSH2 0xB09 PUSH2 0x3DA9 JUMP JUMPDEST PUSH2 0xB12 PUSH0 PUSH2 0x3E91 JUMP JUMPDEST JUMP JUMPDEST PUSH0 PUSH1 0x60 PUSH1 0x4 PUSH0 DUP5 PUSH20 0xFFFFFFFFFFFFFFFFFFFFFFFFFFFFFFFFFFFFFFFF AND PUSH20 0xFFFFFFFFFFFFFFFFFFFFFFFFFFFFFFFFFFFFFFFF AND DUP2 MSTORE PUSH1 0x20 ADD SWAP1 DUP2 MSTORE PUSH1 0x20 ADD PUSH0 KECCAK256 DUP1 SLOAD SWAP1 POP PUSH1 0x4 PUSH0 DUP6 PUSH20 0xFFFFFFFFFFFFFFFFFFFFFFFFFFFFFFFFFFFFFFFF AND PUSH20 0xFFFFFFFFFFFFFFFFFFFFFFFFFFFFFFFFFFFFFFFF AND DUP2 MSTORE PUSH1 0x20 ADD SWAP1 DUP2 MSTORE PUSH1 0x20 ADD PUSH0 KECCAK256 DUP1 DUP1 SLOAD DUP1 PUSH1 0x20 MUL PUSH1 0x20 ADD PUSH1 0x40 MLOAD SWAP1 DUP2 ADD PUSH1 0x40 MSTORE DUP1 SWAP3 SWAP2 SWAP1 DUP2 DUP2 MSTORE PUSH1 0x20 ADD PUSH0 SWAP1 JUMPDEST DUP3 DUP3 LT ISZERO PUSH2 0xCE2 JUMPI DUP4 DUP3 SWAP1 PUSH0 MSTORE PUSH1 0x20 PUSH0 KECCAK256 SWAP1 PUSH1 0x7 MUL ADD PUSH1 0x40 MLOAD DUP1 PUSH1 0xE0 ADD PUSH1 0x40 MSTORE SWAP1 DUP2 PUSH0 DUP3 ADD PUSH0 SWAP1 SLOAD SWAP1 PUSH2 0x100 EXP SWAP1 DIV PUSH20 0xFFFFFFFFFFFFFFFFFFFFFFFFFFFFFFFFFFFFFFFF AND PUSH20 0xFFFFFFFFFFFFFFFFFFFFFFFFFFFFFFFFFFFFFFFF AND PUSH20 0xFFFFFFFFFFFFFFFFFFFFFFFFFFFFFFFFFFFFFFFF AND DUP2 MSTORE PUSH1 0x20 ADD PUSH1 0x1 DUP3 ADD SLOAD DUP2 MSTORE PUSH1 0x20 ADD PUSH1 0x2 DUP3 ADD PUSH0 SWAP1 SLOAD SWAP1 PUSH2 0x100 EXP SWAP1 DIV PUSH20 0xFFFFFFFFFFFFFFFFFFFFFFFFFFFFFFFFFFFFFFFF AND PUSH20 0xFFFFFFFFFFFFFFFFFFFFFFFFFFFFFFFFFFFFFFFF AND PUSH20 0xFFFFFFFFFFFFFFFFFFFFFFFFFFFFFFFFFFFFFFFF AND DUP2 MSTORE PUSH1 0x20 ADD PUSH1 0x3 DUP3 ADD SLOAD DUP2 MSTORE PUSH1 0x20 ADD PUSH1 0x4 DUP3 ADD PUSH0 SWAP1 SLOAD SWAP1 PUSH2 0x100 EXP SWAP1 DIV PUSH1 0xFF AND PUSH1 0xFF AND PUSH1 0xFF AND DUP2 MSTORE PUSH1 0x20 ADD PUSH1 0x5 DUP3 ADD SLOAD DUP2 MSTORE PUSH1 0x20 ADD PUSH1 0x6 DUP3 ADD PUSH0 SWAP1 SLOAD SWAP1 PUSH2 0x100 EXP SWAP1 DIV PUSH1 0xFF AND ISZERO ISZERO ISZERO ISZERO DUP2 MSTORE POP POP DUP2 MSTORE PUSH1 0x20 ADD SWAP1 PUSH1 0x1 ADD SWAP1 PUSH2 0xBB5 JUMP JUMPDEST POP POP POP POP SWAP1 POP SWAP2 POP SWAP2 POP SWAP2 POP SWAP2 JUMP JUMPDEST PUSH0 PUSH2 0xCFA PUSH2 0x3F52 JUMP JUMPDEST PUSH0 DUP7 SWAP1 POP PUSH2 0xD06 PUSH2 0x3F93 JUMP JUMPDEST PUSH20 0xFFFFFFFFFFFFFFFFFFFFFFFFFFFFFFFFFFFFFFFF AND DUP2 PUSH20 0xFFFFFFFFFFFFFFFFFFFFFFFFFFFFFFFFFFFFFFFF AND PUSH4 0x217B2270 DUP9 PUSH1 0x40 MLOAD DUP3 PUSH4 0xFFFFFFFF AND PUSH1 0xE0 SHL DUP2 MSTORE PUSH1 0x4 ADD PUSH2 0xD55 SWAP2 SWAP1 PUSH2 0x4E75 JUMP JUMPDEST PUSH1 0x20 PUSH1 0x40 MLOAD DUP1 DUP4 SUB DUP2 DUP7 GAS STATICCALL ISZERO DUP1 ISZERO PUSH2 0xD70 JUMPI RETURNDATASIZE PUSH0 PUSH0 RETURNDATACOPY RETURNDATASIZE PUSH0 REVERT JUMPDEST POP POP POP POP PUSH1 0x40 MLOAD RETURNDATASIZE PUSH1 0x1F NOT PUSH1 0x1F DUP3 ADD AND DUP3 ADD DUP1 PUSH1 0x40 MSTORE POP DUP2 ADD SWAP1 PUSH2 0xD94 SWAP2 SWAP1 PUSH2 0x4EA2 JUMP JUMPDEST PUSH20 0xFFFFFFFFFFFFFFFFFFFFFFFFFFFFFFFFFFFFFFFF AND EQ PUSH2 0xDE1 JUMPI PUSH1 0x40 MLOAD PUSH32 0x82B4290000000000000000000000000000000000000000000000000000000000 DUP2 MSTORE PUSH1 0x4 ADD PUSH1 0x40 MLOAD DUP1 SWAP2 SUB SWAP1 REVERT JUMPDEST DUP1 PUSH20 0xFFFFFFFFFFFFFFFFFFFFFFFFFFFFFFFFFFFFFFFF AND PUSH4 0x2A3654A4 ADDRESS DUP9 PUSH1 0x40 MLOAD DUP4 PUSH4 0xFFFFFFFF AND PUSH1 0xE0 SHL DUP2 MSTORE PUSH1 0x4 ADD PUSH2 0xE1C SWAP3 SWAP2 SWAP1 PUSH2 0x4ECD JUMP JUMPDEST PUSH1 0x20 PUSH1 0x40 MLOAD DUP1 DUP4 SUB DUP2 DUP7 GAS STATICCALL ISZERO DUP1 ISZERO PUSH2 0xE37 JUMPI RETURNDATASIZE PUSH0 PUSH0 RETURNDATACOPY RETURNDATASIZE PUSH0 REVERT JUMPDEST POP POP POP POP PUSH1 0x40 MLOAD RETURNDATASIZE PUSH1 0x1F NOT PUSH1 0x1F DUP3 ADD AND DUP3 ADD DUP1 PUSH1 0x40 MSTORE POP DUP2 ADD SWAP1 PUSH2 0xE5B SWAP2 SWAP1 PUSH2 0x4F08 JUMP JUMPDEST PUSH2 0xE9C JUMPI ADDRESS PUSH1 0x40 MLOAD PUSH32 0x76C6C93A00000000000000000000000000000000000000000000000000000000 DUP2 MSTORE PUSH1 0x4 ADD PUSH2 0xE93 SWAP2 SWAP1 PUSH2 0x472C JUMP JUMPDEST PUSH1 0x40 MLOAD DUP1 SWAP2 SUB SWAP1 REVERT JUMPDEST PUSH1 0x2 PUSH0 SWAP1 SLOAD SWAP1 PUSH2 0x100 EXP SWAP1 DIV PUSH1 0xFF AND PUSH1 0x64 PUSH2 0xEB7 SWAP2 SWAP1 PUSH2 0x4E41 JUMP JUMPDEST PUSH1 0xFF AND DUP4 PUSH1 0xFF AND LT PUSH2 0xEFE JUMPI PUSH1 0x40 MLOAD PUSH32 0x8C379A000000000000000000000000000000000000000000000000000000000 DUP2 MSTORE PUSH1 0x4 ADD PUSH2 0xEF5 SWAP1 PUSH2 0x4FA3 JUMP JUMPDEST PUSH1 0x40 MLOAD DUP1 SWAP2 SUB SWAP1 REVERT JUMPDEST PUSH1 0x40 MLOAD DUP1 PUSH1 0xA0 ADD PUSH1 0x40 MSTORE DUP1 DUP7 PUSH20 0xFFFFFFFFFFFFFFFFFFFFFFFFFFFFFFFFFFFFFFFF AND DUP2 MSTORE PUSH1 0x20 ADD DUP6 DUP2 MSTORE PUSH1 0x20 ADD DUP5 PUSH1 0xFF AND DUP2 MSTORE PUSH1 0x20 ADD TIMESTAMP DUP2 MSTORE PUSH1 0x20 ADD PUSH1 0x1 ISZERO ISZERO DUP2 MSTORE POP PUSH1 0x3 PUSH0 DUP10 PUSH20 0xFFFFFFFFFFFFFFFFFFFFFFFFFFFFFFFFFFFFFFFF AND PUSH20 0xFFFFFFFFFFFFFFFFFFFFFFFFFFFFFFFFFFFFFFFF AND DUP2 MSTORE PUSH1 0x20 ADD SWAP1 DUP2 MSTORE PUSH1 0x20 ADD PUSH0 KECCAK256 PUSH0 DUP9 DUP2 MSTORE PUSH1 0x20 ADD SWAP1 DUP2 MSTORE PUSH1 0x20 ADD PUSH0 KECCAK256 PUSH0 DUP3 ADD MLOAD DUP2 PUSH0 ADD PUSH0 PUSH2 0x100 EXP DUP2 SLOAD DUP2 PUSH20 0xFFFFFFFFFFFFFFFFFFFFFFFFFFFFFFFFFFFFFFFF MUL NOT AND SWAP1 DUP4 PUSH20 0xFFFFFFFFFFFFFFFFFFFFFFFFFFFFFFFFFFFFFFFF AND MUL OR SWAP1 SSTORE POP PUSH1 0x20 DUP3 ADD MLOAD DUP2 PUSH1 0x1 ADD SSTORE PUSH1 0x40 DUP3 ADD MLOAD DUP2 PUSH1 0x2 ADD PUSH0 PUSH2 0x100 EXP DUP2 SLOAD DUP2 PUSH1 0xFF MUL NOT AND SWAP1 DUP4 PUSH1 0xFF AND MUL OR SWAP1 SSTORE POP PUSH1 0x60 DUP3 ADD MLOAD DUP2 PUSH1 0x3 ADD SSTORE PUSH1 0x80 DUP3 ADD MLOAD DUP2 PUSH1 0x4 ADD PUSH0 PUSH2 0x100 EXP DUP2 SLOAD DUP2 PUSH1 0xFF MUL NOT AND SWAP1 DUP4 ISZERO ISZERO MUL OR SWAP1 SSTORE POP SWAP1 POP POP PUSH1 0x4 PUSH0 PUSH2 0x1032 PUSH2 0x3F93 JUMP JUMPDEST PUSH20 0xFFFFFFFFFFFFFFFFFFFFFFFFFFFFFFFFFFFFFFFF AND PUSH20 0xFFFFFFFFFFFFFFFFFFFFFFFFFFFFFFFFFFFFFFFF AND DUP2 MSTORE PUSH1 0x20 ADD SWAP1 DUP2 MSTORE PUSH1 0x20 ADD PUSH0 KECCAK256 PUSH1 0x40 MLOAD DUP1 PUSH1 0xE0 ADD PUSH1 0x40 MSTORE DUP1 DUP10 PUSH20 0xFFFFFFFFFFFFFFFFFFFFFFFFFFFFFFFFFFFFFFFF AND DUP2 MSTORE PUSH1 0x20 ADD DUP9 DUP2 MSTORE PUSH1 0x20 ADD DUP8 PUSH20 0xFFFFFFFFFFFFFFFFFFFFFFFFFFFFFFFFFFFFFFFF AND DUP2 MSTORE PUSH1 0x20 ADD DUP7 DUP2 MSTORE PUSH1 0x20 ADD DUP6 PUSH1 0xFF AND DUP2 MSTORE PUSH1 0x20 ADD TIMESTAMP DUP2 MSTORE PUSH1 0x20 ADD PUSH1 0x1 ISZERO ISZERO DUP2 MSTORE POP SWAP1 DUP1 PUSH1 0x1 DUP2 SLOAD ADD DUP1 DUP3 SSTORE DUP1 SWAP2 POP POP PUSH1 0x1 SWAP1 SUB SWAP1 PUSH0 MSTORE PUSH1 0x20 PUSH0 KECCAK256 SWAP1 PUSH1 0x7 MUL ADD PUSH0 SWAP1 SWAP2 SWAP1 SWAP2 SWAP1 SWAP2 POP PUSH0 DUP3 ADD MLOAD DUP2 PUSH0 ADD PUSH0 PUSH2 0x100 EXP DUP2 SLOAD DUP2 PUSH20 0xFFFFFFFFFFFFFFFFFFFFFFFFFFFFFFFFFFFFFFFF MUL NOT AND SWAP1 DUP4 PUSH20 0xFFFFFFFFFFFFFFFFFFFFFFFFFFFFFFFFFFFFFFFF AND MUL OR SWAP1 SSTORE POP PUSH1 0x20 DUP3 ADD MLOAD DUP2 PUSH1 0x1 ADD SSTORE PUSH1 0x40 DUP3 ADD MLOAD DUP2 PUSH1 0x2 ADD PUSH0 PUSH2 0x100 EXP DUP2 SLOAD DUP2 PUSH20 0xFFFFFFFFFFFFFFFFFFFFFFFFFFFFFFFFFFFFFFFF MUL NOT AND SWAP1 DUP4 PUSH20 0xFFFFFFFFFFFFFFFFFFFFFFFFFFFFFFFFFFFFFFFF AND MUL OR SWAP1 SSTORE POP PUSH1 0x60 DUP3 ADD MLOAD DUP2 PUSH1 0x3 ADD SSTORE PUSH1 0x80 DUP3 ADD MLOAD DUP2 PUSH1 0x4 ADD PUSH0 PUSH2 0x100 EXP DUP2 SLOAD DUP2 PUSH1 0xFF MUL NOT AND SWAP1 DUP4 PUSH1 0xFF AND MUL OR SWAP1 SSTORE POP PUSH1 0xA0 DUP3 ADD MLOAD DUP2 PUSH1 0x5 ADD SSTORE PUSH1 0xC0 DUP3 ADD MLOAD DUP2 PUSH1 0x6 ADD PUSH0 PUSH2 0x100 EXP DUP2 SLOAD DUP2 PUSH1 0xFF MUL NOT AND SWAP1 DUP4 ISZERO ISZERO MUL OR SWAP1 SSTORE POP POP POP PUSH2 0x11E7 PUSH2 0x3F93 JUMP JUMPDEST PUSH20 0xFFFFFFFFFFFFFFFFFFFFFFFFFFFFFFFFFFFFFFFF AND DUP7 DUP9 PUSH20 0xFFFFFFFFFFFFFFFFFFFFFFFFFFFFFFFFFFFFFFFF AND PUSH32 0xB20CA2EE28A0256EC25AA29B97566E4F45CD9A901CBD867038D58F314B9FA370 DUP9 DUP9 TIMESTAMP PUSH1 0x1 PUSH1 0x40 MLOAD PUSH2 0x124B SWAP5 SWAP4 SWAP3 SWAP2 SWAP1 PUSH2 0x4FC1 JUMP JUMPDEST PUSH1 0x40 MLOAD DUP1 SWAP2 SUB SWAP1 LOG4 PUSH1 0x1 SWAP2 POP POP SWAP6 SWAP5 POP POP POP POP POP JUMP JUMPDEST PUSH2 0x1269 PUSH2 0x3DA9 JUMP JUMPDEST PUSH2 0x1271 PUSH2 0x3F9A JUMP JUMPDEST JUMP JUMPDEST PUSH1 0x1 DUP1 PUSH0 ADD SLOAD SWAP1 POP DUP2 JUMP JUMPDEST PUSH0 PUSH0 PUSH0 SWAP1 SLOAD SWAP1 PUSH2 0x100 EXP SWAP1 DIV PUSH20 0xFFFFFFFFFFFFFFFFFFFFFFFFFFFFFFFFFFFFFFFF AND SWAP1 POP SWAP1 JUMP JUMPDEST PUSH2 0x12AD PUSH2 0x3DA9 JUMP JUMPDEST PUSH1 0x64 PUSH1 0x2 PUSH0 SWAP1 SLOAD SWAP1 PUSH2 0x100 EXP SWAP1 DIV PUSH1 0xFF AND PUSH1 0xFF AND LT PUSH2 0x12CF JUMPI PUSH2 0x12CE PUSH2 0x5004 JUMP JUMPDEST JUMPDEST DUP1 PUSH1 0x2 PUSH0 PUSH2 0x100 EXP DUP2 SLOAD DUP2 PUSH1 0xFF MUL NOT AND SWAP1 DUP4 PUSH1 0xFF AND MUL OR SWAP1 SSTORE POP PUSH32 0x8C4D35E54A3F2EF1134138FD8EA3DAEE6A3C89E10D2665996BABDF70261E2C76 DUP2 PUSH1 0x40 MLOAD PUSH2 0x1318 SWAP2 SWAP1 PUSH2 0x506A JUMP JUMPDEST PUSH1 0x40 MLOAD DUP1 SWAP2 SUB SWAP1 LOG1 POP JUMP JUMPDEST PUSH0 PUSH0 DUP3 SUB PUSH2 0x1333 JUMPI PUSH0 SWAP1 POP PUSH2 0x1366 JUMP JUMPDEST PUSH1 0x64 DUP3 DUP5 PUSH2 0x1341 SWAP2 SWAP1 PUSH2 0x5083 JUMP JUMPDEST LT ISZERO PUSH2 0x134B JUMPI PUSH0 PUSH0 REVERT JUMPDEST PUSH1 0x64 DUP3 DUP5 PUSH2 0x1359 SWAP2 SWAP1 PUSH2 0x5083 JUMP JUMPDEST PUSH2 0x1363 SWAP2 SWAP1 PUSH2 0x50F1 JUMP JUMPDEST SWAP1 POP JUMPDEST SWAP3 SWAP2 POP POP JUMP JUMPDEST PUSH0 PUSH2 0x1375 PUSH2 0x3F52 JUMP JUMPDEST PUSH0 DUP4 SWAP1 POP PUSH2 0x1381 PUSH2 0x3F93 JUMP JUMPDEST PUSH20 0xFFFFFFFFFFFFFFFFFFFFFFFFFFFFFFFFFFFFFFFF AND DUP2 PUSH20 0xFFFFFFFFFFFFFFFFFFFFFFFFFFFFFFFFFFFFFFFF AND PUSH4 0x217B2270 DUP6 PUSH1 0x40 MLOAD DUP3 PUSH4 0xFFFFFFFF AND PUSH1 0xE0 SHL DUP2 MSTORE PUSH1 0x4 ADD PUSH2 0x13D0 SWAP2 SWAP1 PUSH2 0x4E75 JUMP JUMPDEST PUSH1 0x20 PUSH1 0x40 MLOAD DUP1 DUP4 SUB DUP2 DUP7 GAS STATICCALL ISZERO DUP1 ISZERO PUSH2 0x13EB JUMPI RETURNDATASIZE PUSH0 PUSH0 RETURNDATACOPY RETURNDATASIZE PUSH0 REVERT JUMPDEST POP POP POP POP PUSH1 0x40 MLOAD RETURNDATASIZE PUSH1 0x1F NOT PUSH1 0x1F DUP3 ADD AND DUP3 ADD DUP1 PUSH1 0x40 MSTORE POP DUP2 ADD SWAP1 PUSH2 0x140F SWAP2 SWAP1 PUSH2 0x4EA2 JUMP JUMPDEST PUSH20 0xFFFFFFFFFFFFFFFFFFFFFFFFFFFFFFFFFFFFFFFF AND EQ PUSH2 0x145C JUMPI PUSH1 0x40 MLOAD PUSH32 0x82B4290000000000000000000000000000000000000000000000000000000000 DUP2 MSTORE PUSH1 0x4 ADD PUSH1 0x40 MLOAD DUP1 SWAP2 SUB SWAP1 REVERT JUMPDEST PUSH1 0x3 PUSH0 DUP6 PUSH20 0xFFFFFFFFFFFFFFFFFFFFFFFFFFFFFFFFFFFFFFFF AND PUSH20 0xFFFFFFFFFFFFFFFFFFFFFFFFFFFFFFFFFFFFFFFF AND DUP2 MSTORE PUSH1 0x20 ADD SWAP1 DUP2 MSTORE PUSH1 0x20 ADD PUSH0 KECCAK256 PUSH0 DUP5 DUP2 MSTORE PUSH1 0x20 ADD SWAP1 DUP2 MSTORE PUSH1 0x20 ADD PUSH0 KECCAK256 PUSH1 0x4 ADD PUSH0 SWAP1 SLOAD SWAP1 PUSH2 0x100 EXP SWAP1 DIV PUSH1 0xFF AND PUSH2 0x14F7 JUMPI PUSH1 0x40 MLOAD PUSH32 0x8C379A000000000000000000000000000000000000000000000000000000000 DUP2 MSTORE PUSH1 0x4 ADD PUSH2 0x14EE SWAP1 PUSH2 0x5191 JUMP JUMPDEST PUSH1 0x40 MLOAD DUP1 SWAP2 SUB SWAP1 REVERT JUMPDEST PUSH1 0x40 MLOAD DUP1 PUSH1 0xA0 ADD PUSH1 0x40 MSTORE DUP1 PUSH0 PUSH20 0xFFFFFFFFFFFFFFFFFFFFFFFFFFFFFFFFFFFFFFFF AND DUP2 MSTORE PUSH1 0x20 ADD PUSH0 DUP2 MSTORE PUSH1 0x20 ADD PUSH0 PUSH1 0xFF AND DUP2 MSTORE PUSH1 0x20 ADD TIMESTAMP DUP2 MSTORE PUSH1 0x20 ADD PUSH0 ISZERO ISZERO DUP2 MSTORE POP PUSH1 0x3 PUSH0 DUP7 PUSH20 0xFFFFFFFFFFFFFFFFFFFFFFFFFFFFFFFFFFFFFFFF AND PUSH20 0xFFFFFFFFFFFFFFFFFFFFFFFFFFFFFFFFFFFFFFFF AND DUP2 MSTORE PUSH1 0x20 ADD SWAP1 DUP2 MSTORE PUSH1 0x20 ADD PUSH0 KECCAK256 PUSH0 DUP6 DUP2 MSTORE PUSH1 0x20 ADD SWAP1 DUP2 MSTORE PUSH1 0x20 ADD PUSH0 KECCAK256 PUSH0 DUP3 ADD MLOAD DUP2 PUSH0 ADD PUSH0 PUSH2 0x100 EXP DUP2 SLOAD DUP2 PUSH20 0xFFFFFFFFFFFFFFFFFFFFFFFFFFFFFFFFFFFFFFFF MUL NOT AND SWAP1 DUP4 PUSH20 0xFFFFFFFFFFFFFFFFFFFFFFFFFFFFFFFFFFFFFFFF AND MUL OR SWAP1 SSTORE POP PUSH1 0x20 DUP3 ADD MLOAD DUP2 PUSH1 0x1 ADD SSTORE PUSH1 0x40 DUP3 ADD MLOAD DUP2 PUSH1 0x2 ADD PUSH0 PUSH2 0x100 EXP DUP2 SLOAD DUP2 PUSH1 0xFF MUL NOT AND SWAP1 DUP4 PUSH1 0xFF AND MUL OR SWAP1 SSTORE POP PUSH1 0x60 DUP3 ADD MLOAD DUP2 PUSH1 0x3 ADD SSTORE PUSH1 0x80 DUP3 ADD MLOAD DUP2 PUSH1 0x4 ADD PUSH0 PUSH2 0x100 EXP DUP2 SLOAD DUP2 PUSH1 0xFF MUL NOT AND SWAP1 DUP4 ISZERO ISZERO MUL OR SWAP1 SSTORE POP SWAP1 POP POP PUSH2 0x1627 PUSH2 0x3F93 JUMP JUMPDEST PUSH20 0xFFFFFFFFFFFFFFFFFFFFFFFFFFFFFFFFFFFFFFFF AND DUP4 DUP6 PUSH20 0xFFFFFFFFFFFFFFFFFFFFFFFFFFFFFFFFFFFFFFFF AND PUSH32 0xEDAA3DEC3BFE408E0C9108BD646F1D6B585E08D945BFB8700E26552D35889247 PUSH0 PUSH0 TIMESTAMP PUSH0 PUSH1 0x40 MLOAD PUSH2 0x168A SWAP5 SWAP4 SWAP3 SWAP2 SWAP1 PUSH2 0x51E8 JUMP JUMPDEST PUSH1 0x40 MLOAD DUP1 SWAP2 SUB SWAP1 LOG4 PUSH0 PUSH0 SWAP1 POP JUMPDEST PUSH1 0x1 PUSH1 0x4 PUSH0 DUP5 PUSH20 0xFFFFFFFFFFFFFFFFFFFFFFFFFFFFFFFFFFFFFFFF AND PUSH4 0x217B2270 DUP9 PUSH1 0x40 MLOAD DUP3 PUSH4 0xFFFFFFFF AND PUSH1 0xE0 SHL DUP2 MSTORE PUSH1 0x4 ADD PUSH2 0x16D5 SWAP2 SWAP1 PUSH2 0x4E75 JUMP JUMPDEST PUSH1 0x20 PUSH1 0x40 MLOAD DUP1 DUP4 SUB DUP2 DUP7 GAS STATICCALL ISZERO DUP1 ISZERO PUSH2 0x16F0 JUMPI RETURNDATASIZE PUSH0 PUSH0 RETURNDATACOPY RETURNDATASIZE PUSH0 REVERT JUMPDEST POP POP POP POP PUSH1 0x40 MLOAD RETURNDATASIZE PUSH1 0x1F NOT PUSH1 0x1F DUP3 ADD AND DUP3 ADD DUP1 PUSH1 0x40 MSTORE POP DUP2 ADD SWAP1 PUSH2 0x1714 SWAP2 SWAP1 PUSH2 0x4EA2 JUMP JUMPDEST PUSH20 0xFFFFFFFFFFFFFFFFFFFFFFFFFFFFFFFFFFFFFFFF AND PUSH20 0xFFFFFFFFFFFFFFFFFFFFFFFFFFFFFFFFFFFFFFFF AND DUP2 MSTORE PUSH1 0x20 ADD SWAP1 DUP2 MSTORE PUSH1 0x20 ADD PUSH0 KECCAK256 DUP1 SLOAD SWAP1 POP PUSH2 0x175B SWAP2 SWAP1 PUSH2 0x522B JUMP JUMPDEST DUP2 LT ISZERO PUSH2 0x1C67 JUMPI DUP5 PUSH20 0xFFFFFFFFFFFFFFFFFFFFFFFFFFFFFFFFFFFFFFFF AND PUSH1 0x4 PUSH0 DUP5 PUSH20 0xFFFFFFFFFFFFFFFFFFFFFFFFFFFFFFFFFFFFFFFF AND PUSH4 0x217B2270 DUP9 PUSH1 0x40 MLOAD DUP3 PUSH4 0xFFFFFFFF AND PUSH1 0xE0 SHL DUP2 MSTORE PUSH1 0x4 ADD PUSH2 0x17B5 SWAP2 SWAP1 PUSH2 0x4E75 JUMP JUMPDEST PUSH1 0x20 PUSH1 0x40 MLOAD DUP1 DUP4 SUB DUP2 DUP7 GAS STATICCALL ISZERO DUP1 ISZERO PUSH2 0x17D0 JUMPI RETURNDATASIZE PUSH0 PUSH0 RETURNDATACOPY RETURNDATASIZE PUSH0 REVERT JUMPDEST POP POP POP POP PUSH1 0x40 MLOAD RETURNDATASIZE PUSH1 0x1F NOT PUSH1 0x1F DUP3 ADD AND DUP3 ADD DUP1 PUSH1 0x40 MSTORE POP DUP2 ADD SWAP1 PUSH2 0x17F4 SWAP2 SWAP1 PUSH2 0x4EA2 JUMP JUMPDEST PUSH20 0xFFFFFFFFFFFFFFFFFFFFFFFFFFFFFFFFFFFFFFFF AND PUSH20 0xFFFFFFFFFFFFFFFFFFFFFFFFFFFFFFFFFFFFFFFF AND DUP2 MSTORE PUSH1 0x20 ADD SWAP1 DUP2 MSTORE PUSH1 0x20 ADD PUSH0 KECCAK256 DUP3 DUP2 SLOAD DUP2 LT PUSH2 0x183F JUMPI PUSH2 0x183E PUSH2 0x525E JUMP JUMPDEST JUMPDEST SWAP1 PUSH0 MSTORE PUSH1 0x20 PUSH0 KECCAK256 SWAP1 PUSH1 0x7 MUL ADD PUSH0 ADD PUSH0 SWAP1 SLOAD SWAP1 PUSH2 0x100 EXP SWAP1 DIV PUSH20 0xFFFFFFFFFFFFFFFFFFFFFFFFFFFFFFFFFFFFFFFF AND PUSH20 0xFFFFFFFFFFFFFFFFFFFFFFFFFFFFFFFFFFFFFFFF AND EQ DUP1 ISZERO PUSH2 0x1964 JUMPI POP DUP4 PUSH1 0x4 PUSH0 DUP5 PUSH20 0xFFFFFFFFFFFFFFFFFFFFFFFFFFFFFFFFFFFFFFFF AND PUSH4 0x217B2270 DUP9 PUSH1 0x40 MLOAD DUP3 PUSH4 0xFFFFFFFF AND PUSH1 0xE0 SHL DUP2 MSTORE PUSH1 0x4 ADD PUSH2 0x18C8 SWAP2 SWAP1 PUSH2 0x4E75 JUMP JUMPDEST PUSH1 0x20 PUSH1 0x40 MLOAD DUP1 DUP4 SUB DUP2 DUP7 GAS STATICCALL ISZERO DUP1 ISZERO PUSH2 0x18E3 JUMPI RETURNDATASIZE PUSH0 PUSH0 RETURNDATACOPY RETURNDATASIZE PUSH0 REVERT JUMPDEST POP POP POP POP PUSH1 0x40 MLOAD RETURNDATASIZE PUSH1 0x1F NOT PUSH1 0x1F DUP3 ADD AND DUP3 ADD DUP1 PUSH1 0x40 MSTORE POP DUP2 ADD SWAP1 PUSH2 0x1907 SWAP2 SWAP1 PUSH2 0x4EA2 JUMP JUMPDEST PUSH20 0xFFFFFFFFFFFFFFFFFFFFFFFFFFFFFFFFFFFFFFFF AND PUSH20 0xFFFFFFFFFFFFFFFFFFFFFFFFFFFFFFFFFFFFFFFF AND DUP2 MSTORE PUSH1 0x20 ADD SWAP1 DUP2 MSTORE PUSH1 0x20 ADD PUSH0 KECCAK256 DUP3 DUP2 SLOAD DUP2 LT PUSH2 0x1952 JUMPI PUSH2 0x1951 PUSH2 0x525E JUMP JUMPDEST JUMPDEST SWAP1 PUSH0 MSTORE PUSH1 0x20 PUSH0 KECCAK256 SWAP1 PUSH1 0x7 MUL ADD PUSH1 0x1 ADD SLOAD EQ JUMPDEST ISZERO PUSH2 0x1C5A JUMPI PUSH1 0x4 PUSH0 DUP4 PUSH20 0xFFFFFFFFFFFFFFFFFFFFFFFFFFFFFFFFFFFFFFFF AND PUSH4 0x217B2270 DUP8 PUSH1 0x40 MLOAD DUP3 PUSH4 0xFFFFFFFF AND PUSH1 0xE0 SHL DUP2 MSTORE PUSH1 0x4 ADD PUSH2 0x19A5 SWAP2 SWAP1 PUSH2 0x4E75 JUMP JUMPDEST PUSH1 0x20 PUSH1 0x40 MLOAD DUP1 DUP4 SUB DUP2 DUP7 GAS STATICCALL ISZERO DUP1 ISZERO PUSH2 0x19C0 JUMPI RETURNDATASIZE PUSH0 PUSH0 RETURNDATACOPY RETURNDATASIZE PUSH0 REVERT JUMPDEST POP POP POP POP PUSH1 0x40 MLOAD RETURNDATASIZE PUSH1 0x1F NOT PUSH1 0x1F DUP3 ADD AND DUP3 ADD DUP1 PUSH1 0x40 MSTORE POP DUP2 ADD SWAP1 PUSH2 0x19E4 SWAP2 SWAP1 PUSH2 0x4EA2 JUMP JUMPDEST PUSH20 0xFFFFFFFFFFFFFFFFFFFFFFFFFFFFFFFFFFFFFFFF AND PUSH20 0xFFFFFFFFFFFFFFFFFFFFFFFFFFFFFFFFFFFFFFFF AND DUP2 MSTORE PUSH1 0x20 ADD SWAP1 DUP2 MSTORE PUSH1 0x20 ADD PUSH0 KECCAK256 PUSH1 0x1 DUP3 PUSH2 0x1A2A SWAP2 SWAP1 PUSH2 0x528B JUMP JUMPDEST DUP2 SLOAD DUP2 LT PUSH2 0x1A3B JUMPI PUSH2 0x1A3A PUSH2 0x525E JUMP JUMPDEST JUMPDEST SWAP1 PUSH0 MSTORE PUSH1 0x20 PUSH0 KECCAK256 SWAP1 PUSH1 0x7 MUL ADD PUSH1 0x4 PUSH0 DUP5 PUSH20 0xFFFFFFFFFFFFFFFFFFFFFFFFFFFFFFFFFFFFFFFF AND PUSH4 0x217B2270 DUP9 PUSH1 0x40 MLOAD DUP3 PUSH4 0xFFFFFFFF AND PUSH1 0xE0 SHL DUP2 MSTORE PUSH1 0x4 ADD PUSH2 0x1A83 SWAP2 SWAP1 PUSH2 0x4E75 JUMP JUMPDEST PUSH1 0x20 PUSH1 0x40 MLOAD DUP1 DUP4 SUB DUP2 DUP7 GAS STATICCALL ISZERO DUP1 ISZERO PUSH2 0x1A9E JUMPI RETURNDATASIZE PUSH0 PUSH0 RETURNDATACOPY RETURNDATASIZE PUSH0 REVERT JUMPDEST POP POP POP POP PUSH1 0x40 MLOAD RETURNDATASIZE PUSH1 0x1F NOT PUSH1 0x1F DUP3 ADD AND DUP3 ADD DUP1 PUSH1 0x40 MSTORE POP DUP2 ADD SWAP1 PUSH2 0x1AC2 SWAP2 SWAP1 PUSH2 0x4EA2 JUMP JUMPDEST PUSH20 0xFFFFFFFFFFFFFFFFFFFFFFFFFFFFFFFFFFFFFFFF AND PUSH20 0xFFFFFFFFFFFFFFFFFFFFFFFFFFFFFFFFFFFFFFFF AND DUP2 MSTORE PUSH1 0x20 ADD SWAP1 DUP2 MSTORE PUSH1 0x20 ADD PUSH0 KECCAK256 DUP3 DUP2 SLOAD DUP2 LT PUSH2 0x1B0D JUMPI PUSH2 0x1B0C PUSH2 0x525E JUMP JUMPDEST JUMPDEST SWAP1 PUSH0 MSTORE PUSH1 0x20 PUSH0 KECCAK256 SWAP1 PUSH1 0x7 MUL ADD PUSH0 DUP3 ADD PUSH0 SWAP1 SLOAD SWAP1 PUSH2 0x100 EXP SWAP1 DIV PUSH20 0xFFFFFFFFFFFFFFFFFFFFFFFFFFFFFFFFFFFFFFFF AND DUP2 PUSH0 ADD PUSH0 PUSH2 0x100 EXP DUP2 SLOAD DUP2 PUSH20 0xFFFFFFFFFFFFFFFFFFFFFFFFFFFFFFFFFFFFFFFF MUL NOT AND SWAP1 DUP4 PUSH20 0xFFFFFFFFFFFFFFFFFFFFFFFFFFFFFFFFFFFFFFFF AND MUL OR SWAP1 SSTORE POP PUSH1 0x1 DUP3 ADD SLOAD DUP2 PUSH1 0x1 ADD SSTORE PUSH1 0x2 DUP3 ADD PUSH0 SWAP1 SLOAD SWAP1 PUSH2 0x100 EXP SWAP1 DIV PUSH20 0xFFFFFFFFFFFFFFFFFFFFFFFFFFFFFFFFFFFFFFFF AND DUP2 PUSH1 0x2 ADD PUSH0 PUSH2 0x100 EXP DUP2 SLOAD DUP2 PUSH20 0xFFFFFFFFFFFFFFFFFFFFFFFFFFFFFFFFFFFFFFFF MUL NOT AND SWAP1 DUP4 PUSH20 0xFFFFFFFFFFFFFFFFFFFFFFFFFFFFFFFFFFFFFFFF AND MUL OR SWAP1 SSTORE POP PUSH1 0x3 DUP3 ADD SLOAD DUP2 PUSH1 0x3 ADD SSTORE PUSH1 0x4 DUP3 ADD PUSH0 SWAP1 SLOAD SWAP1 PUSH2 0x100 EXP SWAP1 DIV PUSH1 0xFF AND DUP2 PUSH1 0x4 ADD PUSH0 PUSH2 0x100 EXP DUP2 SLOAD DUP2 PUSH1 0xFF MUL NOT AND SWAP1 DUP4 PUSH1 0xFF AND MUL OR SWAP1 SSTORE POP PUSH1 0x5 DUP3 ADD SLOAD DUP2 PUSH1 0x5 ADD SSTORE PUSH1 0x6 DUP3 ADD PUSH0 SWAP1 SLOAD SWAP1 PUSH2 0x100 EXP SWAP1 DIV PUSH1 0xFF AND DUP2 PUSH1 0x6 ADD PUSH0 PUSH2 0x100 EXP DUP2 SLOAD DUP2 PUSH1 0xFF MUL NOT AND SWAP1 DUP4 ISZERO ISZERO MUL OR SWAP1 SSTORE POP SWAP1 POP POP JUMPDEST DUP1 DUP1 PUSH1 0x1 ADD SWAP2 POP POP PUSH2 0x1697 JUMP JUMPDEST POP PUSH1 0x4 PUSH0 DUP3 PUSH20 0xFFFFFFFFFFFFFFFFFFFFFFFFFFFFFFFFFFFFFFFF AND PUSH4 0x217B2270 DUP7 PUSH1 0x40 MLOAD DUP3 PUSH4 0xFFFFFFFF AND PUSH1 0xE0 SHL DUP2 MSTORE PUSH1 0x4 ADD PUSH2 0x1CA4 SWAP2 SWAP1 PUSH2 0x4E75 JUMP JUMPDEST PUSH1 0x20 PUSH1 0x40 MLOAD DUP1 DUP4 SUB DUP2 DUP7 GAS STATICCALL ISZERO DUP1 ISZERO PUSH2 0x1CBF JUMPI RETURNDATASIZE PUSH0 PUSH0 RETURNDATACOPY RETURNDATASIZE PUSH0 REVERT JUMPDEST POP POP POP POP PUSH1 0x40 MLOAD RETURNDATASIZE PUSH1 0x1F NOT PUSH1 0x1F DUP3 ADD AND DUP3 ADD DUP1 PUSH1 0x40 MSTORE POP DUP2 ADD SWAP1 PUSH2 0x1CE3 SWAP2 SWAP1 PUSH2 0x4EA2 JUMP JUMPDEST PUSH20 0xFFFFFFFFFFFFFFFFFFFFFFFFFFFFFFFFFFFFFFFF AND PUSH20 0xFFFFFFFFFFFFFFFFFFFFFFFFFFFFFFFFFFFFFFFF AND DUP2 MSTORE PUSH1 0x20 ADD SWAP1 DUP2 MSTORE PUSH1 0x20 ADD PUSH0 KECCAK256 DUP1 SLOAD DUP1 PUSH2 0x1D2C JUMPI PUSH2 0x1D2B PUSH2 0x52BE JUMP JUMPDEST JUMPDEST PUSH1 0x1 SWAP1 SUB DUP2 DUP2 SWAP1 PUSH0 MSTORE PUSH1 0x20 PUSH0 KECCAK256 SWAP1 PUSH1 0x7 MUL ADD PUSH0 PUSH0 DUP3 ADD PUSH0 PUSH2 0x100 EXP DUP2 SLOAD SWAP1 PUSH20 0xFFFFFFFFFFFFFFFFFFFFFFFFFFFFFFFFFFFFFFFF MUL NOT AND SWAP1 SSTORE PUSH1 0x1 DUP3 ADD PUSH0 SWAP1 SSTORE PUSH1 0x2 DUP3 ADD PUSH0 PUSH2 0x100 EXP DUP2 SLOAD SWAP1 PUSH20 0xFFFFFFFFFFFFFFFFFFFFFFFFFFFFFFFFFFFFFFFF MUL NOT AND SWAP1 SSTORE PUSH1 0x3 DUP3 ADD PUSH0 SWAP1 SSTORE PUSH1 0x4 DUP3 ADD PUSH0 PUSH2 0x100 EXP DUP2 SLOAD SWAP1 PUSH1 0xFF MUL NOT AND SWAP1 SSTORE PUSH1 0x5 DUP3 ADD PUSH0 SWAP1 SSTORE PUSH1 0x6 DUP3 ADD PUSH0 PUSH2 0x100 EXP DUP2 SLOAD SWAP1 PUSH1 0xFF MUL NOT AND SWAP1 SSTORE POP POP SWAP1 SSTORE PUSH1 0x1 SWAP2 POP POP SWAP3 SWAP2 POP POP JUMP JUMPDEST PUSH2 0x1DDC PUSH2 0x3DA9 JUMP JUMPDEST DUP5 PUSH20 0xFFFFFFFFFFFFFFFFFFFFFFFFFFFFFFFFFFFFFFFF AND PUSH4 0x760D9BBA ADDRESS DUP7 DUP7 DUP7 DUP7 PUSH1 0x40 MLOAD DUP7 PUSH4 0xFFFFFFFF AND PUSH1 0xE0 SHL DUP2 MSTORE PUSH1 0x4 ADD PUSH2 0x1E1D SWAP6 SWAP5 SWAP4 SWAP3 SWAP2 SWAP1 PUSH2 0x534B JUMP JUMPDEST PUSH0 PUSH1 0x40 MLOAD DUP1 DUP4 SUB DUP2 PUSH0 DUP8 DUP1 EXTCODESIZE ISZERO DUP1 ISZERO PUSH2 0x1E34 JUMPI PUSH0 PUSH0 REVERT JUMPDEST POP GAS CALL ISZERO DUP1 ISZERO PUSH2 0x1E46 JUMPI RETURNDATASIZE PUSH0 PUSH0 RETURNDATACOPY RETURNDATASIZE PUSH0 REVERT JUMPDEST POP POP POP POP POP POP POP POP POP JUMP JUMPDEST PUSH1 0x4 PUSH1 0x20 MSTORE DUP2 PUSH0 MSTORE PUSH1 0x40 PUSH0 KECCAK256 DUP2 DUP2 SLOAD DUP2 LT PUSH2 0x1E6A JUMPI PUSH0 DUP1 REVERT JUMPDEST SWAP1 PUSH0 MSTORE PUSH1 0x20 PUSH0 KECCAK256 SWAP1 PUSH1 0x7 MUL ADD PUSH0 SWAP2 POP SWAP2 POP POP DUP1 PUSH0 ADD PUSH0 SWAP1 SLOAD SWAP1 PUSH2 0x100 EXP SWAP1 DIV PUSH20 0xFFFFFFFFFFFFFFFFFFFFFFFFFFFFFFFFFFFFFFFF AND SWAP1 DUP1 PUSH1 0x1 ADD SLOAD SWAP1 DUP1 PUSH1 0x2 ADD PUSH0 SWAP1 SLOAD SWAP1 PUSH2 0x100 EXP SWAP1 DIV PUSH20 0xFFFFFFFFFFFFFFFFFFFFFFFFFFFFFFFFFFFFFFFF AND SWAP1 DUP1 PUSH1 0x3 ADD SLOAD SWAP1 DUP1 PUSH1 0x4 ADD PUSH0 SWAP1 SLOAD SWAP1 PUSH2 0x100 EXP SWAP1 DIV PUSH1 0xFF AND SWAP1 DUP1 PUSH1 0x5 ADD SLOAD SWAP1 DUP1 PUSH1 0x6 ADD PUSH0 SWAP1 SLOAD SWAP1 PUSH2 0x100 EXP SWAP1 DIV PUSH1 0xFF AND SWAP1 POP DUP8 JUMP JUMPDEST PUSH0 PUSH2 0x1F08 PUSH2 0x3F52 JUMP JUMPDEST PUSH0 DUP7 SWAP1 POP PUSH2 0x1F14 PUSH2 0x3F93 JUMP JUMPDEST PUSH20 0xFFFFFFFFFFFFFFFFFFFFFFFFFFFFFFFFFFFFFFFF AND DUP2 PUSH20 0xFFFFFFFFFFFFFFFFFFFFFFFFFFFFFFFFFFFFFFFF AND PUSH4 0x217B2270 DUP9 PUSH1 0x40 MLOAD DUP3 PUSH4 0xFFFFFFFF AND PUSH1 0xE0 SHL DUP2 MSTORE PUSH1 0x4 ADD PUSH2 0x1F63 SWAP2 SWAP1 PUSH2 0x4E75 JUMP JUMPDEST PUSH1 0x20 PUSH1 0x40 MLOAD DUP1 DUP4 SUB DUP2 DUP7 GAS STATICCALL ISZERO DUP1 ISZERO PUSH2 0x1F7E JUMPI RETURNDATASIZE PUSH0 PUSH0 RETURNDATACOPY RETURNDATASIZE PUSH0 REVERT JUMPDEST POP POP POP POP PUSH1 0x40 MLOAD RETURNDATASIZE PUSH1 0x1F NOT PUSH1 0x1F DUP3 ADD AND DUP3 ADD DUP1 PUSH1 0x40 MSTORE POP DUP2 ADD SWAP1 PUSH2 0x1FA2 SWAP2 SWAP1 PUSH2 0x4EA2 JUMP JUMPDEST PUSH20 0xFFFFFFFFFFFFFFFFFFFFFFFFFFFFFFFFFFFFFFFF AND EQ PUSH2 0x1FEF JUMPI PUSH1 0x40 MLOAD PUSH32 0x82B4290000000000000000000000000000000000000000000000000000000000 DUP2 MSTORE PUSH1 0x4 ADD PUSH1 0x40 MLOAD DUP1 SWAP2 SUB SWAP1 REVERT JUMPDEST DUP1 PUSH20 0xFFFFFFFFFFFFFFFFFFFFFFFFFFFFFFFFFFFFFFFF AND PUSH4 0x2A3654A4 ADDRESS DUP9 PUSH1 0x40 MLOAD DUP4 PUSH4 0xFFFFFFFF AND PUSH1 0xE0 SHL DUP2 MSTORE PUSH1 0x4 ADD PUSH2 0x202A SWAP3 SWAP2 SWAP1 PUSH2 0x4ECD JUMP JUMPDEST PUSH1 0x20 PUSH1 0x40 MLOAD DUP1 DUP4 SUB DUP2 DUP7 GAS STATICCALL ISZERO DUP1 ISZERO PUSH2 0x2045 JUMPI RETURNDATASIZE PUSH0 PUSH0 RETURNDATACOPY RETURNDATASIZE PUSH0 REVERT JUMPDEST POP POP POP POP PUSH1 0x40 MLOAD RETURNDATASIZE PUSH1 0x1F NOT PUSH1 0x1F DUP3 ADD AND DUP3 ADD DUP1 PUSH1 0x40 MSTORE POP DUP2 ADD SWAP1 PUSH2 0x2069 SWAP2 SWAP1 PUSH2 0x4F08 JUMP JUMPDEST PUSH2 0x20AA JUMPI ADDRESS PUSH1 0x40 MLOAD PUSH32 0x76C6C93A00000000000000000000000000000000000000000000000000000000 DUP2 MSTORE PUSH1 0x4 ADD PUSH2 0x20A1 SWAP2 SWAP1 PUSH2 0x472C JUMP JUMPDEST PUSH1 0x40 MLOAD DUP1 SWAP2 SUB SWAP1 REVERT JUMPDEST PUSH1 0x2 PUSH0 SWAP1 SLOAD SWAP1 PUSH2 0x100 EXP SWAP1 DIV PUSH1 0xFF AND PUSH1 0x64 PUSH2 0x20C5 SWAP2 SWAP1 PUSH2 0x4E41 JUMP JUMPDEST PUSH1 0xFF AND DUP4 PUSH1 0xFF AND LT PUSH2 0x210C JUMPI PUSH1 0x40 MLOAD PUSH32 0x8C379A000000000000000000000000000000000000000000000000000000000 DUP2 MSTORE PUSH1 0x4 ADD PUSH2 0x2103 SWAP1 PUSH2 0x4FA3 JUMP JUMPDEST PUSH1 0x40 MLOAD DUP1 SWAP2 SUB SWAP1 REVERT JUMPDEST PUSH1 0x40 MLOAD DUP1 PUSH1 0xA0 ADD PUSH1 0x40 MSTORE DUP1 DUP7 PUSH20 0xFFFFFFFFFFFFFFFFFFFFFFFFFFFFFFFFFFFFFFFF AND DUP2 MSTORE PUSH1 0x20 ADD DUP6 DUP2 MSTORE PUSH1 0x20 ADD DUP5 PUSH1 0xFF AND DUP2 MSTORE PUSH1 0x20 ADD TIMESTAMP DUP2 MSTORE PUSH1 0x20 ADD PUSH1 0x1 ISZERO ISZERO DUP2 MSTORE POP PUSH1 0x3 PUSH0 DUP10 PUSH20 0xFFFFFFFFFFFFFFFFFFFFFFFFFFFFFFFFFFFFFFFF AND PUSH20 0xFFFFFFFFFFFFFFFFFFFFFFFFFFFFFFFFFFFFFFFF AND DUP2 MSTORE PUSH1 0x20 ADD SWAP1 DUP2 MSTORE PUSH1 0x20 ADD PUSH0 KECCAK256 PUSH0 DUP9 DUP2 MSTORE PUSH1 0x20 ADD SWAP1 DUP2 MSTORE PUSH1 0x20 ADD PUSH0 KECCAK256 PUSH0 DUP3 ADD MLOAD DUP2 PUSH0 ADD PUSH0 PUSH2 0x100 EXP DUP2 SLOAD DUP2 PUSH20 0xFFFFFFFFFFFFFFFFFFFFFFFFFFFFFFFFFFFFFFFF MUL NOT AND SWAP1 DUP4 PUSH20 0xFFFFFFFFFFFFFFFFFFFFFFFFFFFFFFFFFFFFFFFF AND MUL OR SWAP1 SSTORE POP PUSH1 0x20 DUP3 ADD MLOAD DUP2 PUSH1 0x1 ADD SSTORE PUSH1 0x40 DUP3 ADD MLOAD DUP2 PUSH1 0x2 ADD PUSH0 PUSH2 0x100 EXP DUP2 SLOAD DUP2 PUSH1 0xFF MUL NOT AND SWAP1 DUP4 PUSH1 0xFF AND MUL OR SWAP1 SSTORE POP PUSH1 0x60 DUP3 ADD MLOAD DUP2 PUSH1 0x3 ADD SSTORE PUSH1 0x80 DUP3 ADD MLOAD DUP2 PUSH1 0x4 ADD PUSH0 PUSH2 0x100 EXP DUP2 SLOAD DUP2 PUSH1 0xFF MUL NOT AND SWAP1 DUP4 ISZERO ISZERO MUL OR SWAP1 SSTORE POP SWAP1 POP POP PUSH0 PUSH0 SWAP1 POP JUMPDEST PUSH1 0x1 PUSH1 0x4 PUSH0 DUP5 PUSH20 0xFFFFFFFFFFFFFFFFFFFFFFFFFFFFFFFFFFFFFFFF AND PUSH4 0x217B2270 DUP12 PUSH1 0x40 MLOAD DUP3 PUSH4 0xFFFFFFFF AND PUSH1 0xE0 SHL DUP2 MSTORE PUSH1 0x4 ADD PUSH2 0x2278 SWAP2 SWAP1 PUSH2 0x4E75 JUMP JUMPDEST PUSH1 0x20 PUSH1 0x40 MLOAD DUP1 DUP4 SUB DUP2 DUP7 GAS STATICCALL ISZERO DUP1 ISZERO PUSH2 0x2293 JUMPI RETURNDATASIZE PUSH0 PUSH0 RETURNDATACOPY RETURNDATASIZE PUSH0 REVERT JUMPDEST POP POP POP POP PUSH1 0x40 MLOAD RETURNDATASIZE PUSH1 0x1F NOT PUSH1 0x1F DUP3 ADD AND DUP3 ADD DUP1 PUSH1 0x40 MSTORE POP DUP2 ADD SWAP1 PUSH2 0x22B7 SWAP2 SWAP1 PUSH2 0x4EA2 JUMP JUMPDEST PUSH20 0xFFFFFFFFFFFFFFFFFFFFFFFFFFFFFFFFFFFFFFFF AND PUSH20 0xFFFFFFFFFFFFFFFFFFFFFFFFFFFFFFFFFFFFFFFF AND DUP2 MSTORE PUSH1 0x20 ADD SWAP1 DUP2 MSTORE PUSH1 0x20 ADD PUSH0 KECCAK256 DUP1 SLOAD SWAP1 POP PUSH2 0x22FE SWAP2 SWAP1 PUSH2 0x522B JUMP JUMPDEST DUP2 LT ISZERO PUSH2 0x273B JUMPI DUP8 PUSH20 0xFFFFFFFFFFFFFFFFFFFFFFFFFFFFFFFFFFFFFFFF AND PUSH1 0x4 PUSH0 DUP5 PUSH20 0xFFFFFFFFFFFFFFFFFFFFFFFFFFFFFFFFFFFFFFFF AND PUSH4 0x217B2270 DUP12 PUSH1 0x40 MLOAD DUP3 PUSH4 0xFFFFFFFF AND PUSH1 0xE0 SHL DUP2 MSTORE PUSH1 0x4 ADD PUSH2 0x2358 SWAP2 SWAP1 PUSH2 0x4E75 JUMP JUMPDEST PUSH1 0x20 PUSH1 0x40 MLOAD DUP1 DUP4 SUB DUP2 DUP7 GAS STATICCALL ISZERO DUP1 ISZERO PUSH2 0x2373 JUMPI RETURNDATASIZE PUSH0 PUSH0 RETURNDATACOPY RETURNDATASIZE PUSH0 REVERT JUMPDEST POP POP POP POP PUSH1 0x40 MLOAD RETURNDATASIZE PUSH1 0x1F NOT PUSH1 0x1F DUP3 ADD AND DUP3 ADD DUP1 PUSH1 0x40 MSTORE POP DUP2 ADD SWAP1 PUSH2 0x2397 SWAP2 SWAP1 PUSH2 0x4EA2 JUMP JUMPDEST PUSH20 0xFFFFFFFFFFFFFFFFFFFFFFFFFFFFFFFFFFFFFFFF AND PUSH20 0xFFFFFFFFFFFFFFFFFFFFFFFFFFFFFFFFFFFFFFFF AND DUP2 MSTORE PUSH1 0x20 ADD SWAP1 DUP2 MSTORE PUSH1 0x20 ADD PUSH0 KECCAK256 DUP3 DUP2 SLOAD DUP2 LT PUSH2 0x23E2 JUMPI PUSH2 0x23E1 PUSH2 0x525E JUMP JUMPDEST JUMPDEST SWAP1 PUSH0 MSTORE PUSH1 0x20 PUSH0 KECCAK256 SWAP1 PUSH1 0x7 MUL ADD PUSH0 ADD PUSH0 SWAP1 SLOAD SWAP1 PUSH2 0x100 EXP SWAP1 DIV PUSH20 0xFFFFFFFFFFFFFFFFFFFFFFFFFFFFFFFFFFFFFFFF AND PUSH20 0xFFFFFFFFFFFFFFFFFFFFFFFFFFFFFFFFFFFFFFFF AND EQ DUP1 ISZERO PUSH2 0x2507 JUMPI POP DUP7 PUSH1 0x4 PUSH0 DUP5 PUSH20 0xFFFFFFFFFFFFFFFFFFFFFFFFFFFFFFFFFFFFFFFF AND PUSH4 0x217B2270 DUP12 PUSH1 0x40 MLOAD DUP3 PUSH4 0xFFFFFFFF AND PUSH1 0xE0 SHL DUP2 MSTORE PUSH1 0x4 ADD PUSH2 0x246B SWAP2 SWAP1 PUSH2 0x4E75 JUMP JUMPDEST PUSH1 0x20 PUSH1 0x40 MLOAD DUP1 DUP4 SUB DUP2 DUP7 GAS STATICCALL ISZERO DUP1 ISZERO PUSH2 0x2486 JUMPI RETURNDATASIZE PUSH0 PUSH0 RETURNDATACOPY RETURNDATASIZE PUSH0 REVERT JUMPDEST POP POP POP POP PUSH1 0x40 MLOAD RETURNDATASIZE PUSH1 0x1F NOT PUSH1 0x1F DUP3 ADD AND DUP3 ADD DUP1 PUSH1 0x40 MSTORE POP DUP2 ADD SWAP1 PUSH2 0x24AA SWAP2 SWAP1 PUSH2 0x4EA2 JUMP JUMPDEST PUSH20 0xFFFFFFFFFFFFFFFFFFFFFFFFFFFFFFFFFFFFFFFF AND PUSH20 0xFFFFFFFFFFFFFFFFFFFFFFFFFFFFFFFFFFFFFFFF AND DUP2 MSTORE PUSH1 0x20 ADD SWAP1 DUP2 MSTORE PUSH1 0x20 ADD PUSH0 KECCAK256 DUP3 DUP2 SLOAD DUP2 LT PUSH2 0x24F5 JUMPI PUSH2 0x24F4 PUSH2 0x525E JUMP JUMPDEST JUMPDEST SWAP1 PUSH0 MSTORE PUSH1 0x20 PUSH0 KECCAK256 SWAP1 PUSH1 0x7 MUL ADD PUSH1 0x1 ADD SLOAD EQ JUMPDEST ISZERO PUSH2 0x272E JUMPI PUSH1 0x40 MLOAD DUP1 PUSH1 0xE0 ADD PUSH1 0x40 MSTORE DUP1 DUP10 PUSH20 0xFFFFFFFFFFFFFFFFFFFFFFFFFFFFFFFFFFFFFFFF AND DUP2 MSTORE PUSH1 0x20 ADD DUP9 DUP2 MSTORE PUSH1 0x20 ADD DUP8 PUSH20 0xFFFFFFFFFFFFFFFFFFFFFFFFFFFFFFFFFFFFFFFF AND DUP2 MSTORE PUSH1 0x20 ADD DUP7 DUP2 MSTORE PUSH1 0x20 ADD DUP6 PUSH1 0xFF AND DUP2 MSTORE PUSH1 0x20 ADD TIMESTAMP DUP2 MSTORE PUSH1 0x20 ADD PUSH1 0x1 ISZERO ISZERO DUP2 MSTORE POP PUSH1 0x4 PUSH0 DUP5 PUSH20 0xFFFFFFFFFFFFFFFFFFFFFFFFFFFFFFFFFFFFFFFF AND PUSH4 0x217B2270 DUP12 PUSH1 0x40 MLOAD DUP3 PUSH4 0xFFFFFFFF AND PUSH1 0xE0 SHL DUP2 MSTORE PUSH1 0x4 ADD PUSH2 0x25AD SWAP2 SWAP1 PUSH2 0x4E75 JUMP JUMPDEST PUSH1 0x20 PUSH1 0x40 MLOAD DUP1 DUP4 SUB DUP2 DUP7 GAS STATICCALL ISZERO DUP1 ISZERO PUSH2 0x25C8 JUMPI RETURNDATASIZE PUSH0 PUSH0 RETURNDATACOPY RETURNDATASIZE PUSH0 REVERT JUMPDEST POP POP POP POP PUSH1 0x40 MLOAD RETURNDATASIZE PUSH1 0x1F NOT PUSH1 0x1F DUP3 ADD AND DUP3 ADD DUP1 PUSH1 0x40 MSTORE POP DUP2 ADD SWAP1 PUSH2 0x25EC SWAP2 SWAP1 PUSH2 0x4EA2 JUMP JUMPDEST PUSH20 0xFFFFFFFFFFFFFFFFFFFFFFFFFFFFFFFFFFFFFFFF AND PUSH20 0xFFFFFFFFFFFFFFFFFFFFFFFFFFFFFFFFFFFFFFFF AND DUP2 MSTORE PUSH1 0x20 ADD SWAP1 DUP2 MSTORE PUSH1 0x20 ADD PUSH0 KECCAK256 DUP3 DUP2 SLOAD DUP2 LT PUSH2 0x2637 JUMPI PUSH2 0x2636 PUSH2 0x525E JUMP JUMPDEST JUMPDEST SWAP1 PUSH0 MSTORE PUSH1 0x20 PUSH0 KECCAK256 SWAP1 PUSH1 0x7 MUL ADD PUSH0 DUP3 ADD MLOAD DUP2 PUSH0 ADD PUSH0 PUSH2 0x100 EXP DUP2 SLOAD DUP2 PUSH20 0xFFFFFFFFFFFFFFFFFFFFFFFFFFFFFFFFFFFFFFFF MUL NOT AND SWAP1 DUP4 PUSH20 0xFFFFFFFFFFFFFFFFFFFFFFFFFFFFFFFFFFFFFFFF AND MUL OR SWAP1 SSTORE POP PUSH1 0x20 DUP3 ADD MLOAD DUP2 PUSH1 0x1 ADD SSTORE PUSH1 0x40 DUP3 ADD MLOAD DUP2 PUSH1 0x2 ADD PUSH0 PUSH2 0x100 EXP DUP2 SLOAD DUP2 PUSH20 0xFFFFFFFFFFFFFFFFFFFFFFFFFFFFFFFFFFFFFFFF MUL NOT AND SWAP1 DUP4 PUSH20 0xFFFFFFFFFFFFFFFFFFFFFFFFFFFFFFFFFFFFFFFF AND MUL OR SWAP1 SSTORE POP PUSH1 0x60 DUP3 ADD MLOAD DUP2 PUSH1 0x3 ADD SSTORE PUSH1 0x80 DUP3 ADD MLOAD DUP2 PUSH1 0x4 ADD PUSH0 PUSH2 0x100 EXP DUP2 SLOAD DUP2 PUSH1 0xFF MUL NOT AND SWAP1 DUP4 PUSH1 0xFF AND MUL OR SWAP1 SSTORE POP PUSH1 0xA0 DUP3 ADD MLOAD DUP2 PUSH1 0x5 ADD SSTORE PUSH1 0xC0 DUP3 ADD MLOAD DUP2 PUSH1 0x6 ADD PUSH0 PUSH2 0x100 EXP DUP2 SLOAD DUP2 PUSH1 0xFF MUL NOT AND SWAP1 DUP4 ISZERO ISZERO MUL OR SWAP1 SSTORE POP SWAP1 POP POP JUMPDEST DUP1 DUP1 PUSH1 0x1 ADD SWAP2 POP POP PUSH2 0x223A JUMP JUMPDEST POP PUSH2 0x2744 PUSH2 0x3F93 JUMP JUMPDEST PUSH20 0xFFFFFFFFFFFFFFFFFFFFFFFFFFFFFFFFFFFFFFFF AND DUP7 DUP9 PUSH20 0xFFFFFFFFFFFFFFFFFFFFFFFFFFFFFFFFFFFFFFFF AND PUSH32 0xB20CA2EE28A0256EC25AA29B97566E4F45CD9A901CBD867038D58F314B9FA370 DUP9 DUP9 TIMESTAMP PUSH1 0x1 PUSH1 0x40 MLOAD PUSH2 0x27A8 SWAP5 SWAP4 SWAP3 SWAP2 SWAP1 PUSH2 0x4FC1 JUMP JUMPDEST PUSH1 0x40 MLOAD DUP1 SWAP2 SUB SWAP1 LOG4 PUSH1 0x1 SWAP2 POP POP SWAP6 SWAP5 POP POP POP POP POP JUMP JUMPDEST PUSH0 PUSH0 DUP6 SWAP1 POP DUP1 PUSH20 0xFFFFFFFFFFFFFFFFFFFFFFFFFFFFFFFFFFFFFFFF AND PUSH4 0x511B6952 DUP3 PUSH20 0xFFFFFFFFFFFFFFFFFFFFFFFFFFFFFFFFFFFFFFFF AND PUSH4 0x217B2270 DUP9 PUSH1 0x40 MLOAD DUP3 PUSH4 0xFFFFFFFF AND PUSH1 0xE0 SHL DUP2 MSTORE PUSH1 0x4 ADD PUSH2 0x2818 SWAP2 SWAP1 PUSH2 0x4E75 JUMP JUMPDEST PUSH1 0x20 PUSH1 0x40 MLOAD DUP1 DUP4 SUB DUP2 DUP7 GAS STATICCALL ISZERO DUP1 ISZERO PUSH2 0x2833 JUMPI RETURNDATASIZE PUSH0 PUSH0 RETURNDATACOPY RETURNDATASIZE PUSH0 REVERT JUMPDEST POP POP POP POP PUSH1 0x40 MLOAD RETURNDATASIZE PUSH1 0x1F NOT PUSH1 0x1F DUP3 ADD AND DUP3 ADD DUP1 PUSH1 0x40 MSTORE POP DUP2 ADD SWAP1 PUSH2 0x2857 SWAP2 SWAP1 PUSH2 0x4EA2 JUMP JUMPDEST PUSH2 0x285F PUSH2 0x3F93 JUMP JUMPDEST DUP9 DUP9 DUP9 PUSH1 0x40 MLOAD DUP7 PUSH4 0xFFFFFFFF AND PUSH1 0xE0 SHL DUP2 MSTORE PUSH1 0x4 ADD PUSH2 0x2882 SWAP6 SWAP5 SWAP4 SWAP3 SWAP2 SWAP1 PUSH2 0x53A3 JUMP JUMPDEST PUSH0 PUSH1 0x40 MLOAD DUP1 DUP4 SUB DUP2 PUSH0 DUP8 DUP1 EXTCODESIZE ISZERO DUP1 ISZERO PUSH2 0x2899 JUMPI PUSH0 PUSH0 REVERT JUMPDEST POP GAS CALL ISZERO DUP1 ISZERO PUSH2 0x28AB JUMPI RETURNDATASIZE PUSH0 PUSH0 RETURNDATACOPY RETURNDATASIZE PUSH0 REVERT JUMPDEST POP POP POP POP PUSH1 0x40 MLOAD DUP1 PUSH1 0xA0 ADD PUSH1 0x40 MSTORE DUP1 PUSH0 PUSH20 0xFFFFFFFFFFFFFFFFFFFFFFFFFFFFFFFFFFFFFFFF AND DUP2 MSTORE PUSH1 0x20 ADD PUSH0 DUP2 MSTORE PUSH1 0x20 ADD PUSH0 PUSH1 0xFF AND DUP2 MSTORE PUSH1 0x20 ADD TIMESTAMP DUP2 MSTORE PUSH1 0x20 ADD PUSH0 ISZERO ISZERO DUP2 MSTORE POP PUSH1 0x3 PUSH0 DUP9 PUSH20 0xFFFFFFFFFFFFFFFFFFFFFFFFFFFFFFFFFFFFFFFF AND PUSH20 0xFFFFFFFFFFFFFFFFFFFFFFFFFFFFFFFFFFFFFFFF AND DUP2 MSTORE PUSH1 0x20 ADD SWAP1 DUP2 MSTORE PUSH1 0x20 ADD PUSH0 KECCAK256 PUSH0 DUP8 DUP2 MSTORE PUSH1 0x20 ADD SWAP1 DUP2 MSTORE PUSH1 0x20 ADD PUSH0 KECCAK256 PUSH0 DUP3 ADD MLOAD DUP2 PUSH0 ADD PUSH0 PUSH2 0x100 EXP DUP2 SLOAD DUP2 PUSH20 0xFFFFFFFFFFFFFFFFFFFFFFFFFFFFFFFFFFFFFFFF MUL NOT AND SWAP1 DUP4 PUSH20 0xFFFFFFFFFFFFFFFFFFFFFFFFFFFFFFFFFFFFFFFF AND MUL OR SWAP1 SSTORE POP PUSH1 0x20 DUP3 ADD MLOAD DUP2 PUSH1 0x1 ADD SSTORE PUSH1 0x40 DUP3 ADD MLOAD DUP2 PUSH1 0x2 ADD PUSH0 PUSH2 0x100 EXP DUP2 SLOAD DUP2 PUSH1 0xFF MUL NOT AND SWAP1 DUP4 PUSH1 0xFF AND MUL OR SWAP1 SSTORE POP PUSH1 0x60 DUP3 ADD MLOAD DUP2 PUSH1 0x3 ADD SSTORE PUSH1 0x80 DUP3 ADD MLOAD DUP2 PUSH1 0x4 ADD PUSH0 PUSH2 0x100 EXP DUP2 SLOAD DUP2 PUSH1 0xFF MUL NOT AND SWAP1 DUP4 ISZERO ISZERO MUL OR SWAP1 SSTORE POP SWAP1 POP POP PUSH1 0x1 SWAP2 POP POP SWAP5 SWAP4 POP POP POP POP JUMP JUMPDEST PUSH1 0x60 PUSH0 PUSH0 PUSH2 0x29F2 PUSH1 0x1 PUSH2 0x3FFC JUMP JUMPDEST SWAP1 POP PUSH0 PUSH1 0x1 PUSH8 0xFFFFFFFFFFFFFFFF DUP2 GT ISZERO PUSH2 0x2A10 JUMPI PUSH2 0x2A0F PUSH2 0x47F0 JUMP JUMPDEST JUMPDEST PUSH1 0x40 MLOAD SWAP1 DUP1 DUP3 MSTORE DUP1 PUSH1 0x20 MUL PUSH1 0x20 ADD DUP3 ADD PUSH1 0x40 MSTORE DUP1 ISZERO PUSH2 0x2A49 JUMPI DUP2 PUSH1 0x20 ADD JUMPDEST PUSH2 0x2A36 PUSH2 0x407E JUMP JUMPDEST DUP2 MSTORE PUSH1 0x20 ADD SWAP1 PUSH1 0x1 SWAP1 SUB SWAP1 DUP2 PUSH2 0x2A2E JUMPI SWAP1 POP JUMPDEST POP SWAP1 POP PUSH0 PUSH0 PUSH0 SWAP1 POP JUMPDEST DUP4 DUP2 LT ISZERO PUSH2 0x2D2D JUMPI PUSH0 PUSH1 0x1 DUP3 PUSH2 0x2A68 SWAP2 SWAP1 PUSH2 0x528B JUMP JUMPDEST PUSH0 SHL SWAP1 POP DUP9 PUSH20 0xFFFFFFFFFFFFFFFFFFFFFFFFFFFFFFFFFFFFFFFF AND PUSH1 0x5 PUSH0 DUP4 DUP2 MSTORE PUSH1 0x20 ADD SWAP1 DUP2 MSTORE PUSH1 0x20 ADD PUSH0 KECCAK256 PUSH0 ADD PUSH0 SWAP1 SLOAD SWAP1 PUSH2 0x100 EXP SWAP1 DIV PUSH20 0xFFFFFFFFFFFFFFFFFFFFFFFFFFFFFFFFFFFFFFFF AND PUSH20 0xFFFFFFFFFFFFFFFFFFFFFFFFFFFFFFFFFFFFFFFF AND EQ DUP1 ISZERO PUSH2 0x2AEC JUMPI POP DUP8 PUSH1 0x5 PUSH0 DUP4 DUP2 MSTORE PUSH1 0x20 ADD SWAP1 DUP2 MSTORE PUSH1 0x20 ADD PUSH0 KECCAK256 PUSH1 0x1 ADD SLOAD EQ JUMPDEST ISZERO PUSH2 0x2D1F JUMPI PUSH1 0x40 MLOAD DUP1 PUSH2 0x120 ADD PUSH1 0x40 MSTORE DUP1 PUSH1 0x5 PUSH0 DUP5 DUP2 MSTORE PUSH1 0x20 ADD SWAP1 DUP2 MSTORE PUSH1 0x20 ADD PUSH0 KECCAK256 PUSH0 ADD PUSH0 SWAP1 SLOAD SWAP1 PUSH2 0x100 EXP SWAP1 DIV PUSH20 0xFFFFFFFFFFFFFFFFFFFFFFFFFFFFFFFFFFFFFFFF AND PUSH20 0xFFFFFFFFFFFFFFFFFFFFFFFFFFFFFFFFFFFFFFFF AND DUP2 MSTORE PUSH1 0x20 ADD PUSH1 0x5 PUSH0 DUP5 DUP2 MSTORE PUSH1 0x20 ADD SWAP1 DUP2 MSTORE PUSH1 0x20 ADD PUSH0 KECCAK256 PUSH1 0x1 ADD SLOAD DUP2 MSTORE PUSH1 0x20 ADD PUSH1 0x5 PUSH0 DUP5 DUP2 MSTORE PUSH1 0x20 ADD SWAP1 DUP2 MSTORE PUSH1 0x20 ADD PUSH0 KECCAK256 PUSH1 0x2 ADD PUSH0 SWAP1 SLOAD SWAP1 PUSH2 0x100 EXP SWAP1 DIV PUSH20 0xFFFFFFFFFFFFFFFFFFFFFFFFFFFFFFFFFFFFFFFF AND PUSH20 0xFFFFFFFFFFFFFFFFFFFFFFFFFFFFFFFFFFFFFFFF AND DUP2 MSTORE PUSH1 0x20 ADD PUSH1 0x5 PUSH0 DUP5 DUP2 MSTORE PUSH1 0x20 ADD SWAP1 DUP2 MSTORE PUSH1 0x20 ADD PUSH0 KECCAK256 PUSH1 0x3 ADD SLOAD DUP2 MSTORE PUSH1 0x20 ADD PUSH1 0x5 PUSH0 DUP5 DUP2 MSTORE PUSH1 0x20 ADD SWAP1 DUP2 MSTORE PUSH1 0x20 ADD PUSH0 KECCAK256 PUSH1 0x4 ADD PUSH0 SWAP1 SLOAD SWAP1 PUSH2 0x100 EXP SWAP1 DIV PUSH20 0xFFFFFFFFFFFFFFFFFFFFFFFFFFFFFFFFFFFFFFFF AND PUSH20 0xFFFFFFFFFFFFFFFFFFFFFFFFFFFFFFFFFFFFFFFF AND DUP2 MSTORE PUSH1 0x20 ADD PUSH1 0x5 PUSH0 DUP5 DUP2 MSTORE PUSH1 0x20 ADD SWAP1 DUP2 MSTORE PUSH1 0x20 ADD PUSH0 KECCAK256 PUSH1 0x5 ADD PUSH0 SWAP1 SLOAD SWAP1 PUSH2 0x100 EXP SWAP1 DIV PUSH20 0xFFFFFFFFFFFFFFFFFFFFFFFFFFFFFFFFFFFFFFFF AND PUSH20 0xFFFFFFFFFFFFFFFFFFFFFFFFFFFFFFFFFFFFFFFF AND DUP2 MSTORE PUSH1 0x20 ADD PUSH1 0x5 PUSH0 DUP5 DUP2 MSTORE PUSH1 0x20 ADD SWAP1 DUP2 MSTORE PUSH1 0x20 ADD PUSH0 KECCAK256 PUSH1 0x6 ADD PUSH0 SWAP1 SLOAD SWAP1 PUSH2 0x100 EXP SWAP1 DIV PUSH20 0xFFFFFFFFFFFFFFFFFFFFFFFFFFFFFFFFFFFFFFFF AND PUSH20 0xFFFFFFFFFFFFFFFFFFFFFFFFFFFFFFFFFFFFFFFF AND DUP2 MSTORE PUSH1 0x20 ADD PUSH1 0x5 PUSH0 DUP5 DUP2 MSTORE PUSH1 0x20 ADD SWAP1 DUP2 MSTORE PUSH1 0x20 ADD PUSH0 KECCAK256 PUSH1 0x6 ADD PUSH1 0x14 SWAP1 SLOAD SWAP1 PUSH2 0x100 EXP SWAP1 DIV PUSH1 0xFF AND PUSH1 0xFF AND DUP2 MSTORE PUSH1 0x20 ADD PUSH1 0x5 PUSH0 DUP5 DUP2 MSTORE PUSH1 0x20 ADD SWAP1 DUP2 MSTORE PUSH1 0x20 ADD PUSH0 KECCAK256 PUSH1 0x7 ADD SLOAD DUP2 MSTORE POP DUP5 PUSH0 DUP2 MLOAD DUP2 LT PUSH2 0x2D10 JUMPI PUSH2 0x2D0F PUSH2 0x525E JUMP JUMPDEST JUMPDEST PUSH1 0x20 MUL PUSH1 0x20 ADD ADD DUP2 SWAP1 MSTORE POP DUP2 SWAP3 POP JUMPDEST POP DUP1 DUP1 PUSH1 0x1 ADD SWAP2 POP POP PUSH2 0x2A52 JUMP JUMPDEST POP DUP2 DUP2 SWAP5 POP SWAP5 POP POP POP POP SWAP3 POP SWAP3 SWAP1 POP JUMP JUMPDEST PUSH0 PUSH2 0x2D47 PUSH2 0x3F52 JUMP JUMPDEST PUSH0 DUP7 SWAP1 POP PUSH0 PUSH1 0x3 PUSH0 DUP10 PUSH20 0xFFFFFFFFFFFFFFFFFFFFFFFFFFFFFFFFFFFFFFFF AND PUSH20 0xFFFFFFFFFFFFFFFFFFFFFFFFFFFFFFFFFFFFFFFF AND DUP2 MSTORE PUSH1 0x20 ADD SWAP1 DUP2 MSTORE PUSH1 0x20 ADD PUSH0 KECCAK256 PUSH0 DUP9 DUP2 MSTORE PUSH1 0x20 ADD SWAP1 DUP2 MSTORE PUSH1 0x20 ADD PUSH0 KECCAK256 PUSH1 0x40 MLOAD DUP1 PUSH1 0xA0 ADD PUSH1 0x40 MSTORE SWAP1 DUP2 PUSH0 DUP3 ADD PUSH0 SWAP1 SLOAD SWAP1 PUSH2 0x100 EXP SWAP1 DIV PUSH20 0xFFFFFFFFFFFFFFFFFFFFFFFFFFFFFFFFFFFFFFFF AND PUSH20 0xFFFFFFFFFFFFFFFFFFFFFFFFFFFFFFFFFFFFFFFF AND PUSH20 0xFFFFFFFFFFFFFFFFFFFFFFFFFFFFFFFFFFFFFFFF AND DUP2 MSTORE PUSH1 0x20 ADD PUSH1 0x1 DUP3 ADD SLOAD DUP2 MSTORE PUSH1 0x20 ADD PUSH1 0x2 DUP3 ADD PUSH0 SWAP1 SLOAD SWAP1 PUSH2 0x100 EXP SWAP1 DIV PUSH1 0xFF AND PUSH1 0xFF AND PUSH1 0xFF AND DUP2 MSTORE PUSH1 0x20 ADD PUSH1 0x3 DUP3 ADD SLOAD DUP2 MSTORE PUSH1 0x20 ADD PUSH1 0x4 DUP3 ADD PUSH0 SWAP1 SLOAD SWAP1 PUSH2 0x100 EXP SWAP1 DIV PUSH1 0xFF AND ISZERO ISZERO ISZERO ISZERO DUP2 MSTORE POP POP SWAP1 POP DUP1 PUSH1 0x80 ADD MLOAD PUSH2 0x2E87 JUMPI PUSH1 0x40 MLOAD PUSH32 0x8C379A000000000000000000000000000000000000000000000000000000000 DUP2 MSTORE PUSH1 0x4 ADD PUSH2 0x2E7E SWAP1 PUSH2 0x546B JUMP JUMPDEST PUSH1 0x40 MLOAD DUP1 SWAP2 SUB SWAP1 REVERT JUMPDEST PUSH2 0x2E8F PUSH2 0x3F93 JUMP JUMPDEST PUSH20 0xFFFFFFFFFFFFFFFFFFFFFFFFFFFFFFFFFFFFFFFF AND DUP3 PUSH20 0xFFFFFFFFFFFFFFFFFFFFFFFFFFFFFFFFFFFFFFFF AND PUSH4 0x217B2270 DUP10 PUSH1 0x40 MLOAD DUP3 PUSH4 0xFFFFFFFF AND PUSH1 0xE0 SHL DUP2 MSTORE PUSH1 0x4 ADD PUSH2 0x2EDE SWAP2 SWAP1 PUSH2 0x4E75 JUMP JUMPDEST PUSH1 0x20 PUSH1 0x40 MLOAD DUP1 DUP4 SUB DUP2 DUP7 GAS STATICCALL ISZERO DUP1 ISZERO PUSH2 0x2EF9 JUMPI RETURNDATASIZE PUSH0 PUSH0 RETURNDATACOPY RETURNDATASIZE PUSH0 REVERT JUMPDEST POP POP POP POP PUSH1 0x40 MLOAD RETURNDATASIZE PUSH1 0x1F NOT PUSH1 0x1F DUP3 ADD AND DUP3 ADD DUP1 PUSH1 0x40 MSTORE POP DUP2 ADD SWAP1 PUSH2 0x2F1D SWAP2 SWAP1 PUSH2 0x4EA2 JUMP JUMPDEST PUSH20 0xFFFFFFFFFFFFFFFFFFFFFFFFFFFFFFFFFFFFFFFF AND SUB PUSH2 0x2F73 JUMPI PUSH1 0x40 MLOAD PUSH32 0x8C379A000000000000000000000000000000000000000000000000000000000 DUP2 MSTORE PUSH1 0x4 ADD PUSH2 0x2F6A SWAP1 PUSH2 0x54D3 JUMP JUMPDEST PUSH1 0x40 MLOAD DUP1 SWAP2 SUB SWAP1 REVERT JUMPDEST DUP2 PUSH20 0xFFFFFFFFFFFFFFFFFFFFFFFFFFFFFFFFFFFFFFFF AND PUSH4 0x2A3654A4 ADDRESS DUP10 PUSH1 0x40 MLOAD DUP4 PUSH4 0xFFFFFFFF AND PUSH1 0xE0 SHL DUP2 MSTORE PUSH1 0x4 ADD PUSH2 0x2FAE SWAP3 SWAP2 SWAP1 PUSH2 0x4ECD JUMP JUMPDEST PUSH1 0x20 PUSH1 0x40 MLOAD DUP1 DUP4 SUB DUP2 DUP7 GAS STATICCALL ISZERO DUP1 ISZERO PUSH2 0x2FC9 JUMPI RETURNDATASIZE PUSH0 PUSH0 RETURNDATACOPY RETURNDATASIZE PUSH0 REVERT JUMPDEST POP POP POP POP PUSH1 0x40 MLOAD RETURNDATASIZE PUSH1 0x1F NOT PUSH1 0x1F DUP3 ADD AND DUP3 ADD DUP1 PUSH1 0x40 MSTORE POP DUP2 ADD SWAP1 PUSH2 0x2FED SWAP2 SWAP1 PUSH2 0x4F08 JUMP JUMPDEST PUSH2 0x302E JUMPI ADDRESS PUSH1 0x40 MLOAD PUSH32 0x76C6C93A00000000000000000000000000000000000000000000000000000000 DUP2 MSTORE PUSH1 0x4 ADD PUSH2 0x3025 SWAP2 SWAP1 PUSH2 0x472C JUMP JUMPDEST PUSH1 0x40 MLOAD DUP1 SWAP2 SUB SWAP1 REVERT JUMPDEST PUSH0 DUP2 PUSH1 0x20 ADD MLOAD GT ISZERO PUSH2 0x3763 JUMPI PUSH0 PUSH20 0xFFFFFFFFFFFFFFFFFFFFFFFFFFFFFFFFFFFFFFFF AND DUP2 PUSH0 ADD MLOAD PUSH20 0xFFFFFFFFFFFFFFFFFFFFFFFFFFFFFFFFFFFFFFFF AND SUB PUSH2 0x33ED JUMPI DUP1 PUSH1 0x20 ADD MLOAD CALLVALUE EQ PUSH2 0x30B8 JUMPI CALLVALUE PUSH1 0x40 MLOAD PUSH32 0x9266535100000000000000000000000000000000000000000000000000000000 DUP2 MSTORE PUSH1 0x4 ADD PUSH2 0x30AF SWAP2 SWAP1 PUSH2 0x414A JUMP JUMPDEST PUSH1 0x40 MLOAD DUP1 SWAP2 SUB SWAP1 REVERT JUMPDEST PUSH0 PUSH2 0x30C3 DUP10 DUP10 PUSH2 0x8E9 JUMP JUMPDEST SWAP1 POP PUSH0 DUP2 PUSH1 0x2 PUSH1 0x3 DUP2 LT PUSH2 0x30DA JUMPI PUSH2 0x30D9 PUSH2 0x525E JUMP JUMPDEST JUMPDEST PUSH1 0x20 MUL ADD MLOAD GT ISZERO PUSH2 0x321E JUMPI PUSH0 DUP4 PUSH20 0xFFFFFFFFFFFFFFFFFFFFFFFFFFFFFFFFFFFFFFFF AND PUSH4 0x217B2270 DUP11 PUSH1 0x40 MLOAD DUP3 PUSH4 0xFFFFFFFF AND PUSH1 0xE0 SHL DUP2 MSTORE PUSH1 0x4 ADD PUSH2 0x311F SWAP2 SWAP1 PUSH2 0x4E75 JUMP JUMPDEST PUSH1 0x20 PUSH1 0x40 MLOAD DUP1 DUP4 SUB DUP2 DUP7 GAS STATICCALL ISZERO DUP1 ISZERO PUSH2 0x313A JUMPI RETURNDATASIZE PUSH0 PUSH0 RETURNDATACOPY RETURNDATASIZE PUSH0 REVERT JUMPDEST POP POP POP POP PUSH1 0x40 MLOAD RETURNDATASIZE PUSH1 0x1F NOT PUSH1 0x1F DUP3 ADD AND DUP3 ADD DUP1 PUSH1 0x40 MSTORE POP DUP2 ADD SWAP1 PUSH2 0x315E SWAP2 SWAP1 PUSH2 0x4EA2 JUMP JUMPDEST PUSH20 0xFFFFFFFFFFFFFFFFFFFFFFFFFFFFFFFFFFFFFFFF AND DUP3 PUSH1 0x2 PUSH1 0x3 DUP2 LT PUSH2 0x3188 JUMPI PUSH2 0x3187 PUSH2 0x525E JUMP JUMPDEST JUMPDEST PUSH1 0x20 MUL ADD MLOAD PUSH1 0x40 MLOAD PUSH2 0x3199 SWAP1 PUSH2 0x4D88 JUMP JUMPDEST PUSH0 PUSH1 0x40 MLOAD DUP1 DUP4 SUB DUP2 DUP6 DUP8 GAS CALL SWAP3 POP POP POP RETURNDATASIZE DUP1 PUSH0 DUP2 EQ PUSH2 0x31D3 JUMPI PUSH1 0x40 MLOAD SWAP2 POP PUSH1 0x1F NOT PUSH1 0x3F RETURNDATASIZE ADD AND DUP3 ADD PUSH1 0x40 MSTORE RETURNDATASIZE DUP3 MSTORE RETURNDATASIZE PUSH0 PUSH1 0x20 DUP5 ADD RETURNDATACOPY PUSH2 0x31D8 JUMP JUMPDEST PUSH1 0x60 SWAP2 POP JUMPDEST POP POP SWAP1 POP DUP1 PUSH2 0x321C JUMPI PUSH1 0x40 MLOAD PUSH32 0x8C379A000000000000000000000000000000000000000000000000000000000 DUP2 MSTORE PUSH1 0x4 ADD PUSH2 0x3213 SWAP1 PUSH2 0x4DF6 JUMP JUMPDEST PUSH1 0x40 MLOAD DUP1 SWAP2 SUB SWAP1 REVERT JUMPDEST POP JUMPDEST PUSH0 DUP2 PUSH1 0x1 PUSH1 0x3 DUP2 LT PUSH2 0x3233 JUMPI PUSH2 0x3232 PUSH2 0x525E JUMP JUMPDEST JUMPDEST PUSH1 0x20 MUL ADD MLOAD GT ISZERO PUSH2 0x3300 JUMPI PUSH0 DUP8 PUSH20 0xFFFFFFFFFFFFFFFFFFFFFFFFFFFFFFFFFFFFFFFF AND DUP3 PUSH1 0x1 PUSH1 0x3 DUP2 LT PUSH2 0x326A JUMPI PUSH2 0x3269 PUSH2 0x525E JUMP JUMPDEST JUMPDEST PUSH1 0x20 MUL ADD MLOAD PUSH1 0x40 MLOAD PUSH2 0x327B SWAP1 PUSH2 0x4D88 JUMP JUMPDEST PUSH0 PUSH1 0x40 MLOAD DUP1 DUP4 SUB DUP2 DUP6 DUP8 GAS CALL SWAP3 POP POP POP RETURNDATASIZE DUP1 PUSH0 DUP2 EQ PUSH2 0x32B5 JUMPI PUSH1 0x40 MLOAD SWAP2 POP PUSH1 0x1F NOT PUSH1 0x3F RETURNDATASIZE ADD AND DUP3 ADD PUSH1 0x40 MSTORE RETURNDATASIZE DUP3 MSTORE RETURNDATASIZE PUSH0 PUSH1 0x20 DUP5 ADD RETURNDATACOPY PUSH2 0x32BA JUMP JUMPDEST PUSH1 0x60 SWAP2 POP JUMPDEST POP POP SWAP1 POP DUP1 PUSH2 0x32FE JUMPI PUSH1 0x40 MLOAD PUSH32 0x8C379A000000000000000000000000000000000000000000000000000000000 DUP2 MSTORE PUSH1 0x4 ADD PUSH2 0x32F5 SWAP1 PUSH2 0x4DF6 JUMP JUMPDEST PUSH1 0x40 MLOAD DUP1 SWAP2 SUB SWAP1 REVERT JUMPDEST POP JUMPDEST PUSH0 DUP2 PUSH0 PUSH1 0x3 DUP2 LT PUSH2 0x3314 JUMPI PUSH2 0x3313 PUSH2 0x525E JUMP JUMPDEST JUMPDEST PUSH1 0x20 MUL ADD MLOAD GT ISZERO PUSH2 0x33E7 JUMPI PUSH0 PUSH2 0x3328 PUSH2 0x127E JUMP JUMPDEST PUSH20 0xFFFFFFFFFFFFFFFFFFFFFFFFFFFFFFFFFFFFFFFF AND DUP3 PUSH0 PUSH1 0x3 DUP2 LT PUSH2 0x3351 JUMPI PUSH2 0x3350 PUSH2 0x525E JUMP JUMPDEST JUMPDEST PUSH1 0x20 MUL ADD MLOAD PUSH1 0x40 MLOAD PUSH2 0x3362 SWAP1 PUSH2 0x4D88 JUMP JUMPDEST PUSH0 PUSH1 0x40 MLOAD DUP1 DUP4 SUB DUP2 DUP6 DUP8 GAS CALL SWAP3 POP POP POP RETURNDATASIZE DUP1 PUSH0 DUP2 EQ PUSH2 0x339C JUMPI PUSH1 0x40 MLOAD SWAP2 POP PUSH1 0x1F NOT PUSH1 0x3F RETURNDATASIZE ADD AND DUP3 ADD PUSH1 0x40 MSTORE RETURNDATASIZE DUP3 MSTORE RETURNDATASIZE PUSH0 PUSH1 0x20 DUP5 ADD RETURNDATACOPY PUSH2 0x33A1 JUMP JUMPDEST PUSH1 0x60 SWAP2 POP JUMPDEST POP POP SWAP1 POP DUP1 PUSH2 0x33E5 JUMPI PUSH1 0x40 MLOAD PUSH32 0x8C379A000000000000000000000000000000000000000000000000000000000 DUP2 MSTORE PUSH1 0x4 ADD PUSH2 0x33DC SWAP1 PUSH2 0x4DF6 JUMP JUMPDEST PUSH1 0x40 MLOAD DUP1 SWAP2 SUB SWAP1 REVERT JUMPDEST POP JUMPDEST POP PUSH2 0x3762 JUMP JUMPDEST PUSH0 DUP2 PUSH0 ADD MLOAD PUSH20 0xFFFFFFFFFFFFFFFFFFFFFFFFFFFFFFFFFFFFFFFF AND PUSH4 0x65AEAA95 ADDRESS PUSH2 0x3416 PUSH2 0x3F93 JUMP JUMPDEST PUSH1 0x40 MLOAD DUP4 PUSH4 0xFFFFFFFF AND PUSH1 0xE0 SHL DUP2 MSTORE PUSH1 0x4 ADD PUSH2 0x3433 SWAP3 SWAP2 SWAP1 PUSH2 0x54F1 JUMP JUMPDEST PUSH1 0x20 PUSH1 0x40 MLOAD DUP1 DUP4 SUB DUP2 DUP7 GAS STATICCALL ISZERO DUP1 ISZERO PUSH2 0x344E JUMPI RETURNDATASIZE PUSH0 PUSH0 RETURNDATACOPY RETURNDATASIZE PUSH0 REVERT JUMPDEST POP POP POP POP PUSH1 0x40 MLOAD RETURNDATASIZE PUSH1 0x1F NOT PUSH1 0x1F DUP3 ADD AND DUP3 ADD DUP1 PUSH1 0x40 MSTORE POP DUP2 ADD SWAP1 PUSH2 0x3472 SWAP2 SWAP1 PUSH2 0x552C JUMP JUMPDEST SWAP1 POP DUP2 PUSH1 0x20 ADD MLOAD DUP2 LT ISZERO PUSH2 0x34C3 JUMPI DUP2 PUSH1 0x20 ADD MLOAD DUP2 PUSH1 0x40 MLOAD PUSH32 0xA24F8BE900000000000000000000000000000000000000000000000000000000 DUP2 MSTORE PUSH1 0x4 ADD PUSH2 0x34BA SWAP3 SWAP2 SWAP1 PUSH2 0x5557 JUMP JUMPDEST PUSH1 0x40 MLOAD DUP1 SWAP2 SUB SWAP1 REVERT JUMPDEST PUSH0 PUSH2 0x34CE DUP11 DUP11 PUSH2 0x8E9 JUMP JUMPDEST SWAP1 POP PUSH0 DUP2 PUSH1 0x2 PUSH1 0x3 DUP2 LT PUSH2 0x34E5 JUMPI PUSH2 0x34E4 PUSH2 0x525E JUMP JUMPDEST JUMPDEST PUSH1 0x20 MUL ADD MLOAD GT ISZERO PUSH2 0x35F8 JUMPI DUP3 PUSH0 ADD MLOAD PUSH20 0xFFFFFFFFFFFFFFFFFFFFFFFFFFFFFFFFFFFFFFFF AND PUSH4 0x760D9BBA PUSH2 0x3517 PUSH2 0x3F93 JUMP JUMPDEST DUP7 PUSH20 0xFFFFFFFFFFFFFFFFFFFFFFFFFFFFFFFFFFFFFFFF AND PUSH4 0x217B2270 DUP14 PUSH1 0x40 MLOAD DUP3 PUSH4 0xFFFFFFFF AND PUSH1 0xE0 SHL DUP2 MSTORE PUSH1 0x4 ADD PUSH2 0x3550 SWAP2 SWAP1 PUSH2 0x4E75 JUMP JUMPDEST PUSH1 0x20 PUSH1 0x40 MLOAD DUP1 DUP4 SUB DUP2 DUP7 GAS STATICCALL ISZERO DUP1 ISZERO PUSH2 0x356B JUMPI RETURNDATASIZE PUSH0 PUSH0 RETURNDATACOPY RETURNDATASIZE PUSH0 REVERT JUMPDEST POP POP POP POP PUSH1 0x40 MLOAD RETURNDATASIZE PUSH1 0x1F NOT PUSH1 0x1F DUP3 ADD AND DUP3 ADD DUP1 PUSH1 0x40 MSTORE POP DUP2 ADD SWAP1 PUSH2 0x358F SWAP2 SWAP1 PUSH2 0x4EA2 JUMP JUMPDEST DUP5 PUSH1 0x2 PUSH1 0x3 DUP2 LT PUSH2 0x35A3 JUMPI PUSH2 0x35A2 PUSH2 0x525E JUMP JUMPDEST JUMPDEST PUSH1 0x20 MUL ADD MLOAD DUP12 DUP12 PUSH1 0x40 MLOAD DUP7 PUSH4 0xFFFFFFFF AND PUSH1 0xE0 SHL DUP2 MSTORE PUSH1 0x4 ADD PUSH2 0x35CA SWAP6 SWAP5 SWAP4 SWAP3 SWAP2 SWAP1 PUSH2 0x534B JUMP JUMPDEST PUSH0 PUSH1 0x40 MLOAD DUP1 DUP4 SUB DUP2 PUSH0 DUP8 DUP1 EXTCODESIZE ISZERO DUP1 ISZERO PUSH2 0x35E1 JUMPI PUSH0 PUSH0 REVERT JUMPDEST POP GAS CALL ISZERO DUP1 ISZERO PUSH2 0x35F3 JUMPI RETURNDATASIZE PUSH0 PUSH0 RETURNDATACOPY RETURNDATASIZE PUSH0 REVERT JUMPDEST POP POP POP POP JUMPDEST PUSH0 DUP2 PUSH1 0x1 PUSH1 0x3 DUP2 LT PUSH2 0x360D JUMPI PUSH2 0x360C PUSH2 0x525E JUMP JUMPDEST JUMPDEST PUSH1 0x20 MUL ADD MLOAD GT ISZERO PUSH2 0x36A9 JUMPI DUP3 PUSH0 ADD MLOAD PUSH20 0xFFFFFFFFFFFFFFFFFFFFFFFFFFFFFFFFFFFFFFFF AND PUSH4 0x760D9BBA PUSH2 0x363F PUSH2 0x3F93 JUMP JUMPDEST DUP11 DUP5 PUSH1 0x1 PUSH1 0x3 DUP2 LT PUSH2 0x3654 JUMPI PUSH2 0x3653 PUSH2 0x525E JUMP JUMPDEST JUMPDEST PUSH1 0x20 MUL ADD MLOAD DUP12 DUP12 PUSH1 0x40 MLOAD DUP7 PUSH4 0xFFFFFFFF AND PUSH1 0xE0 SHL DUP2 MSTORE PUSH1 0x4 ADD PUSH2 0x367B SWAP6 SWAP5 SWAP4 SWAP3 SWAP2 SWAP1 PUSH2 0x534B JUMP JUMPDEST PUSH0 PUSH1 0x40 MLOAD DUP1 DUP4 SUB DUP2 PUSH0 DUP8 DUP1 EXTCODESIZE ISZERO DUP1 ISZERO PUSH2 0x3692 JUMPI PUSH0 PUSH0 REVERT JUMPDEST POP GAS CALL ISZERO DUP1 ISZERO PUSH2 0x36A4 JUMPI RETURNDATASIZE PUSH0 PUSH0 RETURNDATACOPY RETURNDATASIZE PUSH0 REVERT JUMPDEST POP POP POP POP JUMPDEST PUSH0 DUP2 PUSH0 PUSH1 0x3 DUP2 LT PUSH2 0x36BD JUMPI PUSH2 0x36BC PUSH2 0x525E JUMP JUMPDEST JUMPDEST PUSH1 0x20 MUL ADD MLOAD GT ISZERO PUSH2 0x375F JUMPI DUP3 PUSH0 ADD MLOAD PUSH20 0xFFFFFFFFFFFFFFFFFFFFFFFFFFFFFFFFFFFFFFFF AND PUSH4 0x760D9BBA PUSH2 0x36EF PUSH2 0x3F93 JUMP JUMPDEST PUSH2 0x36F7 PUSH2 0x127E JUMP JUMPDEST DUP5 PUSH0 PUSH1 0x3 DUP2 LT PUSH2 0x370A JUMPI PUSH2 0x3709 PUSH2 0x525E JUMP JUMPDEST JUMPDEST PUSH1 0x20 MUL ADD MLOAD DUP12 DUP12 PUSH1 0x40 MLOAD DUP7 PUSH4 0xFFFFFFFF AND PUSH1 0xE0 SHL DUP2 MSTORE PUSH1 0x4 ADD PUSH2 0x3731 SWAP6 SWAP5 SWAP4 SWAP3 SWAP2 SWAP1 PUSH2 0x534B JUMP JUMPDEST PUSH0 PUSH1 0x40 MLOAD DUP1 DUP4 SUB DUP2 PUSH0 DUP8 DUP1 EXTCODESIZE ISZERO DUP1 ISZERO PUSH2 0x3748 JUMPI PUSH0 PUSH0 REVERT JUMPDEST POP GAS CALL ISZERO DUP1 ISZERO PUSH2 0x375A JUMPI RETURNDATASIZE PUSH0 PUSH0 RETURNDATACOPY RETURNDATASIZE PUSH0 REVERT JUMPDEST POP POP POP POP JUMPDEST POP POP JUMPDEST JUMPDEST PUSH2 0x376D PUSH1 0x1 PUSH2 0x4008 JUMP JUMPDEST PUSH1 0x40 MLOAD DUP1 PUSH2 0x120 ADD PUSH1 0x40 MSTORE DUP1 DUP10 PUSH20 0xFFFFFFFFFFFFFFFFFFFFFFFFFFFFFFFFFFFFFFFF AND DUP2 MSTORE PUSH1 0x20 ADD DUP9 DUP2 MSTORE PUSH1 0x20 ADD DUP3 PUSH0 ADD MLOAD PUSH20 0xFFFFFFFFFFFFFFFFFFFFFFFFFFFFFFFFFFFFFFFF AND DUP2 MSTORE PUSH1 0x20 ADD DUP3 PUSH1 0x20 ADD MLOAD DUP2 MSTORE PUSH1 0x20 ADD DUP4 PUSH20 0xFFFFFFFFFFFFFFFFFFFFFFFFFFFFFFFFFFFFFFFF AND PUSH4 0x217B2270 DUP11 PUSH1 0x40 MLOAD DUP3 PUSH4 0xFFFFFFFF AND PUSH1 0xE0 SHL DUP2 MSTORE PUSH1 0x4 ADD PUSH2 0x37FD SWAP2 SWAP1 PUSH2 0x4E75 JUMP JUMPDEST PUSH1 0x20 PUSH1 0x40 MLOAD DUP1 DUP4 SUB DUP2 DUP7 GAS STATICCALL ISZERO DUP1 ISZERO PUSH2 0x3818 JUMPI RETURNDATASIZE PUSH0 PUSH0 RETURNDATACOPY RETURNDATASIZE PUSH0 REVERT JUMPDEST POP POP POP POP PUSH1 0x40 MLOAD RETURNDATASIZE PUSH1 0x1F NOT PUSH1 0x1F DUP3 ADD AND DUP3 ADD DUP1 PUSH1 0x40 MSTORE POP DUP2 ADD SWAP1 PUSH2 0x383C SWAP2 SWAP1 PUSH2 0x4EA2 JUMP JUMPDEST PUSH20 0xFFFFFFFFFFFFFFFFFFFFFFFFFFFFFFFFFFFFFFFF AND DUP2 MSTORE PUSH1 0x20 ADD PUSH2 0x385F PUSH2 0x3F93 JUMP JUMPDEST PUSH20 0xFFFFFFFFFFFFFFFFFFFFFFFFFFFFFFFFFFFFFFFF AND DUP2 MSTORE PUSH1 0x20 ADD DUP8 PUSH20 0xFFFFFFFFFFFFFFFFFFFFFFFFFFFFFFFFFFFFFFFF AND DUP2 MSTORE PUSH1 0x20 ADD DUP3 PUSH1 0x40 ADD MLOAD PUSH1 0xFF AND DUP2 MSTORE PUSH1 0x20 ADD TIMESTAMP DUP2 MSTORE POP PUSH1 0x5 PUSH0 PUSH2 0x38B4 PUSH1 0x1 PUSH2 0x3FFC JUMP JUMPDEST PUSH0 SHL DUP2 MSTORE PUSH1 0x20 ADD SWAP1 DUP2 MSTORE PUSH1 0x20 ADD PUSH0 KECCAK256 PUSH0 DUP3 ADD MLOAD DUP2 PUSH0 ADD PUSH0 PUSH2 0x100 EXP DUP2 SLOAD DUP2 PUSH20 0xFFFFFFFFFFFFFFFFFFFFFFFFFFFFFFFFFFFFFFFF MUL NOT AND SWAP1 DUP4 PUSH20 0xFFFFFFFFFFFFFFFFFFFFFFFFFFFFFFFFFFFFFFFF AND MUL OR SWAP1 SSTORE POP PUSH1 0x20 DUP3 ADD MLOAD DUP2 PUSH1 0x1 ADD SSTORE PUSH1 0x40 DUP3 ADD MLOAD DUP2 PUSH1 0x2 ADD PUSH0 PUSH2 0x100 EXP DUP2 SLOAD DUP2 PUSH20 0xFFFFFFFFFFFFFFFFFFFFFFFFFFFFFFFFFFFFFFFF MUL NOT AND SWAP1 DUP4 PUSH20 0xFFFFFFFFFFFFFFFFFFFFFFFFFFFFFFFFFFFFFFFF AND MUL OR SWAP1 SSTORE POP PUSH1 0x60 DUP3 ADD MLOAD DUP2 PUSH1 0x3 ADD SSTORE PUSH1 0x80 DUP3 ADD MLOAD DUP2 PUSH1 0x4 ADD PUSH0 PUSH2 0x100 EXP DUP2 SLOAD DUP2 PUSH20 0xFFFFFFFFFFFFFFFFFFFFFFFFFFFFFFFFFFFFFFFF MUL NOT AND SWAP1 DUP4 PUSH20 0xFFFFFFFFFFFFFFFFFFFFFFFFFFFFFFFFFFFFFFFF AND MUL OR SWAP1 SSTORE POP PUSH1 0xA0 DUP3 ADD MLOAD DUP2 PUSH1 0x5 ADD PUSH0 PUSH2 0x100 EXP DUP2 SLOAD DUP2 PUSH20 0xFFFFFFFFFFFFFFFFFFFFFFFFFFFFFFFFFFFFFFFF MUL NOT AND SWAP1 DUP4 PUSH20 0xFFFFFFFFFFFFFFFFFFFFFFFFFFFFFFFFFFFFFFFF AND MUL OR SWAP1 SSTORE POP PUSH1 0xC0 DUP3 ADD MLOAD DUP2 PUSH1 0x6 ADD PUSH0 PUSH2 0x100 EXP DUP2 SLOAD DUP2 PUSH20 0xFFFFFFFFFFFFFFFFFFFFFFFFFFFFFFFFFFFFFFFF MUL NOT AND SWAP1 DUP4 PUSH20 0xFFFFFFFFFFFFFFFFFFFFFFFFFFFFFFFFFFFFFFFF AND MUL OR SWAP1 SSTORE POP PUSH1 0xE0 DUP3 ADD MLOAD DUP2 PUSH1 0x6 ADD PUSH1 0x14 PUSH2 0x100 EXP DUP2 SLOAD DUP2 PUSH1 0xFF MUL NOT AND SWAP1 DUP4 PUSH1 0xFF AND MUL OR SWAP1 SSTORE POP PUSH2 0x100 DUP3 ADD MLOAD DUP2 PUSH1 0x7 ADD SSTORE SWAP1 POP POP PUSH2 0x3A6E DUP9 DUP9 DUP8 DUP8 PUSH2 0x27BE JUMP JUMPDEST POP PUSH1 0x40 MLOAD DUP1 PUSH1 0xA0 ADD PUSH1 0x40 MSTORE DUP1 PUSH0 PUSH20 0xFFFFFFFFFFFFFFFFFFFFFFFFFFFFFFFFFFFFFFFF AND DUP2 MSTORE PUSH1 0x20 ADD PUSH0 DUP2 MSTORE PUSH1 0x20 ADD PUSH0 PUSH1 0xFF AND DUP2 MSTORE PUSH1 0x20 ADD TIMESTAMP DUP2 MSTORE PUSH1 0x20 ADD PUSH0 ISZERO ISZERO DUP2 MSTORE POP PUSH1 0x3 PUSH0 DUP11 PUSH20 0xFFFFFFFFFFFFFFFFFFFFFFFFFFFFFFFFFFFFFFFF AND PUSH20 0xFFFFFFFFFFFFFFFFFFFFFFFFFFFFFFFFFFFFFFFF AND DUP2 MSTORE PUSH1 0x20 ADD SWAP1 DUP2 MSTORE PUSH1 0x20 ADD PUSH0 KECCAK256 PUSH0 DUP10 DUP2 MSTORE PUSH1 0x20 ADD SWAP1 DUP2 MSTORE PUSH1 0x20 ADD PUSH0 KECCAK256 PUSH0 DUP3 ADD MLOAD DUP2 PUSH0 ADD PUSH0 PUSH2 0x100 EXP DUP2 SLOAD DUP2 PUSH20 0xFFFFFFFFFFFFFFFFFFFFFFFFFFFFFFFFFFFFFFFF MUL NOT AND SWAP1 DUP4 PUSH20 0xFFFFFFFFFFFFFFFFFFFFFFFFFFFFFFFFFFFFFFFF AND MUL OR SWAP1 SSTORE POP PUSH1 0x20 DUP3 ADD MLOAD DUP2 PUSH1 0x1 ADD SSTORE PUSH1 0x40 DUP3 ADD MLOAD DUP2 PUSH1 0x2 ADD PUSH0 PUSH2 0x100 EXP DUP2 SLOAD DUP2 PUSH1 0xFF MUL NOT AND SWAP1 DUP4 PUSH1 0xFF AND MUL OR SWAP1 SSTORE POP PUSH1 0x60 DUP3 ADD MLOAD DUP2 PUSH1 0x3 ADD SSTORE PUSH1 0x80 DUP3 ADD MLOAD DUP2 PUSH1 0x4 ADD PUSH0 PUSH2 0x100 EXP DUP2 SLOAD DUP2 PUSH1 0xFF MUL NOT AND SWAP1 DUP4 ISZERO ISZERO MUL OR SWAP1 SSTORE POP SWAP1 POP POP DUP2 PUSH20 0xFFFFFFFFFFFFFFFFFFFFFFFFFFFFFFFFFFFFFFFF AND PUSH4 0x217B2270 DUP9 PUSH1 0x40 MLOAD DUP3 PUSH4 0xFFFFFFFF AND PUSH1 0xE0 SHL DUP2 MSTORE PUSH1 0x4 ADD PUSH2 0x3BD0 SWAP2 SWAP1 PUSH2 0x4E75 JUMP JUMPDEST PUSH1 0x20 PUSH1 0x40 MLOAD DUP1 DUP4 SUB DUP2 DUP7 GAS STATICCALL ISZERO DUP1 ISZERO PUSH2 0x3BEB JUMPI RETURNDATASIZE PUSH0 PUSH0 RETURNDATACOPY RETURNDATASIZE PUSH0 REVERT JUMPDEST POP POP POP POP PUSH1 0x40 MLOAD RETURNDATASIZE PUSH1 0x1F NOT PUSH1 0x1F DUP3 ADD AND DUP3 ADD DUP1 PUSH1 0x40 MSTORE POP DUP2 ADD SWAP1 PUSH2 0x3C0F SWAP2 SWAP1 PUSH2 0x4EA2 JUMP JUMPDEST PUSH20 0xFFFFFFFFFFFFFFFFFFFFFFFFFFFFFFFFFFFFFFFF AND DUP8 DUP10 PUSH20 0xFFFFFFFFFFFFFFFFFFFFFFFFFFFFFFFFFFFFFFFF AND PUSH32 0xCBA23A4D55BADB5C8026B71E35B1D7520F7EC7128EED76C0E620731383B494D8 DUP5 PUSH0 ADD MLOAD DUP6 PUSH1 0x20 ADD MLOAD PUSH2 0x3C6F PUSH2 0x3F93 JUMP JUMPDEST DUP13 DUP9 PUSH1 0x40 ADD MLOAD TIMESTAMP PUSH1 0x40 MLOAD PUSH2 0x3C88 SWAP7 SWAP6 SWAP5 SWAP4 SWAP3 SWAP2 SWAP1 PUSH2 0x557E JUMP JUMPDEST PUSH1 0x40 MLOAD DUP1 SWAP2 SUB SWAP1 LOG4 PUSH1 0x1 SWAP3 POP POP POP SWAP6 SWAP5 POP POP POP POP POP JUMP JUMPDEST PUSH1 0x2 PUSH0 SWAP1 SLOAD SWAP1 PUSH2 0x100 EXP SWAP1 DIV PUSH1 0xFF AND DUP2 JUMP JUMPDEST PUSH1 0x3 PUSH1 0x20 MSTORE DUP2 PUSH0 MSTORE PUSH1 0x40 PUSH0 KECCAK256 PUSH1 0x20 MSTORE DUP1 PUSH0 MSTORE PUSH1 0x40 PUSH0 KECCAK256 PUSH0 SWAP2 POP SWAP2 POP POP DUP1 PUSH0 ADD PUSH0 SWAP1 SLOAD SWAP1 PUSH2 0x100 EXP SWAP1 DIV PUSH20 0xFFFFFFFFFFFFFFFFFFFFFFFFFFFFFFFFFFFFFFFF AND SWAP1 DUP1 PUSH1 0x1 ADD SLOAD SWAP1 DUP1 PUSH1 0x2 ADD PUSH0 SWAP1 SLOAD SWAP1 PUSH2 0x100 EXP SWAP1 DIV PUSH1 0xFF AND SWAP1 DUP1 PUSH1 0x3 ADD SLOAD SWAP1 DUP1 PUSH1 0x4 ADD PUSH0 SWAP1 SLOAD SWAP1 PUSH2 0x100 EXP SWAP1 DIV PUSH1 0xFF AND SWAP1 POP DUP6 JUMP JUMPDEST PUSH2 0x3D2D PUSH2 0x3DA9 JUMP JUMPDEST PUSH0 PUSH20 0xFFFFFFFFFFFFFFFFFFFFFFFFFFFFFFFFFFFFFFFF AND DUP2 PUSH20 0xFFFFFFFFFFFFFFFFFFFFFFFFFFFFFFFFFFFFFFFF AND SUB PUSH2 0x3D9D JUMPI PUSH0 PUSH1 0x40 MLOAD PUSH32 0x1E4FBDF700000000000000000000000000000000000000000000000000000000 DUP2 MSTORE PUSH1 0x4 ADD PUSH2 0x3D94 SWAP2 SWAP1 PUSH2 0x472C JUMP JUMPDEST PUSH1 0x40 MLOAD DUP1 SWAP2 SUB SWAP1 REVERT JUMPDEST PUSH2 0x3DA6 DUP2 PUSH2 0x3E91 JUMP JUMPDEST POP JUMP JUMPDEST PUSH2 0x3DB1 PUSH2 0x3F93 JUMP JUMPDEST PUSH20 0xFFFFFFFFFFFFFFFFFFFFFFFFFFFFFFFFFFFFFFFF AND PUSH2 0x3DCF PUSH2 0x127E JUMP JUMPDEST PUSH20 0xFFFFFFFFFFFFFFFFFFFFFFFFFFFFFFFFFFFFFFFF AND EQ PUSH2 0x3E2E JUMPI PUSH2 0x3DF2 PUSH2 0x3F93 JUMP JUMPDEST PUSH1 0x40 MLOAD PUSH32 0x118CDAA700000000000000000000000000000000000000000000000000000000 DUP2 MSTORE PUSH1 0x4 ADD PUSH2 0x3E25 SWAP2 SWAP1 PUSH2 0x472C JUMP JUMPDEST PUSH1 0x40 MLOAD DUP1 SWAP2 SUB SWAP1 REVERT JUMPDEST JUMP JUMPDEST PUSH2 0x3E38 PUSH2 0x401C JUMP JUMPDEST PUSH0 PUSH0 PUSH1 0x14 PUSH2 0x100 EXP DUP2 SLOAD DUP2 PUSH1 0xFF MUL NOT AND SWAP1 DUP4 ISZERO ISZERO MUL OR SWAP1 SSTORE POP PUSH32 0x5DB9EE0A495BF2E6FF9C91A7834C1BA4FDD244A5E8AA4E537BD38AEAE4B073AA PUSH2 0x3E7A PUSH2 0x3F93 JUMP JUMPDEST PUSH1 0x40 MLOAD PUSH2 0x3E87 SWAP2 SWAP1 PUSH2 0x472C JUMP JUMPDEST PUSH1 0x40 MLOAD DUP1 SWAP2 SUB SWAP1 LOG1 JUMP JUMPDEST PUSH0 PUSH0 PUSH0 SWAP1 SLOAD SWAP1 PUSH2 0x100 EXP SWAP1 DIV PUSH20 0xFFFFFFFFFFFFFFFFFFFFFFFFFFFFFFFFFFFFFFFF AND SWAP1 POP DUP2 PUSH0 PUSH0 PUSH2 0x100 EXP DUP2 SLOAD DUP2 PUSH20 0xFFFFFFFFFFFFFFFFFFFFFFFFFFFFFFFFFFFFFFFF MUL NOT AND SWAP1 DUP4 PUSH20 0xFFFFFFFFFFFFFFFFFFFFFFFFFFFFFFFFFFFFFFFF AND MUL OR SWAP1 SSTORE POP DUP2 PUSH20 0xFFFFFFFFFFFFFFFFFFFFFFFFFFFFFFFFFFFFFFFF AND DUP2 PUSH20 0xFFFFFFFFFFFFFFFFFFFFFFFFFFFFFFFFFFFFFFFF AND PUSH32 0x8BE0079C531659141344CD1FD0A4F28419497F9722A3DAAFE3B4186F6B6457E0 PUSH1 0x40 MLOAD PUSH1 0x40 MLOAD DUP1 SWAP2 SUB SWAP1 LOG3 POP POP JUMP JUMPDEST PUSH2 0x3F5A PUSH2 0xA87 JUMP JUMPDEST ISZERO PUSH2 0x3F91 JUMPI PUSH1 0x40 MLOAD PUSH32 0xD93C066500000000000000000000000000000000000000000000000000000000 DUP2 MSTORE PUSH1 0x4 ADD PUSH1 0x40 MLOAD DUP1 SWAP2 SUB SWAP1 REVERT JUMPDEST JUMP JUMPDEST PUSH0 CALLER SWAP1 POP SWAP1 JUMP JUMPDEST PUSH2 0x3FA2 PUSH2 0x3F52 JUMP JUMPDEST PUSH1 0x1 PUSH0 PUSH1 0x14 PUSH2 0x100 EXP DUP2 SLOAD DUP2 PUSH1 0xFF MUL NOT AND SWAP1 DUP4 ISZERO ISZERO MUL OR SWAP1 SSTORE POP PUSH32 0x62E78CEA01BEE320CD4E420270B5EA74000D11B0C9F74754EBDBFC544B05A258 PUSH2 0x3FE5 PUSH2 0x3F93 JUMP JUMPDEST PUSH1 0x40 MLOAD PUSH2 0x3FF2 SWAP2 SWAP1 PUSH2 0x472C JUMP JUMPDEST PUSH1 0x40 MLOAD DUP1 SWAP2 SUB SWAP1 LOG1 JUMP JUMPDEST PUSH0 DUP2 PUSH0 ADD SLOAD SWAP1 POP SWAP2 SWAP1 POP JUMP JUMPDEST PUSH1 0x1 DUP2 PUSH0 ADD PUSH0 DUP3 DUP3 SLOAD ADD SWAP3 POP POP DUP2 SWAP1 SSTORE POP POP JUMP JUMPDEST PUSH2 0x4024 PUSH2 0xA87 JUMP JUMPDEST PUSH2 0x405A JUMPI PUSH1 0x40 MLOAD PUSH32 0x8DFC202B00000000000000000000000000000000000000000000000000000000 DUP2 MSTORE PUSH1 0x4 ADD PUSH1 0x40 MLOAD DUP1 SWAP2 SUB SWAP1 REVERT JUMPDEST JUMP JUMPDEST PUSH1 0x40 MLOAD DUP1 PUSH1 0x60 ADD PUSH1 0x40 MSTORE DUP1 PUSH1 0x3 SWAP1 PUSH1 0x20 DUP3 MUL DUP1 CALLDATASIZE DUP4 CALLDATACOPY DUP1 DUP3 ADD SWAP2 POP POP SWAP1 POP POP SWAP1 JUMP JUMPDEST PUSH1 0x40 MLOAD DUP1 PUSH2 0x120 ADD PUSH1 0x40 MSTORE DUP1 PUSH0 PUSH20 0xFFFFFFFFFFFFFFFFFFFFFFFFFFFFFFFFFFFFFFFF AND DUP2 MSTORE PUSH1 0x20 ADD PUSH0 DUP2 MSTORE PUSH1 0x20 ADD PUSH0 PUSH20 0xFFFFFFFFFFFFFFFFFFFFFFFFFFFFFFFFFFFFFFFF AND DUP2 MSTORE PUSH1 0x20 ADD PUSH0 DUP2 MSTORE PUSH1 0x20 ADD PUSH0 PUSH20 0xFFFFFFFFFFFFFFFFFFFFFFFFFFFFFFFFFFFFFFFF AND DUP2 MSTORE PUSH1 0x20 ADD PUSH0 PUSH20 0xFFFFFFFFFFFFFFFFFFFFFFFFFFFFFFFFFFFFFFFF AND DUP2 MSTORE PUSH1 0x20 ADD PUSH0 PUSH20 0xFFFFFFFFFFFFFFFFFFFFFFFFFFFFFFFFFFFFFFFF AND DUP2 MSTORE PUSH1 0x20 ADD PUSH0 PUSH1 0xFF AND DUP2 MSTORE PUSH1 0x20 ADD PUSH0 DUP2 MSTORE POP SWAP1 JUMP JUMPDEST PUSH0 DUP2 SWAP1 POP SWAP2 SWAP1 POP JUMP JUMPDEST PUSH2 0x4144 DUP2 PUSH2 0x4132 JUMP JUMPDEST DUP3 MSTORE POP POP JUMP JUMPDEST PUSH0 PUSH1 0x20 DUP3 ADD SWAP1 POP PUSH2 0x415D PUSH0 DUP4 ADD DUP5 PUSH2 0x413B JUMP JUMPDEST SWAP3 SWAP2 POP POP JUMP JUMPDEST PUSH0 PUSH1 0x40 MLOAD SWAP1 POP SWAP1 JUMP JUMPDEST PUSH0 PUSH0 REVERT JUMPDEST PUSH0 PUSH0 REVERT JUMPDEST PUSH0 DUP2 SWAP1 POP SWAP2 SWAP1 POP JUMP JUMPDEST PUSH2 0x4186 DUP2 PUSH2 0x4174 JUMP JUMPDEST DUP2 EQ PUSH2 0x4190 JUMPI PUSH0 PUSH0 REVERT JUMPDEST POP JUMP JUMPDEST PUSH0 DUP2 CALLDATALOAD SWAP1 POP PUSH2 0x41A1 DUP2 PUSH2 0x417D JUMP JUMPDEST SWAP3 SWAP2 POP POP JUMP JUMPDEST PUSH0 PUSH1 0x20 DUP3 DUP5 SUB SLT ISZERO PUSH2 0x41BC JUMPI PUSH2 0x41BB PUSH2 0x416C JUMP JUMPDEST JUMPDEST PUSH0 PUSH2 0x41C9 DUP5 DUP3 DUP6 ADD PUSH2 0x4193 JUMP JUMPDEST SWAP2 POP POP SWAP3 SWAP2 POP POP JUMP JUMPDEST PUSH0 PUSH20 0xFFFFFFFFFFFFFFFFFFFFFFFFFFFFFFFFFFFFFFFF DUP3 AND SWAP1 POP SWAP2 SWAP1 POP JUMP JUMPDEST PUSH0 PUSH2 0x41FB DUP3 PUSH2 0x41D2 JUMP JUMPDEST SWAP1 POP SWAP2 SWAP1 POP JUMP JUMPDEST PUSH2 0x420B DUP2 PUSH2 0x41F1 JUMP JUMPDEST DUP3 MSTORE POP POP JUMP JUMPDEST PUSH2 0x421A DUP2 PUSH2 0x4174 JUMP JUMPDEST DUP3 MSTORE POP POP JUMP JUMPDEST PUSH0 PUSH1 0xFF DUP3 AND SWAP1 POP SWAP2 SWAP1 POP JUMP JUMPDEST PUSH2 0x4235 DUP2 PUSH2 0x4220 JUMP JUMPDEST DUP3 MSTORE POP POP JUMP JUMPDEST PUSH0 PUSH2 0x120 DUP3 ADD SWAP1 POP PUSH2 0x424F PUSH0 DUP4 ADD DUP13 PUSH2 0x4202 JUMP JUMPDEST PUSH2 0x425C PUSH1 0x20 DUP4 ADD DUP12 PUSH2 0x4211 JUMP JUMPDEST PUSH2 0x4269 PUSH1 0x40 DUP4 ADD DUP11 PUSH2 0x4202 JUMP JUMPDEST PUSH2 0x4276 PUSH1 0x60 DUP4 ADD DUP10 PUSH2 0x413B JUMP JUMPDEST PUSH2 0x4283 PUSH1 0x80 DUP4 ADD DUP9 PUSH2 0x4202 JUMP JUMPDEST PUSH2 0x4290 PUSH1 0xA0 DUP4 ADD DUP8 PUSH2 0x4202 JUMP JUMPDEST PUSH2 0x429D PUSH1 0xC0 DUP4 ADD DUP7 PUSH2 0x4202 JUMP JUMPDEST PUSH2 0x42AA PUSH1 0xE0 DUP4 ADD DUP6 PUSH2 0x422C JUMP JUMPDEST PUSH2 0x42B8 PUSH2 0x100 DUP4 ADD DUP5 PUSH2 0x413B JUMP JUMPDEST SWAP11 SWAP10 POP POP POP POP POP POP POP POP POP POP JUMP JUMPDEST PUSH0 PUSH2 0x42D0 DUP3 PUSH2 0x41D2 JUMP JUMPDEST SWAP1 POP SWAP2 SWAP1 POP JUMP JUMPDEST PUSH2 0x42E0 DUP2 PUSH2 0x42C6 JUMP JUMPDEST DUP2 EQ PUSH2 0x42EA JUMPI PUSH0 PUSH0 REVERT JUMPDEST POP JUMP JUMPDEST PUSH0 DUP2 CALLDATALOAD SWAP1 POP PUSH2 0x42FB DUP2 PUSH2 0x42D7 JUMP JUMPDEST SWAP3 SWAP2 POP POP JUMP JUMPDEST PUSH2 0x430A DUP2 PUSH2 0x4132 JUMP JUMPDEST DUP2 EQ PUSH2 0x4314 JUMPI PUSH0 PUSH0 REVERT JUMPDEST POP JUMP JUMPDEST PUSH0 DUP2 CALLDATALOAD SWAP1 POP PUSH2 0x4325 DUP2 PUSH2 0x4301 JUMP JUMPDEST SWAP3 SWAP2 POP POP JUMP JUMPDEST PUSH0 PUSH0 PUSH1 0x40 DUP4 DUP6 SUB SLT ISZERO PUSH2 0x4341 JUMPI PUSH2 0x4340 PUSH2 0x416C JUMP JUMPDEST JUMPDEST PUSH0 PUSH2 0x434E DUP6 DUP3 DUP7 ADD PUSH2 0x42ED JUMP JUMPDEST SWAP3 POP POP PUSH1 0x20 PUSH2 0x435F DUP6 DUP3 DUP7 ADD PUSH2 0x4317 JUMP JUMPDEST SWAP2 POP POP SWAP3 POP SWAP3 SWAP1 POP JUMP JUMPDEST PUSH2 0x4372 DUP2 PUSH2 0x41F1 JUMP JUMPDEST DUP2 EQ PUSH2 0x437C JUMPI PUSH0 PUSH0 REVERT JUMPDEST POP JUMP JUMPDEST PUSH0 DUP2 CALLDATALOAD SWAP1 POP PUSH2 0x438D DUP2 PUSH2 0x4369 JUMP JUMPDEST SWAP3 SWAP2 POP POP JUMP JUMPDEST PUSH0 PUSH0 PUSH1 0x40 DUP4 DUP6 SUB SLT ISZERO PUSH2 0x43A9 JUMPI PUSH2 0x43A8 PUSH2 0x416C JUMP JUMPDEST JUMPDEST PUSH0 PUSH2 0x43B6 DUP6 DUP3 DUP7 ADD PUSH2 0x437F JUMP JUMPDEST SWAP3 POP POP PUSH1 0x20 PUSH2 0x43C7 DUP6 DUP3 DUP7 ADD PUSH2 0x4193 JUMP JUMPDEST SWAP2 POP POP SWAP3 POP SWAP3 SWAP1 POP JUMP JUMPDEST PUSH0 PUSH1 0x3 SWAP1 POP SWAP2 SWAP1 POP JUMP JUMPDEST PUSH0 DUP2 SWAP1 POP SWAP3 SWAP2 POP POP JUMP JUMPDEST PUSH0 DUP2 SWAP1 POP SWAP2 SWAP1 POP JUMP JUMPDEST PUSH2 0x43F7 DUP2 PUSH2 0x4132 JUMP JUMPDEST DUP3 MSTORE POP POP JUMP JUMPDEST PUSH0 PUSH2 0x4408 DUP4 DUP4 PUSH2 0x43EE JUMP JUMPDEST PUSH1 0x20 DUP4 ADD SWAP1 POP SWAP3 SWAP2 POP POP JUMP JUMPDEST PUSH0 PUSH1 0x20 DUP3 ADD SWAP1 POP SWAP2 SWAP1 POP JUMP JUMPDEST PUSH2 0x4429 DUP2 PUSH2 0x43D1 JUMP JUMPDEST PUSH2 0x4433 DUP2 DUP5 PUSH2 0x43DB JUMP JUMPDEST SWAP3 POP PUSH2 0x443E DUP3 PUSH2 0x43E5 JUMP JUMPDEST DUP1 PUSH0 JUMPDEST DUP4 DUP2 LT ISZERO PUSH2 0x446E JUMPI DUP2 MLOAD PUSH2 0x4455 DUP8 DUP3 PUSH2 0x43FD JUMP JUMPDEST SWAP7 POP PUSH2 0x4460 DUP4 PUSH2 0x4414 JUMP JUMPDEST SWAP3 POP POP PUSH1 0x1 DUP2 ADD SWAP1 POP PUSH2 0x4441 JUMP JUMPDEST POP POP POP POP POP POP JUMP JUMPDEST PUSH0 PUSH1 0x60 DUP3 ADD SWAP1 POP PUSH2 0x4489 PUSH0 DUP4 ADD DUP5 PUSH2 0x4420 JUMP JUMPDEST SWAP3 SWAP2 POP POP JUMP JUMPDEST PUSH0 DUP2 ISZERO ISZERO SWAP1 POP SWAP2 SWAP1 POP JUMP JUMPDEST PUSH2 0x44A3 DUP2 PUSH2 0x448F JUMP JUMPDEST DUP3 MSTORE POP POP JUMP JUMPDEST PUSH0 PUSH1 0x20 DUP3 ADD SWAP1 POP PUSH2 0x44BC PUSH0 DUP4 ADD DUP5 PUSH2 0x449A JUMP JUMPDEST SWAP3 SWAP2 POP POP JUMP JUMPDEST PUSH0 PUSH1 0x20 DUP3 DUP5 SUB SLT ISZERO PUSH2 0x44D7 JUMPI PUSH2 0x44D6 PUSH2 0x416C JUMP JUMPDEST JUMPDEST PUSH0 PUSH2 0x44E4 DUP5 DUP3 DUP6 ADD PUSH2 0x437F JUMP JUMPDEST SWAP2 POP POP SWAP3 SWAP2 POP POP JUMP JUMPDEST PUSH0 DUP2 MLOAD SWAP1 POP SWAP2 SWAP1 POP JUMP JUMPDEST PUSH0 DUP3 DUP3 MSTORE PUSH1 0x20 DUP3 ADD SWAP1 POP SWAP3 SWAP2 POP POP JUMP JUMPDEST PUSH0 DUP2 SWAP1 POP PUSH1 0x20 DUP3 ADD SWAP1 POP SWAP2 SWAP1 POP JUMP JUMPDEST PUSH2 0x451F DUP2 PUSH2 0x41F1 JUMP JUMPDEST DUP3 MSTORE POP POP JUMP JUMPDEST PUSH2 0x452E DUP2 PUSH2 0x4174 JUMP JUMPDEST DUP3 MSTORE POP POP JUMP JUMPDEST PUSH2 0x453D DUP2 PUSH2 0x4220 JUMP JUMPDEST DUP3 MSTORE POP POP JUMP JUMPDEST PUSH2 0x454C DUP2 PUSH2 0x448F JUMP JUMPDEST DUP3 MSTORE POP POP JUMP JUMPDEST PUSH1 0xE0 DUP3 ADD PUSH0 DUP3 ADD MLOAD PUSH2 0x4566 PUSH0 DUP6 ADD DUP3 PUSH2 0x4516 JUMP JUMPDEST POP PUSH1 0x20 DUP3 ADD MLOAD PUSH2 0x4579 PUSH1 0x20 DUP6 ADD DUP3 PUSH2 0x4525 JUMP JUMPDEST POP PUSH1 0x40 DUP3 ADD MLOAD PUSH2 0x458C PUSH1 0x40 DUP6 ADD DUP3 PUSH2 0x4516 JUMP JUMPDEST POP PUSH1 0x60 DUP3 ADD MLOAD PUSH2 0x459F PUSH1 0x60 DUP6 ADD DUP3 PUSH2 0x43EE JUMP JUMPDEST POP PUSH1 0x80 DUP3 ADD MLOAD PUSH2 0x45B2 PUSH1 0x80 DUP6 ADD DUP3 PUSH2 0x4534 JUMP JUMPDEST POP PUSH1 0xA0 DUP3 ADD MLOAD PUSH2 0x45C5 PUSH1 0xA0 DUP6 ADD DUP3 PUSH2 0x43EE JUMP JUMPDEST POP PUSH1 0xC0 DUP3 ADD MLOAD PUSH2 0x45D8 PUSH1 0xC0 DUP6 ADD DUP3 PUSH2 0x4543 JUMP JUMPDEST POP POP POP POP JUMP JUMPDEST PUSH0 PUSH2 0x45E9 DUP4 DUP4 PUSH2 0x4552 JUMP JUMPDEST PUSH1 0xE0 DUP4 ADD SWAP1 POP SWAP3 SWAP2 POP POP JUMP JUMPDEST PUSH0 PUSH1 0x20 DUP3 ADD SWAP1 POP SWAP2 SWAP1 POP JUMP JUMPDEST PUSH0 PUSH2 0x460B DUP3 PUSH2 0x44ED JUMP JUMPDEST PUSH2 0x4615 DUP2 DUP6 PUSH2 0x44F7 JUMP JUMPDEST SWAP4 POP PUSH2 0x4620 DUP4 PUSH2 0x4507 JUMP JUMPDEST DUP1 PUSH0 JUMPDEST DUP4 DUP2 LT ISZERO PUSH2 0x4650 JUMPI DUP2 MLOAD PUSH2 0x4637 DUP9 DUP3 PUSH2 0x45DE JUMP JUMPDEST SWAP8 POP PUSH2 0x4642 DUP4 PUSH2 0x45F5 JUMP JUMPDEST SWAP3 POP POP PUSH1 0x1 DUP2 ADD SWAP1 POP PUSH2 0x4623 JUMP JUMPDEST POP DUP6 SWAP4 POP POP POP POP SWAP3 SWAP2 POP POP JUMP JUMPDEST PUSH0 PUSH1 0x40 DUP3 ADD SWAP1 POP PUSH2 0x4670 PUSH0 DUP4 ADD DUP6 PUSH2 0x413B JUMP JUMPDEST DUP2 DUP2 SUB PUSH1 0x20 DUP4 ADD MSTORE PUSH2 0x4682 DUP2 DUP5 PUSH2 0x4601 JUMP JUMPDEST SWAP1 POP SWAP4 SWAP3 POP POP POP JUMP JUMPDEST PUSH2 0x4694 DUP2 PUSH2 0x4220 JUMP JUMPDEST DUP2 EQ PUSH2 0x469E JUMPI PUSH0 PUSH0 REVERT JUMPDEST POP JUMP JUMPDEST PUSH0 DUP2 CALLDATALOAD SWAP1 POP PUSH2 0x46AF DUP2 PUSH2 0x468B JUMP JUMPDEST SWAP3 SWAP2 POP POP JUMP JUMPDEST PUSH0 PUSH0 PUSH0 PUSH0 PUSH0 PUSH1 0xA0 DUP7 DUP9 SUB SLT ISZERO PUSH2 0x46CE JUMPI PUSH2 0x46CD PUSH2 0x416C JUMP JUMPDEST JUMPDEST PUSH0 PUSH2 0x46DB DUP9 DUP3 DUP10 ADD PUSH2 0x437F JUMP JUMPDEST SWAP6 POP POP PUSH1 0x20 PUSH2 0x46EC DUP9 DUP3 DUP10 ADD PUSH2 0x4193 JUMP JUMPDEST SWAP5 POP POP PUSH1 0x40 PUSH2 0x46FD DUP9 DUP3 DUP10 ADD PUSH2 0x437F JUMP JUMPDEST SWAP4 POP POP PUSH1 0x60 PUSH2 0x470E DUP9 DUP3 DUP10 ADD PUSH2 0x4317 JUMP JUMPDEST SWAP3 POP POP PUSH1 0x80 PUSH2 0x471F DUP9 DUP3 DUP10 ADD PUSH2 0x46A1 JUMP JUMPDEST SWAP2 POP POP SWAP3 SWAP6 POP SWAP3 SWAP6 SWAP1 SWAP4 POP JUMP JUMPDEST PUSH0 PUSH1 0x20 DUP3 ADD SWAP1 POP PUSH2 0x473F PUSH0 DUP4 ADD DUP5 PUSH2 0x4202 JUMP JUMPDEST SWAP3 SWAP2 POP POP JUMP JUMPDEST PUSH0 PUSH1 0x20 DUP3 DUP5 SUB SLT ISZERO PUSH2 0x475A JUMPI PUSH2 0x4759 PUSH2 0x416C JUMP JUMPDEST JUMPDEST PUSH0 PUSH2 0x4767 DUP5 DUP3 DUP6 ADD PUSH2 0x46A1 JUMP JUMPDEST SWAP2 POP POP SWAP3 SWAP2 POP POP JUMP JUMPDEST PUSH0 PUSH0 PUSH1 0x40 DUP4 DUP6 SUB SLT ISZERO PUSH2 0x4786 JUMPI PUSH2 0x4785 PUSH2 0x416C JUMP JUMPDEST JUMPDEST PUSH0 PUSH2 0x4793 DUP6 DUP3 DUP7 ADD PUSH2 0x4317 JUMP JUMPDEST SWAP3 POP POP PUSH1 0x20 PUSH2 0x47A4 DUP6 DUP3 DUP7 ADD PUSH2 0x4317 JUMP JUMPDEST SWAP2 POP POP SWAP3 POP SWAP3 SWAP1 POP JUMP JUMPDEST PUSH2 0x47B7 DUP2 PUSH2 0x448F JUMP JUMPDEST DUP2 EQ PUSH2 0x47C1 JUMPI PUSH0 PUSH0 REVERT JUMPDEST POP JUMP JUMPDEST PUSH0 DUP2 CALLDATALOAD SWAP1 POP PUSH2 0x47D2 DUP2 PUSH2 0x47AE JUMP JUMPDEST SWAP3 SWAP2 POP POP JUMP JUMPDEST PUSH0 PUSH0 REVERT JUMPDEST PUSH0 PUSH0 REVERT JUMPDEST PUSH0 PUSH1 0x1F NOT PUSH1 0x1F DUP4 ADD AND SWAP1 POP SWAP2 SWAP1 POP JUMP JUMPDEST PUSH32 0x4E487B7100000000000000000000000000000000000000000000000000000000 PUSH0 MSTORE PUSH1 0x41 PUSH1 0x4 MSTORE PUSH1 0x24 PUSH0 REVERT JUMPDEST PUSH2 0x4826 DUP3 PUSH2 0x47E0 JUMP JUMPDEST DUP2 ADD DUP2 DUP2 LT PUSH8 0xFFFFFFFFFFFFFFFF DUP3 GT OR ISZERO PUSH2 0x4845 JUMPI PUSH2 0x4844 PUSH2 0x47F0 JUMP JUMPDEST JUMPDEST DUP1 PUSH1 0x40 MSTORE POP POP POP JUMP JUMPDEST PUSH0 PUSH2 0x4857 PUSH2 0x4163 JUMP JUMPDEST SWAP1 POP PUSH2 0x4863 DUP3 DUP3 PUSH2 0x481D JUMP JUMPDEST SWAP2 SWAP1 POP JUMP JUMPDEST PUSH0 PUSH8 0xFFFFFFFFFFFFFFFF DUP3 GT ISZERO PUSH2 0x4882 JUMPI PUSH2 0x4881 PUSH2 0x47F0 JUMP JUMPDEST JUMPDEST PUSH2 0x488B DUP3 PUSH2 0x47E0 JUMP JUMPDEST SWAP1 POP PUSH1 0x20 DUP2 ADD SWAP1 POP SWAP2 SWAP1 POP JUMP JUMPDEST DUP3 DUP2 DUP4 CALLDATACOPY PUSH0 DUP4 DUP4 ADD MSTORE POP POP POP JUMP JUMPDEST PUSH0 PUSH2 0x48B8 PUSH2 0x48B3 DUP5 PUSH2 0x4868 JUMP JUMPDEST PUSH2 0x484E JUMP JUMPDEST SWAP1 POP DUP3 DUP2 MSTORE PUSH1 0x20 DUP2 ADD DUP5 DUP5 DUP5 ADD GT ISZERO PUSH2 0x48D4 JUMPI PUSH2 0x48D3 PUSH2 0x47DC JUMP JUMPDEST JUMPDEST PUSH2 0x48DF DUP5 DUP3 DUP6 PUSH2 0x4898 JUMP JUMPDEST POP SWAP4 SWAP3 POP POP POP JUMP JUMPDEST PUSH0 DUP3 PUSH1 0x1F DUP4 ADD SLT PUSH2 0x48FB JUMPI PUSH2 0x48FA PUSH2 0x47D8 JUMP JUMPDEST JUMPDEST DUP2 CALLDATALOAD PUSH2 0x490B DUP5 DUP3 PUSH1 0x20 DUP7 ADD PUSH2 0x48A6 JUMP JUMPDEST SWAP2 POP POP SWAP3 SWAP2 POP POP JUMP JUMPDEST PUSH0 PUSH0 PUSH0 PUSH0 PUSH0 PUSH1 0xA0 DUP7 DUP9 SUB SLT ISZERO PUSH2 0x492D JUMPI PUSH2 0x492C PUSH2 0x416C JUMP JUMPDEST JUMPDEST PUSH0 PUSH2 0x493A DUP9 DUP3 DUP10 ADD PUSH2 0x437F JUMP JUMPDEST SWAP6 POP POP PUSH1 0x20 PUSH2 0x494B DUP9 DUP3 DUP10 ADD PUSH2 0x437F JUMP JUMPDEST SWAP5 POP POP PUSH1 0x40 PUSH2 0x495C DUP9 DUP3 DUP10 ADD PUSH2 0x4317 JUMP JUMPDEST SWAP4 POP POP PUSH1 0x60 PUSH2 0x496D DUP9 DUP3 DUP10 ADD PUSH2 0x47C4 JUMP JUMPDEST SWAP3 POP POP PUSH1 0x80 DUP7 ADD CALLDATALOAD PUSH8 0xFFFFFFFFFFFFFFFF DUP2 GT ISZERO PUSH2 0x498E JUMPI PUSH2 0x498D PUSH2 0x4170 JUMP JUMPDEST JUMPDEST PUSH2 0x499A DUP9 DUP3 DUP10 ADD PUSH2 0x48E7 JUMP JUMPDEST SWAP2 POP POP SWAP3 SWAP6 POP SWAP3 SWAP6 SWAP1 SWAP4 POP JUMP JUMPDEST PUSH0 PUSH0 PUSH1 0x40 DUP4 DUP6 SUB SLT ISZERO PUSH2 0x49BD JUMPI PUSH2 0x49BC PUSH2 0x416C JUMP JUMPDEST JUMPDEST PUSH0 PUSH2 0x49CA DUP6 DUP3 DUP7 ADD PUSH2 0x437F JUMP JUMPDEST SWAP3 POP POP PUSH1 0x20 PUSH2 0x49DB DUP6 DUP3 DUP7 ADD PUSH2 0x4317 JUMP JUMPDEST SWAP2 POP POP SWAP3 POP SWAP3 SWAP1 POP JUMP JUMPDEST PUSH0 PUSH1 0xE0 DUP3 ADD SWAP1 POP PUSH2 0x49F8 PUSH0 DUP4 ADD DUP11 PUSH2 0x4202 JUMP JUMPDEST PUSH2 0x4A05 PUSH1 0x20 DUP4 ADD DUP10 PUSH2 0x4211 JUMP JUMPDEST PUSH2 0x4A12 PUSH1 0x40 DUP4 ADD DUP9 PUSH2 0x4202 JUMP JUMPDEST PUSH2 0x4A1F PUSH1 0x60 DUP4 ADD DUP8 PUSH2 0x413B JUMP JUMPDEST PUSH2 0x4A2C PUSH1 0x80 DUP4 ADD DUP7 PUSH2 0x422C JUMP JUMPDEST PUSH2 0x4A39 PUSH1 0xA0 DUP4 ADD DUP6 PUSH2 0x413B JUMP JUMPDEST PUSH2 0x4A46 PUSH1 0xC0 DUP4 ADD DUP5 PUSH2 0x449A JUMP JUMPDEST SWAP9 SWAP8 POP POP POP POP POP POP POP POP JUMP JUMPDEST PUSH0 PUSH0 PUSH0 PUSH0 PUSH1 0x80 DUP6 DUP8 SUB SLT ISZERO PUSH2 0x4A6A JUMPI PUSH2 0x4A69 PUSH2 0x416C JUMP JUMPDEST JUMPDEST PUSH0 PUSH2 0x4A77 DUP8 DUP3 DUP9 ADD PUSH2 0x437F JUMP JUMPDEST SWAP5 POP POP PUSH1 0x20 PUSH2 0x4A88 DUP8 DUP3 DUP9 ADD PUSH2 0x4193 JUMP JUMPDEST SWAP4 POP POP PUSH1 0x40 PUSH2 0x4A99 DUP8 DUP3 DUP9 ADD PUSH2 0x47C4 JUMP JUMPDEST SWAP3 POP POP PUSH1 0x60 DUP6 ADD CALLDATALOAD PUSH8 0xFFFFFFFFFFFFFFFF DUP2 GT ISZERO PUSH2 0x4ABA JUMPI PUSH2 0x4AB9 PUSH2 0x4170 JUMP JUMPDEST JUMPDEST PUSH2 0x4AC6 DUP8 DUP3 DUP9 ADD PUSH2 0x48E7 JUMP JUMPDEST SWAP2 POP POP SWAP3 SWAP6 SWAP2 SWAP5 POP SWAP3 POP JUMP JUMPDEST PUSH0 DUP2 MLOAD SWAP1 POP SWAP2 SWAP1 POP JUMP JUMPDEST PUSH0 DUP3 DUP3 MSTORE PUSH1 0x20 DUP3 ADD SWAP1 POP SWAP3 SWAP2 POP POP JUMP JUMPDEST PUSH0 DUP2 SWAP1 POP PUSH1 0x20 DUP3 ADD SWAP1 POP SWAP2 SWAP1 POP JUMP JUMPDEST PUSH2 0x120 DUP3 ADD PUSH0 DUP3 ADD MLOAD PUSH2 0x4B10 PUSH0 DUP6 ADD DUP3 PUSH2 0x4516 JUMP JUMPDEST POP PUSH1 0x20 DUP3 ADD MLOAD PUSH2 0x4B23 PUSH1 0x20 DUP6 ADD DUP3 PUSH2 0x4525 JUMP JUMPDEST POP PUSH1 0x40 DUP3 ADD MLOAD PUSH2 0x4B36 PUSH1 0x40 DUP6 ADD DUP3 PUSH2 0x4516 JUMP JUMPDEST POP PUSH1 0x60 DUP3 ADD MLOAD PUSH2 0x4B49 PUSH1 0x60 DUP6 ADD DUP3 PUSH2 0x43EE JUMP JUMPDEST POP PUSH1 0x80 DUP3 ADD MLOAD PUSH2 0x4B5C PUSH1 0x80 DUP6 ADD DUP3 PUSH2 0x4516 JUMP JUMPDEST POP PUSH1 0xA0 DUP3 ADD MLOAD PUSH2 0x4B6F PUSH1 0xA0 DUP6 ADD DUP3 PUSH2 0x4516 JUMP JUMPDEST POP PUSH1 0xC0 DUP3 ADD MLOAD PUSH2 0x4B82 PUSH1 0xC0 DUP6 ADD DUP3 PUSH2 0x4516 JUMP JUMPDEST POP PUSH1 0xE0 DUP3 ADD MLOAD PUSH2 0x4B95 PUSH1 0xE0 DUP6 ADD DUP3 PUSH2 0x4534 JUMP JUMPDEST POP PUSH2 0x100 DUP3 ADD MLOAD PUSH2 0x4BAA PUSH2 0x100 DUP6 ADD DUP3 PUSH2 0x43EE JUMP JUMPDEST POP POP POP POP JUMP JUMPDEST PUSH0 PUSH2 0x4BBB DUP4 DUP4 PUSH2 0x4AFB JUMP JUMPDEST PUSH2 0x120 DUP4 ADD SWAP1 POP SWAP3 SWAP2 POP POP JUMP JUMPDEST PUSH0 PUSH1 0x20 DUP3 ADD SWAP1 POP SWAP2 SWAP1 POP JUMP JUMPDEST PUSH0 PUSH2 0x4BDE DUP3 PUSH2 0x4AD2 JUMP JUMPDEST PUSH2 0x4BE8 DUP2 DUP6 PUSH2 0x4ADC JUMP JUMPDEST SWAP4 POP PUSH2 0x4BF3 DUP4 PUSH2 0x4AEC JUMP JUMPDEST DUP1 PUSH0 JUMPDEST DUP4 DUP2 LT ISZERO PUSH2 0x4C23 JUMPI DUP2 MLOAD PUSH2 0x4C0A DUP9 DUP3 PUSH2 0x4BB0 JUMP JUMPDEST SWAP8 POP PUSH2 0x4C15 DUP4 PUSH2 0x4BC8 JUMP JUMPDEST SWAP3 POP POP PUSH1 0x1 DUP2 ADD SWAP1 POP PUSH2 0x4BF6 JUMP JUMPDEST POP DUP6 SWAP4 POP POP POP POP SWAP3 SWAP2 POP POP JUMP JUMPDEST PUSH0 PUSH1 0x40 DUP3 ADD SWAP1 POP DUP2 DUP2 SUB PUSH0 DUP4 ADD MSTORE PUSH2 0x4C48 DUP2 DUP6 PUSH2 0x4BD4 JUMP JUMPDEST SWAP1 POP PUSH2 0x4C57 PUSH1 0x20 DUP4 ADD DUP5 PUSH2 0x413B JUMP JUMPDEST SWAP4 SWAP3 POP POP POP JUMP JUMPDEST PUSH0 PUSH0 PUSH0 PUSH0 PUSH0 PUSH1 0xA0 DUP7 DUP9 SUB SLT ISZERO PUSH2 0x4C77 JUMPI PUSH2 0x4C76 PUSH2 0x416C JUMP JUMPDEST JUMPDEST PUSH0 PUSH2 0x4C84 DUP9 DUP3 DUP10 ADD PUSH2 0x437F JUMP JUMPDEST SWAP6 POP POP PUSH1 0x20 PUSH2 0x4C95 DUP9 DUP3 DUP10 ADD PUSH2 0x4193 JUMP JUMPDEST SWAP5 POP POP PUSH1 0x40 PUSH2 0x4CA6 DUP9 DUP3 DUP10 ADD PUSH2 0x437F JUMP JUMPDEST SWAP4 POP POP PUSH1 0x60 PUSH2 0x4CB7 DUP9 DUP3 DUP10 ADD PUSH2 0x47C4 JUMP JUMPDEST SWAP3 POP POP PUSH1 0x80 DUP7 ADD CALLDATALOAD PUSH8 0xFFFFFFFFFFFFFFFF DUP2 GT ISZERO PUSH2 0x4CD8 JUMPI PUSH2 0x4CD7 PUSH2 0x4170 JUMP JUMPDEST JUMPDEST PUSH2 0x4CE4 DUP9 DUP3 DUP10 ADD PUSH2 0x48E7 JUMP JUMPDEST SWAP2 POP POP SWAP3 SWAP6 POP SWAP3 SWAP6 SWAP1 SWAP4 POP JUMP JUMPDEST PUSH0 PUSH1 0x20 DUP3 ADD SWAP1 POP PUSH2 0x4D04 PUSH0 DUP4 ADD DUP5 PUSH2 0x422C JUMP JUMPDEST SWAP3 SWAP2 POP POP JUMP JUMPDEST PUSH0 PUSH1 0xA0 DUP3 ADD SWAP1 POP PUSH2 0x4D1D PUSH0 DUP4 ADD DUP9 PUSH2 0x4202 JUMP JUMPDEST PUSH2 0x4D2A PUSH1 0x20 DUP4 ADD DUP8 PUSH2 0x413B JUMP JUMPDEST PUSH2 0x4D37 PUSH1 0x40 DUP4 ADD DUP7 PUSH2 0x422C JUMP JUMPDEST PUSH2 0x4D44 PUSH1 0x60 DUP4 ADD DUP6 PUSH2 0x413B JUMP JUMPDEST PUSH2 0x4D51 PUSH1 0x80 DUP4 ADD DUP5 PUSH2 0x449A JUMP JUMPDEST SWAP7 SWAP6 POP POP POP POP POP POP JUMP JUMPDEST PUSH0 DUP2 SWAP1 POP SWAP3 SWAP2 POP POP JUMP JUMPDEST POP JUMP JUMPDEST PUSH0 PUSH2 0x4D73 PUSH0 DUP4 PUSH2 0x4D5B JUMP JUMPDEST SWAP2 POP PUSH2 0x4D7E DUP3 PUSH2 0x4D65 JUMP JUMPDEST PUSH0 DUP3 ADD SWAP1 POP SWAP2 SWAP1 POP JUMP JUMPDEST PUSH0 PUSH2 0x4D92 DUP3 PUSH2 0x4D68 JUMP JUMPDEST SWAP2 POP DUP2 SWAP1 POP SWAP2 SWAP1 POP JUMP JUMPDEST PUSH0 DUP3 DUP3 MSTORE PUSH1 0x20 DUP3 ADD SWAP1 POP SWAP3 SWAP2 POP POP JUMP JUMPDEST PUSH32 0x4661696C656420746F2073656E64204574686572000000000000000000000000 PUSH0 DUP3 ADD MSTORE POP JUMP JUMPDEST PUSH0 PUSH2 0x4DE0 PUSH1 0x14 DUP4 PUSH2 0x4D9C JUMP JUMPDEST SWAP2 POP PUSH2 0x4DEB DUP3 PUSH2 0x4DAC JUMP JUMPDEST PUSH1 0x20 DUP3 ADD SWAP1 POP SWAP2 SWAP1 POP JUMP JUMPDEST PUSH0 PUSH1 0x20 DUP3 ADD SWAP1 POP DUP2 DUP2 SUB PUSH0 DUP4 ADD MSTORE PUSH2 0x4E0D DUP2 PUSH2 0x4DD4 JUMP JUMPDEST SWAP1 POP SWAP2 SWAP1 POP JUMP JUMPDEST PUSH32 0x4E487B7100000000000000000000000000000000000000000000000000000000 PUSH0 MSTORE PUSH1 0x11 PUSH1 0x4 MSTORE PUSH1 0x24 PUSH0 REVERT JUMPDEST PUSH0 PUSH2 0x4E4B DUP3 PUSH2 0x4220 JUMP JUMPDEST SWAP2 POP PUSH2 0x4E56 DUP4 PUSH2 0x4220 JUMP JUMPDEST SWAP3 POP DUP3 DUP3 SUB SWAP1 POP PUSH1 0xFF DUP2 GT ISZERO PUSH2 0x4E6F JUMPI PUSH2 0x4E6E PUSH2 0x4E14 JUMP JUMPDEST JUMPDEST SWAP3 SWAP2 POP POP JUMP JUMPDEST PUSH0 PUSH1 0x20 DUP3 ADD SWAP1 POP PUSH2 0x4E88 PUSH0 DUP4 ADD DUP5 PUSH2 0x4211 JUMP JUMPDEST SWAP3 SWAP2 POP POP JUMP JUMPDEST PUSH0 DUP2 MLOAD SWAP1 POP PUSH2 0x4E9C DUP2 PUSH2 0x4369 JUMP JUMPDEST SWAP3 SWAP2 POP POP JUMP JUMPDEST PUSH0 PUSH1 0x20 DUP3 DUP5 SUB SLT ISZERO PUSH2 0x4EB7 JUMPI PUSH2 0x4EB6 PUSH2 0x416C JUMP JUMPDEST JUMPDEST PUSH0 PUSH2 0x4EC4 DUP5 DUP3 DUP6 ADD PUSH2 0x4E8E JUMP JUMPDEST SWAP2 POP POP SWAP3 SWAP2 POP POP JUMP JUMPDEST PUSH0 PUSH1 0x40 DUP3 ADD SWAP1 POP PUSH2 0x4EE0 PUSH0 DUP4 ADD DUP6 PUSH2 0x4202 JUMP JUMPDEST PUSH2 0x4EED PUSH1 0x20 DUP4 ADD DUP5 PUSH2 0x4211 JUMP JUMPDEST SWAP4 SWAP3 POP POP POP JUMP JUMPDEST PUSH0 DUP2 MLOAD SWAP1 POP PUSH2 0x4F02 DUP2 PUSH2 0x47AE JUMP JUMPDEST SWAP3 SWAP2 POP POP JUMP JUMPDEST PUSH0 PUSH1 0x20 DUP3 DUP5 SUB SLT ISZERO PUSH2 0x4F1D JUMPI PUSH2 0x4F1C PUSH2 0x416C JUMP JUMPDEST JUMPDEST PUSH0 PUSH2 0x4F2A DUP5 DUP3 DUP6 ADD PUSH2 0x4EF4 JUMP JUMPDEST SWAP2 POP POP SWAP3 SWAP2 POP POP JUMP JUMPDEST PUSH32 0x526566657272616C20666565206D757374206265206C6F776572207468616E20 PUSH0 DUP3 ADD MSTORE PUSH32 0x706C6174666F726D206665650000000000000000000000000000000000000000 PUSH1 0x20 DUP3 ADD MSTORE POP JUMP JUMPDEST PUSH0 PUSH2 0x4F8D PUSH1 0x2C DUP4 PUSH2 0x4D9C JUMP JUMPDEST SWAP2 POP PUSH2 0x4F98 DUP3 PUSH2 0x4F33 JUMP JUMPDEST PUSH1 0x40 DUP3 ADD SWAP1 POP SWAP2 SWAP1 POP JUMP JUMPDEST PUSH0 PUSH1 0x20 DUP3 ADD SWAP1 POP DUP2 DUP2 SUB PUSH0 DUP4 ADD MSTORE PUSH2 0x4FBA DUP2 PUSH2 0x4F81 JUMP JUMPDEST SWAP1 POP SWAP2 SWAP1 POP JUMP JUMPDEST PUSH0 PUSH1 0x80 DUP3 ADD SWAP1 POP PUSH2 0x4FD4 PUSH0 DUP4 ADD DUP8 PUSH2 0x4202 JUMP JUMPDEST PUSH2 0x4FE1 PUSH1 0x20 DUP4 ADD DUP7 PUSH2 0x413B JUMP JUMPDEST PUSH2 0x4FEE PUSH1 0x40 DUP4 ADD DUP6 PUSH2 0x413B JUMP JUMPDEST PUSH2 0x4FFB PUSH1 0x60 DUP4 ADD DUP5 PUSH2 0x449A JUMP JUMPDEST SWAP6 SWAP5 POP POP POP POP POP JUMP JUMPDEST PUSH32 0x4E487B7100000000000000000000000000000000000000000000000000000000 PUSH0 MSTORE PUSH1 0x1 PUSH1 0x4 MSTORE PUSH1 0x24 PUSH0 REVERT JUMPDEST PUSH0 DUP2 SWAP1 POP SWAP2 SWAP1 POP JUMP JUMPDEST PUSH0 PUSH2 0x5054 PUSH2 0x504F PUSH2 0x504A DUP5 PUSH2 0x4220 JUMP JUMPDEST PUSH2 0x5031 JUMP JUMPDEST PUSH2 0x4132 JUMP JUMPDEST SWAP1 POP SWAP2 SWAP1 POP JUMP JUMPDEST PUSH2 0x5064 DUP2 PUSH2 0x503A JUMP JUMPDEST DUP3 MSTORE POP POP JUMP JUMPDEST PUSH0 PUSH1 0x20 DUP3 ADD SWAP1 POP PUSH2 0x507D PUSH0 DUP4 ADD DUP5 PUSH2 0x505B JUMP JUMPDEST SWAP3 SWAP2 POP POP JUMP JUMPDEST PUSH0 PUSH2 0x508D DUP3 PUSH2 0x4132 JUMP JUMPDEST SWAP2 POP PUSH2 0x5098 DUP4 PUSH2 0x4132 JUMP JUMPDEST SWAP3 POP DUP3 DUP3 MUL PUSH2 0x50A6 DUP2 PUSH2 0x4132 JUMP JUMPDEST SWAP2 POP DUP3 DUP3 DIV DUP5 EQ DUP4 ISZERO OR PUSH2 0x50BD JUMPI PUSH2 0x50BC PUSH2 0x4E14 JUMP JUMPDEST JUMPDEST POP SWAP3 SWAP2 POP POP JUMP JUMPDEST PUSH32 0x4E487B7100000000000000000000000000000000000000000000000000000000 PUSH0 MSTORE PUSH1 0x12 PUSH1 0x4 MSTORE PUSH1 0x24 PUSH0 REVERT JUMPDEST PUSH0 PUSH2 0x50FB DUP3 PUSH2 0x4132 JUMP JUMPDEST SWAP2 POP PUSH2 0x5106 DUP4 PUSH2 0x4132 JUMP JUMPDEST SWAP3 POP DUP3 PUSH2 0x5116 JUMPI PUSH2 0x5115 PUSH2 0x50C4 JUMP JUMPDEST JUMPDEST DUP3 DUP3 DIV SWAP1 POP SWAP3 SWAP2 POP POP JUMP JUMPDEST PUSH32 0x54686520656E746572656420746F6B656E4964206973206E6F74206C69737465 PUSH0 DUP3 ADD MSTORE PUSH32 0x642E000000000000000000000000000000000000000000000000000000000000 PUSH1 0x20 DUP3 ADD MSTORE POP JUMP JUMPDEST PUSH0 PUSH2 0x517B PUSH1 0x22 DUP4 PUSH2 0x4D9C JUMP JUMPDEST SWAP2 POP PUSH2 0x5186 DUP3 PUSH2 0x5121 JUMP JUMPDEST PUSH1 0x40 DUP3 ADD SWAP1 POP SWAP2 SWAP1 POP JUMP JUMPDEST PUSH0 PUSH1 0x20 DUP3 ADD SWAP1 POP DUP2 DUP2 SUB PUSH0 DUP4 ADD MSTORE PUSH2 0x51A8 DUP2 PUSH2 0x516F JUMP JUMPDEST SWAP1 POP SWAP2 SWAP1 POP JUMP JUMPDEST PUSH0 DUP2 SWAP1 POP SWAP2 SWAP1 POP JUMP JUMPDEST PUSH0 PUSH2 0x51D2 PUSH2 0x51CD PUSH2 0x51C8 DUP5 PUSH2 0x51AF JUMP JUMPDEST PUSH2 0x5031 JUMP JUMPDEST PUSH2 0x4132 JUMP JUMPDEST SWAP1 POP SWAP2 SWAP1 POP JUMP JUMPDEST PUSH2 0x51E2 DUP2 PUSH2 0x51B8 JUMP JUMPDEST DUP3 MSTORE POP POP JUMP JUMPDEST PUSH0 PUSH1 0x80 DUP3 ADD SWAP1 POP PUSH2 0x51FB PUSH0 DUP4 ADD DUP8 PUSH2 0x4202 JUMP JUMPDEST PUSH2 0x5208 PUSH1 0x20 DUP4 ADD DUP7 PUSH2 0x51D9 JUMP JUMPDEST PUSH2 0x5215 PUSH1 0x40 DUP4 ADD DUP6 PUSH2 0x413B JUMP JUMPDEST PUSH2 0x5222 PUSH1 0x60 DUP4 ADD DUP5 PUSH2 0x449A JUMP JUMPDEST SWAP6 SWAP5 POP POP POP POP POP JUMP JUMPDEST PUSH0 PUSH2 0x5235 DUP3 PUSH2 0x4132 JUMP JUMPDEST SWAP2 POP PUSH2 0x5240 DUP4 PUSH2 0x4132 JUMP JUMPDEST SWAP3 POP DUP3 DUP3 SUB SWAP1 POP DUP2 DUP2 GT ISZERO PUSH2 0x5258 JUMPI PUSH2 0x5257 PUSH2 0x4E14 JUMP JUMPDEST JUMPDEST SWAP3 SWAP2 POP POP JUMP JUMPDEST PUSH32 0x4E487B7100000000000000000000000000000000000000000000000000000000 PUSH0 MSTORE PUSH1 0x32 PUSH1 0x4 MSTORE PUSH1 0x24 PUSH0 REVERT JUMPDEST PUSH0 PUSH2 0x5295 DUP3 PUSH2 0x4132 JUMP JUMPDEST SWAP2 POP PUSH2 0x52A0 DUP4 PUSH2 0x4132 JUMP JUMPDEST SWAP3 POP DUP3 DUP3 ADD SWAP1 POP DUP1 DUP3 GT ISZERO PUSH2 0x52B8 JUMPI PUSH2 0x52B7 PUSH2 0x4E14 JUMP JUMPDEST JUMPDEST SWAP3 SWAP2 POP POP JUMP JUMPDEST PUSH32 0x4E487B7100000000000000000000000000000000000000000000000000000000 PUSH0 MSTORE PUSH1 0x31 PUSH1 0x4 MSTORE PUSH1 0x24 PUSH0 REVERT JUMPDEST PUSH0 DUP2 MLOAD SWAP1 POP SWAP2 SWAP1 POP JUMP JUMPDEST PUSH0 DUP3 DUP3 MSTORE PUSH1 0x20 DUP3 ADD SWAP1 POP SWAP3 SWAP2 POP POP JUMP JUMPDEST DUP3 DUP2 DUP4 MCOPY PUSH0 DUP4 DUP4 ADD MSTORE POP POP POP JUMP JUMPDEST PUSH0 PUSH2 0x531D DUP3 PUSH2 0x52EB JUMP JUMPDEST PUSH2 0x5327 DUP2 DUP6 PUSH2 0x52F5 JUMP JUMPDEST SWAP4 POP PUSH2 0x5337 DUP2 DUP6 PUSH1 0x20 DUP7 ADD PUSH2 0x5305 JUMP JUMPDEST PUSH2 0x5340 DUP2 PUSH2 0x47E0 JUMP JUMPDEST DUP5 ADD SWAP2 POP POP SWAP3 SWAP2 POP POP JUMP JUMPDEST PUSH0 PUSH1 0xA0 DUP3 ADD SWAP1 POP PUSH2 0x535E PUSH0 DUP4 ADD DUP9 PUSH2 0x4202 JUMP JUMPDEST PUSH2 0x536B PUSH1 0x20 DUP4 ADD DUP8 PUSH2 0x4202 JUMP JUMPDEST PUSH2 0x5378 PUSH1 0x40 DUP4 ADD DUP7 PUSH2 0x413B JUMP JUMPDEST PUSH2 0x5385 PUSH1 0x60 DUP4 ADD DUP6 PUSH2 0x449A JUMP JUMPDEST DUP2 DUP2 SUB PUSH1 0x80 DUP4 ADD MSTORE PUSH2 0x5397 DUP2 DUP5 PUSH2 0x5313 JUMP JUMPDEST SWAP1 POP SWAP7 SWAP6 POP POP POP POP POP POP JUMP JUMPDEST PUSH0 PUSH1 0xA0 DUP3 ADD SWAP1 POP PUSH2 0x53B6 PUSH0 DUP4 ADD DUP9 PUSH2 0x4202 JUMP JUMPDEST PUSH2 0x53C3 PUSH1 0x20 DUP4 ADD DUP8 PUSH2 0x4202 JUMP JUMPDEST PUSH2 0x53D0 PUSH1 0x40 DUP4 ADD DUP7 PUSH2 0x4211 JUMP JUMPDEST PUSH2 0x53DD PUSH1 0x60 DUP4 ADD DUP6 PUSH2 0x449A JUMP JUMPDEST DUP2 DUP2 SUB PUSH1 0x80 DUP4 ADD MSTORE PUSH2 0x53EF DUP2 DUP5 PUSH2 0x5313 JUMP JUMPDEST SWAP1 POP SWAP7 SWAP6 POP POP POP POP POP POP JUMP JUMPDEST PUSH32 0x54686520656E746572656420746F6B656E4964206973206E6F74206C69737465 PUSH0 DUP3 ADD MSTORE PUSH32 0x642E6275792E0000000000000000000000000000000000000000000000000000 PUSH1 0x20 DUP3 ADD MSTORE POP JUMP JUMPDEST PUSH0 PUSH2 0x5455 PUSH1 0x26 DUP4 PUSH2 0x4D9C JUMP JUMPDEST SWAP2 POP PUSH2 0x5460 DUP3 PUSH2 0x53FB JUMP JUMPDEST PUSH1 0x40 DUP3 ADD SWAP1 POP SWAP2 SWAP1 POP JUMP JUMPDEST PUSH0 PUSH1 0x20 DUP3 ADD SWAP1 POP DUP2 DUP2 SUB PUSH0 DUP4 ADD MSTORE PUSH2 0x5482 DUP2 PUSH2 0x5449 JUMP JUMPDEST SWAP1 POP SWAP2 SWAP1 POP JUMP JUMPDEST PUSH32 0x4F776E65722063616E2774206275792100000000000000000000000000000000 PUSH0 DUP3 ADD MSTORE POP JUMP JUMPDEST PUSH0 PUSH2 0x54BD PUSH1 0x10 DUP4 PUSH2 0x4D9C JUMP JUMPDEST SWAP2 POP PUSH2 0x54C8 DUP3 PUSH2 0x5489 JUMP JUMPDEST PUSH1 0x20 DUP3 ADD SWAP1 POP SWAP2 SWAP1 POP JUMP JUMPDEST PUSH0 PUSH1 0x20 DUP3 ADD SWAP1 POP DUP2 DUP2 SUB PUSH0 DUP4 ADD MSTORE PUSH2 0x54EA DUP2 PUSH2 0x54B1 JUMP JUMPDEST SWAP1 POP SWAP2 SWAP1 POP JUMP JUMPDEST PUSH0 PUSH1 0x40 DUP3 ADD SWAP1 POP PUSH2 0x5504 PUSH0 DUP4 ADD DUP6 PUSH2 0x4202 JUMP JUMPDEST PUSH2 0x5511 PUSH1 0x20 DUP4 ADD DUP5 PUSH2 0x4202 JUMP JUMPDEST SWAP4 SWAP3 POP POP POP JUMP JUMPDEST PUSH0 DUP2 MLOAD SWAP1 POP PUSH2 0x5526 DUP2 PUSH2 0x4301 JUMP JUMPDEST SWAP3 SWAP2 POP POP JUMP JUMPDEST PUSH0 PUSH1 0x20 DUP3 DUP5 SUB SLT ISZERO PUSH2 0x5541 JUMPI PUSH2 0x5540 PUSH2 0x416C JUMP JUMPDEST JUMPDEST PUSH0 PUSH2 0x554E DUP5 DUP3 DUP6 ADD PUSH2 0x5518 JUMP JUMPDEST SWAP2 POP POP SWAP3 SWAP2 POP POP JUMP JUMPDEST PUSH0 PUSH1 0x40 DUP3 ADD SWAP1 POP PUSH2 0x556A PUSH0 DUP4 ADD DUP6 PUSH2 0x413B JUMP JUMPDEST PUSH2 0x5577 PUSH1 0x20 DUP4 ADD DUP5 PUSH2 0x413B JUMP JUMPDEST SWAP4 SWAP3 POP POP POP JUMP JUMPDEST PUSH0 PUSH1 0xC0 DUP3 ADD SWAP1 POP PUSH2 0x5591 PUSH0 DUP4 ADD DUP10 PUSH2 0x4202 JUMP JUMPDEST PUSH2 0x559E PUSH1 0x20 DUP4 ADD DUP9 PUSH2 0x413B JUMP JUMPDEST PUSH2 0x55AB PUSH1 0x40 DUP4 ADD DUP8 PUSH2 0x4202 JUMP JUMPDEST PUSH2 0x55B8 PUSH1 0x60 DUP4 ADD DUP7 PUSH2 0x4202 JUMP JUMPDEST PUSH2 0x55C5 PUSH1 0x80 DUP4 ADD DUP6 PUSH2 0x422C JUMP JUMPDEST PUSH2 0x55D2 PUSH1 0xA0 DUP4 ADD DUP5 PUSH2 0x413B JUMP JUMPDEST SWAP8 SWAP7 POP POP POP POP POP POP POP JUMP INVALID LOG2 PUSH5 0x6970667358 0x22 SLT KECCAK256 SWAP5 ISZERO 0xBC PUSH1 0xD9 0xD4 PC PUSH4 0x5AB20CCD JUMP LT KECCAK256 0xB7 CODESIZE 0xF6 DUP15 SLT TSTORE MSTORE8 SHL SLT 0x1F EXP 0xDE CODECOPY PREVRANDAO 0xB1 PUSH32 0xE764736F6C634300081C00330000000000000000000000000000000000000000 "
		},
		"gasEstimates": {
			"creation": {
				"codeDepositCost": "4407000",
				"executionCost": "infinite",
				"totalCost": "infinite"
			},
			"external": {
				"_tradeCounter()": "2549",
				"buy(address,bytes32,address,bool,bytes)": "infinite",
				"calcFee(address,bytes32)": "infinite",
				"calcPercentage(uint256,uint256)": "infinite",
				"cancelListing(address,bytes32)": "infinite",
				"fee()": "2532",
				"getBalance()": "infinite",
				"getListedTokens(address)": "infinite",
				"getTradePool(address,bytes32)": "infinite",
				"isListed(address,bytes32)": "3190",
				"list(address,bytes32,address,uint256,uint8)": "infinite",
				"listingPool(address,bytes32)": "infinite",
				"owner()": "2537",
				"pause()": "infinite",
				"paused()": "2569",
				"renounceOwnership()": "infinite",
				"tradePool(bytes32)": "infinite",
				"transferBalance(address,uint256)": "infinite",
				"transferOwnership(address)": "infinite",
				"transferToken(address,bytes32,bool,bytes)": "infinite",
				"unpause()": "infinite",
				"update(address,bytes32,address,uint256,uint8)": "infinite",
				"updateFee(uint8)": "infinite",
				"userListingPool(address,uint256)": "infinite",
				"withdraw()": "infinite",
				"withdrawToken(address,address,uint256,bool,bytes)": "infinite"
			}
		},
		"methodIdentifiers": {
			"_tradeCounter()": "863c0557",
			"buy(address,bytes32,address,bool,bytes)": "da4f4dfa",
			"calcFee(address,bytes32)": "599a4522",
			"calcPercentage(uint256,uint256)": "a37b06d4",
			"cancelListing(address,bytes32)": "a452de6e",
			"fee()": "ddca3f43",
			"getBalance()": "12065fe0",
			"getListedTokens(address)": "723eb273",
			"getTradePool(address,bytes32)": "cd1220b2",
			"isListed(address,bytes32)": "682bf593",
			"list(address,bytes32,address,uint256,uint8)": "7c4740b8",
			"listingPool(address,bytes32)": "ed191b04",
			"owner()": "8da5cb5b",
			"pause()": "8456cb59",
			"paused()": "5c975abb",
			"renounceOwnership()": "715018a6",
			"tradePool(bytes32)": "437315b4",
			"transferBalance(address,uint256)": "56a6d9ef",
			"transferOwnership(address)": "f2fde38b",
			"transferToken(address,bytes32,bool,bytes)": "beb7a147",
			"unpause()": "3f4ba83a",
			"update(address,bytes32,address,uint256,uint8)": "ba35cacd",
			"updateFee(uint8)": "949c09b8",
			"userListingPool(address,uint256)": "a982b1f9",
			"withdraw()": "3ccfd60b",
			"withdrawToken(address,address,uint256,bool,bytes)": "a4d26582"
		}
	},
	"abi": [
		{
			"inputs": [],
			"stateMutability": "nonpayable",
			"type": "constructor"
		},
		{
			"inputs": [],
			"name": "EnforcedPause",
			"type": "error"
		},
		{
			"inputs": [],
			"name": "ExpectedPause",
			"type": "error"
		},
		{
			"inputs": [
				{
					"internalType": "uint256",
					"name": "",
					"type": "uint256"
				}
			],
			"name": "InsufficientBalance",
			"type": "error"
		},
		{
			"inputs": [
				{
					"internalType": "uint256",
					"name": "totalAmount",
					"type": "uint256"
				},
				{
					"internalType": "uint256",
					"name": "authorizedAmount",
					"type": "uint256"
				}
			],
			"name": "NotAuthorizedAmount",
			"type": "error"
		},
		{
			"inputs": [
				{
					"internalType": "address",
					"name": "operator",
					"type": "address"
				}
			],
			"name": "NotOperator",
			"type": "error"
		},
		{
			"inputs": [
				{
					"internalType": "address",
					"name": "owner",
					"type": "address"
				}
			],
			"name": "OwnableInvalidOwner",
			"type": "error"
		},
		{
			"inputs": [
				{
					"internalType": "address",
					"name": "account",
					"type": "address"
				}
			],
			"name": "OwnableUnauthorizedAccount",
			"type": "error"
		},
		{
			"inputs": [],
			"name": "Unauthorized",
			"type": "error"
		},
		{
			"anonymous": false,
			"inputs": [
				{
					"indexed": true,
					"internalType": "address",
					"name": "_collection",
					"type": "address"
				},
				{
					"indexed": true,
					"internalType": "bytes32",
					"name": "tokenId",
					"type": "bytes32"
				},
				{
					"indexed": false,
					"internalType": "address",
					"name": "token",
					"type": "address"
				},
				{
					"indexed": false,
					"internalType": "uint256",
					"name": "price",
					"type": "uint256"
				},
				{
					"indexed": true,
					"internalType": "address",
					"name": "sender",
					"type": "address"
				},
				{
					"indexed": false,
					"internalType": "uint256",
					"name": "dt",
					"type": "uint256"
				},
				{
					"indexed": false,
					"internalType": "bool",
					"name": "status",
					"type": "bool"
				}
			],
			"name": "CancelListing",
			"type": "event"
		},
		{
			"anonymous": false,
			"inputs": [
				{
					"indexed": false,
					"internalType": "uint256",
					"name": "",
					"type": "uint256"
				}
			],
			"name": "FeeUpdated",
			"type": "event"
		},
		{
			"anonymous": false,
			"inputs": [
				{
					"indexed": true,
					"internalType": "address",
					"name": "_collection",
					"type": "address"
				},
				{
					"indexed": true,
					"internalType": "bytes32",
					"name": "tokenId",
					"type": "bytes32"
				},
				{
					"indexed": false,
					"internalType": "address",
					"name": "token",
					"type": "address"
				},
				{
					"indexed": false,
					"internalType": "uint256",
					"name": "price",
					"type": "uint256"
				},
				{
					"indexed": true,
					"internalType": "address",
					"name": "sender",
					"type": "address"
				},
				{
					"indexed": false,
					"internalType": "uint256",
					"name": "dt",
					"type": "uint256"
				},
				{
					"indexed": false,
					"internalType": "bool",
					"name": "status",
					"type": "bool"
				}
			],
			"name": "NewTokenListed",
			"type": "event"
		},
		{
			"anonymous": false,
			"inputs": [
				{
					"indexed": true,
					"internalType": "address",
					"name": "previousOwner",
					"type": "address"
				},
				{
					"indexed": true,
					"internalType": "address",
					"name": "newOwner",
					"type": "address"
				}
			],
			"name": "OwnershipTransferred",
			"type": "event"
		},
		{
			"anonymous": false,
			"inputs": [
				{
					"indexed": false,
					"internalType": "address",
					"name": "account",
					"type": "address"
				}
			],
			"name": "Paused",
			"type": "event"
		},
		{
			"anonymous": false,
			"inputs": [
				{
					"indexed": true,
					"internalType": "address",
					"name": "_collection",
					"type": "address"
				},
				{
					"indexed": true,
					"internalType": "bytes32",
					"name": "_tokenId",
					"type": "bytes32"
				},
				{
					"indexed": false,
					"internalType": "address",
					"name": "token",
					"type": "address"
				},
				{
					"indexed": false,
					"internalType": "uint256",
					"name": "price",
					"type": "uint256"
				},
				{
					"indexed": true,
					"internalType": "address",
					"name": "from",
					"type": "address"
				},
				{
					"indexed": false,
					"internalType": "address",
					"name": "to",
					"type": "address"
				},
				{
					"indexed": false,
					"internalType": "address",
					"name": "referral",
					"type": "address"
				},
				{
					"indexed": false,
					"internalType": "uint8",
					"name": "referralFee",
					"type": "uint8"
				},
				{
					"indexed": false,
					"internalType": "uint256",
					"name": "dt",
					"type": "uint256"
				}
			],
			"name": "SoldOut",
			"type": "event"
		},
		{
			"anonymous": false,
			"inputs": [
				{
					"indexed": false,
					"internalType": "address",
					"name": "account",
					"type": "address"
				}
			],
			"name": "Unpaused",
			"type": "event"
		},
		{
			"inputs": [],
			"name": "_tradeCounter",
			"outputs": [
				{
					"internalType": "uint256",
					"name": "_value",
					"type": "uint256"
				}
			],
			"stateMutability": "view",
			"type": "function"
		},
		{
			"inputs": [
				{
					"internalType": "address",
					"name": "_collection",
					"type": "address"
				},
				{
					"internalType": "bytes32",
					"name": "_tokenId",
					"type": "bytes32"
				},
				{
					"internalType": "address",
					"name": "_referral",
					"type": "address"
				},
				{
					"internalType": "bool",
					"name": "_force",
					"type": "bool"
				},
				{
					"internalType": "bytes",
					"name": "_data",
					"type": "bytes"
				}
			],
			"name": "buy",
			"outputs": [
				{
					"internalType": "bool",
					"name": "",
					"type": "bool"
				}
			],
			"stateMutability": "payable",
			"type": "function"
		},
		{
			"inputs": [
				{
					"internalType": "address",
					"name": "_collection",
					"type": "address"
				},
				{
					"internalType": "bytes32",
					"name": "_tokenId",
					"type": "bytes32"
				}
			],
			"name": "calcFee",
			"outputs": [
				{
					"internalType": "uint256[3]",
					"name": "",
					"type": "uint256[3]"
				}
			],
			"stateMutability": "view",
			"type": "function"
		},
		{
			"inputs": [
				{
					"internalType": "uint256",
					"name": "_amount",
					"type": "uint256"
				},
				{
					"internalType": "uint256",
					"name": "_bps",
					"type": "uint256"
				}
			],
			"name": "calcPercentage",
			"outputs": [
				{
					"internalType": "uint256",
					"name": "",
					"type": "uint256"
				}
			],
			"stateMutability": "pure",
			"type": "function"
		},
		{
			"inputs": [
				{
					"internalType": "address",
					"name": "_collection",
					"type": "address"
				},
				{
					"internalType": "bytes32",
					"name": "_tokenId",
					"type": "bytes32"
				}
			],
			"name": "cancelListing",
			"outputs": [
				{
					"internalType": "bool",
					"name": "",
					"type": "bool"
				}
			],
			"stateMutability": "nonpayable",
			"type": "function"
		},
		{
			"inputs": [],
			"name": "fee",
			"outputs": [
				{
					"internalType": "uint8",
					"name": "",
					"type": "uint8"
				}
			],
			"stateMutability": "view",
			"type": "function"
		},
		{
			"inputs": [],
			"name": "getBalance",
			"outputs": [
				{
					"internalType": "uint256",
					"name": "",
					"type": "uint256"
				}
			],
			"stateMutability": "view",
			"type": "function"
		},
		{
			"inputs": [
				{
					"internalType": "address",
					"name": "_seller",
					"type": "address"
				}
			],
			"name": "getListedTokens",
			"outputs": [
				{
					"internalType": "uint256",
					"name": "len",
					"type": "uint256"
				},
				{
					"components": [
						{
							"internalType": "address",
							"name": "collection",
							"type": "address"
						},
						{
							"internalType": "bytes32",
							"name": "tokenId",
							"type": "bytes32"
						},
						{
							"internalType": "address",
							"name": "token",
							"type": "address"
						},
						{
							"internalType": "uint256",
							"name": "price",
							"type": "uint256"
						},
						{
							"internalType": "uint8",
							"name": "referralFee",
							"type": "uint8"
						},
						{
							"internalType": "uint256",
							"name": "dt",
							"type": "uint256"
						},
						{
							"internalType": "bool",
							"name": "status",
							"type": "bool"
						}
					],
					"internalType": "struct UniTrade.UserListingStruct[]",
					"name": "data",
					"type": "tuple[]"
				}
			],
			"stateMutability": "view",
			"type": "function"
		},
		{
			"inputs": [
				{
					"internalType": "address",
					"name": "_collection",
					"type": "address"
				},
				{
					"internalType": "bytes32",
					"name": "_tokenId",
					"type": "bytes32"
				}
			],
			"name": "getTradePool",
			"outputs": [
				{
					"components": [
						{
							"internalType": "address",
							"name": "collection",
							"type": "address"
						},
						{
							"internalType": "bytes32",
							"name": "tokenId",
							"type": "bytes32"
						},
						{
							"internalType": "address",
							"name": "token",
							"type": "address"
						},
						{
							"internalType": "uint256",
							"name": "price",
							"type": "uint256"
						},
						{
							"internalType": "address",
							"name": "from",
							"type": "address"
						},
						{
							"internalType": "address",
							"name": "to",
							"type": "address"
						},
						{
							"internalType": "address",
							"name": "referral",
							"type": "address"
						},
						{
							"internalType": "uint8",
							"name": "referralFee",
							"type": "uint8"
						},
						{
							"internalType": "uint256",
							"name": "dt",
							"type": "uint256"
						}
					],
					"internalType": "struct UniTrade.TradeStruct[]",
					"name": "",
					"type": "tuple[]"
				},
				{
					"internalType": "uint256",
					"name": "index",
					"type": "uint256"
				}
			],
			"stateMutability": "view",
			"type": "function"
		},
		{
			"inputs": [
				{
					"internalType": "address",
					"name": "_collection",
					"type": "address"
				},
				{
					"internalType": "bytes32",
					"name": "_tokenId",
					"type": "bytes32"
				}
			],
			"name": "isListed",
			"outputs": [
				{
					"internalType": "bool",
					"name": "",
					"type": "bool"
				}
			],
			"stateMutability": "view",
			"type": "function"
		},
		{
			"inputs": [
				{
					"internalType": "address",
					"name": "_collection",
					"type": "address"
				},
				{
					"internalType": "bytes32",
					"name": "_tokenId",
					"type": "bytes32"
				},
				{
					"internalType": "address",
					"name": "_token",
					"type": "address"
				},
				{
					"internalType": "uint256",
					"name": "_price",
					"type": "uint256"
				},
				{
					"internalType": "uint8",
					"name": "_referralFee",
					"type": "uint8"
				}
			],
			"name": "list",
			"outputs": [
				{
					"internalType": "bool",
					"name": "",
					"type": "bool"
				}
			],
			"stateMutability": "nonpayable",
			"type": "function"
		},
		{
			"inputs": [
				{
					"internalType": "address",
					"name": "",
					"type": "address"
				},
				{
					"internalType": "bytes32",
					"name": "",
					"type": "bytes32"
				}
			],
			"name": "listingPool",
			"outputs": [
				{
					"internalType": "address",
					"name": "token",
					"type": "address"
				},
				{
					"internalType": "uint256",
					"name": "price",
					"type": "uint256"
				},
				{
					"internalType": "uint8",
					"name": "referralFee",
					"type": "uint8"
				},
				{
					"internalType": "uint256",
					"name": "dt",
					"type": "uint256"
				},
				{
					"internalType": "bool",
					"name": "status",
					"type": "bool"
				}
			],
			"stateMutability": "view",
			"type": "function"
		},
		{
			"inputs": [],
			"name": "owner",
			"outputs": [
				{
					"internalType": "address",
					"name": "",
					"type": "address"
				}
			],
			"stateMutability": "view",
			"type": "function"
		},
		{
			"inputs": [],
			"name": "pause",
			"outputs": [],
			"stateMutability": "nonpayable",
			"type": "function"
		},
		{
			"inputs": [],
			"name": "paused",
			"outputs": [
				{
					"internalType": "bool",
					"name": "",
					"type": "bool"
				}
			],
			"stateMutability": "view",
			"type": "function"
		},
		{
			"inputs": [],
			"name": "renounceOwnership",
			"outputs": [],
			"stateMutability": "nonpayable",
			"type": "function"
		},
		{
			"inputs": [
				{
					"internalType": "bytes32",
					"name": "",
					"type": "bytes32"
				}
			],
			"name": "tradePool",
			"outputs": [
				{
					"internalType": "address",
					"name": "collection",
					"type": "address"
				},
				{
					"internalType": "bytes32",
					"name": "tokenId",
					"type": "bytes32"
				},
				{
					"internalType": "address",
					"name": "token",
					"type": "address"
				},
				{
					"internalType": "uint256",
					"name": "price",
					"type": "uint256"
				},
				{
					"internalType": "address",
					"name": "from",
					"type": "address"
				},
				{
					"internalType": "address",
					"name": "to",
					"type": "address"
				},
				{
					"internalType": "address",
					"name": "referral",
					"type": "address"
				},
				{
					"internalType": "uint8",
					"name": "referralFee",
					"type": "uint8"
				},
				{
					"internalType": "uint256",
					"name": "dt",
					"type": "uint256"
				}
			],
			"stateMutability": "view",
			"type": "function"
		},
		{
			"inputs": [
				{
					"internalType": "address payable",
					"name": "_to",
					"type": "address"
				},
				{
					"internalType": "uint256",
					"name": "_amount",
					"type": "uint256"
				}
			],
			"name": "transferBalance",
			"outputs": [],
			"stateMutability": "nonpayable",
			"type": "function"
		},
		{
			"inputs": [
				{
					"internalType": "address",
					"name": "newOwner",
					"type": "address"
				}
			],
			"name": "transferOwnership",
			"outputs": [],
			"stateMutability": "nonpayable",
			"type": "function"
		},
		{
			"inputs": [
				{
					"internalType": "address",
					"name": "_collection",
					"type": "address"
				},
				{
					"internalType": "bytes32",
					"name": "_tokenId",
					"type": "bytes32"
				},
				{
					"internalType": "bool",
					"name": "_force",
					"type": "bool"
				},
				{
					"internalType": "bytes",
					"name": "_data",
					"type": "bytes"
				}
			],
			"name": "transferToken",
			"outputs": [
				{
					"internalType": "bool",
					"name": "",
					"type": "bool"
				}
			],
			"stateMutability": "nonpayable",
			"type": "function"
		},
		{
			"inputs": [],
			"name": "unpause",
			"outputs": [],
			"stateMutability": "nonpayable",
			"type": "function"
		},
		{
			"inputs": [
				{
					"internalType": "address",
					"name": "_collection",
					"type": "address"
				},
				{
					"internalType": "bytes32",
					"name": "_tokenId",
					"type": "bytes32"
				},
				{
					"internalType": "address",
					"name": "_token",
					"type": "address"
				},
				{
					"internalType": "uint256",
					"name": "_price",
					"type": "uint256"
				},
				{
					"internalType": "uint8",
					"name": "_referralFee",
					"type": "uint8"
				}
			],
			"name": "update",
			"outputs": [
				{
					"internalType": "bool",
					"name": "",
					"type": "bool"
				}
			],
			"stateMutability": "nonpayable",
			"type": "function"
		},
		{
			"inputs": [
				{
					"internalType": "uint8",
					"name": "_fee",
					"type": "uint8"
				}
			],
			"name": "updateFee",
			"outputs": [],
			"stateMutability": "nonpayable",
			"type": "function"
		},
		{
			"inputs": [
				{
					"internalType": "address",
					"name": "",
					"type": "address"
				},
				{
					"internalType": "uint256",
					"name": "",
					"type": "uint256"
				}
			],
			"name": "userListingPool",
			"outputs": [
				{
					"internalType": "address",
					"name": "collection",
					"type": "address"
				},
				{
					"internalType": "bytes32",
					"name": "tokenId",
					"type": "bytes32"
				},
				{
					"internalType": "address",
					"name": "token",
					"type": "address"
				},
				{
					"internalType": "uint256",
					"name": "price",
					"type": "uint256"
				},
				{
					"internalType": "uint8",
					"name": "referralFee",
					"type": "uint8"
				},
				{
					"internalType": "uint256",
					"name": "dt",
					"type": "uint256"
				},
				{
					"internalType": "bool",
					"name": "status",
					"type": "bool"
				}
			],
			"stateMutability": "view",
			"type": "function"
		},
		{
			"inputs": [],
			"name": "withdraw",
			"outputs": [],
			"stateMutability": "nonpayable",
			"type": "function"
		},
		{
			"inputs": [
				{
					"internalType": "address",
					"name": "_token",
					"type": "address"
				},
				{
					"internalType": "address",
					"name": "_to",
					"type": "address"
				},
				{
					"internalType": "uint256",
					"name": "_amount",
					"type": "uint256"
				},
				{
					"internalType": "bool",
					"name": "_force",
					"type": "bool"
				},
				{
					"internalType": "bytes",
					"name": "_data",
					"type": "bytes"
				}
			],
			"name": "withdrawToken",
			"outputs": [],
			"stateMutability": "nonpayable",
			"type": "function"
		}
	]
}